{
	"contracts/MyContract.sol": {
		"MyContract": {
			"abi": [
				{
					"inputs": [],
					"name": "MyUnit",
					"outputs": [
						{
							"internalType": "uint256",
							"name": "",
							"type": "uint256"
						}
					],
					"stateMutability": "view",
					"type": "function"
				},
				{
					"inputs": [],
					"name": "abc",
					"outputs": [
						{
							"internalType": "int256",
							"name": "",
							"type": "int256"
						}
					],
					"stateMutability": "view",
					"type": "function"
				},
				{
					"inputs": [],
					"name": "abc8",
					"outputs": [
						{
							"internalType": "int8",
							"name": "",
							"type": "int8"
						}
					],
					"stateMutability": "view",
					"type": "function"
				},
				{
					"inputs": [
						{
							"internalType": "string",
							"name": "_value",
							"type": "string"
						}
					],
					"name": "addValue",
					"outputs": [],
					"stateMutability": "nonpayable",
					"type": "function"
				},
				{
					"inputs": [],
					"name": "getValue",
					"outputs": [
						{
							"internalType": "uint256",
							"name": "",
							"type": "uint256"
						}
					],
					"stateMutability": "pure",
					"type": "function"
				},
				{
					"inputs": [],
					"name": "my8bit",
					"outputs": [
						{
							"internalType": "uint8",
							"name": "",
							"type": "uint8"
						}
					],
					"stateMutability": "view",
					"type": "function"
				},
				{
					"inputs": [],
					"name": "myAddress",
					"outputs": [
						{
							"internalType": "address",
							"name": "",
							"type": "address"
						}
					],
					"stateMutability": "view",
					"type": "function"
				},
				{
					"inputs": [],
					"name": "myByteArray",
					"outputs": [
						{
							"internalType": "bytes32",
							"name": "",
							"type": "bytes32"
						}
					],
					"stateMutability": "view",
					"type": "function"
				},
				{
					"inputs": [],
					"name": "myString",
					"outputs": [
						{
							"internalType": "string",
							"name": "",
							"type": "string"
						}
					],
					"stateMutability": "view",
					"type": "function"
				},
				{
					"inputs": [],
					"name": "myStructVariable",
					"outputs": [
						{
							"internalType": "uint256",
							"name": "id",
							"type": "uint256"
						},
						{
							"internalType": "string",
							"name": "mystring",
							"type": "string"
						}
					],
					"stateMutability": "view",
					"type": "function"
				},
				{
					"inputs": [],
					"name": "myUnint256",
					"outputs": [
						{
							"internalType": "uint256",
							"name": "",
							"type": "uint256"
						}
					],
					"stateMutability": "view",
					"type": "function"
				},
				{
					"inputs": [
						{
							"internalType": "uint256",
							"name": "",
							"type": "uint256"
						}
					],
					"name": "stringArray",
					"outputs": [
						{
							"internalType": "string",
							"name": "",
							"type": "string"
						}
					],
					"stateMutability": "view",
					"type": "function"
				},
				{
					"inputs": [
						{
							"internalType": "uint256",
							"name": "",
							"type": "uint256"
						}
					],
					"name": "stringValue",
					"outputs": [
						{
							"internalType": "string",
							"name": "",
							"type": "string"
						}
					],
					"stateMutability": "view",
					"type": "function"
				},
				{
					"inputs": [
						{
							"internalType": "uint256",
							"name": "",
							"type": "uint256"
						}
					],
					"name": "unintArray",
					"outputs": [
						{
							"internalType": "uint256",
							"name": "",
							"type": "uint256"
						}
					],
					"stateMutability": "view",
					"type": "function"
				}
			],
			"devdoc": {
				"kind": "dev",
				"methods": {},
				"version": 1
			},
			"evm": {
				"assembly": "    /* \"contracts/MyContract.sol\":58:1406  contract MyContract{\r... */\n  mstore(0x40, 0x80)\n    /* \"contracts/MyContract.sol\":123:124  1 */\n  0x01\n    /* \"contracts/MyContract.sol\":106:124  int public abc = 1 */\n  0x00\n  sstore\n    /* \"contracts/MyContract.sol\":150:151  1 */\n  0x01\n    /* \"contracts/MyContract.sol\":131:151  int8 public abc8 = 1 */\n  dup1\n  exp(0x0100, 0x00)\n  dup2\n  sload\n  dup2\n  0xff\n  mul\n  not\n  and\n  swap1\n  dup4\n  0x00\n  signextend\n  0xff\n  and\n  mul\n  or\n  swap1\n  sstore\n  pop\n    /* \"contracts/MyContract.sol\":180:181  1 */\n  0x01\n    /* \"contracts/MyContract.sol\":158:181  uint public MyUnit  = 1 */\n  0x02\n  sstore\n    /* \"contracts/MyContract.sol\":304:305  1 */\n  0x01\n    /* \"contracts/MyContract.sol\":275:305  uint256 public myUnint256  = 1 */\n  0x03\n  sstore\n    /* \"contracts/MyContract.sol\":350:351  1 */\n  0x01\n    /* \"contracts/MyContract.sol\":328:351  uint8 public my8bit = 1 */\n  0x04\n  exp(0x0100, 0x00)\n  dup2\n  sload\n  dup2\n  0xff\n  mul\n  not\n  and\n  swap1\n  dup4\n  0xff\n  and\n  mul\n  or\n  swap1\n  sstore\n  pop\n    /* \"contracts/MyContract.sol\":360:409  string public myString = \"My cat looks beautiful\" */\n  mload(0x40)\n  dup1\n  0x40\n  add\n  0x40\n  mstore\n  dup1\n  0x16\n  dup2\n  mstore\n  0x20\n  add\n  0x4d7920636174206c6f6f6b732062656175746966756c00000000000000000000\n  dup2\n  mstore\n  pop\n  0x05\n  swap1\n  dup1\n  mload\n  swap1\n  0x20\n  add\n  swap1\n  tag_1\n  swap3\n  swap2\n  swap1\n  tag_2\n  jump\t// in\ntag_1:\n  pop\n    /* \"contracts/MyContract.sol\":416:469  bytes32 public myByteArray = \"My cat looks beautiful\" */\n  sstore(0x06, 0x4d7920636174206c6f6f6b732062656175746966756c00000000000000000000)\n    /* \"contracts/MyContract.sol\":505:547  0xAb8483F64d9C6d1EcF9b849Ae677dD3315835cb2 */\n  0xab8483f64d9c6d1ecf9b849ae677dd3315835cb2\n    /* \"contracts/MyContract.sol\":478:547  address public myAddress = 0xAb8483F64d9C6d1EcF9b849Ae677dD3315835cb2 */\n  0x07\n  exp(0x0100, 0x00)\n  dup2\n  sload\n  dup2\n  0xffffffffffffffffffffffffffffffffffffffff\n  mul\n  not\n  and\n  swap1\n  dup4\n  0xffffffffffffffffffffffffffffffffffffffff\n  and\n  mul\n  or\n  swap1\n  sstore\n  pop\n    /* \"contracts/MyContract.sol\":796:821  myStruct(1,\"Hello world\") */\n  mload(0x40)\n  dup1\n  0x40\n  add\n  0x40\n  mstore\n  dup1\n    /* \"contracts/MyContract.sol\":805:806  1 */\n  0x01\n    /* \"contracts/MyContract.sol\":796:821  myStruct(1,\"Hello world\") */\n  dup2\n  mstore\n  0x20\n  add\n  mload(0x40)\n  dup1\n  0x40\n  add\n  0x40\n  mstore\n  dup1\n  0x0b\n  dup2\n  mstore\n  0x20\n  add\n  0x48656c6c6f20776f726c64000000000000000000000000000000000000000000\n  dup2\n  mstore\n  pop\n  dup2\n  mstore\n  pop\n    /* \"contracts/MyContract.sol\":761:821  myStruct public myStructVariable = myStruct(1,\"Hello world\") */\n  0x08\n  0x00\n  dup3\n  add\n  mload\n  dup2\n  0x00\n  add\n  sstore\n  0x20\n  dup3\n  add\n  mload\n  dup2\n  0x01\n  add\n  swap1\n  dup1\n  mload\n  swap1\n  0x20\n  add\n  swap1\n  tag_3\n  swap3\n  swap2\n  swap1\n  tag_2\n  jump\t// in\ntag_3:\n  pop\n  pop\n  pop\n    /* \"contracts/MyContract.sol\":844:882  uint[] public unintArray = [1,2,2,2,3] */\n  mload(0x40)\n  dup1\n  0xa0\n  add\n  0x40\n  mstore\n  dup1\n    /* \"contracts/MyContract.sol\":872:873  1 */\n  0x01\n    /* \"contracts/MyContract.sol\":844:882  uint[] public unintArray = [1,2,2,2,3] */\n  0xff\n  and\n  dup2\n  mstore\n  0x20\n  add\n    /* \"contracts/MyContract.sol\":874:875  2 */\n  0x02\n    /* \"contracts/MyContract.sol\":844:882  uint[] public unintArray = [1,2,2,2,3] */\n  0xff\n  and\n  dup2\n  mstore\n  0x20\n  add\n    /* \"contracts/MyContract.sol\":876:877  2 */\n  0x02\n    /* \"contracts/MyContract.sol\":844:882  uint[] public unintArray = [1,2,2,2,3] */\n  0xff\n  and\n  dup2\n  mstore\n  0x20\n  add\n    /* \"contracts/MyContract.sol\":878:879  2 */\n  0x02\n    /* \"contracts/MyContract.sol\":844:882  uint[] public unintArray = [1,2,2,2,3] */\n  0xff\n  and\n  dup2\n  mstore\n  0x20\n  add\n    /* \"contracts/MyContract.sol\":880:881  3 */\n  0x03\n    /* \"contracts/MyContract.sol\":844:882  uint[] public unintArray = [1,2,2,2,3] */\n  0xff\n  and\n  dup2\n  mstore\n  pop\n  0x0a\n  swap1\n  0x05\n  tag_4\n  swap3\n  swap2\n  swap1\n  tag_5\n  jump\t// in\ntag_4:\n  pop\n    /* \"contracts/MyContract.sol\":889:947  string[] public stringArray = [\"apple\",\"baanana\",\"carrot\"] */\n  mload(0x40)\n  dup1\n  0x60\n  add\n  0x40\n  mstore\n  dup1\n  mload(0x40)\n  dup1\n  0x40\n  add\n  0x40\n  mstore\n  dup1\n  0x05\n  dup2\n  mstore\n  0x20\n  add\n  0x6170706c65000000000000000000000000000000000000000000000000000000\n  dup2\n  mstore\n  pop\n  dup2\n  mstore\n  0x20\n  add\n  mload(0x40)\n  dup1\n  0x40\n  add\n  0x40\n  mstore\n  dup1\n  0x07\n  dup2\n  mstore\n  0x20\n  add\n  0x6261616e616e6100000000000000000000000000000000000000000000000000\n  dup2\n  mstore\n  pop\n  dup2\n  mstore\n  0x20\n  add\n  mload(0x40)\n  dup1\n  0x40\n  add\n  0x40\n  mstore\n  dup1\n  0x06\n  dup2\n  mstore\n  0x20\n  add\n  0x636172726f740000000000000000000000000000000000000000000000000000\n  dup2\n  mstore\n  pop\n  dup2\n  mstore\n  pop\n  0x0b\n  swap1\n  0x03\n  tag_6\n  swap3\n  swap2\n  swap1\n  tag_7\n  jump\t// in\ntag_6:\n  pop\n    /* \"contracts/MyContract.sol\":58:1406  contract MyContract{\r... */\n  callvalue\n  dup1\n  iszero\n  tag_8\n  jumpi\n  0x00\n  dup1\n  revert\ntag_8:\n  pop\n  jump(tag_9)\ntag_2:\n  dup3\n  dup1\n  sload\n  tag_10\n  swap1\n  tag_11\n  jump\t// in\ntag_10:\n  swap1\n  0x00\n  mstore\n  keccak256(0x00, 0x20)\n  swap1\n  0x1f\n  add\n  0x20\n  swap1\n  div\n  dup2\n  add\n  swap3\n  dup3\n  tag_13\n  jumpi\n  0x00\n  dup6\n  sstore\n  jump(tag_12)\ntag_13:\n  dup3\n  0x1f\n  lt\n  tag_14\n  jumpi\n  dup1\n  mload\n  not(0xff)\n  and\n  dup4\n  dup1\n  add\n  or\n  dup6\n  sstore\n  jump(tag_12)\ntag_14:\n  dup3\n  dup1\n  add\n  0x01\n  add\n  dup6\n  sstore\n  dup3\n  iszero\n  tag_12\n  jumpi\n  swap2\n  dup3\n  add\ntag_15:\n  dup3\n  dup2\n  gt\n  iszero\n  tag_16\n  jumpi\n  dup3\n  mload\n  dup3\n  sstore\n  swap2\n  0x20\n  add\n  swap2\n  swap1\n  0x01\n  add\n  swap1\n  jump(tag_15)\ntag_16:\ntag_12:\n  pop\n  swap1\n  pop\n  tag_17\n  swap2\n  swap1\n  tag_18\n  jump\t// in\ntag_17:\n  pop\n  swap1\n  jump\t// out\ntag_5:\n  dup3\n  dup1\n  sload\n  dup3\n  dup3\n  sstore\n  swap1\n  0x00\n  mstore\n  keccak256(0x00, 0x20)\n  swap1\n  dup2\n  add\n  swap3\n  dup3\n  iszero\n  tag_19\n  jumpi\n  swap2\n  0x20\n  mul\n  dup3\n  add\ntag_20:\n  dup3\n  dup2\n  gt\n  iszero\n  tag_21\n  jumpi\n  dup3\n  mload\n  dup3\n  swap1\n  0xff\n  and\n  swap1\n  sstore\n  swap2\n  0x20\n  add\n  swap2\n  swap1\n  0x01\n  add\n  swap1\n  jump(tag_20)\ntag_21:\ntag_19:\n  pop\n  swap1\n  pop\n  tag_22\n  swap2\n  swap1\n  tag_18\n  jump\t// in\ntag_22:\n  pop\n  swap1\n  jump\t// out\ntag_7:\n  dup3\n  dup1\n  sload\n  dup3\n  dup3\n  sstore\n  swap1\n  0x00\n  mstore\n  keccak256(0x00, 0x20)\n  swap1\n  dup2\n  add\n  swap3\n  dup3\n  iszero\n  tag_23\n  jumpi\n  swap2\n  0x20\n  mul\n  dup3\n  add\ntag_24:\n  dup3\n  dup2\n  gt\n  iszero\n  tag_25\n  jumpi\n  dup3\n  mload\n  dup3\n  swap1\n  dup1\n  mload\n  swap1\n  0x20\n  add\n  swap1\n  tag_26\n  swap3\n  swap2\n  swap1\n  tag_2\n  jump\t// in\ntag_26:\n  pop\n  swap2\n  0x20\n  add\n  swap2\n  swap1\n  0x01\n  add\n  swap1\n  jump(tag_24)\ntag_25:\ntag_23:\n  pop\n  swap1\n  pop\n  tag_27\n  swap2\n  swap1\n  tag_28\n  jump\t// in\ntag_27:\n  pop\n  swap1\n  jump\t// out\ntag_18:\ntag_29:\n  dup1\n  dup3\n  gt\n  iszero\n  tag_30\n  jumpi\n  0x00\n  dup2\n  0x00\n  swap1\n  sstore\n  pop\n  0x01\n  add\n  jump(tag_29)\ntag_30:\n  pop\n  swap1\n  jump\t// out\ntag_28:\ntag_31:\n  dup1\n  dup3\n  gt\n  iszero\n  tag_32\n  jumpi\n  0x00\n  dup2\n  dup2\n  tag_33\n  swap2\n  swap1\n  tag_34\n  jump\t// in\ntag_33:\n  pop\n  0x01\n  add\n  jump(tag_31)\ntag_32:\n  pop\n  swap1\n  jump\t// out\ntag_34:\n  pop\n  dup1\n  sload\n  tag_35\n  swap1\n  tag_11\n  jump\t// in\ntag_35:\n  0x00\n  dup3\n  sstore\n  dup1\n  0x1f\n  lt\n  tag_37\n  jumpi\n  pop\n  jump(tag_36)\ntag_37:\n  0x1f\n  add\n  0x20\n  swap1\n  div\n  swap1\n  0x00\n  mstore\n  keccak256(0x00, 0x20)\n  swap1\n  dup2\n  add\n  swap1\n  tag_38\n  swap2\n  swap1\n  tag_18\n  jump\t// in\ntag_38:\ntag_36:\n  pop\n  jump\t// out\n    /* \"#utility.yul\":7:327   */\ntag_11:\n    /* \"#utility.yul\":51:57   */\n  0x00\n    /* \"#utility.yul\":88:89   */\n  0x02\n    /* \"#utility.yul\":82:86   */\n  dup3\n    /* \"#utility.yul\":78:90   */\n  div\n    /* \"#utility.yul\":68:90   */\n  swap1\n  pop\n    /* \"#utility.yul\":135:136   */\n  0x01\n    /* \"#utility.yul\":129:133   */\n  dup3\n    /* \"#utility.yul\":125:137   */\n  and\n    /* \"#utility.yul\":156:174   */\n  dup1\n    /* \"#utility.yul\":146:227   */\n  tag_41\n  jumpi\n    /* \"#utility.yul\":212:216   */\n  0x7f\n    /* \"#utility.yul\":204:210   */\n  dup3\n    /* \"#utility.yul\":200:217   */\n  and\n    /* \"#utility.yul\":190:217   */\n  swap2\n  pop\n    /* \"#utility.yul\":146:227   */\ntag_41:\n    /* \"#utility.yul\":274:276   */\n  0x20\n    /* \"#utility.yul\":266:272   */\n  dup3\n    /* \"#utility.yul\":263:277   */\n  lt\n    /* \"#utility.yul\":243:261   */\n  dup2\n    /* \"#utility.yul\":240:278   */\n  eq\n    /* \"#utility.yul\":237:321   */\n  iszero\n  tag_42\n  jumpi\n    /* \"#utility.yul\":293:311   */\n  tag_43\n  tag_44\n  jump\t// in\ntag_43:\n    /* \"#utility.yul\":237:321   */\ntag_42:\n    /* \"#utility.yul\":58:327   */\n  pop\n    /* \"#utility.yul\":7:327   */\n  swap2\n  swap1\n  pop\n  jump\t// out\n    /* \"#utility.yul\":333:513   */\ntag_44:\n    /* \"#utility.yul\":381:458   */\n  0x4e487b7100000000000000000000000000000000000000000000000000000000\n    /* \"#utility.yul\":378:379   */\n  0x00\n    /* \"#utility.yul\":371:459   */\n  mstore\n    /* \"#utility.yul\":478:482   */\n  0x22\n    /* \"#utility.yul\":475:476   */\n  0x04\n    /* \"#utility.yul\":468:483   */\n  mstore\n    /* \"#utility.yul\":502:506   */\n  0x24\n    /* \"#utility.yul\":499:500   */\n  0x00\n    /* \"#utility.yul\":492:507   */\n  revert\n    /* \"contracts/MyContract.sol\":58:1406  contract MyContract{\r... */\ntag_9:\n  dataSize(sub_0)\n  dup1\n  dataOffset(sub_0)\n  0x00\n  codecopy\n  0x00\n  return\nstop\n\nsub_0: assembly {\n        /* \"contracts/MyContract.sol\":58:1406  contract MyContract{\r... */\n      mstore(0x40, 0x80)\n      callvalue\n      dup1\n      iszero\n      tag_1\n      jumpi\n      0x00\n      dup1\n      revert\n    tag_1:\n      pop\n      jumpi(tag_2, lt(calldatasize, 0x04))\n      shr(0xe0, calldataload(0x00))\n      dup1\n      0x492bfa18\n      gt\n      tag_17\n      jumpi\n      dup1\n      0x6422c4c8\n      gt\n      tag_18\n      jumpi\n      dup1\n      0x6422c4c8\n      eq\n      tag_13\n      jumpi\n      dup1\n      0x92277933\n      eq\n      tag_14\n      jumpi\n      dup1\n      0xb992b6db\n      eq\n      tag_15\n      jumpi\n      dup1\n      0xff643c92\n      eq\n      tag_16\n      jumpi\n      jump(tag_2)\n    tag_18:\n      dup1\n      0x492bfa18\n      eq\n      tag_10\n      jumpi\n      dup1\n      0x562d7f35\n      eq\n      tag_11\n      jumpi\n      dup1\n      0x563566a1\n      eq\n      tag_12\n      jumpi\n      jump(tag_2)\n    tag_17:\n      dup1\n      0x3544b472\n      gt\n      tag_19\n      jumpi\n      dup1\n      0x3544b472\n      eq\n      tag_6\n      jumpi\n      dup1\n      0x3a5fbaaa\n      eq\n      tag_7\n      jumpi\n      dup1\n      0x45838889\n      eq\n      tag_8\n      jumpi\n      dup1\n      0x4885d0c5\n      eq\n      tag_9\n      jumpi\n      jump(tag_2)\n    tag_19:\n      dup1\n      0x20965255\n      eq\n      tag_3\n      jumpi\n      dup1\n      0x26b85ee1\n      eq\n      tag_4\n      jumpi\n      dup1\n      0x285568b7\n      eq\n      tag_5\n      jumpi\n    tag_2:\n      0x00\n      dup1\n      revert\n        /* \"contracts/MyContract.sol\":1110:1403  function getValue() public pure returns (uint) { // pure means doesn't modify blockchain only fetch the data\r... */\n    tag_3:\n      tag_20\n      tag_21\n      jump\t// in\n    tag_20:\n      mload(0x40)\n      tag_22\n      swap2\n      swap1\n      tag_23\n      jump\t// in\n    tag_22:\n      mload(0x40)\n      dup1\n      swap2\n      sub\n      swap1\n      return\n        /* \"contracts/MyContract.sol\":478:547  address public myAddress = 0xAb8483F64d9C6d1EcF9b849Ae677dD3315835cb2 */\n    tag_4:\n      tag_24\n      tag_25\n      jump\t// in\n    tag_24:\n      mload(0x40)\n      tag_26\n      swap2\n      swap1\n      tag_27\n      jump\t// in\n    tag_26:\n      mload(0x40)\n      dup1\n      swap2\n      sub\n      swap1\n      return\n        /* \"contracts/MyContract.sol\":761:821  myStruct public myStructVariable = myStruct(1,\"Hello world\") */\n    tag_5:\n      tag_28\n      tag_29\n      jump\t// in\n    tag_28:\n      mload(0x40)\n      tag_30\n      swap3\n      swap2\n      swap1\n      tag_31\n      jump\t// in\n    tag_30:\n      mload(0x40)\n      dup1\n      swap2\n      sub\n      swap1\n      return\n        /* \"contracts/MyContract.sol\":844:882  uint[] public unintArray = [1,2,2,2,3] */\n    tag_6:\n      tag_32\n      0x04\n      dup1\n      calldatasize\n      sub\n      dup2\n      add\n      swap1\n      tag_33\n      swap2\n      swap1\n      tag_34\n      jump\t// in\n    tag_33:\n      tag_35\n      jump\t// in\n    tag_32:\n      mload(0x40)\n      tag_36\n      swap2\n      swap1\n      tag_23\n      jump\t// in\n    tag_36:\n      mload(0x40)\n      dup1\n      swap2\n      sub\n      swap1\n      return\n        /* \"contracts/MyContract.sol\":990:1078  function addValue(string memory _value)public{\r... */\n    tag_7:\n      tag_37\n      0x04\n      dup1\n      calldatasize\n      sub\n      dup2\n      add\n      swap1\n      tag_38\n      swap2\n      swap1\n      tag_39\n      jump\t// in\n    tag_38:\n      tag_40\n      jump\t// in\n    tag_37:\n      stop\n        /* \"contracts/MyContract.sol\":328:351  uint8 public my8bit = 1 */\n    tag_8:\n      tag_41\n      tag_42\n      jump\t// in\n    tag_41:\n      mload(0x40)\n      tag_43\n      swap2\n      swap1\n      tag_44\n      jump\t// in\n    tag_43:\n      mload(0x40)\n      dup1\n      swap2\n      sub\n      swap1\n      return\n        /* \"contracts/MyContract.sol\":954:981  string[] public stringValue */\n    tag_9:\n      tag_45\n      0x04\n      dup1\n      calldatasize\n      sub\n      dup2\n      add\n      swap1\n      tag_46\n      swap2\n      swap1\n      tag_34\n      jump\t// in\n    tag_46:\n      tag_47\n      jump\t// in\n    tag_45:\n      mload(0x40)\n      tag_48\n      swap2\n      swap1\n      tag_49\n      jump\t// in\n    tag_48:\n      mload(0x40)\n      dup1\n      swap2\n      sub\n      swap1\n      return\n        /* \"contracts/MyContract.sol\":360:409  string public myString = \"My cat looks beautiful\" */\n    tag_10:\n      tag_50\n      tag_51\n      jump\t// in\n    tag_50:\n      mload(0x40)\n      tag_52\n      swap2\n      swap1\n      tag_49\n      jump\t// in\n    tag_52:\n      mload(0x40)\n      dup1\n      swap2\n      sub\n      swap1\n      return\n        /* \"contracts/MyContract.sol\":131:151  int8 public abc8 = 1 */\n    tag_11:\n      tag_53\n      tag_54\n      jump\t// in\n    tag_53:\n      mload(0x40)\n      tag_55\n      swap2\n      swap1\n      tag_56\n      jump\t// in\n    tag_55:\n      mload(0x40)\n      dup1\n      swap2\n      sub\n      swap1\n      return\n        /* \"contracts/MyContract.sol\":275:305  uint256 public myUnint256  = 1 */\n    tag_12:\n      tag_57\n      tag_58\n      jump\t// in\n    tag_57:\n      mload(0x40)\n      tag_59\n      swap2\n      swap1\n      tag_23\n      jump\t// in\n    tag_59:\n      mload(0x40)\n      dup1\n      swap2\n      sub\n      swap1\n      return\n        /* \"contracts/MyContract.sol\":889:947  string[] public stringArray = [\"apple\",\"baanana\",\"carrot\"] */\n    tag_13:\n      tag_60\n      0x04\n      dup1\n      calldatasize\n      sub\n      dup2\n      add\n      swap1\n      tag_61\n      swap2\n      swap1\n      tag_34\n      jump\t// in\n    tag_61:\n      tag_62\n      jump\t// in\n    tag_60:\n      mload(0x40)\n      tag_63\n      swap2\n      swap1\n      tag_49\n      jump\t// in\n    tag_63:\n      mload(0x40)\n      dup1\n      swap2\n      sub\n      swap1\n      return\n        /* \"contracts/MyContract.sol\":106:124  int public abc = 1 */\n    tag_14:\n      tag_64\n      tag_65\n      jump\t// in\n    tag_64:\n      mload(0x40)\n      tag_66\n      swap2\n      swap1\n      tag_67\n      jump\t// in\n    tag_66:\n      mload(0x40)\n      dup1\n      swap2\n      sub\n      swap1\n      return\n        /* \"contracts/MyContract.sol\":416:469  bytes32 public myByteArray = \"My cat looks beautiful\" */\n    tag_15:\n      tag_68\n      tag_69\n      jump\t// in\n    tag_68:\n      mload(0x40)\n      tag_70\n      swap2\n      swap1\n      tag_71\n      jump\t// in\n    tag_70:\n      mload(0x40)\n      dup1\n      swap2\n      sub\n      swap1\n      return\n        /* \"contracts/MyContract.sol\":158:181  uint public MyUnit  = 1 */\n    tag_16:\n      tag_72\n      tag_73\n      jump\t// in\n    tag_72:\n      mload(0x40)\n      tag_74\n      swap2\n      swap1\n      tag_23\n      jump\t// in\n    tag_74:\n      mload(0x40)\n      dup1\n      swap2\n      sub\n      swap1\n      return\n        /* \"contracts/MyContract.sol\":1110:1403  function getValue() public pure returns (uint) { // pure means doesn't modify blockchain only fetch the data\r... */\n    tag_21:\n        /* \"contracts/MyContract.sol\":1151:1155  uint */\n      0x00\n        /* \"contracts/MyContract.sol\":1228:1238  uint value */\n      dup1\n        /* \"contracts/MyContract.sol\":1241:1242  1 */\n      0x01\n        /* \"contracts/MyContract.sol\":1228:1242  uint value = 1 */\n      swap1\n      pop\n        /* \"contracts/MyContract.sol\":1390:1395  value */\n      dup1\n        /* \"contracts/MyContract.sol\":1383:1395  return value */\n      swap2\n      pop\n      pop\n        /* \"contracts/MyContract.sol\":1110:1403  function getValue() public pure returns (uint) { // pure means doesn't modify blockchain only fetch the data\r... */\n      swap1\n      jump\t// out\n        /* \"contracts/MyContract.sol\":478:547  address public myAddress = 0xAb8483F64d9C6d1EcF9b849Ae677dD3315835cb2 */\n    tag_25:\n      0x07\n      0x00\n      swap1\n      sload\n      swap1\n      0x0100\n      exp\n      swap1\n      div\n      0xffffffffffffffffffffffffffffffffffffffff\n      and\n      dup2\n      jump\t// out\n        /* \"contracts/MyContract.sol\":761:821  myStruct public myStructVariable = myStruct(1,\"Hello world\") */\n    tag_29:\n      0x08\n      dup1\n      0x00\n      add\n      sload\n      swap1\n      dup1\n      0x01\n      add\n      dup1\n      sload\n      tag_76\n      swap1\n      tag_77\n      jump\t// in\n    tag_76:\n      dup1\n      0x1f\n      add\n      0x20\n      dup1\n      swap2\n      div\n      mul\n      0x20\n      add\n      mload(0x40)\n      swap1\n      dup2\n      add\n      0x40\n      mstore\n      dup1\n      swap3\n      swap2\n      swap1\n      dup2\n      dup2\n      mstore\n      0x20\n      add\n      dup3\n      dup1\n      sload\n      tag_78\n      swap1\n      tag_77\n      jump\t// in\n    tag_78:\n      dup1\n      iszero\n      tag_79\n      jumpi\n      dup1\n      0x1f\n      lt\n      tag_80\n      jumpi\n      0x0100\n      dup1\n      dup4\n      sload\n      div\n      mul\n      dup4\n      mstore\n      swap2\n      0x20\n      add\n      swap2\n      jump(tag_79)\n    tag_80:\n      dup3\n      add\n      swap2\n      swap1\n      0x00\n      mstore\n      keccak256(0x00, 0x20)\n      swap1\n    tag_81:\n      dup2\n      sload\n      dup2\n      mstore\n      swap1\n      0x01\n      add\n      swap1\n      0x20\n      add\n      dup1\n      dup4\n      gt\n      tag_81\n      jumpi\n      dup3\n      swap1\n      sub\n      0x1f\n      and\n      dup3\n      add\n      swap2\n    tag_79:\n      pop\n      pop\n      pop\n      pop\n      pop\n      swap1\n      pop\n      dup3\n      jump\t// out\n        /* \"contracts/MyContract.sol\":844:882  uint[] public unintArray = [1,2,2,2,3] */\n    tag_35:\n      0x0a\n      dup2\n      dup2\n      sload\n      dup2\n      lt\n      tag_82\n      jumpi\n      0x00\n      dup1\n      revert\n    tag_82:\n      swap1\n      0x00\n      mstore\n      keccak256(0x00, 0x20)\n      add\n      0x00\n      swap2\n      pop\n      swap1\n      pop\n      sload\n      dup2\n      jump\t// out\n        /* \"contracts/MyContract.sol\":990:1078  function addValue(string memory _value)public{\r... */\n    tag_40:\n        /* \"contracts/MyContract.sol\":1046:1057  stringValue */\n      0x0c\n        /* \"contracts/MyContract.sol\":1063:1069  _value */\n      dup2\n        /* \"contracts/MyContract.sol\":1046:1070  stringValue.push(_value) */\n      swap1\n      dup1\n      0x01\n      dup2\n      sload\n      add\n      dup1\n      dup3\n      sstore\n      dup1\n      swap2\n      pop\n      pop\n      0x01\n      swap1\n      sub\n      swap1\n      0x00\n      mstore\n      keccak256(0x00, 0x20)\n      add\n      0x00\n      swap1\n      swap2\n      swap1\n      swap2\n      swap1\n      swap2\n      pop\n      swap1\n      dup1\n      mload\n      swap1\n      0x20\n      add\n      swap1\n      tag_86\n      swap3\n      swap2\n      swap1\n      tag_87\n      jump\t// in\n    tag_86:\n      pop\n        /* \"contracts/MyContract.sol\":990:1078  function addValue(string memory _value)public{\r... */\n      pop\n      jump\t// out\n        /* \"contracts/MyContract.sol\":328:351  uint8 public my8bit = 1 */\n    tag_42:\n      0x04\n      0x00\n      swap1\n      sload\n      swap1\n      0x0100\n      exp\n      swap1\n      div\n      0xff\n      and\n      dup2\n      jump\t// out\n        /* \"contracts/MyContract.sol\":954:981  string[] public stringValue */\n    tag_47:\n      0x0c\n      dup2\n      dup2\n      sload\n      dup2\n      lt\n      tag_88\n      jumpi\n      0x00\n      dup1\n      revert\n    tag_88:\n      swap1\n      0x00\n      mstore\n      keccak256(0x00, 0x20)\n      add\n      0x00\n      swap2\n      pop\n      swap1\n      pop\n      dup1\n      sload\n      tag_90\n      swap1\n      tag_77\n      jump\t// in\n    tag_90:\n      dup1\n      0x1f\n      add\n      0x20\n      dup1\n      swap2\n      div\n      mul\n      0x20\n      add\n      mload(0x40)\n      swap1\n      dup2\n      add\n      0x40\n      mstore\n      dup1\n      swap3\n      swap2\n      swap1\n      dup2\n      dup2\n      mstore\n      0x20\n      add\n      dup3\n      dup1\n      sload\n      tag_91\n      swap1\n      tag_77\n      jump\t// in\n    tag_91:\n      dup1\n      iszero\n      tag_92\n      jumpi\n      dup1\n      0x1f\n      lt\n      tag_93\n      jumpi\n      0x0100\n      dup1\n      dup4\n      sload\n      div\n      mul\n      dup4\n      mstore\n      swap2\n      0x20\n      add\n      swap2\n      jump(tag_92)\n    tag_93:\n      dup3\n      add\n      swap2\n      swap1\n      0x00\n      mstore\n      keccak256(0x00, 0x20)\n      swap1\n    tag_94:\n      dup2\n      sload\n      dup2\n      mstore\n      swap1\n      0x01\n      add\n      swap1\n      0x20\n      add\n      dup1\n      dup4\n      gt\n      tag_94\n      jumpi\n      dup3\n      swap1\n      sub\n      0x1f\n      and\n      dup3\n      add\n      swap2\n    tag_92:\n      pop\n      pop\n      pop\n      pop\n      pop\n      dup2\n      jump\t// out\n        /* \"contracts/MyContract.sol\":360:409  string public myString = \"My cat looks beautiful\" */\n    tag_51:\n      0x05\n      dup1\n      sload\n      tag_95\n      swap1\n      tag_77\n      jump\t// in\n    tag_95:\n      dup1\n      0x1f\n      add\n      0x20\n      dup1\n      swap2\n      div\n      mul\n      0x20\n      add\n      mload(0x40)\n      swap1\n      dup2\n      add\n      0x40\n      mstore\n      dup1\n      swap3\n      swap2\n      swap1\n      dup2\n      dup2\n      mstore\n      0x20\n      add\n      dup3\n      dup1\n      sload\n      tag_96\n      swap1\n      tag_77\n      jump\t// in\n    tag_96:\n      dup1\n      iszero\n      tag_97\n      jumpi\n      dup1\n      0x1f\n      lt\n      tag_98\n      jumpi\n      0x0100\n      dup1\n      dup4\n      sload\n      div\n      mul\n      dup4\n      mstore\n      swap2\n      0x20\n      add\n      swap2\n      jump(tag_97)\n    tag_98:\n      dup3\n      add\n      swap2\n      swap1\n      0x00\n      mstore\n      keccak256(0x00, 0x20)\n      swap1\n    tag_99:\n      dup2\n      sload\n      dup2\n      mstore\n      swap1\n      0x01\n      add\n      swap1\n      0x20\n      add\n      dup1\n      dup4\n      gt\n      tag_99\n      jumpi\n      dup3\n      swap1\n      sub\n      0x1f\n      and\n      dup3\n      add\n      swap2\n    tag_97:\n      pop\n      pop\n      pop\n      pop\n      pop\n      dup2\n      jump\t// out\n        /* \"contracts/MyContract.sol\":131:151  int8 public abc8 = 1 */\n    tag_54:\n      0x01\n      0x00\n      swap1\n      sload\n      swap1\n      0x0100\n      exp\n      swap1\n      div\n      0x00\n      signextend\n      dup2\n      jump\t// out\n        /* \"contracts/MyContract.sol\":275:305  uint256 public myUnint256  = 1 */\n    tag_58:\n      sload(0x03)\n      dup2\n      jump\t// out\n        /* \"contracts/MyContract.sol\":889:947  string[] public stringArray = [\"apple\",\"baanana\",\"carrot\"] */\n    tag_62:\n      0x0b\n      dup2\n      dup2\n      sload\n      dup2\n      lt\n      tag_100\n      jumpi\n      0x00\n      dup1\n      revert\n    tag_100:\n      swap1\n      0x00\n      mstore\n      keccak256(0x00, 0x20)\n      add\n      0x00\n      swap2\n      pop\n      swap1\n      pop\n      dup1\n      sload\n      tag_102\n      swap1\n      tag_77\n      jump\t// in\n    tag_102:\n      dup1\n      0x1f\n      add\n      0x20\n      dup1\n      swap2\n      div\n      mul\n      0x20\n      add\n      mload(0x40)\n      swap1\n      dup2\n      add\n      0x40\n      mstore\n      dup1\n      swap3\n      swap2\n      swap1\n      dup2\n      dup2\n      mstore\n      0x20\n      add\n      dup3\n      dup1\n      sload\n      tag_103\n      swap1\n      tag_77\n      jump\t// in\n    tag_103:\n      dup1\n      iszero\n      tag_104\n      jumpi\n      dup1\n      0x1f\n      lt\n      tag_105\n      jumpi\n      0x0100\n      dup1\n      dup4\n      sload\n      div\n      mul\n      dup4\n      mstore\n      swap2\n      0x20\n      add\n      swap2\n      jump(tag_104)\n    tag_105:\n      dup3\n      add\n      swap2\n      swap1\n      0x00\n      mstore\n      keccak256(0x00, 0x20)\n      swap1\n    tag_106:\n      dup2\n      sload\n      dup2\n      mstore\n      swap1\n      0x01\n      add\n      swap1\n      0x20\n      add\n      dup1\n      dup4\n      gt\n      tag_106\n      jumpi\n      dup3\n      swap1\n      sub\n      0x1f\n      and\n      dup3\n      add\n      swap2\n    tag_104:\n      pop\n      pop\n      pop\n      pop\n      pop\n      dup2\n      jump\t// out\n        /* \"contracts/MyContract.sol\":106:124  int public abc = 1 */\n    tag_65:\n      sload(0x00)\n      dup2\n      jump\t// out\n        /* \"contracts/MyContract.sol\":416:469  bytes32 public myByteArray = \"My cat looks beautiful\" */\n    tag_69:\n      sload(0x06)\n      dup2\n      jump\t// out\n        /* \"contracts/MyContract.sol\":158:181  uint public MyUnit  = 1 */\n    tag_73:\n      sload(0x02)\n      dup2\n      jump\t// out\n    tag_87:\n      dup3\n      dup1\n      sload\n      tag_107\n      swap1\n      tag_77\n      jump\t// in\n    tag_107:\n      swap1\n      0x00\n      mstore\n      keccak256(0x00, 0x20)\n      swap1\n      0x1f\n      add\n      0x20\n      swap1\n      div\n      dup2\n      add\n      swap3\n      dup3\n      tag_109\n      jumpi\n      0x00\n      dup6\n      sstore\n      jump(tag_108)\n    tag_109:\n      dup3\n      0x1f\n      lt\n      tag_110\n      jumpi\n      dup1\n      mload\n      not(0xff)\n      and\n      dup4\n      dup1\n      add\n      or\n      dup6\n      sstore\n      jump(tag_108)\n    tag_110:\n      dup3\n      dup1\n      add\n      0x01\n      add\n      dup6\n      sstore\n      dup3\n      iszero\n      tag_108\n      jumpi\n      swap2\n      dup3\n      add\n    tag_111:\n      dup3\n      dup2\n      gt\n      iszero\n      tag_112\n      jumpi\n      dup3\n      mload\n      dup3\n      sstore\n      swap2\n      0x20\n      add\n      swap2\n      swap1\n      0x01\n      add\n      swap1\n      jump(tag_111)\n    tag_112:\n    tag_108:\n      pop\n      swap1\n      pop\n      tag_113\n      swap2\n      swap1\n      tag_114\n      jump\t// in\n    tag_113:\n      pop\n      swap1\n      jump\t// out\n    tag_114:\n    tag_115:\n      dup1\n      dup3\n      gt\n      iszero\n      tag_116\n      jumpi\n      0x00\n      dup2\n      0x00\n      swap1\n      sstore\n      pop\n      0x01\n      add\n      jump(tag_115)\n    tag_116:\n      pop\n      swap1\n      jump\t// out\n        /* \"#utility.yul\":7:419   */\n    tag_118:\n        /* \"#utility.yul\":85:90   */\n      0x00\n        /* \"#utility.yul\":110:176   */\n      tag_120\n        /* \"#utility.yul\":126:175   */\n      tag_121\n        /* \"#utility.yul\":168:174   */\n      dup5\n        /* \"#utility.yul\":126:175   */\n      tag_122\n      jump\t// in\n    tag_121:\n        /* \"#utility.yul\":110:176   */\n      tag_123\n      jump\t// in\n    tag_120:\n        /* \"#utility.yul\":101:176   */\n      swap1\n      pop\n        /* \"#utility.yul\":199:205   */\n      dup3\n        /* \"#utility.yul\":192:197   */\n      dup2\n        /* \"#utility.yul\":185:206   */\n      mstore\n        /* \"#utility.yul\":237:241   */\n      0x20\n        /* \"#utility.yul\":230:235   */\n      dup2\n        /* \"#utility.yul\":226:242   */\n      add\n        /* \"#utility.yul\":275:278   */\n      dup5\n        /* \"#utility.yul\":266:272   */\n      dup5\n        /* \"#utility.yul\":261:264   */\n      dup5\n        /* \"#utility.yul\":257:273   */\n      add\n        /* \"#utility.yul\":254:279   */\n      gt\n        /* \"#utility.yul\":251:363   */\n      iszero\n      tag_124\n      jumpi\n        /* \"#utility.yul\":282:361   */\n      tag_125\n      tag_126\n      jump\t// in\n    tag_125:\n        /* \"#utility.yul\":251:363   */\n    tag_124:\n        /* \"#utility.yul\":372:413   */\n      tag_127\n        /* \"#utility.yul\":406:412   */\n      dup5\n        /* \"#utility.yul\":401:404   */\n      dup3\n        /* \"#utility.yul\":396:399   */\n      dup6\n        /* \"#utility.yul\":372:413   */\n      tag_128\n      jump\t// in\n    tag_127:\n        /* \"#utility.yul\":91:419   */\n      pop\n        /* \"#utility.yul\":7:419   */\n      swap4\n      swap3\n      pop\n      pop\n      pop\n      jump\t// out\n        /* \"#utility.yul\":439:779   */\n    tag_129:\n        /* \"#utility.yul\":495:500   */\n      0x00\n        /* \"#utility.yul\":544:547   */\n      dup3\n        /* \"#utility.yul\":537:541   */\n      0x1f\n        /* \"#utility.yul\":529:535   */\n      dup4\n        /* \"#utility.yul\":525:542   */\n      add\n        /* \"#utility.yul\":521:548   */\n      slt\n        /* \"#utility.yul\":511:633   */\n      tag_131\n      jumpi\n        /* \"#utility.yul\":552:631   */\n      tag_132\n      tag_133\n      jump\t// in\n    tag_132:\n        /* \"#utility.yul\":511:633   */\n    tag_131:\n        /* \"#utility.yul\":669:675   */\n      dup2\n        /* \"#utility.yul\":656:676   */\n      calldataload\n        /* \"#utility.yul\":694:773   */\n      tag_134\n        /* \"#utility.yul\":769:772   */\n      dup5\n        /* \"#utility.yul\":761:767   */\n      dup3\n        /* \"#utility.yul\":754:758   */\n      0x20\n        /* \"#utility.yul\":746:752   */\n      dup7\n        /* \"#utility.yul\":742:759   */\n      add\n        /* \"#utility.yul\":694:773   */\n      tag_118\n      jump\t// in\n    tag_134:\n        /* \"#utility.yul\":685:773   */\n      swap2\n      pop\n        /* \"#utility.yul\":501:779   */\n      pop\n        /* \"#utility.yul\":439:779   */\n      swap3\n      swap2\n      pop\n      pop\n      jump\t// out\n        /* \"#utility.yul\":785:924   */\n    tag_135:\n        /* \"#utility.yul\":831:836   */\n      0x00\n        /* \"#utility.yul\":869:875   */\n      dup2\n        /* \"#utility.yul\":856:876   */\n      calldataload\n        /* \"#utility.yul\":847:876   */\n      swap1\n      pop\n        /* \"#utility.yul\":885:918   */\n      tag_137\n        /* \"#utility.yul\":912:917   */\n      dup2\n        /* \"#utility.yul\":885:918   */\n      tag_138\n      jump\t// in\n    tag_137:\n        /* \"#utility.yul\":785:924   */\n      swap3\n      swap2\n      pop\n      pop\n      jump\t// out\n        /* \"#utility.yul\":930:1439   */\n    tag_39:\n        /* \"#utility.yul\":999:1005   */\n      0x00\n        /* \"#utility.yul\":1048:1050   */\n      0x20\n        /* \"#utility.yul\":1036:1045   */\n      dup3\n        /* \"#utility.yul\":1027:1034   */\n      dup5\n        /* \"#utility.yul\":1023:1046   */\n      sub\n        /* \"#utility.yul\":1019:1051   */\n      slt\n        /* \"#utility.yul\":1016:1135   */\n      iszero\n      tag_140\n      jumpi\n        /* \"#utility.yul\":1054:1133   */\n      tag_141\n      tag_142\n      jump\t// in\n    tag_141:\n        /* \"#utility.yul\":1016:1135   */\n    tag_140:\n        /* \"#utility.yul\":1202:1203   */\n      0x00\n        /* \"#utility.yul\":1191:1200   */\n      dup3\n        /* \"#utility.yul\":1187:1204   */\n      add\n        /* \"#utility.yul\":1174:1205   */\n      calldataload\n        /* \"#utility.yul\":1232:1250   */\n      0xffffffffffffffff\n        /* \"#utility.yul\":1224:1230   */\n      dup2\n        /* \"#utility.yul\":1221:1251   */\n      gt\n        /* \"#utility.yul\":1218:1335   */\n      iszero\n      tag_143\n      jumpi\n        /* \"#utility.yul\":1254:1333   */\n      tag_144\n      tag_145\n      jump\t// in\n    tag_144:\n        /* \"#utility.yul\":1218:1335   */\n    tag_143:\n        /* \"#utility.yul\":1359:1422   */\n      tag_146\n        /* \"#utility.yul\":1414:1421   */\n      dup5\n        /* \"#utility.yul\":1405:1411   */\n      dup3\n        /* \"#utility.yul\":1394:1403   */\n      dup6\n        /* \"#utility.yul\":1390:1412   */\n      add\n        /* \"#utility.yul\":1359:1422   */\n      tag_129\n      jump\t// in\n    tag_146:\n        /* \"#utility.yul\":1349:1422   */\n      swap2\n      pop\n        /* \"#utility.yul\":1145:1432   */\n      pop\n        /* \"#utility.yul\":930:1439   */\n      swap3\n      swap2\n      pop\n      pop\n      jump\t// out\n        /* \"#utility.yul\":1445:1774   */\n    tag_34:\n        /* \"#utility.yul\":1504:1510   */\n      0x00\n        /* \"#utility.yul\":1553:1555   */\n      0x20\n        /* \"#utility.yul\":1541:1550   */\n      dup3\n        /* \"#utility.yul\":1532:1539   */\n      dup5\n        /* \"#utility.yul\":1528:1551   */\n      sub\n        /* \"#utility.yul\":1524:1556   */\n      slt\n        /* \"#utility.yul\":1521:1640   */\n      iszero\n      tag_148\n      jumpi\n        /* \"#utility.yul\":1559:1638   */\n      tag_149\n      tag_142\n      jump\t// in\n    tag_149:\n        /* \"#utility.yul\":1521:1640   */\n    tag_148:\n        /* \"#utility.yul\":1679:1680   */\n      0x00\n        /* \"#utility.yul\":1704:1757   */\n      tag_150\n        /* \"#utility.yul\":1749:1756   */\n      dup5\n        /* \"#utility.yul\":1740:1746   */\n      dup3\n        /* \"#utility.yul\":1729:1738   */\n      dup6\n        /* \"#utility.yul\":1725:1747   */\n      add\n        /* \"#utility.yul\":1704:1757   */\n      tag_135\n      jump\t// in\n    tag_150:\n        /* \"#utility.yul\":1694:1757   */\n      swap2\n      pop\n        /* \"#utility.yul\":1650:1767   */\n      pop\n        /* \"#utility.yul\":1445:1774   */\n      swap3\n      swap2\n      pop\n      pop\n      jump\t// out\n        /* \"#utility.yul\":1780:1898   */\n    tag_151:\n        /* \"#utility.yul\":1867:1891   */\n      tag_153\n        /* \"#utility.yul\":1885:1890   */\n      dup2\n        /* \"#utility.yul\":1867:1891   */\n      tag_154\n      jump\t// in\n    tag_153:\n        /* \"#utility.yul\":1862:1865   */\n      dup3\n        /* \"#utility.yul\":1855:1892   */\n      mstore\n        /* \"#utility.yul\":1780:1898   */\n      pop\n      pop\n      jump\t// out\n        /* \"#utility.yul\":1904:2022   */\n    tag_155:\n        /* \"#utility.yul\":1991:2015   */\n      tag_157\n        /* \"#utility.yul\":2009:2014   */\n      dup2\n        /* \"#utility.yul\":1991:2015   */\n      tag_158\n      jump\t// in\n    tag_157:\n        /* \"#utility.yul\":1986:1989   */\n      dup3\n        /* \"#utility.yul\":1979:2016   */\n      mstore\n        /* \"#utility.yul\":1904:2022   */\n      pop\n      pop\n      jump\t// out\n        /* \"#utility.yul\":2028:2143   */\n    tag_159:\n        /* \"#utility.yul\":2113:2136   */\n      tag_161\n        /* \"#utility.yul\":2130:2135   */\n      dup2\n        /* \"#utility.yul\":2113:2136   */\n      tag_162\n      jump\t// in\n    tag_161:\n        /* \"#utility.yul\":2108:2111   */\n      dup3\n        /* \"#utility.yul\":2101:2137   */\n      mstore\n        /* \"#utility.yul\":2028:2143   */\n      pop\n      pop\n      jump\t// out\n        /* \"#utility.yul\":2149:2258   */\n    tag_163:\n        /* \"#utility.yul\":2230:2251   */\n      tag_165\n        /* \"#utility.yul\":2245:2250   */\n      dup2\n        /* \"#utility.yul\":2230:2251   */\n      tag_166\n      jump\t// in\n    tag_165:\n        /* \"#utility.yul\":2225:2228   */\n      dup3\n        /* \"#utility.yul\":2218:2252   */\n      mstore\n        /* \"#utility.yul\":2149:2258   */\n      pop\n      pop\n      jump\t// out\n        /* \"#utility.yul\":2264:2628   */\n    tag_167:\n        /* \"#utility.yul\":2352:2355   */\n      0x00\n        /* \"#utility.yul\":2380:2419   */\n      tag_169\n        /* \"#utility.yul\":2413:2418   */\n      dup3\n        /* \"#utility.yul\":2380:2419   */\n      tag_170\n      jump\t// in\n    tag_169:\n        /* \"#utility.yul\":2435:2506   */\n      tag_171\n        /* \"#utility.yul\":2499:2505   */\n      dup2\n        /* \"#utility.yul\":2494:2497   */\n      dup6\n        /* \"#utility.yul\":2435:2506   */\n      tag_172\n      jump\t// in\n    tag_171:\n        /* \"#utility.yul\":2428:2506   */\n      swap4\n      pop\n        /* \"#utility.yul\":2515:2567   */\n      tag_173\n        /* \"#utility.yul\":2560:2566   */\n      dup2\n        /* \"#utility.yul\":2555:2558   */\n      dup6\n        /* \"#utility.yul\":2548:2552   */\n      0x20\n        /* \"#utility.yul\":2541:2546   */\n      dup7\n        /* \"#utility.yul\":2537:2553   */\n      add\n        /* \"#utility.yul\":2515:2567   */\n      tag_174\n      jump\t// in\n    tag_173:\n        /* \"#utility.yul\":2592:2621   */\n      tag_175\n        /* \"#utility.yul\":2614:2620   */\n      dup2\n        /* \"#utility.yul\":2592:2621   */\n      tag_176\n      jump\t// in\n    tag_175:\n        /* \"#utility.yul\":2587:2590   */\n      dup5\n        /* \"#utility.yul\":2583:2622   */\n      add\n        /* \"#utility.yul\":2576:2622   */\n      swap2\n      pop\n        /* \"#utility.yul\":2356:2628   */\n      pop\n        /* \"#utility.yul\":2264:2628   */\n      swap3\n      swap2\n      pop\n      pop\n      jump\t// out\n        /* \"#utility.yul\":2634:2752   */\n    tag_177:\n        /* \"#utility.yul\":2721:2745   */\n      tag_179\n        /* \"#utility.yul\":2739:2744   */\n      dup2\n        /* \"#utility.yul\":2721:2745   */\n      tag_180\n      jump\t// in\n    tag_179:\n        /* \"#utility.yul\":2716:2719   */\n      dup3\n        /* \"#utility.yul\":2709:2746   */\n      mstore\n        /* \"#utility.yul\":2634:2752   */\n      pop\n      pop\n      jump\t// out\n        /* \"#utility.yul\":2758:2870   */\n    tag_181:\n        /* \"#utility.yul\":2841:2863   */\n      tag_183\n        /* \"#utility.yul\":2857:2862   */\n      dup2\n        /* \"#utility.yul\":2841:2863   */\n      tag_184\n      jump\t// in\n    tag_183:\n        /* \"#utility.yul\":2836:2839   */\n      dup3\n        /* \"#utility.yul\":2829:2864   */\n      mstore\n        /* \"#utility.yul\":2758:2870   */\n      pop\n      pop\n      jump\t// out\n        /* \"#utility.yul\":2876:3098   */\n    tag_27:\n        /* \"#utility.yul\":2969:2973   */\n      0x00\n        /* \"#utility.yul\":3007:3009   */\n      0x20\n        /* \"#utility.yul\":2996:3005   */\n      dup3\n        /* \"#utility.yul\":2992:3010   */\n      add\n        /* \"#utility.yul\":2984:3010   */\n      swap1\n      pop\n        /* \"#utility.yul\":3020:3091   */\n      tag_186\n        /* \"#utility.yul\":3088:3089   */\n      0x00\n        /* \"#utility.yul\":3077:3086   */\n      dup4\n        /* \"#utility.yul\":3073:3090   */\n      add\n        /* \"#utility.yul\":3064:3070   */\n      dup5\n        /* \"#utility.yul\":3020:3091   */\n      tag_151\n      jump\t// in\n    tag_186:\n        /* \"#utility.yul\":2876:3098   */\n      swap3\n      swap2\n      pop\n      pop\n      jump\t// out\n        /* \"#utility.yul\":3104:3326   */\n    tag_71:\n        /* \"#utility.yul\":3197:3201   */\n      0x00\n        /* \"#utility.yul\":3235:3237   */\n      0x20\n        /* \"#utility.yul\":3224:3233   */\n      dup3\n        /* \"#utility.yul\":3220:3238   */\n      add\n        /* \"#utility.yul\":3212:3238   */\n      swap1\n      pop\n        /* \"#utility.yul\":3248:3319   */\n      tag_188\n        /* \"#utility.yul\":3316:3317   */\n      0x00\n        /* \"#utility.yul\":3305:3314   */\n      dup4\n        /* \"#utility.yul\":3301:3318   */\n      add\n        /* \"#utility.yul\":3292:3298   */\n      dup5\n        /* \"#utility.yul\":3248:3319   */\n      tag_155\n      jump\t// in\n    tag_188:\n        /* \"#utility.yul\":3104:3326   */\n      swap3\n      swap2\n      pop\n      pop\n      jump\t// out\n        /* \"#utility.yul\":3332:3550   */\n    tag_67:\n        /* \"#utility.yul\":3423:3427   */\n      0x00\n        /* \"#utility.yul\":3461:3463   */\n      0x20\n        /* \"#utility.yul\":3450:3459   */\n      dup3\n        /* \"#utility.yul\":3446:3464   */\n      add\n        /* \"#utility.yul\":3438:3464   */\n      swap1\n      pop\n        /* \"#utility.yul\":3474:3543   */\n      tag_190\n        /* \"#utility.yul\":3540:3541   */\n      0x00\n        /* \"#utility.yul\":3529:3538   */\n      dup4\n        /* \"#utility.yul\":3525:3542   */\n      add\n        /* \"#utility.yul\":3516:3522   */\n      dup5\n        /* \"#utility.yul\":3474:3543   */\n      tag_159\n      jump\t// in\n    tag_190:\n        /* \"#utility.yul\":3332:3550   */\n      swap3\n      swap2\n      pop\n      pop\n      jump\t// out\n        /* \"#utility.yul\":3556:3766   */\n    tag_56:\n        /* \"#utility.yul\":3643:3647   */\n      0x00\n        /* \"#utility.yul\":3681:3683   */\n      0x20\n        /* \"#utility.yul\":3670:3679   */\n      dup3\n        /* \"#utility.yul\":3666:3684   */\n      add\n        /* \"#utility.yul\":3658:3684   */\n      swap1\n      pop\n        /* \"#utility.yul\":3694:3759   */\n      tag_192\n        /* \"#utility.yul\":3756:3757   */\n      0x00\n        /* \"#utility.yul\":3745:3754   */\n      dup4\n        /* \"#utility.yul\":3741:3758   */\n      add\n        /* \"#utility.yul\":3732:3738   */\n      dup5\n        /* \"#utility.yul\":3694:3759   */\n      tag_163\n      jump\t// in\n    tag_192:\n        /* \"#utility.yul\":3556:3766   */\n      swap3\n      swap2\n      pop\n      pop\n      jump\t// out\n        /* \"#utility.yul\":3772:4085   */\n    tag_49:\n        /* \"#utility.yul\":3885:3889   */\n      0x00\n        /* \"#utility.yul\":3923:3925   */\n      0x20\n        /* \"#utility.yul\":3912:3921   */\n      dup3\n        /* \"#utility.yul\":3908:3926   */\n      add\n        /* \"#utility.yul\":3900:3926   */\n      swap1\n      pop\n        /* \"#utility.yul\":3972:3981   */\n      dup2\n        /* \"#utility.yul\":3966:3970   */\n      dup2\n        /* \"#utility.yul\":3962:3982   */\n      sub\n        /* \"#utility.yul\":3958:3959   */\n      0x00\n        /* \"#utility.yul\":3947:3956   */\n      dup4\n        /* \"#utility.yul\":3943:3960   */\n      add\n        /* \"#utility.yul\":3936:3983   */\n      mstore\n        /* \"#utility.yul\":4000:4078   */\n      tag_194\n        /* \"#utility.yul\":4073:4077   */\n      dup2\n        /* \"#utility.yul\":4064:4070   */\n      dup5\n        /* \"#utility.yul\":4000:4078   */\n      tag_167\n      jump\t// in\n    tag_194:\n        /* \"#utility.yul\":3992:4078   */\n      swap1\n      pop\n        /* \"#utility.yul\":3772:4085   */\n      swap3\n      swap2\n      pop\n      pop\n      jump\t// out\n        /* \"#utility.yul\":4091:4313   */\n    tag_23:\n        /* \"#utility.yul\":4184:4188   */\n      0x00\n        /* \"#utility.yul\":4222:4224   */\n      0x20\n        /* \"#utility.yul\":4211:4220   */\n      dup3\n        /* \"#utility.yul\":4207:4225   */\n      add\n        /* \"#utility.yul\":4199:4225   */\n      swap1\n      pop\n        /* \"#utility.yul\":4235:4306   */\n      tag_196\n        /* \"#utility.yul\":4303:4304   */\n      0x00\n        /* \"#utility.yul\":4292:4301   */\n      dup4\n        /* \"#utility.yul\":4288:4305   */\n      add\n        /* \"#utility.yul\":4279:4285   */\n      dup5\n        /* \"#utility.yul\":4235:4306   */\n      tag_177\n      jump\t// in\n    tag_196:\n        /* \"#utility.yul\":4091:4313   */\n      swap3\n      swap2\n      pop\n      pop\n      jump\t// out\n        /* \"#utility.yul\":4319:4742   */\n    tag_31:\n        /* \"#utility.yul\":4460:4464   */\n      0x00\n        /* \"#utility.yul\":4498:4500   */\n      0x40\n        /* \"#utility.yul\":4487:4496   */\n      dup3\n        /* \"#utility.yul\":4483:4501   */\n      add\n        /* \"#utility.yul\":4475:4501   */\n      swap1\n      pop\n        /* \"#utility.yul\":4511:4582   */\n      tag_198\n        /* \"#utility.yul\":4579:4580   */\n      0x00\n        /* \"#utility.yul\":4568:4577   */\n      dup4\n        /* \"#utility.yul\":4564:4581   */\n      add\n        /* \"#utility.yul\":4555:4561   */\n      dup6\n        /* \"#utility.yul\":4511:4582   */\n      tag_177\n      jump\t// in\n    tag_198:\n        /* \"#utility.yul\":4629:4638   */\n      dup2\n        /* \"#utility.yul\":4623:4627   */\n      dup2\n        /* \"#utility.yul\":4619:4639   */\n      sub\n        /* \"#utility.yul\":4614:4616   */\n      0x20\n        /* \"#utility.yul\":4603:4612   */\n      dup4\n        /* \"#utility.yul\":4599:4617   */\n      add\n        /* \"#utility.yul\":4592:4640   */\n      mstore\n        /* \"#utility.yul\":4657:4735   */\n      tag_199\n        /* \"#utility.yul\":4730:4734   */\n      dup2\n        /* \"#utility.yul\":4721:4727   */\n      dup5\n        /* \"#utility.yul\":4657:4735   */\n      tag_167\n      jump\t// in\n    tag_199:\n        /* \"#utility.yul\":4649:4735   */\n      swap1\n      pop\n        /* \"#utility.yul\":4319:4742   */\n      swap4\n      swap3\n      pop\n      pop\n      pop\n      jump\t// out\n        /* \"#utility.yul\":4748:4962   */\n    tag_44:\n        /* \"#utility.yul\":4837:4841   */\n      0x00\n        /* \"#utility.yul\":4875:4877   */\n      0x20\n        /* \"#utility.yul\":4864:4873   */\n      dup3\n        /* \"#utility.yul\":4860:4878   */\n      add\n        /* \"#utility.yul\":4852:4878   */\n      swap1\n      pop\n        /* \"#utility.yul\":4888:4955   */\n      tag_201\n        /* \"#utility.yul\":4952:4953   */\n      0x00\n        /* \"#utility.yul\":4941:4950   */\n      dup4\n        /* \"#utility.yul\":4937:4954   */\n      add\n        /* \"#utility.yul\":4928:4934   */\n      dup5\n        /* \"#utility.yul\":4888:4955   */\n      tag_181\n      jump\t// in\n    tag_201:\n        /* \"#utility.yul\":4748:4962   */\n      swap3\n      swap2\n      pop\n      pop\n      jump\t// out\n        /* \"#utility.yul\":4968:5097   */\n    tag_123:\n        /* \"#utility.yul\":5002:5008   */\n      0x00\n        /* \"#utility.yul\":5029:5049   */\n      tag_203\n      tag_204\n      jump\t// in\n    tag_203:\n        /* \"#utility.yul\":5019:5049   */\n      swap1\n      pop\n        /* \"#utility.yul\":5058:5091   */\n      tag_205\n        /* \"#utility.yul\":5086:5090   */\n      dup3\n        /* \"#utility.yul\":5078:5084   */\n      dup3\n        /* \"#utility.yul\":5058:5091   */\n      tag_206\n      jump\t// in\n    tag_205:\n        /* \"#utility.yul\":4968:5097   */\n      swap2\n      swap1\n      pop\n      jump\t// out\n        /* \"#utility.yul\":5103:5178   */\n    tag_204:\n        /* \"#utility.yul\":5136:5142   */\n      0x00\n        /* \"#utility.yul\":5169:5171   */\n      0x40\n        /* \"#utility.yul\":5163:5172   */\n      mload\n        /* \"#utility.yul\":5153:5172   */\n      swap1\n      pop\n        /* \"#utility.yul\":5103:5178   */\n      swap1\n      jump\t// out\n        /* \"#utility.yul\":5184:5492   */\n    tag_122:\n        /* \"#utility.yul\":5246:5250   */\n      0x00\n        /* \"#utility.yul\":5336:5354   */\n      0xffffffffffffffff\n        /* \"#utility.yul\":5328:5334   */\n      dup3\n        /* \"#utility.yul\":5325:5355   */\n      gt\n        /* \"#utility.yul\":5322:5378   */\n      iszero\n      tag_209\n      jumpi\n        /* \"#utility.yul\":5358:5376   */\n      tag_210\n      tag_211\n      jump\t// in\n    tag_210:\n        /* \"#utility.yul\":5322:5378   */\n    tag_209:\n        /* \"#utility.yul\":5396:5425   */\n      tag_212\n        /* \"#utility.yul\":5418:5424   */\n      dup3\n        /* \"#utility.yul\":5396:5425   */\n      tag_176\n      jump\t// in\n    tag_212:\n        /* \"#utility.yul\":5388:5425   */\n      swap1\n      pop\n        /* \"#utility.yul\":5480:5484   */\n      0x20\n        /* \"#utility.yul\":5474:5478   */\n      dup2\n        /* \"#utility.yul\":5470:5485   */\n      add\n        /* \"#utility.yul\":5462:5485   */\n      swap1\n      pop\n        /* \"#utility.yul\":5184:5492   */\n      swap2\n      swap1\n      pop\n      jump\t// out\n        /* \"#utility.yul\":5498:5597   */\n    tag_170:\n        /* \"#utility.yul\":5550:5556   */\n      0x00\n        /* \"#utility.yul\":5584:5589   */\n      dup2\n        /* \"#utility.yul\":5578:5590   */\n      mload\n        /* \"#utility.yul\":5568:5590   */\n      swap1\n      pop\n        /* \"#utility.yul\":5498:5597   */\n      swap2\n      swap1\n      pop\n      jump\t// out\n        /* \"#utility.yul\":5603:5772   */\n    tag_172:\n        /* \"#utility.yul\":5687:5698   */\n      0x00\n        /* \"#utility.yul\":5721:5727   */\n      dup3\n        /* \"#utility.yul\":5716:5719   */\n      dup3\n        /* \"#utility.yul\":5709:5728   */\n      mstore\n        /* \"#utility.yul\":5761:5765   */\n      0x20\n        /* \"#utility.yul\":5756:5759   */\n      dup3\n        /* \"#utility.yul\":5752:5766   */\n      add\n        /* \"#utility.yul\":5737:5766   */\n      swap1\n      pop\n        /* \"#utility.yul\":5603:5772   */\n      swap3\n      swap2\n      pop\n      pop\n      jump\t// out\n        /* \"#utility.yul\":5778:5874   */\n    tag_154:\n        /* \"#utility.yul\":5815:5822   */\n      0x00\n        /* \"#utility.yul\":5844:5868   */\n      tag_216\n        /* \"#utility.yul\":5862:5867   */\n      dup3\n        /* \"#utility.yul\":5844:5868   */\n      tag_217\n      jump\t// in\n    tag_216:\n        /* \"#utility.yul\":5833:5868   */\n      swap1\n      pop\n        /* \"#utility.yul\":5778:5874   */\n      swap2\n      swap1\n      pop\n      jump\t// out\n        /* \"#utility.yul\":5880:5957   */\n    tag_158:\n        /* \"#utility.yul\":5917:5924   */\n      0x00\n        /* \"#utility.yul\":5946:5951   */\n      dup2\n        /* \"#utility.yul\":5935:5951   */\n      swap1\n      pop\n        /* \"#utility.yul\":5880:5957   */\n      swap2\n      swap1\n      pop\n      jump\t// out\n        /* \"#utility.yul\":5963:6039   */\n    tag_162:\n        /* \"#utility.yul\":5999:6006   */\n      0x00\n        /* \"#utility.yul\":6028:6033   */\n      dup2\n        /* \"#utility.yul\":6017:6033   */\n      swap1\n      pop\n        /* \"#utility.yul\":5963:6039   */\n      swap2\n      swap1\n      pop\n      jump\t// out\n        /* \"#utility.yul\":6045:6134   */\n    tag_166:\n        /* \"#utility.yul\":6079:6086   */\n      0x00\n        /* \"#utility.yul\":6122:6127   */\n      dup2\n        /* \"#utility.yul\":6119:6120   */\n      0x00\n        /* \"#utility.yul\":6108:6128   */\n      signextend\n        /* \"#utility.yul\":6097:6128   */\n      swap1\n      pop\n        /* \"#utility.yul\":6045:6134   */\n      swap2\n      swap1\n      pop\n      jump\t// out\n        /* \"#utility.yul\":6140:6266   */\n    tag_217:\n        /* \"#utility.yul\":6177:6184   */\n      0x00\n        /* \"#utility.yul\":6217:6259   */\n      0xffffffffffffffffffffffffffffffffffffffff\n        /* \"#utility.yul\":6210:6215   */\n      dup3\n        /* \"#utility.yul\":6206:6260   */\n      and\n        /* \"#utility.yul\":6195:6260   */\n      swap1\n      pop\n        /* \"#utility.yul\":6140:6266   */\n      swap2\n      swap1\n      pop\n      jump\t// out\n        /* \"#utility.yul\":6272:6349   */\n    tag_180:\n        /* \"#utility.yul\":6309:6316   */\n      0x00\n        /* \"#utility.yul\":6338:6343   */\n      dup2\n        /* \"#utility.yul\":6327:6343   */\n      swap1\n      pop\n        /* \"#utility.yul\":6272:6349   */\n      swap2\n      swap1\n      pop\n      jump\t// out\n        /* \"#utility.yul\":6355:6441   */\n    tag_184:\n        /* \"#utility.yul\":6390:6397   */\n      0x00\n        /* \"#utility.yul\":6430:6434   */\n      0xff\n        /* \"#utility.yul\":6423:6428   */\n      dup3\n        /* \"#utility.yul\":6419:6435   */\n      and\n        /* \"#utility.yul\":6408:6435   */\n      swap1\n      pop\n        /* \"#utility.yul\":6355:6441   */\n      swap2\n      swap1\n      pop\n      jump\t// out\n        /* \"#utility.yul\":6447:6601   */\n    tag_128:\n        /* \"#utility.yul\":6531:6537   */\n      dup3\n        /* \"#utility.yul\":6526:6529   */\n      dup2\n        /* \"#utility.yul\":6521:6524   */\n      dup4\n        /* \"#utility.yul\":6508:6538   */\n      calldatacopy\n        /* \"#utility.yul\":6593:6594   */\n      0x00\n        /* \"#utility.yul\":6584:6590   */\n      dup4\n        /* \"#utility.yul\":6579:6582   */\n      dup4\n        /* \"#utility.yul\":6575:6591   */\n      add\n        /* \"#utility.yul\":6568:6595   */\n      mstore\n        /* \"#utility.yul\":6447:6601   */\n      pop\n      pop\n      pop\n      jump\t// out\n        /* \"#utility.yul\":6607:6914   */\n    tag_174:\n        /* \"#utility.yul\":6675:6676   */\n      0x00\n        /* \"#utility.yul\":6685:6798   */\n    tag_226:\n        /* \"#utility.yul\":6699:6705   */\n      dup4\n        /* \"#utility.yul\":6696:6697   */\n      dup2\n        /* \"#utility.yul\":6693:6706   */\n      lt\n        /* \"#utility.yul\":6685:6798   */\n      iszero\n      tag_228\n      jumpi\n        /* \"#utility.yul\":6784:6785   */\n      dup1\n        /* \"#utility.yul\":6779:6782   */\n      dup3\n        /* \"#utility.yul\":6775:6786   */\n      add\n        /* \"#utility.yul\":6769:6787   */\n      mload\n        /* \"#utility.yul\":6765:6766   */\n      dup2\n        /* \"#utility.yul\":6760:6763   */\n      dup5\n        /* \"#utility.yul\":6756:6767   */\n      add\n        /* \"#utility.yul\":6749:6788   */\n      mstore\n        /* \"#utility.yul\":6721:6723   */\n      0x20\n        /* \"#utility.yul\":6718:6719   */\n      dup2\n        /* \"#utility.yul\":6714:6724   */\n      add\n        /* \"#utility.yul\":6709:6724   */\n      swap1\n      pop\n        /* \"#utility.yul\":6685:6798   */\n      jump(tag_226)\n    tag_228:\n        /* \"#utility.yul\":6816:6822   */\n      dup4\n        /* \"#utility.yul\":6813:6814   */\n      dup2\n        /* \"#utility.yul\":6810:6823   */\n      gt\n        /* \"#utility.yul\":6807:6908   */\n      iszero\n      tag_229\n      jumpi\n        /* \"#utility.yul\":6896:6897   */\n      0x00\n        /* \"#utility.yul\":6887:6893   */\n      dup5\n        /* \"#utility.yul\":6882:6885   */\n      dup5\n        /* \"#utility.yul\":6878:6894   */\n      add\n        /* \"#utility.yul\":6871:6898   */\n      mstore\n        /* \"#utility.yul\":6807:6908   */\n    tag_229:\n        /* \"#utility.yul\":6656:6914   */\n      pop\n        /* \"#utility.yul\":6607:6914   */\n      pop\n      pop\n      pop\n      jump\t// out\n        /* \"#utility.yul\":6920:7240   */\n    tag_77:\n        /* \"#utility.yul\":6964:6970   */\n      0x00\n        /* \"#utility.yul\":7001:7002   */\n      0x02\n        /* \"#utility.yul\":6995:6999   */\n      dup3\n        /* \"#utility.yul\":6991:7003   */\n      div\n        /* \"#utility.yul\":6981:7003   */\n      swap1\n      pop\n        /* \"#utility.yul\":7048:7049   */\n      0x01\n        /* \"#utility.yul\":7042:7046   */\n      dup3\n        /* \"#utility.yul\":7038:7050   */\n      and\n        /* \"#utility.yul\":7069:7087   */\n      dup1\n        /* \"#utility.yul\":7059:7140   */\n      tag_231\n      jumpi\n        /* \"#utility.yul\":7125:7129   */\n      0x7f\n        /* \"#utility.yul\":7117:7123   */\n      dup3\n        /* \"#utility.yul\":7113:7130   */\n      and\n        /* \"#utility.yul\":7103:7130   */\n      swap2\n      pop\n        /* \"#utility.yul\":7059:7140   */\n    tag_231:\n        /* \"#utility.yul\":7187:7189   */\n      0x20\n        /* \"#utility.yul\":7179:7185   */\n      dup3\n        /* \"#utility.yul\":7176:7190   */\n      lt\n        /* \"#utility.yul\":7156:7174   */\n      dup2\n        /* \"#utility.yul\":7153:7191   */\n      eq\n        /* \"#utility.yul\":7150:7234   */\n      iszero\n      tag_232\n      jumpi\n        /* \"#utility.yul\":7206:7224   */\n      tag_233\n      tag_234\n      jump\t// in\n    tag_233:\n        /* \"#utility.yul\":7150:7234   */\n    tag_232:\n        /* \"#utility.yul\":6971:7240   */\n      pop\n        /* \"#utility.yul\":6920:7240   */\n      swap2\n      swap1\n      pop\n      jump\t// out\n        /* \"#utility.yul\":7246:7527   */\n    tag_206:\n        /* \"#utility.yul\":7329:7356   */\n      tag_236\n        /* \"#utility.yul\":7351:7355   */\n      dup3\n        /* \"#utility.yul\":7329:7356   */\n      tag_176\n      jump\t// in\n    tag_236:\n        /* \"#utility.yul\":7321:7327   */\n      dup2\n        /* \"#utility.yul\":7317:7357   */\n      add\n        /* \"#utility.yul\":7459:7465   */\n      dup2\n        /* \"#utility.yul\":7447:7457   */\n      dup2\n        /* \"#utility.yul\":7444:7466   */\n      lt\n        /* \"#utility.yul\":7423:7441   */\n      0xffffffffffffffff\n        /* \"#utility.yul\":7411:7421   */\n      dup3\n        /* \"#utility.yul\":7408:7442   */\n      gt\n        /* \"#utility.yul\":7405:7467   */\n      or\n        /* \"#utility.yul\":7402:7490   */\n      iszero\n      tag_237\n      jumpi\n        /* \"#utility.yul\":7470:7488   */\n      tag_238\n      tag_211\n      jump\t// in\n    tag_238:\n        /* \"#utility.yul\":7402:7490   */\n    tag_237:\n        /* \"#utility.yul\":7510:7520   */\n      dup1\n        /* \"#utility.yul\":7506:7508   */\n      0x40\n        /* \"#utility.yul\":7499:7521   */\n      mstore\n        /* \"#utility.yul\":7289:7527   */\n      pop\n        /* \"#utility.yul\":7246:7527   */\n      pop\n      pop\n      jump\t// out\n        /* \"#utility.yul\":7533:7713   */\n    tag_234:\n        /* \"#utility.yul\":7581:7658   */\n      0x4e487b7100000000000000000000000000000000000000000000000000000000\n        /* \"#utility.yul\":7578:7579   */\n      0x00\n        /* \"#utility.yul\":7571:7659   */\n      mstore\n        /* \"#utility.yul\":7678:7682   */\n      0x22\n        /* \"#utility.yul\":7675:7676   */\n      0x04\n        /* \"#utility.yul\":7668:7683   */\n      mstore\n        /* \"#utility.yul\":7702:7706   */\n      0x24\n        /* \"#utility.yul\":7699:7700   */\n      0x00\n        /* \"#utility.yul\":7692:7707   */\n      revert\n        /* \"#utility.yul\":7719:7899   */\n    tag_211:\n        /* \"#utility.yul\":7767:7844   */\n      0x4e487b7100000000000000000000000000000000000000000000000000000000\n        /* \"#utility.yul\":7764:7765   */\n      0x00\n        /* \"#utility.yul\":7757:7845   */\n      mstore\n        /* \"#utility.yul\":7864:7868   */\n      0x41\n        /* \"#utility.yul\":7861:7862   */\n      0x04\n        /* \"#utility.yul\":7854:7869   */\n      mstore\n        /* \"#utility.yul\":7888:7892   */\n      0x24\n        /* \"#utility.yul\":7885:7886   */\n      0x00\n        /* \"#utility.yul\":7878:7893   */\n      revert\n        /* \"#utility.yul\":7905:8022   */\n    tag_133:\n        /* \"#utility.yul\":8014:8015   */\n      0x00\n        /* \"#utility.yul\":8011:8012   */\n      dup1\n        /* \"#utility.yul\":8004:8016   */\n      revert\n        /* \"#utility.yul\":8028:8145   */\n    tag_126:\n        /* \"#utility.yul\":8137:8138   */\n      0x00\n        /* \"#utility.yul\":8134:8135   */\n      dup1\n        /* \"#utility.yul\":8127:8139   */\n      revert\n        /* \"#utility.yul\":8151:8268   */\n    tag_145:\n        /* \"#utility.yul\":8260:8261   */\n      0x00\n        /* \"#utility.yul\":8257:8258   */\n      dup1\n        /* \"#utility.yul\":8250:8262   */\n      revert\n        /* \"#utility.yul\":8274:8391   */\n    tag_142:\n        /* \"#utility.yul\":8383:8384   */\n      0x00\n        /* \"#utility.yul\":8380:8381   */\n      dup1\n        /* \"#utility.yul\":8373:8385   */\n      revert\n        /* \"#utility.yul\":8397:8499   */\n    tag_176:\n        /* \"#utility.yul\":8438:8444   */\n      0x00\n        /* \"#utility.yul\":8489:8491   */\n      0x1f\n        /* \"#utility.yul\":8485:8492   */\n      not\n        /* \"#utility.yul\":8480:8482   */\n      0x1f\n        /* \"#utility.yul\":8473:8478   */\n      dup4\n        /* \"#utility.yul\":8469:8483   */\n      add\n        /* \"#utility.yul\":8465:8493   */\n      and\n        /* \"#utility.yul\":8455:8493   */\n      swap1\n      pop\n        /* \"#utility.yul\":8397:8499   */\n      swap2\n      swap1\n      pop\n      jump\t// out\n        /* \"#utility.yul\":8505:8627   */\n    tag_138:\n        /* \"#utility.yul\":8578:8602   */\n      tag_247\n        /* \"#utility.yul\":8596:8601   */\n      dup2\n        /* \"#utility.yul\":8578:8602   */\n      tag_180\n      jump\t// in\n    tag_247:\n        /* \"#utility.yul\":8571:8576   */\n      dup2\n        /* \"#utility.yul\":8568:8603   */\n      eq\n        /* \"#utility.yul\":8558:8621   */\n      tag_248\n      jumpi\n        /* \"#utility.yul\":8617:8618   */\n      0x00\n        /* \"#utility.yul\":8614:8615   */\n      dup1\n        /* \"#utility.yul\":8607:8619   */\n      revert\n        /* \"#utility.yul\":8558:8621   */\n    tag_248:\n        /* \"#utility.yul\":8505:8627   */\n      pop\n      jump\t// out\n\n    auxdata: 0xa26469706673582212201ca011de9fa8e56052d9a6e223b68d829b042d1a8e1ff0c2d260eae6627619b064736f6c63430008070033\n}\n",
				"bytecode": {
					"linkReferences": {},
					"object": "6080604052600160005560018060006101000a81548160ff021916908360000b60ff160217905550600160025560016003556001600460006101000a81548160ff021916908360ff1602179055506040518060400160405280601681526020017f4d7920636174206c6f6f6b732062656175746966756c00000000000000000000815250600590805190602001906200009a929190620002bb565b507f4d7920636174206c6f6f6b732062656175746966756c0000000000000000000060065573ab8483f64d9c6d1ecf9b849ae677dd3315835cb2600760006101000a81548173ffffffffffffffffffffffffffffffffffffffff021916908373ffffffffffffffffffffffffffffffffffffffff1602179055506040518060400160405280600181526020016040518060400160405280600b81526020017f48656c6c6f20776f726c64000000000000000000000000000000000000000000815250815250600860008201518160000155602082015181600101908051906020019062000189929190620002bb565b5050506040518060a00160405280600160ff168152602001600260ff168152602001600260ff168152602001600260ff168152602001600360ff16815250600a906005620001d99291906200034c565b5060405180606001604052806040518060400160405280600581526020017f6170706c6500000000000000000000000000000000000000000000000000000081525081526020016040518060400160405280600781526020017f6261616e616e610000000000000000000000000000000000000000000000000081525081526020016040518060400160405280600681526020017f636172726f740000000000000000000000000000000000000000000000000000815250815250600b906003620002a6929190620003a3565b50348015620002b457600080fd5b50620004fc565b828054620002c99062000497565b90600052602060002090601f016020900481019282620002ed576000855562000339565b82601f106200030857805160ff191683800117855562000339565b8280016001018555821562000339579182015b82811115620003385782518255916020019190600101906200031b565b5b5090506200034891906200040a565b5090565b82805482825590600052602060002090810192821562000390579160200282015b828111156200038f578251829060ff169055916020019190600101906200036d565b5b5090506200039f91906200040a565b5090565b828054828255906000526020600020908101928215620003f7579160200282015b82811115620003f6578251829080519060200190620003e5929190620002bb565b5091602001919060010190620003c4565b5b50905062000406919062000429565b5090565b5b80821115620004255760008160009055506001016200040b565b5090565b5b808211156200044d576000818162000443919062000451565b506001016200042a565b5090565b5080546200045f9062000497565b6000825580601f1062000473575062000494565b601f0160209004906000526020600020908101906200049391906200040a565b5b50565b60006002820490506001821680620004b057607f821691505b60208210811415620004c757620004c6620004cd565b5b50919050565b7f4e487b7100000000000000000000000000000000000000000000000000000000600052602260045260246000fd5b610b93806200050c6000396000f3fe608060405234801561001057600080fd5b50600436106100ea5760003560e01c8063492bfa181161008c5780636422c4c8116100665780636422c4c81461023e578063922779331461026e578063b992b6db1461028c578063ff643c92146102aa576100ea565b8063492bfa18146101e4578063562d7f3514610202578063563566a114610220576100ea565b80633544b472116100c85780633544b4721461014a5780633a5fbaaa1461017a57806345838889146101965780634885d0c5146101b4576100ea565b806320965255146100ef57806326b85ee11461010d578063285568b71461012b575b600080fd5b6100f76102c8565b60405161010491906108dc565b60405180910390f35b6101156102d6565b604051610122919061084e565b60405180910390f35b6101336102fc565b6040516101419291906108f7565b60405180910390f35b610164600480360381019061015f919061078e565b610396565b60405161017191906108dc565b60405180910390f35b610194600480360381019061018f9190610745565b6103ba565b005b61019e6103f9565b6040516101ab9190610927565b60405180910390f35b6101ce60048036038101906101c9919061078e565b61040c565b6040516101db91906108ba565b60405180910390f35b6101ec6104b8565b6040516101f991906108ba565b60405180910390f35b61020a610546565b604051610217919061089f565b60405180910390f35b610228610559565b60405161023591906108dc565b60405180910390f35b6102586004803603810190610253919061078e565b61055f565b60405161026591906108ba565b60405180910390f35b61027661060b565b6040516102839190610884565b60405180910390f35b610294610611565b6040516102a19190610869565b60405180910390f35b6102b2610617565b6040516102bf91906108dc565b60405180910390f35b600080600190508091505090565b600760009054906101000a900473ffffffffffffffffffffffffffffffffffffffff1681565b600880600001549080600101805461031390610a60565b80601f016020809104026020016040519081016040528092919081815260200182805461033f90610a60565b801561038c5780601f106103615761010080835404028352916020019161038c565b820191906000526020600020905b81548152906001019060200180831161036f57829003601f168201915b5050505050905082565b600a81815481106103a657600080fd5b906000526020600020016000915090505481565b600c819080600181540180825580915050600190039060005260206000200160009091909190915090805190602001906103f592919061061d565b5050565b600460009054906101000a900460ff1681565b600c818154811061041c57600080fd5b90600052602060002001600091509050805461043790610a60565b80601f016020809104026020016040519081016040528092919081815260200182805461046390610a60565b80156104b05780601f10610485576101008083540402835291602001916104b0565b820191906000526020600020905b81548152906001019060200180831161049357829003601f168201915b505050505081565b600580546104c590610a60565b80601f01602080910402602001604051908101604052809291908181526020018280546104f190610a60565b801561053e5780601f106105135761010080835404028352916020019161053e565b820191906000526020600020905b81548152906001019060200180831161052157829003601f168201915b505050505081565b600160009054906101000a900460000b81565b60035481565b600b818154811061056f57600080fd5b90600052602060002001600091509050805461058a90610a60565b80601f01602080910402602001604051908101604052809291908181526020018280546105b690610a60565b80156106035780601f106105d857610100808354040283529160200191610603565b820191906000526020600020905b8154815290600101906020018083116105e657829003601f168201915b505050505081565b60005481565b60065481565b60025481565b82805461062990610a60565b90600052602060002090601f01602090048101928261064b5760008555610692565b82601f1061066457805160ff1916838001178555610692565b82800160010185558215610692579182015b82811115610691578251825591602001919060010190610676565b5b50905061069f91906106a3565b5090565b5b808211156106bc5760008160009055506001016106a4565b5090565b60006106d36106ce84610967565b610942565b9050828152602081018484840111156106ef576106ee610b26565b5b6106fa848285610a1e565b509392505050565b600082601f83011261071757610716610b21565b5b81356107278482602086016106c0565b91505092915050565b60008135905061073f81610b46565b92915050565b60006020828403121561075b5761075a610b30565b5b600082013567ffffffffffffffff81111561077957610778610b2b565b5b61078584828501610702565b91505092915050565b6000602082840312156107a4576107a3610b30565b5b60006107b284828501610730565b91505092915050565b6107c4816109b4565b82525050565b6107d3816109c6565b82525050565b6107e2816109d0565b82525050565b6107f1816109da565b82525050565b600061080282610998565b61080c81856109a3565b935061081c818560208601610a2d565b61082581610b35565b840191505092915050565b61083981610a07565b82525050565b61084881610a11565b82525050565b600060208201905061086360008301846107bb565b92915050565b600060208201905061087e60008301846107ca565b92915050565b600060208201905061089960008301846107d9565b92915050565b60006020820190506108b460008301846107e8565b92915050565b600060208201905081810360008301526108d481846107f7565b905092915050565b60006020820190506108f16000830184610830565b92915050565b600060408201905061090c6000830185610830565b818103602083015261091e81846107f7565b90509392505050565b600060208201905061093c600083018461083f565b92915050565b600061094c61095d565b90506109588282610a92565b919050565b6000604051905090565b600067ffffffffffffffff82111561098257610981610af2565b5b61098b82610b35565b9050602081019050919050565b600081519050919050565b600082825260208201905092915050565b60006109bf826109e7565b9050919050565b6000819050919050565b6000819050919050565b60008160000b9050919050565b600073ffffffffffffffffffffffffffffffffffffffff82169050919050565b6000819050919050565b600060ff82169050919050565b82818337600083830152505050565b60005b83811015610a4b578082015181840152602081019050610a30565b83811115610a5a576000848401525b50505050565b60006002820490506001821680610a7857607f821691505b60208210811415610a8c57610a8b610ac3565b5b50919050565b610a9b82610b35565b810181811067ffffffffffffffff82111715610aba57610ab9610af2565b5b80604052505050565b7f4e487b7100000000000000000000000000000000000000000000000000000000600052602260045260246000fd5b7f4e487b7100000000000000000000000000000000000000000000000000000000600052604160045260246000fd5b600080fd5b600080fd5b600080fd5b600080fd5b6000601f19601f8301169050919050565b610b4f81610a07565b8114610b5a57600080fd5b5056fea26469706673582212201ca011de9fa8e56052d9a6e223b68d829b042d1a8e1ff0c2d260eae6627619b064736f6c63430008070033",
					"opcodes": "PUSH1 0x80 PUSH1 0x40 MSTORE PUSH1 0x1 PUSH1 0x0 SSTORE PUSH1 0x1 DUP1 PUSH1 0x0 PUSH2 0x100 EXP DUP2 SLOAD DUP2 PUSH1 0xFF MUL NOT AND SWAP1 DUP4 PUSH1 0x0 SIGNEXTEND PUSH1 0xFF AND MUL OR SWAP1 SSTORE POP PUSH1 0x1 PUSH1 0x2 SSTORE PUSH1 0x1 PUSH1 0x3 SSTORE PUSH1 0x1 PUSH1 0x4 PUSH1 0x0 PUSH2 0x100 EXP DUP2 SLOAD DUP2 PUSH1 0xFF MUL NOT AND SWAP1 DUP4 PUSH1 0xFF AND MUL OR SWAP1 SSTORE POP PUSH1 0x40 MLOAD DUP1 PUSH1 0x40 ADD PUSH1 0x40 MSTORE DUP1 PUSH1 0x16 DUP2 MSTORE PUSH1 0x20 ADD PUSH32 0x4D7920636174206C6F6F6B732062656175746966756C00000000000000000000 DUP2 MSTORE POP PUSH1 0x5 SWAP1 DUP1 MLOAD SWAP1 PUSH1 0x20 ADD SWAP1 PUSH3 0x9A SWAP3 SWAP2 SWAP1 PUSH3 0x2BB JUMP JUMPDEST POP PUSH32 0x4D7920636174206C6F6F6B732062656175746966756C00000000000000000000 PUSH1 0x6 SSTORE PUSH20 0xAB8483F64D9C6D1ECF9B849AE677DD3315835CB2 PUSH1 0x7 PUSH1 0x0 PUSH2 0x100 EXP DUP2 SLOAD DUP2 PUSH20 0xFFFFFFFFFFFFFFFFFFFFFFFFFFFFFFFFFFFFFFFF MUL NOT AND SWAP1 DUP4 PUSH20 0xFFFFFFFFFFFFFFFFFFFFFFFFFFFFFFFFFFFFFFFF AND MUL OR SWAP1 SSTORE POP PUSH1 0x40 MLOAD DUP1 PUSH1 0x40 ADD PUSH1 0x40 MSTORE DUP1 PUSH1 0x1 DUP2 MSTORE PUSH1 0x20 ADD PUSH1 0x40 MLOAD DUP1 PUSH1 0x40 ADD PUSH1 0x40 MSTORE DUP1 PUSH1 0xB DUP2 MSTORE PUSH1 0x20 ADD PUSH32 0x48656C6C6F20776F726C64000000000000000000000000000000000000000000 DUP2 MSTORE POP DUP2 MSTORE POP PUSH1 0x8 PUSH1 0x0 DUP3 ADD MLOAD DUP2 PUSH1 0x0 ADD SSTORE PUSH1 0x20 DUP3 ADD MLOAD DUP2 PUSH1 0x1 ADD SWAP1 DUP1 MLOAD SWAP1 PUSH1 0x20 ADD SWAP1 PUSH3 0x189 SWAP3 SWAP2 SWAP1 PUSH3 0x2BB JUMP JUMPDEST POP POP POP PUSH1 0x40 MLOAD DUP1 PUSH1 0xA0 ADD PUSH1 0x40 MSTORE DUP1 PUSH1 0x1 PUSH1 0xFF AND DUP2 MSTORE PUSH1 0x20 ADD PUSH1 0x2 PUSH1 0xFF AND DUP2 MSTORE PUSH1 0x20 ADD PUSH1 0x2 PUSH1 0xFF AND DUP2 MSTORE PUSH1 0x20 ADD PUSH1 0x2 PUSH1 0xFF AND DUP2 MSTORE PUSH1 0x20 ADD PUSH1 0x3 PUSH1 0xFF AND DUP2 MSTORE POP PUSH1 0xA SWAP1 PUSH1 0x5 PUSH3 0x1D9 SWAP3 SWAP2 SWAP1 PUSH3 0x34C JUMP JUMPDEST POP PUSH1 0x40 MLOAD DUP1 PUSH1 0x60 ADD PUSH1 0x40 MSTORE DUP1 PUSH1 0x40 MLOAD DUP1 PUSH1 0x40 ADD PUSH1 0x40 MSTORE DUP1 PUSH1 0x5 DUP2 MSTORE PUSH1 0x20 ADD PUSH32 0x6170706C65000000000000000000000000000000000000000000000000000000 DUP2 MSTORE POP DUP2 MSTORE PUSH1 0x20 ADD PUSH1 0x40 MLOAD DUP1 PUSH1 0x40 ADD PUSH1 0x40 MSTORE DUP1 PUSH1 0x7 DUP2 MSTORE PUSH1 0x20 ADD PUSH32 0x6261616E616E6100000000000000000000000000000000000000000000000000 DUP2 MSTORE POP DUP2 MSTORE PUSH1 0x20 ADD PUSH1 0x40 MLOAD DUP1 PUSH1 0x40 ADD PUSH1 0x40 MSTORE DUP1 PUSH1 0x6 DUP2 MSTORE PUSH1 0x20 ADD PUSH32 0x636172726F740000000000000000000000000000000000000000000000000000 DUP2 MSTORE POP DUP2 MSTORE POP PUSH1 0xB SWAP1 PUSH1 0x3 PUSH3 0x2A6 SWAP3 SWAP2 SWAP1 PUSH3 0x3A3 JUMP JUMPDEST POP CALLVALUE DUP1 ISZERO PUSH3 0x2B4 JUMPI PUSH1 0x0 DUP1 REVERT JUMPDEST POP PUSH3 0x4FC JUMP JUMPDEST DUP3 DUP1 SLOAD PUSH3 0x2C9 SWAP1 PUSH3 0x497 JUMP JUMPDEST SWAP1 PUSH1 0x0 MSTORE PUSH1 0x20 PUSH1 0x0 KECCAK256 SWAP1 PUSH1 0x1F ADD PUSH1 0x20 SWAP1 DIV DUP2 ADD SWAP3 DUP3 PUSH3 0x2ED JUMPI PUSH1 0x0 DUP6 SSTORE PUSH3 0x339 JUMP JUMPDEST DUP3 PUSH1 0x1F LT PUSH3 0x308 JUMPI DUP1 MLOAD PUSH1 0xFF NOT AND DUP4 DUP1 ADD OR DUP6 SSTORE PUSH3 0x339 JUMP JUMPDEST DUP3 DUP1 ADD PUSH1 0x1 ADD DUP6 SSTORE DUP3 ISZERO PUSH3 0x339 JUMPI SWAP2 DUP3 ADD JUMPDEST DUP3 DUP2 GT ISZERO PUSH3 0x338 JUMPI DUP3 MLOAD DUP3 SSTORE SWAP2 PUSH1 0x20 ADD SWAP2 SWAP1 PUSH1 0x1 ADD SWAP1 PUSH3 0x31B JUMP JUMPDEST JUMPDEST POP SWAP1 POP PUSH3 0x348 SWAP2 SWAP1 PUSH3 0x40A JUMP JUMPDEST POP SWAP1 JUMP JUMPDEST DUP3 DUP1 SLOAD DUP3 DUP3 SSTORE SWAP1 PUSH1 0x0 MSTORE PUSH1 0x20 PUSH1 0x0 KECCAK256 SWAP1 DUP2 ADD SWAP3 DUP3 ISZERO PUSH3 0x390 JUMPI SWAP2 PUSH1 0x20 MUL DUP3 ADD JUMPDEST DUP3 DUP2 GT ISZERO PUSH3 0x38F JUMPI DUP3 MLOAD DUP3 SWAP1 PUSH1 0xFF AND SWAP1 SSTORE SWAP2 PUSH1 0x20 ADD SWAP2 SWAP1 PUSH1 0x1 ADD SWAP1 PUSH3 0x36D JUMP JUMPDEST JUMPDEST POP SWAP1 POP PUSH3 0x39F SWAP2 SWAP1 PUSH3 0x40A JUMP JUMPDEST POP SWAP1 JUMP JUMPDEST DUP3 DUP1 SLOAD DUP3 DUP3 SSTORE SWAP1 PUSH1 0x0 MSTORE PUSH1 0x20 PUSH1 0x0 KECCAK256 SWAP1 DUP2 ADD SWAP3 DUP3 ISZERO PUSH3 0x3F7 JUMPI SWAP2 PUSH1 0x20 MUL DUP3 ADD JUMPDEST DUP3 DUP2 GT ISZERO PUSH3 0x3F6 JUMPI DUP3 MLOAD DUP3 SWAP1 DUP1 MLOAD SWAP1 PUSH1 0x20 ADD SWAP1 PUSH3 0x3E5 SWAP3 SWAP2 SWAP1 PUSH3 0x2BB JUMP JUMPDEST POP SWAP2 PUSH1 0x20 ADD SWAP2 SWAP1 PUSH1 0x1 ADD SWAP1 PUSH3 0x3C4 JUMP JUMPDEST JUMPDEST POP SWAP1 POP PUSH3 0x406 SWAP2 SWAP1 PUSH3 0x429 JUMP JUMPDEST POP SWAP1 JUMP JUMPDEST JUMPDEST DUP1 DUP3 GT ISZERO PUSH3 0x425 JUMPI PUSH1 0x0 DUP2 PUSH1 0x0 SWAP1 SSTORE POP PUSH1 0x1 ADD PUSH3 0x40B JUMP JUMPDEST POP SWAP1 JUMP JUMPDEST JUMPDEST DUP1 DUP3 GT ISZERO PUSH3 0x44D JUMPI PUSH1 0x0 DUP2 DUP2 PUSH3 0x443 SWAP2 SWAP1 PUSH3 0x451 JUMP JUMPDEST POP PUSH1 0x1 ADD PUSH3 0x42A JUMP JUMPDEST POP SWAP1 JUMP JUMPDEST POP DUP1 SLOAD PUSH3 0x45F SWAP1 PUSH3 0x497 JUMP JUMPDEST PUSH1 0x0 DUP3 SSTORE DUP1 PUSH1 0x1F LT PUSH3 0x473 JUMPI POP PUSH3 0x494 JUMP JUMPDEST PUSH1 0x1F ADD PUSH1 0x20 SWAP1 DIV SWAP1 PUSH1 0x0 MSTORE PUSH1 0x20 PUSH1 0x0 KECCAK256 SWAP1 DUP2 ADD SWAP1 PUSH3 0x493 SWAP2 SWAP1 PUSH3 0x40A JUMP JUMPDEST JUMPDEST POP JUMP JUMPDEST PUSH1 0x0 PUSH1 0x2 DUP3 DIV SWAP1 POP PUSH1 0x1 DUP3 AND DUP1 PUSH3 0x4B0 JUMPI PUSH1 0x7F DUP3 AND SWAP2 POP JUMPDEST PUSH1 0x20 DUP3 LT DUP2 EQ ISZERO PUSH3 0x4C7 JUMPI PUSH3 0x4C6 PUSH3 0x4CD JUMP JUMPDEST JUMPDEST POP SWAP2 SWAP1 POP JUMP JUMPDEST PUSH32 0x4E487B7100000000000000000000000000000000000000000000000000000000 PUSH1 0x0 MSTORE PUSH1 0x22 PUSH1 0x4 MSTORE PUSH1 0x24 PUSH1 0x0 REVERT JUMPDEST PUSH2 0xB93 DUP1 PUSH3 0x50C PUSH1 0x0 CODECOPY PUSH1 0x0 RETURN INVALID PUSH1 0x80 PUSH1 0x40 MSTORE CALLVALUE DUP1 ISZERO PUSH2 0x10 JUMPI PUSH1 0x0 DUP1 REVERT JUMPDEST POP PUSH1 0x4 CALLDATASIZE LT PUSH2 0xEA JUMPI PUSH1 0x0 CALLDATALOAD PUSH1 0xE0 SHR DUP1 PUSH4 0x492BFA18 GT PUSH2 0x8C JUMPI DUP1 PUSH4 0x6422C4C8 GT PUSH2 0x66 JUMPI DUP1 PUSH4 0x6422C4C8 EQ PUSH2 0x23E JUMPI DUP1 PUSH4 0x92277933 EQ PUSH2 0x26E JUMPI DUP1 PUSH4 0xB992B6DB EQ PUSH2 0x28C JUMPI DUP1 PUSH4 0xFF643C92 EQ PUSH2 0x2AA JUMPI PUSH2 0xEA JUMP JUMPDEST DUP1 PUSH4 0x492BFA18 EQ PUSH2 0x1E4 JUMPI DUP1 PUSH4 0x562D7F35 EQ PUSH2 0x202 JUMPI DUP1 PUSH4 0x563566A1 EQ PUSH2 0x220 JUMPI PUSH2 0xEA JUMP JUMPDEST DUP1 PUSH4 0x3544B472 GT PUSH2 0xC8 JUMPI DUP1 PUSH4 0x3544B472 EQ PUSH2 0x14A JUMPI DUP1 PUSH4 0x3A5FBAAA EQ PUSH2 0x17A JUMPI DUP1 PUSH4 0x45838889 EQ PUSH2 0x196 JUMPI DUP1 PUSH4 0x4885D0C5 EQ PUSH2 0x1B4 JUMPI PUSH2 0xEA JUMP JUMPDEST DUP1 PUSH4 0x20965255 EQ PUSH2 0xEF JUMPI DUP1 PUSH4 0x26B85EE1 EQ PUSH2 0x10D JUMPI DUP1 PUSH4 0x285568B7 EQ PUSH2 0x12B JUMPI JUMPDEST PUSH1 0x0 DUP1 REVERT JUMPDEST PUSH2 0xF7 PUSH2 0x2C8 JUMP JUMPDEST PUSH1 0x40 MLOAD PUSH2 0x104 SWAP2 SWAP1 PUSH2 0x8DC JUMP JUMPDEST PUSH1 0x40 MLOAD DUP1 SWAP2 SUB SWAP1 RETURN JUMPDEST PUSH2 0x115 PUSH2 0x2D6 JUMP JUMPDEST PUSH1 0x40 MLOAD PUSH2 0x122 SWAP2 SWAP1 PUSH2 0x84E JUMP JUMPDEST PUSH1 0x40 MLOAD DUP1 SWAP2 SUB SWAP1 RETURN JUMPDEST PUSH2 0x133 PUSH2 0x2FC JUMP JUMPDEST PUSH1 0x40 MLOAD PUSH2 0x141 SWAP3 SWAP2 SWAP1 PUSH2 0x8F7 JUMP JUMPDEST PUSH1 0x40 MLOAD DUP1 SWAP2 SUB SWAP1 RETURN JUMPDEST PUSH2 0x164 PUSH1 0x4 DUP1 CALLDATASIZE SUB DUP2 ADD SWAP1 PUSH2 0x15F SWAP2 SWAP1 PUSH2 0x78E JUMP JUMPDEST PUSH2 0x396 JUMP JUMPDEST PUSH1 0x40 MLOAD PUSH2 0x171 SWAP2 SWAP1 PUSH2 0x8DC JUMP JUMPDEST PUSH1 0x40 MLOAD DUP1 SWAP2 SUB SWAP1 RETURN JUMPDEST PUSH2 0x194 PUSH1 0x4 DUP1 CALLDATASIZE SUB DUP2 ADD SWAP1 PUSH2 0x18F SWAP2 SWAP1 PUSH2 0x745 JUMP JUMPDEST PUSH2 0x3BA JUMP JUMPDEST STOP JUMPDEST PUSH2 0x19E PUSH2 0x3F9 JUMP JUMPDEST PUSH1 0x40 MLOAD PUSH2 0x1AB SWAP2 SWAP1 PUSH2 0x927 JUMP JUMPDEST PUSH1 0x40 MLOAD DUP1 SWAP2 SUB SWAP1 RETURN JUMPDEST PUSH2 0x1CE PUSH1 0x4 DUP1 CALLDATASIZE SUB DUP2 ADD SWAP1 PUSH2 0x1C9 SWAP2 SWAP1 PUSH2 0x78E JUMP JUMPDEST PUSH2 0x40C JUMP JUMPDEST PUSH1 0x40 MLOAD PUSH2 0x1DB SWAP2 SWAP1 PUSH2 0x8BA JUMP JUMPDEST PUSH1 0x40 MLOAD DUP1 SWAP2 SUB SWAP1 RETURN JUMPDEST PUSH2 0x1EC PUSH2 0x4B8 JUMP JUMPDEST PUSH1 0x40 MLOAD PUSH2 0x1F9 SWAP2 SWAP1 PUSH2 0x8BA JUMP JUMPDEST PUSH1 0x40 MLOAD DUP1 SWAP2 SUB SWAP1 RETURN JUMPDEST PUSH2 0x20A PUSH2 0x546 JUMP JUMPDEST PUSH1 0x40 MLOAD PUSH2 0x217 SWAP2 SWAP1 PUSH2 0x89F JUMP JUMPDEST PUSH1 0x40 MLOAD DUP1 SWAP2 SUB SWAP1 RETURN JUMPDEST PUSH2 0x228 PUSH2 0x559 JUMP JUMPDEST PUSH1 0x40 MLOAD PUSH2 0x235 SWAP2 SWAP1 PUSH2 0x8DC JUMP JUMPDEST PUSH1 0x40 MLOAD DUP1 SWAP2 SUB SWAP1 RETURN JUMPDEST PUSH2 0x258 PUSH1 0x4 DUP1 CALLDATASIZE SUB DUP2 ADD SWAP1 PUSH2 0x253 SWAP2 SWAP1 PUSH2 0x78E JUMP JUMPDEST PUSH2 0x55F JUMP JUMPDEST PUSH1 0x40 MLOAD PUSH2 0x265 SWAP2 SWAP1 PUSH2 0x8BA JUMP JUMPDEST PUSH1 0x40 MLOAD DUP1 SWAP2 SUB SWAP1 RETURN JUMPDEST PUSH2 0x276 PUSH2 0x60B JUMP JUMPDEST PUSH1 0x40 MLOAD PUSH2 0x283 SWAP2 SWAP1 PUSH2 0x884 JUMP JUMPDEST PUSH1 0x40 MLOAD DUP1 SWAP2 SUB SWAP1 RETURN JUMPDEST PUSH2 0x294 PUSH2 0x611 JUMP JUMPDEST PUSH1 0x40 MLOAD PUSH2 0x2A1 SWAP2 SWAP1 PUSH2 0x869 JUMP JUMPDEST PUSH1 0x40 MLOAD DUP1 SWAP2 SUB SWAP1 RETURN JUMPDEST PUSH2 0x2B2 PUSH2 0x617 JUMP JUMPDEST PUSH1 0x40 MLOAD PUSH2 0x2BF SWAP2 SWAP1 PUSH2 0x8DC JUMP JUMPDEST PUSH1 0x40 MLOAD DUP1 SWAP2 SUB SWAP1 RETURN JUMPDEST PUSH1 0x0 DUP1 PUSH1 0x1 SWAP1 POP DUP1 SWAP2 POP POP SWAP1 JUMP JUMPDEST PUSH1 0x7 PUSH1 0x0 SWAP1 SLOAD SWAP1 PUSH2 0x100 EXP SWAP1 DIV PUSH20 0xFFFFFFFFFFFFFFFFFFFFFFFFFFFFFFFFFFFFFFFF AND DUP2 JUMP JUMPDEST PUSH1 0x8 DUP1 PUSH1 0x0 ADD SLOAD SWAP1 DUP1 PUSH1 0x1 ADD DUP1 SLOAD PUSH2 0x313 SWAP1 PUSH2 0xA60 JUMP JUMPDEST DUP1 PUSH1 0x1F ADD PUSH1 0x20 DUP1 SWAP2 DIV MUL PUSH1 0x20 ADD PUSH1 0x40 MLOAD SWAP1 DUP2 ADD PUSH1 0x40 MSTORE DUP1 SWAP3 SWAP2 SWAP1 DUP2 DUP2 MSTORE PUSH1 0x20 ADD DUP3 DUP1 SLOAD PUSH2 0x33F SWAP1 PUSH2 0xA60 JUMP JUMPDEST DUP1 ISZERO PUSH2 0x38C JUMPI DUP1 PUSH1 0x1F LT PUSH2 0x361 JUMPI PUSH2 0x100 DUP1 DUP4 SLOAD DIV MUL DUP4 MSTORE SWAP2 PUSH1 0x20 ADD SWAP2 PUSH2 0x38C JUMP JUMPDEST DUP3 ADD SWAP2 SWAP1 PUSH1 0x0 MSTORE PUSH1 0x20 PUSH1 0x0 KECCAK256 SWAP1 JUMPDEST DUP2 SLOAD DUP2 MSTORE SWAP1 PUSH1 0x1 ADD SWAP1 PUSH1 0x20 ADD DUP1 DUP4 GT PUSH2 0x36F JUMPI DUP3 SWAP1 SUB PUSH1 0x1F AND DUP3 ADD SWAP2 JUMPDEST POP POP POP POP POP SWAP1 POP DUP3 JUMP JUMPDEST PUSH1 0xA DUP2 DUP2 SLOAD DUP2 LT PUSH2 0x3A6 JUMPI PUSH1 0x0 DUP1 REVERT JUMPDEST SWAP1 PUSH1 0x0 MSTORE PUSH1 0x20 PUSH1 0x0 KECCAK256 ADD PUSH1 0x0 SWAP2 POP SWAP1 POP SLOAD DUP2 JUMP JUMPDEST PUSH1 0xC DUP2 SWAP1 DUP1 PUSH1 0x1 DUP2 SLOAD ADD DUP1 DUP3 SSTORE DUP1 SWAP2 POP POP PUSH1 0x1 SWAP1 SUB SWAP1 PUSH1 0x0 MSTORE PUSH1 0x20 PUSH1 0x0 KECCAK256 ADD PUSH1 0x0 SWAP1 SWAP2 SWAP1 SWAP2 SWAP1 SWAP2 POP SWAP1 DUP1 MLOAD SWAP1 PUSH1 0x20 ADD SWAP1 PUSH2 0x3F5 SWAP3 SWAP2 SWAP1 PUSH2 0x61D JUMP JUMPDEST POP POP JUMP JUMPDEST PUSH1 0x4 PUSH1 0x0 SWAP1 SLOAD SWAP1 PUSH2 0x100 EXP SWAP1 DIV PUSH1 0xFF AND DUP2 JUMP JUMPDEST PUSH1 0xC DUP2 DUP2 SLOAD DUP2 LT PUSH2 0x41C JUMPI PUSH1 0x0 DUP1 REVERT JUMPDEST SWAP1 PUSH1 0x0 MSTORE PUSH1 0x20 PUSH1 0x0 KECCAK256 ADD PUSH1 0x0 SWAP2 POP SWAP1 POP DUP1 SLOAD PUSH2 0x437 SWAP1 PUSH2 0xA60 JUMP JUMPDEST DUP1 PUSH1 0x1F ADD PUSH1 0x20 DUP1 SWAP2 DIV MUL PUSH1 0x20 ADD PUSH1 0x40 MLOAD SWAP1 DUP2 ADD PUSH1 0x40 MSTORE DUP1 SWAP3 SWAP2 SWAP1 DUP2 DUP2 MSTORE PUSH1 0x20 ADD DUP3 DUP1 SLOAD PUSH2 0x463 SWAP1 PUSH2 0xA60 JUMP JUMPDEST DUP1 ISZERO PUSH2 0x4B0 JUMPI DUP1 PUSH1 0x1F LT PUSH2 0x485 JUMPI PUSH2 0x100 DUP1 DUP4 SLOAD DIV MUL DUP4 MSTORE SWAP2 PUSH1 0x20 ADD SWAP2 PUSH2 0x4B0 JUMP JUMPDEST DUP3 ADD SWAP2 SWAP1 PUSH1 0x0 MSTORE PUSH1 0x20 PUSH1 0x0 KECCAK256 SWAP1 JUMPDEST DUP2 SLOAD DUP2 MSTORE SWAP1 PUSH1 0x1 ADD SWAP1 PUSH1 0x20 ADD DUP1 DUP4 GT PUSH2 0x493 JUMPI DUP3 SWAP1 SUB PUSH1 0x1F AND DUP3 ADD SWAP2 JUMPDEST POP POP POP POP POP DUP2 JUMP JUMPDEST PUSH1 0x5 DUP1 SLOAD PUSH2 0x4C5 SWAP1 PUSH2 0xA60 JUMP JUMPDEST DUP1 PUSH1 0x1F ADD PUSH1 0x20 DUP1 SWAP2 DIV MUL PUSH1 0x20 ADD PUSH1 0x40 MLOAD SWAP1 DUP2 ADD PUSH1 0x40 MSTORE DUP1 SWAP3 SWAP2 SWAP1 DUP2 DUP2 MSTORE PUSH1 0x20 ADD DUP3 DUP1 SLOAD PUSH2 0x4F1 SWAP1 PUSH2 0xA60 JUMP JUMPDEST DUP1 ISZERO PUSH2 0x53E JUMPI DUP1 PUSH1 0x1F LT PUSH2 0x513 JUMPI PUSH2 0x100 DUP1 DUP4 SLOAD DIV MUL DUP4 MSTORE SWAP2 PUSH1 0x20 ADD SWAP2 PUSH2 0x53E JUMP JUMPDEST DUP3 ADD SWAP2 SWAP1 PUSH1 0x0 MSTORE PUSH1 0x20 PUSH1 0x0 KECCAK256 SWAP1 JUMPDEST DUP2 SLOAD DUP2 MSTORE SWAP1 PUSH1 0x1 ADD SWAP1 PUSH1 0x20 ADD DUP1 DUP4 GT PUSH2 0x521 JUMPI DUP3 SWAP1 SUB PUSH1 0x1F AND DUP3 ADD SWAP2 JUMPDEST POP POP POP POP POP DUP2 JUMP JUMPDEST PUSH1 0x1 PUSH1 0x0 SWAP1 SLOAD SWAP1 PUSH2 0x100 EXP SWAP1 DIV PUSH1 0x0 SIGNEXTEND DUP2 JUMP JUMPDEST PUSH1 0x3 SLOAD DUP2 JUMP JUMPDEST PUSH1 0xB DUP2 DUP2 SLOAD DUP2 LT PUSH2 0x56F JUMPI PUSH1 0x0 DUP1 REVERT JUMPDEST SWAP1 PUSH1 0x0 MSTORE PUSH1 0x20 PUSH1 0x0 KECCAK256 ADD PUSH1 0x0 SWAP2 POP SWAP1 POP DUP1 SLOAD PUSH2 0x58A SWAP1 PUSH2 0xA60 JUMP JUMPDEST DUP1 PUSH1 0x1F ADD PUSH1 0x20 DUP1 SWAP2 DIV MUL PUSH1 0x20 ADD PUSH1 0x40 MLOAD SWAP1 DUP2 ADD PUSH1 0x40 MSTORE DUP1 SWAP3 SWAP2 SWAP1 DUP2 DUP2 MSTORE PUSH1 0x20 ADD DUP3 DUP1 SLOAD PUSH2 0x5B6 SWAP1 PUSH2 0xA60 JUMP JUMPDEST DUP1 ISZERO PUSH2 0x603 JUMPI DUP1 PUSH1 0x1F LT PUSH2 0x5D8 JUMPI PUSH2 0x100 DUP1 DUP4 SLOAD DIV MUL DUP4 MSTORE SWAP2 PUSH1 0x20 ADD SWAP2 PUSH2 0x603 JUMP JUMPDEST DUP3 ADD SWAP2 SWAP1 PUSH1 0x0 MSTORE PUSH1 0x20 PUSH1 0x0 KECCAK256 SWAP1 JUMPDEST DUP2 SLOAD DUP2 MSTORE SWAP1 PUSH1 0x1 ADD SWAP1 PUSH1 0x20 ADD DUP1 DUP4 GT PUSH2 0x5E6 JUMPI DUP3 SWAP1 SUB PUSH1 0x1F AND DUP3 ADD SWAP2 JUMPDEST POP POP POP POP POP DUP2 JUMP JUMPDEST PUSH1 0x0 SLOAD DUP2 JUMP JUMPDEST PUSH1 0x6 SLOAD DUP2 JUMP JUMPDEST PUSH1 0x2 SLOAD DUP2 JUMP JUMPDEST DUP3 DUP1 SLOAD PUSH2 0x629 SWAP1 PUSH2 0xA60 JUMP JUMPDEST SWAP1 PUSH1 0x0 MSTORE PUSH1 0x20 PUSH1 0x0 KECCAK256 SWAP1 PUSH1 0x1F ADD PUSH1 0x20 SWAP1 DIV DUP2 ADD SWAP3 DUP3 PUSH2 0x64B JUMPI PUSH1 0x0 DUP6 SSTORE PUSH2 0x692 JUMP JUMPDEST DUP3 PUSH1 0x1F LT PUSH2 0x664 JUMPI DUP1 MLOAD PUSH1 0xFF NOT AND DUP4 DUP1 ADD OR DUP6 SSTORE PUSH2 0x692 JUMP JUMPDEST DUP3 DUP1 ADD PUSH1 0x1 ADD DUP6 SSTORE DUP3 ISZERO PUSH2 0x692 JUMPI SWAP2 DUP3 ADD JUMPDEST DUP3 DUP2 GT ISZERO PUSH2 0x691 JUMPI DUP3 MLOAD DUP3 SSTORE SWAP2 PUSH1 0x20 ADD SWAP2 SWAP1 PUSH1 0x1 ADD SWAP1 PUSH2 0x676 JUMP JUMPDEST JUMPDEST POP SWAP1 POP PUSH2 0x69F SWAP2 SWAP1 PUSH2 0x6A3 JUMP JUMPDEST POP SWAP1 JUMP JUMPDEST JUMPDEST DUP1 DUP3 GT ISZERO PUSH2 0x6BC JUMPI PUSH1 0x0 DUP2 PUSH1 0x0 SWAP1 SSTORE POP PUSH1 0x1 ADD PUSH2 0x6A4 JUMP JUMPDEST POP SWAP1 JUMP JUMPDEST PUSH1 0x0 PUSH2 0x6D3 PUSH2 0x6CE DUP5 PUSH2 0x967 JUMP JUMPDEST PUSH2 0x942 JUMP JUMPDEST SWAP1 POP DUP3 DUP2 MSTORE PUSH1 0x20 DUP2 ADD DUP5 DUP5 DUP5 ADD GT ISZERO PUSH2 0x6EF JUMPI PUSH2 0x6EE PUSH2 0xB26 JUMP JUMPDEST JUMPDEST PUSH2 0x6FA DUP5 DUP3 DUP6 PUSH2 0xA1E JUMP JUMPDEST POP SWAP4 SWAP3 POP POP POP JUMP JUMPDEST PUSH1 0x0 DUP3 PUSH1 0x1F DUP4 ADD SLT PUSH2 0x717 JUMPI PUSH2 0x716 PUSH2 0xB21 JUMP JUMPDEST JUMPDEST DUP2 CALLDATALOAD PUSH2 0x727 DUP5 DUP3 PUSH1 0x20 DUP7 ADD PUSH2 0x6C0 JUMP JUMPDEST SWAP2 POP POP SWAP3 SWAP2 POP POP JUMP JUMPDEST PUSH1 0x0 DUP2 CALLDATALOAD SWAP1 POP PUSH2 0x73F DUP2 PUSH2 0xB46 JUMP JUMPDEST SWAP3 SWAP2 POP POP JUMP JUMPDEST PUSH1 0x0 PUSH1 0x20 DUP3 DUP5 SUB SLT ISZERO PUSH2 0x75B JUMPI PUSH2 0x75A PUSH2 0xB30 JUMP JUMPDEST JUMPDEST PUSH1 0x0 DUP3 ADD CALLDATALOAD PUSH8 0xFFFFFFFFFFFFFFFF DUP2 GT ISZERO PUSH2 0x779 JUMPI PUSH2 0x778 PUSH2 0xB2B JUMP JUMPDEST JUMPDEST PUSH2 0x785 DUP5 DUP3 DUP6 ADD PUSH2 0x702 JUMP JUMPDEST SWAP2 POP POP SWAP3 SWAP2 POP POP JUMP JUMPDEST PUSH1 0x0 PUSH1 0x20 DUP3 DUP5 SUB SLT ISZERO PUSH2 0x7A4 JUMPI PUSH2 0x7A3 PUSH2 0xB30 JUMP JUMPDEST JUMPDEST PUSH1 0x0 PUSH2 0x7B2 DUP5 DUP3 DUP6 ADD PUSH2 0x730 JUMP JUMPDEST SWAP2 POP POP SWAP3 SWAP2 POP POP JUMP JUMPDEST PUSH2 0x7C4 DUP2 PUSH2 0x9B4 JUMP JUMPDEST DUP3 MSTORE POP POP JUMP JUMPDEST PUSH2 0x7D3 DUP2 PUSH2 0x9C6 JUMP JUMPDEST DUP3 MSTORE POP POP JUMP JUMPDEST PUSH2 0x7E2 DUP2 PUSH2 0x9D0 JUMP JUMPDEST DUP3 MSTORE POP POP JUMP JUMPDEST PUSH2 0x7F1 DUP2 PUSH2 0x9DA JUMP JUMPDEST DUP3 MSTORE POP POP JUMP JUMPDEST PUSH1 0x0 PUSH2 0x802 DUP3 PUSH2 0x998 JUMP JUMPDEST PUSH2 0x80C DUP2 DUP6 PUSH2 0x9A3 JUMP JUMPDEST SWAP4 POP PUSH2 0x81C DUP2 DUP6 PUSH1 0x20 DUP7 ADD PUSH2 0xA2D JUMP JUMPDEST PUSH2 0x825 DUP2 PUSH2 0xB35 JUMP JUMPDEST DUP5 ADD SWAP2 POP POP SWAP3 SWAP2 POP POP JUMP JUMPDEST PUSH2 0x839 DUP2 PUSH2 0xA07 JUMP JUMPDEST DUP3 MSTORE POP POP JUMP JUMPDEST PUSH2 0x848 DUP2 PUSH2 0xA11 JUMP JUMPDEST DUP3 MSTORE POP POP JUMP JUMPDEST PUSH1 0x0 PUSH1 0x20 DUP3 ADD SWAP1 POP PUSH2 0x863 PUSH1 0x0 DUP4 ADD DUP5 PUSH2 0x7BB JUMP JUMPDEST SWAP3 SWAP2 POP POP JUMP JUMPDEST PUSH1 0x0 PUSH1 0x20 DUP3 ADD SWAP1 POP PUSH2 0x87E PUSH1 0x0 DUP4 ADD DUP5 PUSH2 0x7CA JUMP JUMPDEST SWAP3 SWAP2 POP POP JUMP JUMPDEST PUSH1 0x0 PUSH1 0x20 DUP3 ADD SWAP1 POP PUSH2 0x899 PUSH1 0x0 DUP4 ADD DUP5 PUSH2 0x7D9 JUMP JUMPDEST SWAP3 SWAP2 POP POP JUMP JUMPDEST PUSH1 0x0 PUSH1 0x20 DUP3 ADD SWAP1 POP PUSH2 0x8B4 PUSH1 0x0 DUP4 ADD DUP5 PUSH2 0x7E8 JUMP JUMPDEST SWAP3 SWAP2 POP POP JUMP JUMPDEST PUSH1 0x0 PUSH1 0x20 DUP3 ADD SWAP1 POP DUP2 DUP2 SUB PUSH1 0x0 DUP4 ADD MSTORE PUSH2 0x8D4 DUP2 DUP5 PUSH2 0x7F7 JUMP JUMPDEST SWAP1 POP SWAP3 SWAP2 POP POP JUMP JUMPDEST PUSH1 0x0 PUSH1 0x20 DUP3 ADD SWAP1 POP PUSH2 0x8F1 PUSH1 0x0 DUP4 ADD DUP5 PUSH2 0x830 JUMP JUMPDEST SWAP3 SWAP2 POP POP JUMP JUMPDEST PUSH1 0x0 PUSH1 0x40 DUP3 ADD SWAP1 POP PUSH2 0x90C PUSH1 0x0 DUP4 ADD DUP6 PUSH2 0x830 JUMP JUMPDEST DUP2 DUP2 SUB PUSH1 0x20 DUP4 ADD MSTORE PUSH2 0x91E DUP2 DUP5 PUSH2 0x7F7 JUMP JUMPDEST SWAP1 POP SWAP4 SWAP3 POP POP POP JUMP JUMPDEST PUSH1 0x0 PUSH1 0x20 DUP3 ADD SWAP1 POP PUSH2 0x93C PUSH1 0x0 DUP4 ADD DUP5 PUSH2 0x83F JUMP JUMPDEST SWAP3 SWAP2 POP POP JUMP JUMPDEST PUSH1 0x0 PUSH2 0x94C PUSH2 0x95D JUMP JUMPDEST SWAP1 POP PUSH2 0x958 DUP3 DUP3 PUSH2 0xA92 JUMP JUMPDEST SWAP2 SWAP1 POP JUMP JUMPDEST PUSH1 0x0 PUSH1 0x40 MLOAD SWAP1 POP SWAP1 JUMP JUMPDEST PUSH1 0x0 PUSH8 0xFFFFFFFFFFFFFFFF DUP3 GT ISZERO PUSH2 0x982 JUMPI PUSH2 0x981 PUSH2 0xAF2 JUMP JUMPDEST JUMPDEST PUSH2 0x98B DUP3 PUSH2 0xB35 JUMP JUMPDEST SWAP1 POP PUSH1 0x20 DUP2 ADD SWAP1 POP SWAP2 SWAP1 POP JUMP JUMPDEST PUSH1 0x0 DUP2 MLOAD SWAP1 POP SWAP2 SWAP1 POP JUMP JUMPDEST PUSH1 0x0 DUP3 DUP3 MSTORE PUSH1 0x20 DUP3 ADD SWAP1 POP SWAP3 SWAP2 POP POP JUMP JUMPDEST PUSH1 0x0 PUSH2 0x9BF DUP3 PUSH2 0x9E7 JUMP JUMPDEST SWAP1 POP SWAP2 SWAP1 POP JUMP JUMPDEST PUSH1 0x0 DUP2 SWAP1 POP SWAP2 SWAP1 POP JUMP JUMPDEST PUSH1 0x0 DUP2 SWAP1 POP SWAP2 SWAP1 POP JUMP JUMPDEST PUSH1 0x0 DUP2 PUSH1 0x0 SIGNEXTEND SWAP1 POP SWAP2 SWAP1 POP JUMP JUMPDEST PUSH1 0x0 PUSH20 0xFFFFFFFFFFFFFFFFFFFFFFFFFFFFFFFFFFFFFFFF DUP3 AND SWAP1 POP SWAP2 SWAP1 POP JUMP JUMPDEST PUSH1 0x0 DUP2 SWAP1 POP SWAP2 SWAP1 POP JUMP JUMPDEST PUSH1 0x0 PUSH1 0xFF DUP3 AND SWAP1 POP SWAP2 SWAP1 POP JUMP JUMPDEST DUP3 DUP2 DUP4 CALLDATACOPY PUSH1 0x0 DUP4 DUP4 ADD MSTORE POP POP POP JUMP JUMPDEST PUSH1 0x0 JUMPDEST DUP4 DUP2 LT ISZERO PUSH2 0xA4B JUMPI DUP1 DUP3 ADD MLOAD DUP2 DUP5 ADD MSTORE PUSH1 0x20 DUP2 ADD SWAP1 POP PUSH2 0xA30 JUMP JUMPDEST DUP4 DUP2 GT ISZERO PUSH2 0xA5A JUMPI PUSH1 0x0 DUP5 DUP5 ADD MSTORE JUMPDEST POP POP POP POP JUMP JUMPDEST PUSH1 0x0 PUSH1 0x2 DUP3 DIV SWAP1 POP PUSH1 0x1 DUP3 AND DUP1 PUSH2 0xA78 JUMPI PUSH1 0x7F DUP3 AND SWAP2 POP JUMPDEST PUSH1 0x20 DUP3 LT DUP2 EQ ISZERO PUSH2 0xA8C JUMPI PUSH2 0xA8B PUSH2 0xAC3 JUMP JUMPDEST JUMPDEST POP SWAP2 SWAP1 POP JUMP JUMPDEST PUSH2 0xA9B DUP3 PUSH2 0xB35 JUMP JUMPDEST DUP2 ADD DUP2 DUP2 LT PUSH8 0xFFFFFFFFFFFFFFFF DUP3 GT OR ISZERO PUSH2 0xABA JUMPI PUSH2 0xAB9 PUSH2 0xAF2 JUMP JUMPDEST JUMPDEST DUP1 PUSH1 0x40 MSTORE POP POP POP JUMP JUMPDEST PUSH32 0x4E487B7100000000000000000000000000000000000000000000000000000000 PUSH1 0x0 MSTORE PUSH1 0x22 PUSH1 0x4 MSTORE PUSH1 0x24 PUSH1 0x0 REVERT JUMPDEST PUSH32 0x4E487B7100000000000000000000000000000000000000000000000000000000 PUSH1 0x0 MSTORE PUSH1 0x41 PUSH1 0x4 MSTORE PUSH1 0x24 PUSH1 0x0 REVERT JUMPDEST PUSH1 0x0 DUP1 REVERT JUMPDEST PUSH1 0x0 DUP1 REVERT JUMPDEST PUSH1 0x0 DUP1 REVERT JUMPDEST PUSH1 0x0 DUP1 REVERT JUMPDEST PUSH1 0x0 PUSH1 0x1F NOT PUSH1 0x1F DUP4 ADD AND SWAP1 POP SWAP2 SWAP1 POP JUMP JUMPDEST PUSH2 0xB4F DUP2 PUSH2 0xA07 JUMP JUMPDEST DUP2 EQ PUSH2 0xB5A JUMPI PUSH1 0x0 DUP1 REVERT JUMPDEST POP JUMP INVALID LOG2 PUSH5 0x6970667358 0x22 SLT KECCAK256 SHR LOG0 GT 0xDE SWAP16 0xA8 0xE5 PUSH1 0x52 0xD9 0xA6 0xE2 0x23 0xB6 DUP14 DUP3 SWAP12 DIV 0x2D BYTE DUP15 0x1F CREATE 0xC2 0xD2 PUSH1 0xEA 0xE6 PUSH3 0x7619B0 PUSH5 0x736F6C6343 STOP ADDMOD SMOD STOP CALLER "
				},
				"gasEstimates": {
					"creation": {
						"codeDepositCost": "592600",
						"executionCost": "infinite",
						"totalCost": "infinite"
					},
					"external": {
						"MyUnit()": "2517",
						"abc()": "2473",
						"abc8()": "2520",
						"addValue(string)": "infinite",
						"getValue()": "374",
						"my8bit()": "2538",
						"myAddress()": "2560",
						"myByteArray()": "2495",
						"myString()": "infinite",
						"myStructVariable()": "infinite",
						"myUnint256()": "2496",
						"stringArray(uint256)": "infinite",
						"stringValue(uint256)": "infinite",
						"unintArray(uint256)": "infinite"
					}
				},
				"methodIdentifiers": {
					"MyUnit()": "ff643c92",
					"abc()": "92277933",
					"abc8()": "562d7f35",
					"addValue(string)": "3a5fbaaa",
					"getValue()": "20965255",
					"my8bit()": "45838889",
					"myAddress()": "26b85ee1",
					"myByteArray()": "b992b6db",
					"myString()": "492bfa18",
					"myStructVariable()": "285568b7",
					"myUnint256()": "563566a1",
					"stringArray(uint256)": "6422c4c8",
					"stringValue(uint256)": "4885d0c5",
					"unintArray(uint256)": "3544b472"
				}
			},
			"storageLayout": {
				"storage": [
					{
						"astId": 4,
						"contract": "contracts/MyContract.sol:MyContract",
						"label": "abc",
						"offset": 0,
						"slot": "0",
						"type": "t_int256"
					},
					{
						"astId": 7,
						"contract": "contracts/MyContract.sol:MyContract",
						"label": "abc8",
						"offset": 0,
						"slot": "1",
						"type": "t_int8"
					},
					{
						"astId": 10,
						"contract": "contracts/MyContract.sol:MyContract",
						"label": "MyUnit",
						"offset": 0,
						"slot": "2",
						"type": "t_uint256"
					},
					{
						"astId": 13,
						"contract": "contracts/MyContract.sol:MyContract",
						"label": "myUnint256",
						"offset": 0,
						"slot": "3",
						"type": "t_uint256"
					},
					{
						"astId": 16,
						"contract": "contracts/MyContract.sol:MyContract",
						"label": "my8bit",
						"offset": 0,
						"slot": "4",
						"type": "t_uint8"
					},
					{
						"astId": 19,
						"contract": "contracts/MyContract.sol:MyContract",
						"label": "myString",
						"offset": 0,
						"slot": "5",
						"type": "t_string_storage"
					},
					{
						"astId": 22,
						"contract": "contracts/MyContract.sol:MyContract",
						"label": "myByteArray",
						"offset": 0,
						"slot": "6",
						"type": "t_bytes32"
					},
					{
						"astId": 25,
						"contract": "contracts/MyContract.sol:MyContract",
						"label": "myAddress",
						"offset": 0,
						"slot": "7",
						"type": "t_address"
					},
					{
						"astId": 37,
						"contract": "contracts/MyContract.sol:MyContract",
						"label": "myStructVariable",
						"offset": 0,
						"slot": "8",
						"type": "t_struct(myStruct)30_storage"
					},
					{
						"astId": 46,
						"contract": "contracts/MyContract.sol:MyContract",
						"label": "unintArray",
						"offset": 0,
						"slot": "10",
						"type": "t_array(t_uint256)dyn_storage"
					},
					{
						"astId": 53,
						"contract": "contracts/MyContract.sol:MyContract",
						"label": "stringArray",
						"offset": 0,
						"slot": "11",
						"type": "t_array(t_string_storage)dyn_storage"
					},
					{
						"astId": 56,
						"contract": "contracts/MyContract.sol:MyContract",
						"label": "stringValue",
						"offset": 0,
						"slot": "12",
						"type": "t_array(t_string_storage)dyn_storage"
					}
				],
				"types": {
					"t_address": {
						"encoding": "inplace",
						"label": "address",
						"numberOfBytes": "20"
					},
					"t_array(t_string_storage)dyn_storage": {
						"base": "t_string_storage",
						"encoding": "dynamic_array",
						"label": "string[]",
						"numberOfBytes": "32"
					},
					"t_array(t_uint256)dyn_storage": {
						"base": "t_uint256",
						"encoding": "dynamic_array",
						"label": "uint256[]",
						"numberOfBytes": "32"
					},
					"t_bytes32": {
						"encoding": "inplace",
						"label": "bytes32",
						"numberOfBytes": "32"
					},
					"t_int256": {
						"encoding": "inplace",
						"label": "int256",
						"numberOfBytes": "32"
					},
					"t_int8": {
						"encoding": "inplace",
						"label": "int8",
						"numberOfBytes": "1"
					},
					"t_string_storage": {
						"encoding": "bytes",
						"label": "string",
						"numberOfBytes": "32"
					},
					"t_struct(myStruct)30_storage": {
						"encoding": "inplace",
						"label": "struct MyContract.myStruct",
						"members": [
							{
								"astId": 27,
								"contract": "contracts/MyContract.sol:MyContract",
								"label": "id",
								"offset": 0,
								"slot": "0",
								"type": "t_uint256"
							},
							{
								"astId": 29,
								"contract": "contracts/MyContract.sol:MyContract",
								"label": "mystring",
								"offset": 0,
								"slot": "1",
								"type": "t_string_storage"
							}
						],
						"numberOfBytes": "64"
					},
					"t_uint256": {
						"encoding": "inplace",
						"label": "uint256",
						"numberOfBytes": "32"
					},
					"t_uint8": {
						"encoding": "inplace",
						"label": "uint8",
						"numberOfBytes": "1"
					}
				}
			},
			"userdoc": {
				"kind": "user",
				"methods": {},
				"version": 1
			}
		}
	}
}