{
	"contracts/MyContract.sol": {
		"MyContract": {
			"abi": [
				{
					"inputs": [],
					"stateMutability": "nonpayable",
					"type": "constructor"
				},
				{
					"inputs": [],
					"name": "MyUnit",
					"outputs": [
						{
							"internalType": "uint256",
							"name": "",
							"type": "uint256"
						}
					],
					"stateMutability": "view",
					"type": "function"
				},
				{
					"inputs": [],
					"name": "abc",
					"outputs": [
						{
							"internalType": "int256",
							"name": "",
							"type": "int256"
						}
					],
					"stateMutability": "view",
					"type": "function"
				},
				{
					"inputs": [],
					"name": "abc8",
					"outputs": [
						{
							"internalType": "int8",
							"name": "",
							"type": "int8"
						}
					],
					"stateMutability": "view",
					"type": "function"
				},
				{
					"inputs": [
						{
							"internalType": "string",
							"name": "_value",
							"type": "string"
						}
					],
					"name": "addValue",
					"outputs": [],
					"stateMutability": "nonpayable",
					"type": "function"
				},
				{
					"inputs": [],
					"name": "getLength",
					"outputs": [
						{
							"internalType": "uint256",
							"name": "",
							"type": "uint256"
						}
					],
					"stateMutability": "view",
					"type": "function"
				},
				{
					"inputs": [],
					"name": "getValue",
					"outputs": [
						{
							"internalType": "uint256",
							"name": "",
							"type": "uint256"
						}
					],
					"stateMutability": "pure",
					"type": "function"
				},
				{
					"inputs": [
						{
							"internalType": "uint256",
							"name": "",
							"type": "uint256"
						},
						{
							"internalType": "uint256",
							"name": "",
							"type": "uint256"
						}
					],
					"name": "my2DArray",
					"outputs": [
						{
							"internalType": "uint256",
							"name": "",
							"type": "uint256"
						}
					],
					"stateMutability": "view",
					"type": "function"
				},
				{
					"inputs": [],
					"name": "my8bit",
					"outputs": [
						{
							"internalType": "uint8",
							"name": "",
							"type": "uint8"
						}
					],
					"stateMutability": "view",
					"type": "function"
				},
				{
					"inputs": [],
					"name": "myAddress",
					"outputs": [
						{
							"internalType": "address",
							"name": "",
							"type": "address"
						}
					],
					"stateMutability": "view",
					"type": "function"
				},
				{
					"inputs": [],
					"name": "myByteArray",
					"outputs": [
						{
							"internalType": "bytes32",
							"name": "",
							"type": "bytes32"
						}
					],
					"stateMutability": "view",
					"type": "function"
				},
				{
					"inputs": [],
					"name": "myString",
					"outputs": [
						{
							"internalType": "string",
							"name": "",
							"type": "string"
						}
					],
					"stateMutability": "view",
					"type": "function"
				},
				{
					"inputs": [],
					"name": "myStructVariable",
					"outputs": [
						{
							"internalType": "uint256",
							"name": "id",
							"type": "uint256"
						},
						{
							"internalType": "string",
							"name": "mystring",
							"type": "string"
						}
					],
					"stateMutability": "view",
					"type": "function"
				},
				{
					"inputs": [],
					"name": "myUnint256",
					"outputs": [
						{
							"internalType": "uint256",
							"name": "",
							"type": "uint256"
						}
					],
					"stateMutability": "view",
					"type": "function"
				},
				{
					"inputs": [
						{
							"internalType": "uint256",
							"name": "",
							"type": "uint256"
						}
					],
					"name": "stringArray",
					"outputs": [
						{
							"internalType": "string",
							"name": "",
							"type": "string"
						}
					],
					"stateMutability": "view",
					"type": "function"
				},
				{
					"inputs": [
						{
							"internalType": "uint256",
							"name": "",
							"type": "uint256"
						}
					],
					"name": "stringValue",
					"outputs": [
						{
							"internalType": "string",
							"name": "",
							"type": "string"
						}
					],
					"stateMutability": "view",
					"type": "function"
				},
				{
					"inputs": [
						{
							"internalType": "uint256",
							"name": "",
							"type": "uint256"
						}
					],
					"name": "unintArray",
					"outputs": [
						{
							"internalType": "uint256",
							"name": "",
							"type": "uint256"
						}
					],
					"stateMutability": "view",
					"type": "function"
				}
			],
			"devdoc": {
				"kind": "dev",
				"methods": {},
				"version": 1
			},
			"evm": {
				"assembly": "    /* \"contracts/MyContract.sol\":58:1781  contract MyContract{\r... */\n  mstore(0x40, 0x80)\n    /* \"contracts/MyContract.sol\":345:346  1 */\n  0x01\n    /* \"contracts/MyContract.sol\":328:346  int public abc = 1 */\n  dup1\n  sstore\n    /* \"contracts/MyContract.sol\":372:373  1 */\n  0x01\n    /* \"contracts/MyContract.sol\":353:373  int8 public abc8 = 1 */\n  0x02\n  exp(0x0100, 0x00)\n  dup2\n  sload\n  dup2\n  0xff\n  mul\n  not\n  and\n  swap1\n  dup4\n  0x00\n  signextend\n  0xff\n  and\n  mul\n  or\n  swap1\n  sstore\n  pop\n    /* \"contracts/MyContract.sol\":402:403  1 */\n  0x01\n    /* \"contracts/MyContract.sol\":380:403  uint public MyUnit  = 1 */\n  0x03\n  sstore\n    /* \"contracts/MyContract.sol\":526:527  1 */\n  0x01\n    /* \"contracts/MyContract.sol\":497:527  uint256 public myUnint256  = 1 */\n  0x04\n  sstore\n    /* \"contracts/MyContract.sol\":572:573  1 */\n  0x01\n    /* \"contracts/MyContract.sol\":550:573  uint8 public my8bit = 1 */\n  0x05\n  exp(0x0100, 0x00)\n  dup2\n  sload\n  dup2\n  0xff\n  mul\n  not\n  and\n  swap1\n  dup4\n  0xff\n  and\n  mul\n  or\n  swap1\n  sstore\n  pop\n    /* \"contracts/MyContract.sol\":582:631  string public myString = \"My cat looks beautiful\" */\n  mload(0x40)\n  dup1\n  0x40\n  add\n  0x40\n  mstore\n  dup1\n  0x16\n  dup2\n  mstore\n  0x20\n  add\n  0x4d7920636174206c6f6f6b732062656175746966756c00000000000000000000\n  dup2\n  mstore\n  pop\n  0x06\n  swap1\n  dup1\n  mload\n  swap1\n  0x20\n  add\n  swap1\n  tag_1\n  swap3\n  swap2\n  swap1\n  tag_2\n  jump\t// in\ntag_1:\n  pop\n    /* \"contracts/MyContract.sol\":638:691  bytes32 public myByteArray = \"My cat looks beautiful\" */\n  sstore(0x07, 0x4d7920636174206c6f6f6b732062656175746966756c00000000000000000000)\n    /* \"contracts/MyContract.sol\":727:769  0xAb8483F64d9C6d1EcF9b849Ae677dD3315835cb2 */\n  0xab8483f64d9c6d1ecf9b849ae677dd3315835cb2\n    /* \"contracts/MyContract.sol\":700:769  address public myAddress = 0xAb8483F64d9C6d1EcF9b849Ae677dD3315835cb2 */\n  0x08\n  exp(0x0100, 0x00)\n  dup2\n  sload\n  dup2\n  0xffffffffffffffffffffffffffffffffffffffff\n  mul\n  not\n  and\n  swap1\n  dup4\n  0xffffffffffffffffffffffffffffffffffffffff\n  and\n  mul\n  or\n  swap1\n  sstore\n  pop\n    /* \"contracts/MyContract.sol\":1018:1043  myStruct(1,\"Hello world\") */\n  mload(0x40)\n  dup1\n  0x40\n  add\n  0x40\n  mstore\n  dup1\n    /* \"contracts/MyContract.sol\":1027:1028  1 */\n  0x01\n    /* \"contracts/MyContract.sol\":1018:1043  myStruct(1,\"Hello world\") */\n  dup2\n  mstore\n  0x20\n  add\n  mload(0x40)\n  dup1\n  0x40\n  add\n  0x40\n  mstore\n  dup1\n  0x0b\n  dup2\n  mstore\n  0x20\n  add\n  0x48656c6c6f20776f726c64000000000000000000000000000000000000000000\n  dup2\n  mstore\n  pop\n  dup2\n  mstore\n  pop\n    /* \"contracts/MyContract.sol\":983:1043  myStruct public myStructVariable = myStruct(1,\"Hello world\") */\n  0x09\n  0x00\n  dup3\n  add\n  mload\n  dup2\n  0x00\n  add\n  sstore\n  0x20\n  dup3\n  add\n  mload\n  dup2\n  0x01\n  add\n  swap1\n  dup1\n  mload\n  swap1\n  0x20\n  add\n  swap1\n  tag_3\n  swap3\n  swap2\n  swap1\n  tag_2\n  jump\t// in\ntag_3:\n  pop\n  pop\n  pop\n    /* \"contracts/MyContract.sol\":1066:1104  uint[] public unintArray = [1,2,2,2,3] */\n  mload(0x40)\n  dup1\n  0xa0\n  add\n  0x40\n  mstore\n  dup1\n    /* \"contracts/MyContract.sol\":1094:1095  1 */\n  0x01\n    /* \"contracts/MyContract.sol\":1066:1104  uint[] public unintArray = [1,2,2,2,3] */\n  0xff\n  and\n  dup2\n  mstore\n  0x20\n  add\n    /* \"contracts/MyContract.sol\":1096:1097  2 */\n  0x02\n    /* \"contracts/MyContract.sol\":1066:1104  uint[] public unintArray = [1,2,2,2,3] */\n  0xff\n  and\n  dup2\n  mstore\n  0x20\n  add\n    /* \"contracts/MyContract.sol\":1098:1099  2 */\n  0x02\n    /* \"contracts/MyContract.sol\":1066:1104  uint[] public unintArray = [1,2,2,2,3] */\n  0xff\n  and\n  dup2\n  mstore\n  0x20\n  add\n    /* \"contracts/MyContract.sol\":1100:1101  2 */\n  0x02\n    /* \"contracts/MyContract.sol\":1066:1104  uint[] public unintArray = [1,2,2,2,3] */\n  0xff\n  and\n  dup2\n  mstore\n  0x20\n  add\n    /* \"contracts/MyContract.sol\":1102:1103  3 */\n  0x03\n    /* \"contracts/MyContract.sol\":1066:1104  uint[] public unintArray = [1,2,2,2,3] */\n  0xff\n  and\n  dup2\n  mstore\n  pop\n  0x0b\n  swap1\n  0x05\n  tag_4\n  swap3\n  swap2\n  swap1\n  tag_5\n  jump\t// in\ntag_4:\n  pop\n    /* \"contracts/MyContract.sol\":1111:1169  string[] public stringArray = [\"apple\",\"baanana\",\"carrot\"] */\n  mload(0x40)\n  dup1\n  0x60\n  add\n  0x40\n  mstore\n  dup1\n  mload(0x40)\n  dup1\n  0x40\n  add\n  0x40\n  mstore\n  dup1\n  0x05\n  dup2\n  mstore\n  0x20\n  add\n  0x6170706c65000000000000000000000000000000000000000000000000000000\n  dup2\n  mstore\n  pop\n  dup2\n  mstore\n  0x20\n  add\n  mload(0x40)\n  dup1\n  0x40\n  add\n  0x40\n  mstore\n  dup1\n  0x07\n  dup2\n  mstore\n  0x20\n  add\n  0x6261616e616e6100000000000000000000000000000000000000000000000000\n  dup2\n  mstore\n  pop\n  dup2\n  mstore\n  0x20\n  add\n  mload(0x40)\n  dup1\n  0x40\n  add\n  0x40\n  mstore\n  dup1\n  0x06\n  dup2\n  mstore\n  0x20\n  add\n  0x636172726f740000000000000000000000000000000000000000000000000000\n  dup2\n  mstore\n  pop\n  dup2\n  mstore\n  pop\n  0x0c\n  swap1\n  0x03\n  tag_6\n  swap3\n  swap2\n  swap1\n  tag_7\n  jump\t// in\ntag_6:\n  pop\n    /* \"contracts/MyContract.sol\":1210:1258  uint256[][] public my2DArray = [[2,2,2],[2,3,3]] */\n  mload(0x40)\n  dup1\n  0x40\n  add\n  0x40\n  mstore\n  dup1\n  mload(0x40)\n  dup1\n  0x60\n  add\n  0x40\n  mstore\n  dup1\n    /* \"contracts/MyContract.sol\":1243:1244  2 */\n  0x02\n    /* \"contracts/MyContract.sol\":1210:1258  uint256[][] public my2DArray = [[2,2,2],[2,3,3]] */\n  0xff\n  and\n  dup2\n  mstore\n  0x20\n  add\n    /* \"contracts/MyContract.sol\":1245:1246  2 */\n  0x02\n    /* \"contracts/MyContract.sol\":1210:1258  uint256[][] public my2DArray = [[2,2,2],[2,3,3]] */\n  0xff\n  and\n  dup2\n  mstore\n  0x20\n  add\n    /* \"contracts/MyContract.sol\":1247:1248  2 */\n  0x02\n    /* \"contracts/MyContract.sol\":1210:1258  uint256[][] public my2DArray = [[2,2,2],[2,3,3]] */\n  0xff\n  and\n  dup2\n  mstore\n  pop\n  dup2\n  mstore\n  0x20\n  add\n  mload(0x40)\n  dup1\n  0x60\n  add\n  0x40\n  mstore\n  dup1\n    /* \"contracts/MyContract.sol\":1251:1252  2 */\n  0x02\n    /* \"contracts/MyContract.sol\":1210:1258  uint256[][] public my2DArray = [[2,2,2],[2,3,3]] */\n  0xff\n  and\n  dup2\n  mstore\n  0x20\n  add\n    /* \"contracts/MyContract.sol\":1253:1254  3 */\n  0x03\n    /* \"contracts/MyContract.sol\":1210:1258  uint256[][] public my2DArray = [[2,2,2],[2,3,3]] */\n  0xff\n  and\n  dup2\n  mstore\n  0x20\n  add\n    /* \"contracts/MyContract.sol\":1255:1256  3 */\n  0x03\n    /* \"contracts/MyContract.sol\":1210:1258  uint256[][] public my2DArray = [[2,2,2],[2,3,3]] */\n  0xff\n  and\n  dup2\n  mstore\n  pop\n  dup2\n  mstore\n  pop\n  0x0e\n  swap1\n  0x02\n  tag_8\n  swap3\n  swap2\n  swap1\n  tag_9\n  jump\t// in\ntag_8:\n  pop\n    /* \"contracts/MyContract.sol\":176:300  constructor() public {\r... */\n  callvalue\n  dup1\n  iszero\n  tag_10\n  jumpi\n  0x00\n  dup1\n  revert\ntag_10:\n  pop\n    /* \"contracts/MyContract.sol\":208:231  names[1] = \"Abhinandan\" */\n  mload(0x40)\n  dup1\n  0x40\n  add\n  0x40\n  mstore\n  dup1\n  0x0a\n  dup2\n  mstore\n  0x20\n  add\n  0x416268696e616e64616e00000000000000000000000000000000000000000000\n  dup2\n  mstore\n  pop\n    /* \"contracts/MyContract.sol\":208:213  names */\n  0x00\n    /* \"contracts/MyContract.sol\":208:216  names[1] */\n  dup1\n    /* \"contracts/MyContract.sol\":214:215  1 */\n  0x01\n    /* \"contracts/MyContract.sol\":208:216  names[1] */\n  dup2\n  mstore\n  0x20\n  add\n  swap1\n  dup2\n  mstore\n  0x20\n  add\n  0x00\n  keccak256\n    /* \"contracts/MyContract.sol\":208:231  names[1] = \"Abhinandan\" */\n  swap1\n  dup1\n  mload\n  swap1\n  0x20\n  add\n  swap1\n  tag_13\n  swap3\n  swap2\n  swap1\n  tag_2\n  jump\t// in\ntag_13:\n  pop\n    /* \"contracts/MyContract.sol\":242:262  names[2] = \"Deeepak\" */\n  mload(0x40)\n  dup1\n  0x40\n  add\n  0x40\n  mstore\n  dup1\n  0x07\n  dup2\n  mstore\n  0x20\n  add\n  0x4465656570616b00000000000000000000000000000000000000000000000000\n  dup2\n  mstore\n  pop\n    /* \"contracts/MyContract.sol\":242:247  names */\n  0x00\n    /* \"contracts/MyContract.sol\":242:250  names[2] */\n  dup1\n    /* \"contracts/MyContract.sol\":248:249  2 */\n  0x02\n    /* \"contracts/MyContract.sol\":242:250  names[2] */\n  dup2\n  mstore\n  0x20\n  add\n  swap1\n  dup2\n  mstore\n  0x20\n  add\n  0x00\n  keccak256\n    /* \"contracts/MyContract.sol\":242:262  names[2] = \"Deeepak\" */\n  swap1\n  dup1\n  mload\n  swap1\n  0x20\n  add\n  swap1\n  tag_14\n  swap3\n  swap2\n  swap1\n  tag_2\n  jump\t// in\ntag_14:\n  pop\n    /* \"contracts/MyContract.sol\":273:292  names[3] = \"Vishal\" */\n  mload(0x40)\n  dup1\n  0x40\n  add\n  0x40\n  mstore\n  dup1\n  0x06\n  dup2\n  mstore\n  0x20\n  add\n  0x56697368616c0000000000000000000000000000000000000000000000000000\n  dup2\n  mstore\n  pop\n    /* \"contracts/MyContract.sol\":273:278  names */\n  0x00\n    /* \"contracts/MyContract.sol\":273:281  names[3] */\n  dup1\n    /* \"contracts/MyContract.sol\":279:280  3 */\n  0x03\n    /* \"contracts/MyContract.sol\":273:281  names[3] */\n  dup2\n  mstore\n  0x20\n  add\n  swap1\n  dup2\n  mstore\n  0x20\n  add\n  0x00\n  keccak256\n    /* \"contracts/MyContract.sol\":273:292  names[3] = \"Vishal\" */\n  swap1\n  dup1\n  mload\n  swap1\n  0x20\n  add\n  swap1\n  tag_15\n  swap3\n  swap2\n  swap1\n  tag_2\n  jump\t// in\ntag_15:\n  pop\n    /* \"contracts/MyContract.sol\":58:1781  contract MyContract{\r... */\n  jump(tag_16)\ntag_2:\n  dup3\n  dup1\n  sload\n  tag_17\n  swap1\n  tag_18\n  jump\t// in\ntag_17:\n  swap1\n  0x00\n  mstore\n  keccak256(0x00, 0x20)\n  swap1\n  0x1f\n  add\n  0x20\n  swap1\n  div\n  dup2\n  add\n  swap3\n  dup3\n  tag_20\n  jumpi\n  0x00\n  dup6\n  sstore\n  jump(tag_19)\ntag_20:\n  dup3\n  0x1f\n  lt\n  tag_21\n  jumpi\n  dup1\n  mload\n  not(0xff)\n  and\n  dup4\n  dup1\n  add\n  or\n  dup6\n  sstore\n  jump(tag_19)\ntag_21:\n  dup3\n  dup1\n  add\n  0x01\n  add\n  dup6\n  sstore\n  dup3\n  iszero\n  tag_19\n  jumpi\n  swap2\n  dup3\n  add\ntag_22:\n  dup3\n  dup2\n  gt\n  iszero\n  tag_23\n  jumpi\n  dup3\n  mload\n  dup3\n  sstore\n  swap2\n  0x20\n  add\n  swap2\n  swap1\n  0x01\n  add\n  swap1\n  jump(tag_22)\ntag_23:\ntag_19:\n  pop\n  swap1\n  pop\n  tag_24\n  swap2\n  swap1\n  tag_25\n  jump\t// in\ntag_24:\n  pop\n  swap1\n  jump\t// out\ntag_5:\n  dup3\n  dup1\n  sload\n  dup3\n  dup3\n  sstore\n  swap1\n  0x00\n  mstore\n  keccak256(0x00, 0x20)\n  swap1\n  dup2\n  add\n  swap3\n  dup3\n  iszero\n  tag_26\n  jumpi\n  swap2\n  0x20\n  mul\n  dup3\n  add\ntag_27:\n  dup3\n  dup2\n  gt\n  iszero\n  tag_28\n  jumpi\n  dup3\n  mload\n  dup3\n  swap1\n  0xff\n  and\n  swap1\n  sstore\n  swap2\n  0x20\n  add\n  swap2\n  swap1\n  0x01\n  add\n  swap1\n  jump(tag_27)\ntag_28:\ntag_26:\n  pop\n  swap1\n  pop\n  tag_29\n  swap2\n  swap1\n  tag_25\n  jump\t// in\ntag_29:\n  pop\n  swap1\n  jump\t// out\ntag_7:\n  dup3\n  dup1\n  sload\n  dup3\n  dup3\n  sstore\n  swap1\n  0x00\n  mstore\n  keccak256(0x00, 0x20)\n  swap1\n  dup2\n  add\n  swap3\n  dup3\n  iszero\n  tag_30\n  jumpi\n  swap2\n  0x20\n  mul\n  dup3\n  add\ntag_31:\n  dup3\n  dup2\n  gt\n  iszero\n  tag_32\n  jumpi\n  dup3\n  mload\n  dup3\n  swap1\n  dup1\n  mload\n  swap1\n  0x20\n  add\n  swap1\n  tag_33\n  swap3\n  swap2\n  swap1\n  tag_2\n  jump\t// in\ntag_33:\n  pop\n  swap2\n  0x20\n  add\n  swap2\n  swap1\n  0x01\n  add\n  swap1\n  jump(tag_31)\ntag_32:\ntag_30:\n  pop\n  swap1\n  pop\n  tag_34\n  swap2\n  swap1\n  tag_35\n  jump\t// in\ntag_34:\n  pop\n  swap1\n  jump\t// out\ntag_9:\n  dup3\n  dup1\n  sload\n  dup3\n  dup3\n  sstore\n  swap1\n  0x00\n  mstore\n  keccak256(0x00, 0x20)\n  swap1\n  dup2\n  add\n  swap3\n  dup3\n  iszero\n  tag_36\n  jumpi\n  swap2\n  0x20\n  mul\n  dup3\n  add\ntag_37:\n  dup3\n  dup2\n  gt\n  iszero\n  tag_38\n  jumpi\n  dup3\n  mload\n  dup3\n  swap1\n  0x03\n  tag_39\n  swap3\n  swap2\n  swap1\n  tag_40\n  jump\t// in\ntag_39:\n  pop\n  swap2\n  0x20\n  add\n  swap2\n  swap1\n  0x01\n  add\n  swap1\n  jump(tag_37)\ntag_38:\ntag_36:\n  pop\n  swap1\n  pop\n  tag_41\n  swap2\n  swap1\n  tag_42\n  jump\t// in\ntag_41:\n  pop\n  swap1\n  jump\t// out\ntag_25:\ntag_43:\n  dup1\n  dup3\n  gt\n  iszero\n  tag_44\n  jumpi\n  0x00\n  dup2\n  0x00\n  swap1\n  sstore\n  pop\n  0x01\n  add\n  jump(tag_43)\ntag_44:\n  pop\n  swap1\n  jump\t// out\ntag_35:\ntag_45:\n  dup1\n  dup3\n  gt\n  iszero\n  tag_46\n  jumpi\n  0x00\n  dup2\n  dup2\n  tag_47\n  swap2\n  swap1\n  tag_48\n  jump\t// in\ntag_47:\n  pop\n  0x01\n  add\n  jump(tag_45)\ntag_46:\n  pop\n  swap1\n  jump\t// out\ntag_40:\n  dup3\n  dup1\n  sload\n  dup3\n  dup3\n  sstore\n  swap1\n  0x00\n  mstore\n  keccak256(0x00, 0x20)\n  swap1\n  dup2\n  add\n  swap3\n  dup3\n  iszero\n  tag_49\n  jumpi\n  swap2\n  0x20\n  mul\n  dup3\n  add\ntag_50:\n  dup3\n  dup2\n  gt\n  iszero\n  tag_51\n  jumpi\n  dup3\n  mload\n  dup3\n  swap1\n  0xff\n  and\n  swap1\n  sstore\n  swap2\n  0x20\n  add\n  swap2\n  swap1\n  0x01\n  add\n  swap1\n  jump(tag_50)\ntag_51:\ntag_49:\n  pop\n  swap1\n  pop\n  tag_52\n  swap2\n  swap1\n  tag_25\n  jump\t// in\ntag_52:\n  pop\n  swap1\n  jump\t// out\ntag_42:\ntag_53:\n  dup1\n  dup3\n  gt\n  iszero\n  tag_54\n  jumpi\n  0x00\n  dup2\n  dup2\n  tag_55\n  swap2\n  swap1\n  tag_56\n  jump\t// in\ntag_55:\n  pop\n  0x01\n  add\n  jump(tag_53)\ntag_54:\n  pop\n  swap1\n  jump\t// out\ntag_48:\n  pop\n  dup1\n  sload\n  tag_57\n  swap1\n  tag_18\n  jump\t// in\ntag_57:\n  0x00\n  dup3\n  sstore\n  dup1\n  0x1f\n  lt\n  tag_59\n  jumpi\n  pop\n  jump(tag_58)\ntag_59:\n  0x1f\n  add\n  0x20\n  swap1\n  div\n  swap1\n  0x00\n  mstore\n  keccak256(0x00, 0x20)\n  swap1\n  dup2\n  add\n  swap1\n  tag_60\n  swap2\n  swap1\n  tag_25\n  jump\t// in\ntag_60:\ntag_58:\n  pop\n  jump\t// out\ntag_56:\n  pop\n  dup1\n  sload\n  0x00\n  dup3\n  sstore\n  swap1\n  0x00\n  mstore\n  keccak256(0x00, 0x20)\n  swap1\n  dup2\n  add\n  swap1\n  tag_62\n  swap2\n  swap1\n  tag_25\n  jump\t// in\ntag_62:\n  pop\n  jump\t// out\n    /* \"#utility.yul\":7:327   */\ntag_18:\n    /* \"#utility.yul\":51:57   */\n  0x00\n    /* \"#utility.yul\":88:89   */\n  0x02\n    /* \"#utility.yul\":82:86   */\n  dup3\n    /* \"#utility.yul\":78:90   */\n  div\n    /* \"#utility.yul\":68:90   */\n  swap1\n  pop\n    /* \"#utility.yul\":135:136   */\n  0x01\n    /* \"#utility.yul\":129:133   */\n  dup3\n    /* \"#utility.yul\":125:137   */\n  and\n    /* \"#utility.yul\":156:174   */\n  dup1\n    /* \"#utility.yul\":146:227   */\n  tag_65\n  jumpi\n    /* \"#utility.yul\":212:216   */\n  0x7f\n    /* \"#utility.yul\":204:210   */\n  dup3\n    /* \"#utility.yul\":200:217   */\n  and\n    /* \"#utility.yul\":190:217   */\n  swap2\n  pop\n    /* \"#utility.yul\":146:227   */\ntag_65:\n    /* \"#utility.yul\":274:276   */\n  0x20\n    /* \"#utility.yul\":266:272   */\n  dup3\n    /* \"#utility.yul\":263:277   */\n  lt\n    /* \"#utility.yul\":243:261   */\n  dup2\n    /* \"#utility.yul\":240:278   */\n  eq\n    /* \"#utility.yul\":237:321   */\n  iszero\n  tag_66\n  jumpi\n    /* \"#utility.yul\":293:311   */\n  tag_67\n  tag_68\n  jump\t// in\ntag_67:\n    /* \"#utility.yul\":237:321   */\ntag_66:\n    /* \"#utility.yul\":58:327   */\n  pop\n    /* \"#utility.yul\":7:327   */\n  swap2\n  swap1\n  pop\n  jump\t// out\n    /* \"#utility.yul\":333:513   */\ntag_68:\n    /* \"#utility.yul\":381:458   */\n  0x4e487b7100000000000000000000000000000000000000000000000000000000\n    /* \"#utility.yul\":378:379   */\n  0x00\n    /* \"#utility.yul\":371:459   */\n  mstore\n    /* \"#utility.yul\":478:482   */\n  0x22\n    /* \"#utility.yul\":475:476   */\n  0x04\n    /* \"#utility.yul\":468:483   */\n  mstore\n    /* \"#utility.yul\":502:506   */\n  0x24\n    /* \"#utility.yul\":499:500   */\n  0x00\n    /* \"#utility.yul\":492:507   */\n  revert\n    /* \"contracts/MyContract.sol\":58:1781  contract MyContract{\r... */\ntag_16:\n  dataSize(sub_0)\n  dup1\n  dataOffset(sub_0)\n  0x00\n  codecopy\n  0x00\n  return\nstop\n\nsub_0: assembly {\n        /* \"contracts/MyContract.sol\":58:1781  contract MyContract{\r... */\n      mstore(0x40, 0x80)\n      callvalue\n      dup1\n      iszero\n      tag_1\n      jumpi\n      0x00\n      dup1\n      revert\n    tag_1:\n      pop\n      jumpi(tag_2, lt(calldatasize, 0x04))\n      shr(0xe0, calldataload(0x00))\n      dup1\n      0x562d7f35\n      gt\n      tag_19\n      jumpi\n      dup1\n      0x92277933\n      gt\n      tag_20\n      jumpi\n      dup1\n      0x92277933\n      eq\n      tag_15\n      jumpi\n      dup1\n      0xb992b6db\n      eq\n      tag_16\n      jumpi\n      dup1\n      0xbe1c766b\n      eq\n      tag_17\n      jumpi\n      dup1\n      0xff643c92\n      eq\n      tag_18\n      jumpi\n      jump(tag_2)\n    tag_20:\n      dup1\n      0x562d7f35\n      eq\n      tag_11\n      jumpi\n      dup1\n      0x563566a1\n      eq\n      tag_12\n      jumpi\n      dup1\n      0x6422c4c8\n      eq\n      tag_13\n      jumpi\n      dup1\n      0x7dd6b6bc\n      eq\n      tag_14\n      jumpi\n      jump(tag_2)\n    tag_19:\n      dup1\n      0x3a5fbaaa\n      gt\n      tag_21\n      jumpi\n      dup1\n      0x3a5fbaaa\n      eq\n      tag_7\n      jumpi\n      dup1\n      0x45838889\n      eq\n      tag_8\n      jumpi\n      dup1\n      0x4885d0c5\n      eq\n      tag_9\n      jumpi\n      dup1\n      0x492bfa18\n      eq\n      tag_10\n      jumpi\n      jump(tag_2)\n    tag_21:\n      dup1\n      0x20965255\n      eq\n      tag_3\n      jumpi\n      dup1\n      0x26b85ee1\n      eq\n      tag_4\n      jumpi\n      dup1\n      0x285568b7\n      eq\n      tag_5\n      jumpi\n      dup1\n      0x3544b472\n      eq\n      tag_6\n      jumpi\n    tag_2:\n      0x00\n      dup1\n      revert\n        /* \"contracts/MyContract.sol\":1485:1778  function getValue() public pure returns (uint) { // pure means doesn't modify blockchain only fetch the data\r... */\n    tag_3:\n      tag_22\n      tag_23\n      jump\t// in\n    tag_22:\n      mload(0x40)\n      tag_24\n      swap2\n      swap1\n      tag_25\n      jump\t// in\n    tag_24:\n      mload(0x40)\n      dup1\n      swap2\n      sub\n      swap1\n      return\n        /* \"contracts/MyContract.sol\":700:769  address public myAddress = 0xAb8483F64d9C6d1EcF9b849Ae677dD3315835cb2 */\n    tag_4:\n      tag_26\n      tag_27\n      jump\t// in\n    tag_26:\n      mload(0x40)\n      tag_28\n      swap2\n      swap1\n      tag_29\n      jump\t// in\n    tag_28:\n      mload(0x40)\n      dup1\n      swap2\n      sub\n      swap1\n      return\n        /* \"contracts/MyContract.sol\":983:1043  myStruct public myStructVariable = myStruct(1,\"Hello world\") */\n    tag_5:\n      tag_30\n      tag_31\n      jump\t// in\n    tag_30:\n      mload(0x40)\n      tag_32\n      swap3\n      swap2\n      swap1\n      tag_33\n      jump\t// in\n    tag_32:\n      mload(0x40)\n      dup1\n      swap2\n      sub\n      swap1\n      return\n        /* \"contracts/MyContract.sol\":1066:1104  uint[] public unintArray = [1,2,2,2,3] */\n    tag_6:\n      tag_34\n      0x04\n      dup1\n      calldatasize\n      sub\n      dup2\n      add\n      swap1\n      tag_35\n      swap2\n      swap1\n      tag_36\n      jump\t// in\n    tag_35:\n      tag_37\n      jump\t// in\n    tag_34:\n      mload(0x40)\n      tag_38\n      swap2\n      swap1\n      tag_25\n      jump\t// in\n    tag_38:\n      mload(0x40)\n      dup1\n      swap2\n      sub\n      swap1\n      return\n        /* \"contracts/MyContract.sol\":1265:1353  function addValue(string memory _value)public{\r... */\n    tag_7:\n      tag_39\n      0x04\n      dup1\n      calldatasize\n      sub\n      dup2\n      add\n      swap1\n      tag_40\n      swap2\n      swap1\n      tag_41\n      jump\t// in\n    tag_40:\n      tag_42\n      jump\t// in\n    tag_39:\n      stop\n        /* \"contracts/MyContract.sol\":550:573  uint8 public my8bit = 1 */\n    tag_8:\n      tag_43\n      tag_44\n      jump\t// in\n    tag_43:\n      mload(0x40)\n      tag_45\n      swap2\n      swap1\n      tag_46\n      jump\t// in\n    tag_45:\n      mload(0x40)\n      dup1\n      swap2\n      sub\n      swap1\n      return\n        /* \"contracts/MyContract.sol\":1176:1203  string[] public stringValue */\n    tag_9:\n      tag_47\n      0x04\n      dup1\n      calldatasize\n      sub\n      dup2\n      add\n      swap1\n      tag_48\n      swap2\n      swap1\n      tag_36\n      jump\t// in\n    tag_48:\n      tag_49\n      jump\t// in\n    tag_47:\n      mload(0x40)\n      tag_50\n      swap2\n      swap1\n      tag_51\n      jump\t// in\n    tag_50:\n      mload(0x40)\n      dup1\n      swap2\n      sub\n      swap1\n      return\n        /* \"contracts/MyContract.sol\":582:631  string public myString = \"My cat looks beautiful\" */\n    tag_10:\n      tag_52\n      tag_53\n      jump\t// in\n    tag_52:\n      mload(0x40)\n      tag_54\n      swap2\n      swap1\n      tag_51\n      jump\t// in\n    tag_54:\n      mload(0x40)\n      dup1\n      swap2\n      sub\n      swap1\n      return\n        /* \"contracts/MyContract.sol\":353:373  int8 public abc8 = 1 */\n    tag_11:\n      tag_55\n      tag_56\n      jump\t// in\n    tag_55:\n      mload(0x40)\n      tag_57\n      swap2\n      swap1\n      tag_58\n      jump\t// in\n    tag_57:\n      mload(0x40)\n      dup1\n      swap2\n      sub\n      swap1\n      return\n        /* \"contracts/MyContract.sol\":497:527  uint256 public myUnint256  = 1 */\n    tag_12:\n      tag_59\n      tag_60\n      jump\t// in\n    tag_59:\n      mload(0x40)\n      tag_61\n      swap2\n      swap1\n      tag_25\n      jump\t// in\n    tag_61:\n      mload(0x40)\n      dup1\n      swap2\n      sub\n      swap1\n      return\n        /* \"contracts/MyContract.sol\":1111:1169  string[] public stringArray = [\"apple\",\"baanana\",\"carrot\"] */\n    tag_13:\n      tag_62\n      0x04\n      dup1\n      calldatasize\n      sub\n      dup2\n      add\n      swap1\n      tag_63\n      swap2\n      swap1\n      tag_36\n      jump\t// in\n    tag_63:\n      tag_64\n      jump\t// in\n    tag_62:\n      mload(0x40)\n      tag_65\n      swap2\n      swap1\n      tag_51\n      jump\t// in\n    tag_65:\n      mload(0x40)\n      dup1\n      swap2\n      sub\n      swap1\n      return\n        /* \"contracts/MyContract.sol\":1210:1258  uint256[][] public my2DArray = [[2,2,2],[2,3,3]] */\n    tag_14:\n      tag_66\n      0x04\n      dup1\n      calldatasize\n      sub\n      dup2\n      add\n      swap1\n      tag_67\n      swap2\n      swap1\n      tag_68\n      jump\t// in\n    tag_67:\n      tag_69\n      jump\t// in\n    tag_66:\n      mload(0x40)\n      tag_70\n      swap2\n      swap1\n      tag_25\n      jump\t// in\n    tag_70:\n      mload(0x40)\n      dup1\n      swap2\n      sub\n      swap1\n      return\n        /* \"contracts/MyContract.sol\":328:346  int public abc = 1 */\n    tag_15:\n      tag_71\n      tag_72\n      jump\t// in\n    tag_71:\n      mload(0x40)\n      tag_73\n      swap2\n      swap1\n      tag_74\n      jump\t// in\n    tag_73:\n      mload(0x40)\n      dup1\n      swap2\n      sub\n      swap1\n      return\n        /* \"contracts/MyContract.sol\":638:691  bytes32 public myByteArray = \"My cat looks beautiful\" */\n    tag_16:\n      tag_75\n      tag_76\n      jump\t// in\n    tag_75:\n      mload(0x40)\n      tag_77\n      swap2\n      swap1\n      tag_78\n      jump\t// in\n    tag_77:\n      mload(0x40)\n      dup1\n      swap2\n      sub\n      swap1\n      return\n        /* \"contracts/MyContract.sol\":1361:1452  function getLength() public view returns (uint){\r... */\n    tag_17:\n      tag_79\n      tag_80\n      jump\t// in\n    tag_79:\n      mload(0x40)\n      tag_81\n      swap2\n      swap1\n      tag_25\n      jump\t// in\n    tag_81:\n      mload(0x40)\n      dup1\n      swap2\n      sub\n      swap1\n      return\n        /* \"contracts/MyContract.sol\":380:403  uint public MyUnit  = 1 */\n    tag_18:\n      tag_82\n      tag_83\n      jump\t// in\n    tag_82:\n      mload(0x40)\n      tag_84\n      swap2\n      swap1\n      tag_25\n      jump\t// in\n    tag_84:\n      mload(0x40)\n      dup1\n      swap2\n      sub\n      swap1\n      return\n        /* \"contracts/MyContract.sol\":1485:1778  function getValue() public pure returns (uint) { // pure means doesn't modify blockchain only fetch the data\r... */\n    tag_23:\n        /* \"contracts/MyContract.sol\":1526:1530  uint */\n      0x00\n        /* \"contracts/MyContract.sol\":1603:1613  uint value */\n      dup1\n        /* \"contracts/MyContract.sol\":1616:1617  1 */\n      0x01\n        /* \"contracts/MyContract.sol\":1603:1617  uint value = 1 */\n      swap1\n      pop\n        /* \"contracts/MyContract.sol\":1765:1770  value */\n      dup1\n        /* \"contracts/MyContract.sol\":1758:1770  return value */\n      swap2\n      pop\n      pop\n        /* \"contracts/MyContract.sol\":1485:1778  function getValue() public pure returns (uint) { // pure means doesn't modify blockchain only fetch the data\r... */\n      swap1\n      jump\t// out\n        /* \"contracts/MyContract.sol\":700:769  address public myAddress = 0xAb8483F64d9C6d1EcF9b849Ae677dD3315835cb2 */\n    tag_27:\n      0x08\n      0x00\n      swap1\n      sload\n      swap1\n      0x0100\n      exp\n      swap1\n      div\n      0xffffffffffffffffffffffffffffffffffffffff\n      and\n      dup2\n      jump\t// out\n        /* \"contracts/MyContract.sol\":983:1043  myStruct public myStructVariable = myStruct(1,\"Hello world\") */\n    tag_31:\n      0x09\n      dup1\n      0x00\n      add\n      sload\n      swap1\n      dup1\n      0x01\n      add\n      dup1\n      sload\n      tag_86\n      swap1\n      tag_87\n      jump\t// in\n    tag_86:\n      dup1\n      0x1f\n      add\n      0x20\n      dup1\n      swap2\n      div\n      mul\n      0x20\n      add\n      mload(0x40)\n      swap1\n      dup2\n      add\n      0x40\n      mstore\n      dup1\n      swap3\n      swap2\n      swap1\n      dup2\n      dup2\n      mstore\n      0x20\n      add\n      dup3\n      dup1\n      sload\n      tag_88\n      swap1\n      tag_87\n      jump\t// in\n    tag_88:\n      dup1\n      iszero\n      tag_89\n      jumpi\n      dup1\n      0x1f\n      lt\n      tag_90\n      jumpi\n      0x0100\n      dup1\n      dup4\n      sload\n      div\n      mul\n      dup4\n      mstore\n      swap2\n      0x20\n      add\n      swap2\n      jump(tag_89)\n    tag_90:\n      dup3\n      add\n      swap2\n      swap1\n      0x00\n      mstore\n      keccak256(0x00, 0x20)\n      swap1\n    tag_91:\n      dup2\n      sload\n      dup2\n      mstore\n      swap1\n      0x01\n      add\n      swap1\n      0x20\n      add\n      dup1\n      dup4\n      gt\n      tag_91\n      jumpi\n      dup3\n      swap1\n      sub\n      0x1f\n      and\n      dup3\n      add\n      swap2\n    tag_89:\n      pop\n      pop\n      pop\n      pop\n      pop\n      swap1\n      pop\n      dup3\n      jump\t// out\n        /* \"contracts/MyContract.sol\":1066:1104  uint[] public unintArray = [1,2,2,2,3] */\n    tag_37:\n      0x0b\n      dup2\n      dup2\n      sload\n      dup2\n      lt\n      tag_92\n      jumpi\n      0x00\n      dup1\n      revert\n    tag_92:\n      swap1\n      0x00\n      mstore\n      keccak256(0x00, 0x20)\n      add\n      0x00\n      swap2\n      pop\n      swap1\n      pop\n      sload\n      dup2\n      jump\t// out\n        /* \"contracts/MyContract.sol\":1265:1353  function addValue(string memory _value)public{\r... */\n    tag_42:\n        /* \"contracts/MyContract.sol\":1321:1332  stringValue */\n      0x0d\n        /* \"contracts/MyContract.sol\":1338:1344  _value */\n      dup2\n        /* \"contracts/MyContract.sol\":1321:1345  stringValue.push(_value) */\n      swap1\n      dup1\n      0x01\n      dup2\n      sload\n      add\n      dup1\n      dup3\n      sstore\n      dup1\n      swap2\n      pop\n      pop\n      0x01\n      swap1\n      sub\n      swap1\n      0x00\n      mstore\n      keccak256(0x00, 0x20)\n      add\n      0x00\n      swap1\n      swap2\n      swap1\n      swap2\n      swap1\n      swap2\n      pop\n      swap1\n      dup1\n      mload\n      swap1\n      0x20\n      add\n      swap1\n      tag_96\n      swap3\n      swap2\n      swap1\n      tag_97\n      jump\t// in\n    tag_96:\n      pop\n        /* \"contracts/MyContract.sol\":1265:1353  function addValue(string memory _value)public{\r... */\n      pop\n      jump\t// out\n        /* \"contracts/MyContract.sol\":550:573  uint8 public my8bit = 1 */\n    tag_44:\n      0x05\n      0x00\n      swap1\n      sload\n      swap1\n      0x0100\n      exp\n      swap1\n      div\n      0xff\n      and\n      dup2\n      jump\t// out\n        /* \"contracts/MyContract.sol\":1176:1203  string[] public stringValue */\n    tag_49:\n      0x0d\n      dup2\n      dup2\n      sload\n      dup2\n      lt\n      tag_98\n      jumpi\n      0x00\n      dup1\n      revert\n    tag_98:\n      swap1\n      0x00\n      mstore\n      keccak256(0x00, 0x20)\n      add\n      0x00\n      swap2\n      pop\n      swap1\n      pop\n      dup1\n      sload\n      tag_100\n      swap1\n      tag_87\n      jump\t// in\n    tag_100:\n      dup1\n      0x1f\n      add\n      0x20\n      dup1\n      swap2\n      div\n      mul\n      0x20\n      add\n      mload(0x40)\n      swap1\n      dup2\n      add\n      0x40\n      mstore\n      dup1\n      swap3\n      swap2\n      swap1\n      dup2\n      dup2\n      mstore\n      0x20\n      add\n      dup3\n      dup1\n      sload\n      tag_101\n      swap1\n      tag_87\n      jump\t// in\n    tag_101:\n      dup1\n      iszero\n      tag_102\n      jumpi\n      dup1\n      0x1f\n      lt\n      tag_103\n      jumpi\n      0x0100\n      dup1\n      dup4\n      sload\n      div\n      mul\n      dup4\n      mstore\n      swap2\n      0x20\n      add\n      swap2\n      jump(tag_102)\n    tag_103:\n      dup3\n      add\n      swap2\n      swap1\n      0x00\n      mstore\n      keccak256(0x00, 0x20)\n      swap1\n    tag_104:\n      dup2\n      sload\n      dup2\n      mstore\n      swap1\n      0x01\n      add\n      swap1\n      0x20\n      add\n      dup1\n      dup4\n      gt\n      tag_104\n      jumpi\n      dup3\n      swap1\n      sub\n      0x1f\n      and\n      dup3\n      add\n      swap2\n    tag_102:\n      pop\n      pop\n      pop\n      pop\n      pop\n      dup2\n      jump\t// out\n        /* \"contracts/MyContract.sol\":582:631  string public myString = \"My cat looks beautiful\" */\n    tag_53:\n      0x06\n      dup1\n      sload\n      tag_105\n      swap1\n      tag_87\n      jump\t// in\n    tag_105:\n      dup1\n      0x1f\n      add\n      0x20\n      dup1\n      swap2\n      div\n      mul\n      0x20\n      add\n      mload(0x40)\n      swap1\n      dup2\n      add\n      0x40\n      mstore\n      dup1\n      swap3\n      swap2\n      swap1\n      dup2\n      dup2\n      mstore\n      0x20\n      add\n      dup3\n      dup1\n      sload\n      tag_106\n      swap1\n      tag_87\n      jump\t// in\n    tag_106:\n      dup1\n      iszero\n      tag_107\n      jumpi\n      dup1\n      0x1f\n      lt\n      tag_108\n      jumpi\n      0x0100\n      dup1\n      dup4\n      sload\n      div\n      mul\n      dup4\n      mstore\n      swap2\n      0x20\n      add\n      swap2\n      jump(tag_107)\n    tag_108:\n      dup3\n      add\n      swap2\n      swap1\n      0x00\n      mstore\n      keccak256(0x00, 0x20)\n      swap1\n    tag_109:\n      dup2\n      sload\n      dup2\n      mstore\n      swap1\n      0x01\n      add\n      swap1\n      0x20\n      add\n      dup1\n      dup4\n      gt\n      tag_109\n      jumpi\n      dup3\n      swap1\n      sub\n      0x1f\n      and\n      dup3\n      add\n      swap2\n    tag_107:\n      pop\n      pop\n      pop\n      pop\n      pop\n      dup2\n      jump\t// out\n        /* \"contracts/MyContract.sol\":353:373  int8 public abc8 = 1 */\n    tag_56:\n      0x02\n      0x00\n      swap1\n      sload\n      swap1\n      0x0100\n      exp\n      swap1\n      div\n      0x00\n      signextend\n      dup2\n      jump\t// out\n        /* \"contracts/MyContract.sol\":497:527  uint256 public myUnint256  = 1 */\n    tag_60:\n      sload(0x04)\n      dup2\n      jump\t// out\n        /* \"contracts/MyContract.sol\":1111:1169  string[] public stringArray = [\"apple\",\"baanana\",\"carrot\"] */\n    tag_64:\n      0x0c\n      dup2\n      dup2\n      sload\n      dup2\n      lt\n      tag_110\n      jumpi\n      0x00\n      dup1\n      revert\n    tag_110:\n      swap1\n      0x00\n      mstore\n      keccak256(0x00, 0x20)\n      add\n      0x00\n      swap2\n      pop\n      swap1\n      pop\n      dup1\n      sload\n      tag_112\n      swap1\n      tag_87\n      jump\t// in\n    tag_112:\n      dup1\n      0x1f\n      add\n      0x20\n      dup1\n      swap2\n      div\n      mul\n      0x20\n      add\n      mload(0x40)\n      swap1\n      dup2\n      add\n      0x40\n      mstore\n      dup1\n      swap3\n      swap2\n      swap1\n      dup2\n      dup2\n      mstore\n      0x20\n      add\n      dup3\n      dup1\n      sload\n      tag_113\n      swap1\n      tag_87\n      jump\t// in\n    tag_113:\n      dup1\n      iszero\n      tag_114\n      jumpi\n      dup1\n      0x1f\n      lt\n      tag_115\n      jumpi\n      0x0100\n      dup1\n      dup4\n      sload\n      div\n      mul\n      dup4\n      mstore\n      swap2\n      0x20\n      add\n      swap2\n      jump(tag_114)\n    tag_115:\n      dup3\n      add\n      swap2\n      swap1\n      0x00\n      mstore\n      keccak256(0x00, 0x20)\n      swap1\n    tag_116:\n      dup2\n      sload\n      dup2\n      mstore\n      swap1\n      0x01\n      add\n      swap1\n      0x20\n      add\n      dup1\n      dup4\n      gt\n      tag_116\n      jumpi\n      dup3\n      swap1\n      sub\n      0x1f\n      and\n      dup3\n      add\n      swap2\n    tag_114:\n      pop\n      pop\n      pop\n      pop\n      pop\n      dup2\n      jump\t// out\n        /* \"contracts/MyContract.sol\":1210:1258  uint256[][] public my2DArray = [[2,2,2],[2,3,3]] */\n    tag_69:\n      0x0e\n      dup3\n      dup2\n      sload\n      dup2\n      lt\n      tag_117\n      jumpi\n      0x00\n      dup1\n      revert\n    tag_117:\n      swap1\n      0x00\n      mstore\n      keccak256(0x00, 0x20)\n      add\n      dup2\n      dup2\n      sload\n      dup2\n      lt\n      tag_119\n      jumpi\n      0x00\n      dup1\n      revert\n    tag_119:\n      swap1\n      0x00\n      mstore\n      keccak256(0x00, 0x20)\n      add\n      0x00\n      swap2\n      pop\n      swap2\n      pop\n      pop\n      sload\n      dup2\n      jump\t// out\n        /* \"contracts/MyContract.sol\":328:346  int public abc = 1 */\n    tag_72:\n      sload(0x01)\n      dup2\n      jump\t// out\n        /* \"contracts/MyContract.sol\":638:691  bytes32 public myByteArray = \"My cat looks beautiful\" */\n    tag_76:\n      sload(0x07)\n      dup2\n      jump\t// out\n        /* \"contracts/MyContract.sol\":1361:1452  function getLength() public view returns (uint){\r... */\n    tag_80:\n        /* \"contracts/MyContract.sol\":1403:1407  uint */\n      0x00\n        /* \"contracts/MyContract.sol\":1426:1437  stringValue */\n      0x0d\n        /* \"contracts/MyContract.sol\":1426:1444  stringValue.length */\n      dup1\n      sload\n      swap1\n      pop\n        /* \"contracts/MyContract.sol\":1419:1444  return stringValue.length */\n      swap1\n      pop\n        /* \"contracts/MyContract.sol\":1361:1452  function getLength() public view returns (uint){\r... */\n      swap1\n      jump\t// out\n        /* \"contracts/MyContract.sol\":380:403  uint public MyUnit  = 1 */\n    tag_83:\n      sload(0x03)\n      dup2\n      jump\t// out\n    tag_97:\n      dup3\n      dup1\n      sload\n      tag_122\n      swap1\n      tag_87\n      jump\t// in\n    tag_122:\n      swap1\n      0x00\n      mstore\n      keccak256(0x00, 0x20)\n      swap1\n      0x1f\n      add\n      0x20\n      swap1\n      div\n      dup2\n      add\n      swap3\n      dup3\n      tag_124\n      jumpi\n      0x00\n      dup6\n      sstore\n      jump(tag_123)\n    tag_124:\n      dup3\n      0x1f\n      lt\n      tag_125\n      jumpi\n      dup1\n      mload\n      not(0xff)\n      and\n      dup4\n      dup1\n      add\n      or\n      dup6\n      sstore\n      jump(tag_123)\n    tag_125:\n      dup3\n      dup1\n      add\n      0x01\n      add\n      dup6\n      sstore\n      dup3\n      iszero\n      tag_123\n      jumpi\n      swap2\n      dup3\n      add\n    tag_126:\n      dup3\n      dup2\n      gt\n      iszero\n      tag_127\n      jumpi\n      dup3\n      mload\n      dup3\n      sstore\n      swap2\n      0x20\n      add\n      swap2\n      swap1\n      0x01\n      add\n      swap1\n      jump(tag_126)\n    tag_127:\n    tag_123:\n      pop\n      swap1\n      pop\n      tag_128\n      swap2\n      swap1\n      tag_129\n      jump\t// in\n    tag_128:\n      pop\n      swap1\n      jump\t// out\n    tag_129:\n    tag_130:\n      dup1\n      dup3\n      gt\n      iszero\n      tag_131\n      jumpi\n      0x00\n      dup2\n      0x00\n      swap1\n      sstore\n      pop\n      0x01\n      add\n      jump(tag_130)\n    tag_131:\n      pop\n      swap1\n      jump\t// out\n        /* \"#utility.yul\":7:419   */\n    tag_133:\n        /* \"#utility.yul\":85:90   */\n      0x00\n        /* \"#utility.yul\":110:176   */\n      tag_135\n        /* \"#utility.yul\":126:175   */\n      tag_136\n        /* \"#utility.yul\":168:174   */\n      dup5\n        /* \"#utility.yul\":126:175   */\n      tag_137\n      jump\t// in\n    tag_136:\n        /* \"#utility.yul\":110:176   */\n      tag_138\n      jump\t// in\n    tag_135:\n        /* \"#utility.yul\":101:176   */\n      swap1\n      pop\n        /* \"#utility.yul\":199:205   */\n      dup3\n        /* \"#utility.yul\":192:197   */\n      dup2\n        /* \"#utility.yul\":185:206   */\n      mstore\n        /* \"#utility.yul\":237:241   */\n      0x20\n        /* \"#utility.yul\":230:235   */\n      dup2\n        /* \"#utility.yul\":226:242   */\n      add\n        /* \"#utility.yul\":275:278   */\n      dup5\n        /* \"#utility.yul\":266:272   */\n      dup5\n        /* \"#utility.yul\":261:264   */\n      dup5\n        /* \"#utility.yul\":257:273   */\n      add\n        /* \"#utility.yul\":254:279   */\n      gt\n        /* \"#utility.yul\":251:363   */\n      iszero\n      tag_139\n      jumpi\n        /* \"#utility.yul\":282:361   */\n      tag_140\n      tag_141\n      jump\t// in\n    tag_140:\n        /* \"#utility.yul\":251:363   */\n    tag_139:\n        /* \"#utility.yul\":372:413   */\n      tag_142\n        /* \"#utility.yul\":406:412   */\n      dup5\n        /* \"#utility.yul\":401:404   */\n      dup3\n        /* \"#utility.yul\":396:399   */\n      dup6\n        /* \"#utility.yul\":372:413   */\n      tag_143\n      jump\t// in\n    tag_142:\n        /* \"#utility.yul\":91:419   */\n      pop\n        /* \"#utility.yul\":7:419   */\n      swap4\n      swap3\n      pop\n      pop\n      pop\n      jump\t// out\n        /* \"#utility.yul\":439:779   */\n    tag_144:\n        /* \"#utility.yul\":495:500   */\n      0x00\n        /* \"#utility.yul\":544:547   */\n      dup3\n        /* \"#utility.yul\":537:541   */\n      0x1f\n        /* \"#utility.yul\":529:535   */\n      dup4\n        /* \"#utility.yul\":525:542   */\n      add\n        /* \"#utility.yul\":521:548   */\n      slt\n        /* \"#utility.yul\":511:633   */\n      tag_146\n      jumpi\n        /* \"#utility.yul\":552:631   */\n      tag_147\n      tag_148\n      jump\t// in\n    tag_147:\n        /* \"#utility.yul\":511:633   */\n    tag_146:\n        /* \"#utility.yul\":669:675   */\n      dup2\n        /* \"#utility.yul\":656:676   */\n      calldataload\n        /* \"#utility.yul\":694:773   */\n      tag_149\n        /* \"#utility.yul\":769:772   */\n      dup5\n        /* \"#utility.yul\":761:767   */\n      dup3\n        /* \"#utility.yul\":754:758   */\n      0x20\n        /* \"#utility.yul\":746:752   */\n      dup7\n        /* \"#utility.yul\":742:759   */\n      add\n        /* \"#utility.yul\":694:773   */\n      tag_133\n      jump\t// in\n    tag_149:\n        /* \"#utility.yul\":685:773   */\n      swap2\n      pop\n        /* \"#utility.yul\":501:779   */\n      pop\n        /* \"#utility.yul\":439:779   */\n      swap3\n      swap2\n      pop\n      pop\n      jump\t// out\n        /* \"#utility.yul\":785:924   */\n    tag_150:\n        /* \"#utility.yul\":831:836   */\n      0x00\n        /* \"#utility.yul\":869:875   */\n      dup2\n        /* \"#utility.yul\":856:876   */\n      calldataload\n        /* \"#utility.yul\":847:876   */\n      swap1\n      pop\n        /* \"#utility.yul\":885:918   */\n      tag_152\n        /* \"#utility.yul\":912:917   */\n      dup2\n        /* \"#utility.yul\":885:918   */\n      tag_153\n      jump\t// in\n    tag_152:\n        /* \"#utility.yul\":785:924   */\n      swap3\n      swap2\n      pop\n      pop\n      jump\t// out\n        /* \"#utility.yul\":930:1439   */\n    tag_41:\n        /* \"#utility.yul\":999:1005   */\n      0x00\n        /* \"#utility.yul\":1048:1050   */\n      0x20\n        /* \"#utility.yul\":1036:1045   */\n      dup3\n        /* \"#utility.yul\":1027:1034   */\n      dup5\n        /* \"#utility.yul\":1023:1046   */\n      sub\n        /* \"#utility.yul\":1019:1051   */\n      slt\n        /* \"#utility.yul\":1016:1135   */\n      iszero\n      tag_155\n      jumpi\n        /* \"#utility.yul\":1054:1133   */\n      tag_156\n      tag_157\n      jump\t// in\n    tag_156:\n        /* \"#utility.yul\":1016:1135   */\n    tag_155:\n        /* \"#utility.yul\":1202:1203   */\n      0x00\n        /* \"#utility.yul\":1191:1200   */\n      dup3\n        /* \"#utility.yul\":1187:1204   */\n      add\n        /* \"#utility.yul\":1174:1205   */\n      calldataload\n        /* \"#utility.yul\":1232:1250   */\n      0xffffffffffffffff\n        /* \"#utility.yul\":1224:1230   */\n      dup2\n        /* \"#utility.yul\":1221:1251   */\n      gt\n        /* \"#utility.yul\":1218:1335   */\n      iszero\n      tag_158\n      jumpi\n        /* \"#utility.yul\":1254:1333   */\n      tag_159\n      tag_160\n      jump\t// in\n    tag_159:\n        /* \"#utility.yul\":1218:1335   */\n    tag_158:\n        /* \"#utility.yul\":1359:1422   */\n      tag_161\n        /* \"#utility.yul\":1414:1421   */\n      dup5\n        /* \"#utility.yul\":1405:1411   */\n      dup3\n        /* \"#utility.yul\":1394:1403   */\n      dup6\n        /* \"#utility.yul\":1390:1412   */\n      add\n        /* \"#utility.yul\":1359:1422   */\n      tag_144\n      jump\t// in\n    tag_161:\n        /* \"#utility.yul\":1349:1422   */\n      swap2\n      pop\n        /* \"#utility.yul\":1145:1432   */\n      pop\n        /* \"#utility.yul\":930:1439   */\n      swap3\n      swap2\n      pop\n      pop\n      jump\t// out\n        /* \"#utility.yul\":1445:1774   */\n    tag_36:\n        /* \"#utility.yul\":1504:1510   */\n      0x00\n        /* \"#utility.yul\":1553:1555   */\n      0x20\n        /* \"#utility.yul\":1541:1550   */\n      dup3\n        /* \"#utility.yul\":1532:1539   */\n      dup5\n        /* \"#utility.yul\":1528:1551   */\n      sub\n        /* \"#utility.yul\":1524:1556   */\n      slt\n        /* \"#utility.yul\":1521:1640   */\n      iszero\n      tag_163\n      jumpi\n        /* \"#utility.yul\":1559:1638   */\n      tag_164\n      tag_157\n      jump\t// in\n    tag_164:\n        /* \"#utility.yul\":1521:1640   */\n    tag_163:\n        /* \"#utility.yul\":1679:1680   */\n      0x00\n        /* \"#utility.yul\":1704:1757   */\n      tag_165\n        /* \"#utility.yul\":1749:1756   */\n      dup5\n        /* \"#utility.yul\":1740:1746   */\n      dup3\n        /* \"#utility.yul\":1729:1738   */\n      dup6\n        /* \"#utility.yul\":1725:1747   */\n      add\n        /* \"#utility.yul\":1704:1757   */\n      tag_150\n      jump\t// in\n    tag_165:\n        /* \"#utility.yul\":1694:1757   */\n      swap2\n      pop\n        /* \"#utility.yul\":1650:1767   */\n      pop\n        /* \"#utility.yul\":1445:1774   */\n      swap3\n      swap2\n      pop\n      pop\n      jump\t// out\n        /* \"#utility.yul\":1780:2254   */\n    tag_68:\n        /* \"#utility.yul\":1848:1854   */\n      0x00\n        /* \"#utility.yul\":1856:1862   */\n      dup1\n        /* \"#utility.yul\":1905:1907   */\n      0x40\n        /* \"#utility.yul\":1893:1902   */\n      dup4\n        /* \"#utility.yul\":1884:1891   */\n      dup6\n        /* \"#utility.yul\":1880:1903   */\n      sub\n        /* \"#utility.yul\":1876:1908   */\n      slt\n        /* \"#utility.yul\":1873:1992   */\n      iszero\n      tag_167\n      jumpi\n        /* \"#utility.yul\":1911:1990   */\n      tag_168\n      tag_157\n      jump\t// in\n    tag_168:\n        /* \"#utility.yul\":1873:1992   */\n    tag_167:\n        /* \"#utility.yul\":2031:2032   */\n      0x00\n        /* \"#utility.yul\":2056:2109   */\n      tag_169\n        /* \"#utility.yul\":2101:2108   */\n      dup6\n        /* \"#utility.yul\":2092:2098   */\n      dup3\n        /* \"#utility.yul\":2081:2090   */\n      dup7\n        /* \"#utility.yul\":2077:2099   */\n      add\n        /* \"#utility.yul\":2056:2109   */\n      tag_150\n      jump\t// in\n    tag_169:\n        /* \"#utility.yul\":2046:2109   */\n      swap3\n      pop\n        /* \"#utility.yul\":2002:2119   */\n      pop\n        /* \"#utility.yul\":2158:2160   */\n      0x20\n        /* \"#utility.yul\":2184:2237   */\n      tag_170\n        /* \"#utility.yul\":2229:2236   */\n      dup6\n        /* \"#utility.yul\":2220:2226   */\n      dup3\n        /* \"#utility.yul\":2209:2218   */\n      dup7\n        /* \"#utility.yul\":2205:2227   */\n      add\n        /* \"#utility.yul\":2184:2237   */\n      tag_150\n      jump\t// in\n    tag_170:\n        /* \"#utility.yul\":2174:2237   */\n      swap2\n      pop\n        /* \"#utility.yul\":2129:2247   */\n      pop\n        /* \"#utility.yul\":1780:2254   */\n      swap3\n      pop\n      swap3\n      swap1\n      pop\n      jump\t// out\n        /* \"#utility.yul\":2260:2378   */\n    tag_171:\n        /* \"#utility.yul\":2347:2371   */\n      tag_173\n        /* \"#utility.yul\":2365:2370   */\n      dup2\n        /* \"#utility.yul\":2347:2371   */\n      tag_174\n      jump\t// in\n    tag_173:\n        /* \"#utility.yul\":2342:2345   */\n      dup3\n        /* \"#utility.yul\":2335:2372   */\n      mstore\n        /* \"#utility.yul\":2260:2378   */\n      pop\n      pop\n      jump\t// out\n        /* \"#utility.yul\":2384:2502   */\n    tag_175:\n        /* \"#utility.yul\":2471:2495   */\n      tag_177\n        /* \"#utility.yul\":2489:2494   */\n      dup2\n        /* \"#utility.yul\":2471:2495   */\n      tag_178\n      jump\t// in\n    tag_177:\n        /* \"#utility.yul\":2466:2469   */\n      dup3\n        /* \"#utility.yul\":2459:2496   */\n      mstore\n        /* \"#utility.yul\":2384:2502   */\n      pop\n      pop\n      jump\t// out\n        /* \"#utility.yul\":2508:2623   */\n    tag_179:\n        /* \"#utility.yul\":2593:2616   */\n      tag_181\n        /* \"#utility.yul\":2610:2615   */\n      dup2\n        /* \"#utility.yul\":2593:2616   */\n      tag_182\n      jump\t// in\n    tag_181:\n        /* \"#utility.yul\":2588:2591   */\n      dup3\n        /* \"#utility.yul\":2581:2617   */\n      mstore\n        /* \"#utility.yul\":2508:2623   */\n      pop\n      pop\n      jump\t// out\n        /* \"#utility.yul\":2629:2738   */\n    tag_183:\n        /* \"#utility.yul\":2710:2731   */\n      tag_185\n        /* \"#utility.yul\":2725:2730   */\n      dup2\n        /* \"#utility.yul\":2710:2731   */\n      tag_186\n      jump\t// in\n    tag_185:\n        /* \"#utility.yul\":2705:2708   */\n      dup3\n        /* \"#utility.yul\":2698:2732   */\n      mstore\n        /* \"#utility.yul\":2629:2738   */\n      pop\n      pop\n      jump\t// out\n        /* \"#utility.yul\":2744:3108   */\n    tag_187:\n        /* \"#utility.yul\":2832:2835   */\n      0x00\n        /* \"#utility.yul\":2860:2899   */\n      tag_189\n        /* \"#utility.yul\":2893:2898   */\n      dup3\n        /* \"#utility.yul\":2860:2899   */\n      tag_190\n      jump\t// in\n    tag_189:\n        /* \"#utility.yul\":2915:2986   */\n      tag_191\n        /* \"#utility.yul\":2979:2985   */\n      dup2\n        /* \"#utility.yul\":2974:2977   */\n      dup6\n        /* \"#utility.yul\":2915:2986   */\n      tag_192\n      jump\t// in\n    tag_191:\n        /* \"#utility.yul\":2908:2986   */\n      swap4\n      pop\n        /* \"#utility.yul\":2995:3047   */\n      tag_193\n        /* \"#utility.yul\":3040:3046   */\n      dup2\n        /* \"#utility.yul\":3035:3038   */\n      dup6\n        /* \"#utility.yul\":3028:3032   */\n      0x20\n        /* \"#utility.yul\":3021:3026   */\n      dup7\n        /* \"#utility.yul\":3017:3033   */\n      add\n        /* \"#utility.yul\":2995:3047   */\n      tag_194\n      jump\t// in\n    tag_193:\n        /* \"#utility.yul\":3072:3101   */\n      tag_195\n        /* \"#utility.yul\":3094:3100   */\n      dup2\n        /* \"#utility.yul\":3072:3101   */\n      tag_196\n      jump\t// in\n    tag_195:\n        /* \"#utility.yul\":3067:3070   */\n      dup5\n        /* \"#utility.yul\":3063:3102   */\n      add\n        /* \"#utility.yul\":3056:3102   */\n      swap2\n      pop\n        /* \"#utility.yul\":2836:3108   */\n      pop\n        /* \"#utility.yul\":2744:3108   */\n      swap3\n      swap2\n      pop\n      pop\n      jump\t// out\n        /* \"#utility.yul\":3114:3232   */\n    tag_197:\n        /* \"#utility.yul\":3201:3225   */\n      tag_199\n        /* \"#utility.yul\":3219:3224   */\n      dup2\n        /* \"#utility.yul\":3201:3225   */\n      tag_200\n      jump\t// in\n    tag_199:\n        /* \"#utility.yul\":3196:3199   */\n      dup3\n        /* \"#utility.yul\":3189:3226   */\n      mstore\n        /* \"#utility.yul\":3114:3232   */\n      pop\n      pop\n      jump\t// out\n        /* \"#utility.yul\":3238:3350   */\n    tag_201:\n        /* \"#utility.yul\":3321:3343   */\n      tag_203\n        /* \"#utility.yul\":3337:3342   */\n      dup2\n        /* \"#utility.yul\":3321:3343   */\n      tag_204\n      jump\t// in\n    tag_203:\n        /* \"#utility.yul\":3316:3319   */\n      dup3\n        /* \"#utility.yul\":3309:3344   */\n      mstore\n        /* \"#utility.yul\":3238:3350   */\n      pop\n      pop\n      jump\t// out\n        /* \"#utility.yul\":3356:3578   */\n    tag_29:\n        /* \"#utility.yul\":3449:3453   */\n      0x00\n        /* \"#utility.yul\":3487:3489   */\n      0x20\n        /* \"#utility.yul\":3476:3485   */\n      dup3\n        /* \"#utility.yul\":3472:3490   */\n      add\n        /* \"#utility.yul\":3464:3490   */\n      swap1\n      pop\n        /* \"#utility.yul\":3500:3571   */\n      tag_206\n        /* \"#utility.yul\":3568:3569   */\n      0x00\n        /* \"#utility.yul\":3557:3566   */\n      dup4\n        /* \"#utility.yul\":3553:3570   */\n      add\n        /* \"#utility.yul\":3544:3550   */\n      dup5\n        /* \"#utility.yul\":3500:3571   */\n      tag_171\n      jump\t// in\n    tag_206:\n        /* \"#utility.yul\":3356:3578   */\n      swap3\n      swap2\n      pop\n      pop\n      jump\t// out\n        /* \"#utility.yul\":3584:3806   */\n    tag_78:\n        /* \"#utility.yul\":3677:3681   */\n      0x00\n        /* \"#utility.yul\":3715:3717   */\n      0x20\n        /* \"#utility.yul\":3704:3713   */\n      dup3\n        /* \"#utility.yul\":3700:3718   */\n      add\n        /* \"#utility.yul\":3692:3718   */\n      swap1\n      pop\n        /* \"#utility.yul\":3728:3799   */\n      tag_208\n        /* \"#utility.yul\":3796:3797   */\n      0x00\n        /* \"#utility.yul\":3785:3794   */\n      dup4\n        /* \"#utility.yul\":3781:3798   */\n      add\n        /* \"#utility.yul\":3772:3778   */\n      dup5\n        /* \"#utility.yul\":3728:3799   */\n      tag_175\n      jump\t// in\n    tag_208:\n        /* \"#utility.yul\":3584:3806   */\n      swap3\n      swap2\n      pop\n      pop\n      jump\t// out\n        /* \"#utility.yul\":3812:4030   */\n    tag_74:\n        /* \"#utility.yul\":3903:3907   */\n      0x00\n        /* \"#utility.yul\":3941:3943   */\n      0x20\n        /* \"#utility.yul\":3930:3939   */\n      dup3\n        /* \"#utility.yul\":3926:3944   */\n      add\n        /* \"#utility.yul\":3918:3944   */\n      swap1\n      pop\n        /* \"#utility.yul\":3954:4023   */\n      tag_210\n        /* \"#utility.yul\":4020:4021   */\n      0x00\n        /* \"#utility.yul\":4009:4018   */\n      dup4\n        /* \"#utility.yul\":4005:4022   */\n      add\n        /* \"#utility.yul\":3996:4002   */\n      dup5\n        /* \"#utility.yul\":3954:4023   */\n      tag_179\n      jump\t// in\n    tag_210:\n        /* \"#utility.yul\":3812:4030   */\n      swap3\n      swap2\n      pop\n      pop\n      jump\t// out\n        /* \"#utility.yul\":4036:4246   */\n    tag_58:\n        /* \"#utility.yul\":4123:4127   */\n      0x00\n        /* \"#utility.yul\":4161:4163   */\n      0x20\n        /* \"#utility.yul\":4150:4159   */\n      dup3\n        /* \"#utility.yul\":4146:4164   */\n      add\n        /* \"#utility.yul\":4138:4164   */\n      swap1\n      pop\n        /* \"#utility.yul\":4174:4239   */\n      tag_212\n        /* \"#utility.yul\":4236:4237   */\n      0x00\n        /* \"#utility.yul\":4225:4234   */\n      dup4\n        /* \"#utility.yul\":4221:4238   */\n      add\n        /* \"#utility.yul\":4212:4218   */\n      dup5\n        /* \"#utility.yul\":4174:4239   */\n      tag_183\n      jump\t// in\n    tag_212:\n        /* \"#utility.yul\":4036:4246   */\n      swap3\n      swap2\n      pop\n      pop\n      jump\t// out\n        /* \"#utility.yul\":4252:4565   */\n    tag_51:\n        /* \"#utility.yul\":4365:4369   */\n      0x00\n        /* \"#utility.yul\":4403:4405   */\n      0x20\n        /* \"#utility.yul\":4392:4401   */\n      dup3\n        /* \"#utility.yul\":4388:4406   */\n      add\n        /* \"#utility.yul\":4380:4406   */\n      swap1\n      pop\n        /* \"#utility.yul\":4452:4461   */\n      dup2\n        /* \"#utility.yul\":4446:4450   */\n      dup2\n        /* \"#utility.yul\":4442:4462   */\n      sub\n        /* \"#utility.yul\":4438:4439   */\n      0x00\n        /* \"#utility.yul\":4427:4436   */\n      dup4\n        /* \"#utility.yul\":4423:4440   */\n      add\n        /* \"#utility.yul\":4416:4463   */\n      mstore\n        /* \"#utility.yul\":4480:4558   */\n      tag_214\n        /* \"#utility.yul\":4553:4557   */\n      dup2\n        /* \"#utility.yul\":4544:4550   */\n      dup5\n        /* \"#utility.yul\":4480:4558   */\n      tag_187\n      jump\t// in\n    tag_214:\n        /* \"#utility.yul\":4472:4558   */\n      swap1\n      pop\n        /* \"#utility.yul\":4252:4565   */\n      swap3\n      swap2\n      pop\n      pop\n      jump\t// out\n        /* \"#utility.yul\":4571:4793   */\n    tag_25:\n        /* \"#utility.yul\":4664:4668   */\n      0x00\n        /* \"#utility.yul\":4702:4704   */\n      0x20\n        /* \"#utility.yul\":4691:4700   */\n      dup3\n        /* \"#utility.yul\":4687:4705   */\n      add\n        /* \"#utility.yul\":4679:4705   */\n      swap1\n      pop\n        /* \"#utility.yul\":4715:4786   */\n      tag_216\n        /* \"#utility.yul\":4783:4784   */\n      0x00\n        /* \"#utility.yul\":4772:4781   */\n      dup4\n        /* \"#utility.yul\":4768:4785   */\n      add\n        /* \"#utility.yul\":4759:4765   */\n      dup5\n        /* \"#utility.yul\":4715:4786   */\n      tag_197\n      jump\t// in\n    tag_216:\n        /* \"#utility.yul\":4571:4793   */\n      swap3\n      swap2\n      pop\n      pop\n      jump\t// out\n        /* \"#utility.yul\":4799:5222   */\n    tag_33:\n        /* \"#utility.yul\":4940:4944   */\n      0x00\n        /* \"#utility.yul\":4978:4980   */\n      0x40\n        /* \"#utility.yul\":4967:4976   */\n      dup3\n        /* \"#utility.yul\":4963:4981   */\n      add\n        /* \"#utility.yul\":4955:4981   */\n      swap1\n      pop\n        /* \"#utility.yul\":4991:5062   */\n      tag_218\n        /* \"#utility.yul\":5059:5060   */\n      0x00\n        /* \"#utility.yul\":5048:5057   */\n      dup4\n        /* \"#utility.yul\":5044:5061   */\n      add\n        /* \"#utility.yul\":5035:5041   */\n      dup6\n        /* \"#utility.yul\":4991:5062   */\n      tag_197\n      jump\t// in\n    tag_218:\n        /* \"#utility.yul\":5109:5118   */\n      dup2\n        /* \"#utility.yul\":5103:5107   */\n      dup2\n        /* \"#utility.yul\":5099:5119   */\n      sub\n        /* \"#utility.yul\":5094:5096   */\n      0x20\n        /* \"#utility.yul\":5083:5092   */\n      dup4\n        /* \"#utility.yul\":5079:5097   */\n      add\n        /* \"#utility.yul\":5072:5120   */\n      mstore\n        /* \"#utility.yul\":5137:5215   */\n      tag_219\n        /* \"#utility.yul\":5210:5214   */\n      dup2\n        /* \"#utility.yul\":5201:5207   */\n      dup5\n        /* \"#utility.yul\":5137:5215   */\n      tag_187\n      jump\t// in\n    tag_219:\n        /* \"#utility.yul\":5129:5215   */\n      swap1\n      pop\n        /* \"#utility.yul\":4799:5222   */\n      swap4\n      swap3\n      pop\n      pop\n      pop\n      jump\t// out\n        /* \"#utility.yul\":5228:5442   */\n    tag_46:\n        /* \"#utility.yul\":5317:5321   */\n      0x00\n        /* \"#utility.yul\":5355:5357   */\n      0x20\n        /* \"#utility.yul\":5344:5353   */\n      dup3\n        /* \"#utility.yul\":5340:5358   */\n      add\n        /* \"#utility.yul\":5332:5358   */\n      swap1\n      pop\n        /* \"#utility.yul\":5368:5435   */\n      tag_221\n        /* \"#utility.yul\":5432:5433   */\n      0x00\n        /* \"#utility.yul\":5421:5430   */\n      dup4\n        /* \"#utility.yul\":5417:5434   */\n      add\n        /* \"#utility.yul\":5408:5414   */\n      dup5\n        /* \"#utility.yul\":5368:5435   */\n      tag_201\n      jump\t// in\n    tag_221:\n        /* \"#utility.yul\":5228:5442   */\n      swap3\n      swap2\n      pop\n      pop\n      jump\t// out\n        /* \"#utility.yul\":5448:5577   */\n    tag_138:\n        /* \"#utility.yul\":5482:5488   */\n      0x00\n        /* \"#utility.yul\":5509:5529   */\n      tag_223\n      tag_224\n      jump\t// in\n    tag_223:\n        /* \"#utility.yul\":5499:5529   */\n      swap1\n      pop\n        /* \"#utility.yul\":5538:5571   */\n      tag_225\n        /* \"#utility.yul\":5566:5570   */\n      dup3\n        /* \"#utility.yul\":5558:5564   */\n      dup3\n        /* \"#utility.yul\":5538:5571   */\n      tag_226\n      jump\t// in\n    tag_225:\n        /* \"#utility.yul\":5448:5577   */\n      swap2\n      swap1\n      pop\n      jump\t// out\n        /* \"#utility.yul\":5583:5658   */\n    tag_224:\n        /* \"#utility.yul\":5616:5622   */\n      0x00\n        /* \"#utility.yul\":5649:5651   */\n      0x40\n        /* \"#utility.yul\":5643:5652   */\n      mload\n        /* \"#utility.yul\":5633:5652   */\n      swap1\n      pop\n        /* \"#utility.yul\":5583:5658   */\n      swap1\n      jump\t// out\n        /* \"#utility.yul\":5664:5972   */\n    tag_137:\n        /* \"#utility.yul\":5726:5730   */\n      0x00\n        /* \"#utility.yul\":5816:5834   */\n      0xffffffffffffffff\n        /* \"#utility.yul\":5808:5814   */\n      dup3\n        /* \"#utility.yul\":5805:5835   */\n      gt\n        /* \"#utility.yul\":5802:5858   */\n      iszero\n      tag_229\n      jumpi\n        /* \"#utility.yul\":5838:5856   */\n      tag_230\n      tag_231\n      jump\t// in\n    tag_230:\n        /* \"#utility.yul\":5802:5858   */\n    tag_229:\n        /* \"#utility.yul\":5876:5905   */\n      tag_232\n        /* \"#utility.yul\":5898:5904   */\n      dup3\n        /* \"#utility.yul\":5876:5905   */\n      tag_196\n      jump\t// in\n    tag_232:\n        /* \"#utility.yul\":5868:5905   */\n      swap1\n      pop\n        /* \"#utility.yul\":5960:5964   */\n      0x20\n        /* \"#utility.yul\":5954:5958   */\n      dup2\n        /* \"#utility.yul\":5950:5965   */\n      add\n        /* \"#utility.yul\":5942:5965   */\n      swap1\n      pop\n        /* \"#utility.yul\":5664:5972   */\n      swap2\n      swap1\n      pop\n      jump\t// out\n        /* \"#utility.yul\":5978:6077   */\n    tag_190:\n        /* \"#utility.yul\":6030:6036   */\n      0x00\n        /* \"#utility.yul\":6064:6069   */\n      dup2\n        /* \"#utility.yul\":6058:6070   */\n      mload\n        /* \"#utility.yul\":6048:6070   */\n      swap1\n      pop\n        /* \"#utility.yul\":5978:6077   */\n      swap2\n      swap1\n      pop\n      jump\t// out\n        /* \"#utility.yul\":6083:6252   */\n    tag_192:\n        /* \"#utility.yul\":6167:6178   */\n      0x00\n        /* \"#utility.yul\":6201:6207   */\n      dup3\n        /* \"#utility.yul\":6196:6199   */\n      dup3\n        /* \"#utility.yul\":6189:6208   */\n      mstore\n        /* \"#utility.yul\":6241:6245   */\n      0x20\n        /* \"#utility.yul\":6236:6239   */\n      dup3\n        /* \"#utility.yul\":6232:6246   */\n      add\n        /* \"#utility.yul\":6217:6246   */\n      swap1\n      pop\n        /* \"#utility.yul\":6083:6252   */\n      swap3\n      swap2\n      pop\n      pop\n      jump\t// out\n        /* \"#utility.yul\":6258:6354   */\n    tag_174:\n        /* \"#utility.yul\":6295:6302   */\n      0x00\n        /* \"#utility.yul\":6324:6348   */\n      tag_236\n        /* \"#utility.yul\":6342:6347   */\n      dup3\n        /* \"#utility.yul\":6324:6348   */\n      tag_237\n      jump\t// in\n    tag_236:\n        /* \"#utility.yul\":6313:6348   */\n      swap1\n      pop\n        /* \"#utility.yul\":6258:6354   */\n      swap2\n      swap1\n      pop\n      jump\t// out\n        /* \"#utility.yul\":6360:6437   */\n    tag_178:\n        /* \"#utility.yul\":6397:6404   */\n      0x00\n        /* \"#utility.yul\":6426:6431   */\n      dup2\n        /* \"#utility.yul\":6415:6431   */\n      swap1\n      pop\n        /* \"#utility.yul\":6360:6437   */\n      swap2\n      swap1\n      pop\n      jump\t// out\n        /* \"#utility.yul\":6443:6519   */\n    tag_182:\n        /* \"#utility.yul\":6479:6486   */\n      0x00\n        /* \"#utility.yul\":6508:6513   */\n      dup2\n        /* \"#utility.yul\":6497:6513   */\n      swap1\n      pop\n        /* \"#utility.yul\":6443:6519   */\n      swap2\n      swap1\n      pop\n      jump\t// out\n        /* \"#utility.yul\":6525:6614   */\n    tag_186:\n        /* \"#utility.yul\":6559:6566   */\n      0x00\n        /* \"#utility.yul\":6602:6607   */\n      dup2\n        /* \"#utility.yul\":6599:6600   */\n      0x00\n        /* \"#utility.yul\":6588:6608   */\n      signextend\n        /* \"#utility.yul\":6577:6608   */\n      swap1\n      pop\n        /* \"#utility.yul\":6525:6614   */\n      swap2\n      swap1\n      pop\n      jump\t// out\n        /* \"#utility.yul\":6620:6746   */\n    tag_237:\n        /* \"#utility.yul\":6657:6664   */\n      0x00\n        /* \"#utility.yul\":6697:6739   */\n      0xffffffffffffffffffffffffffffffffffffffff\n        /* \"#utility.yul\":6690:6695   */\n      dup3\n        /* \"#utility.yul\":6686:6740   */\n      and\n        /* \"#utility.yul\":6675:6740   */\n      swap1\n      pop\n        /* \"#utility.yul\":6620:6746   */\n      swap2\n      swap1\n      pop\n      jump\t// out\n        /* \"#utility.yul\":6752:6829   */\n    tag_200:\n        /* \"#utility.yul\":6789:6796   */\n      0x00\n        /* \"#utility.yul\":6818:6823   */\n      dup2\n        /* \"#utility.yul\":6807:6823   */\n      swap1\n      pop\n        /* \"#utility.yul\":6752:6829   */\n      swap2\n      swap1\n      pop\n      jump\t// out\n        /* \"#utility.yul\":6835:6921   */\n    tag_204:\n        /* \"#utility.yul\":6870:6877   */\n      0x00\n        /* \"#utility.yul\":6910:6914   */\n      0xff\n        /* \"#utility.yul\":6903:6908   */\n      dup3\n        /* \"#utility.yul\":6899:6915   */\n      and\n        /* \"#utility.yul\":6888:6915   */\n      swap1\n      pop\n        /* \"#utility.yul\":6835:6921   */\n      swap2\n      swap1\n      pop\n      jump\t// out\n        /* \"#utility.yul\":6927:7081   */\n    tag_143:\n        /* \"#utility.yul\":7011:7017   */\n      dup3\n        /* \"#utility.yul\":7006:7009   */\n      dup2\n        /* \"#utility.yul\":7001:7004   */\n      dup4\n        /* \"#utility.yul\":6988:7018   */\n      calldatacopy\n        /* \"#utility.yul\":7073:7074   */\n      0x00\n        /* \"#utility.yul\":7064:7070   */\n      dup4\n        /* \"#utility.yul\":7059:7062   */\n      dup4\n        /* \"#utility.yul\":7055:7071   */\n      add\n        /* \"#utility.yul\":7048:7075   */\n      mstore\n        /* \"#utility.yul\":6927:7081   */\n      pop\n      pop\n      pop\n      jump\t// out\n        /* \"#utility.yul\":7087:7394   */\n    tag_194:\n        /* \"#utility.yul\":7155:7156   */\n      0x00\n        /* \"#utility.yul\":7165:7278   */\n    tag_246:\n        /* \"#utility.yul\":7179:7185   */\n      dup4\n        /* \"#utility.yul\":7176:7177   */\n      dup2\n        /* \"#utility.yul\":7173:7186   */\n      lt\n        /* \"#utility.yul\":7165:7278   */\n      iszero\n      tag_248\n      jumpi\n        /* \"#utility.yul\":7264:7265   */\n      dup1\n        /* \"#utility.yul\":7259:7262   */\n      dup3\n        /* \"#utility.yul\":7255:7266   */\n      add\n        /* \"#utility.yul\":7249:7267   */\n      mload\n        /* \"#utility.yul\":7245:7246   */\n      dup2\n        /* \"#utility.yul\":7240:7243   */\n      dup5\n        /* \"#utility.yul\":7236:7247   */\n      add\n        /* \"#utility.yul\":7229:7268   */\n      mstore\n        /* \"#utility.yul\":7201:7203   */\n      0x20\n        /* \"#utility.yul\":7198:7199   */\n      dup2\n        /* \"#utility.yul\":7194:7204   */\n      add\n        /* \"#utility.yul\":7189:7204   */\n      swap1\n      pop\n        /* \"#utility.yul\":7165:7278   */\n      jump(tag_246)\n    tag_248:\n        /* \"#utility.yul\":7296:7302   */\n      dup4\n        /* \"#utility.yul\":7293:7294   */\n      dup2\n        /* \"#utility.yul\":7290:7303   */\n      gt\n        /* \"#utility.yul\":7287:7388   */\n      iszero\n      tag_249\n      jumpi\n        /* \"#utility.yul\":7376:7377   */\n      0x00\n        /* \"#utility.yul\":7367:7373   */\n      dup5\n        /* \"#utility.yul\":7362:7365   */\n      dup5\n        /* \"#utility.yul\":7358:7374   */\n      add\n        /* \"#utility.yul\":7351:7378   */\n      mstore\n        /* \"#utility.yul\":7287:7388   */\n    tag_249:\n        /* \"#utility.yul\":7136:7394   */\n      pop\n        /* \"#utility.yul\":7087:7394   */\n      pop\n      pop\n      pop\n      jump\t// out\n        /* \"#utility.yul\":7400:7720   */\n    tag_87:\n        /* \"#utility.yul\":7444:7450   */\n      0x00\n        /* \"#utility.yul\":7481:7482   */\n      0x02\n        /* \"#utility.yul\":7475:7479   */\n      dup3\n        /* \"#utility.yul\":7471:7483   */\n      div\n        /* \"#utility.yul\":7461:7483   */\n      swap1\n      pop\n        /* \"#utility.yul\":7528:7529   */\n      0x01\n        /* \"#utility.yul\":7522:7526   */\n      dup3\n        /* \"#utility.yul\":7518:7530   */\n      and\n        /* \"#utility.yul\":7549:7567   */\n      dup1\n        /* \"#utility.yul\":7539:7620   */\n      tag_251\n      jumpi\n        /* \"#utility.yul\":7605:7609   */\n      0x7f\n        /* \"#utility.yul\":7597:7603   */\n      dup3\n        /* \"#utility.yul\":7593:7610   */\n      and\n        /* \"#utility.yul\":7583:7610   */\n      swap2\n      pop\n        /* \"#utility.yul\":7539:7620   */\n    tag_251:\n        /* \"#utility.yul\":7667:7669   */\n      0x20\n        /* \"#utility.yul\":7659:7665   */\n      dup3\n        /* \"#utility.yul\":7656:7670   */\n      lt\n        /* \"#utility.yul\":7636:7654   */\n      dup2\n        /* \"#utility.yul\":7633:7671   */\n      eq\n        /* \"#utility.yul\":7630:7714   */\n      iszero\n      tag_252\n      jumpi\n        /* \"#utility.yul\":7686:7704   */\n      tag_253\n      tag_254\n      jump\t// in\n    tag_253:\n        /* \"#utility.yul\":7630:7714   */\n    tag_252:\n        /* \"#utility.yul\":7451:7720   */\n      pop\n        /* \"#utility.yul\":7400:7720   */\n      swap2\n      swap1\n      pop\n      jump\t// out\n        /* \"#utility.yul\":7726:8007   */\n    tag_226:\n        /* \"#utility.yul\":7809:7836   */\n      tag_256\n        /* \"#utility.yul\":7831:7835   */\n      dup3\n        /* \"#utility.yul\":7809:7836   */\n      tag_196\n      jump\t// in\n    tag_256:\n        /* \"#utility.yul\":7801:7807   */\n      dup2\n        /* \"#utility.yul\":7797:7837   */\n      add\n        /* \"#utility.yul\":7939:7945   */\n      dup2\n        /* \"#utility.yul\":7927:7937   */\n      dup2\n        /* \"#utility.yul\":7924:7946   */\n      lt\n        /* \"#utility.yul\":7903:7921   */\n      0xffffffffffffffff\n        /* \"#utility.yul\":7891:7901   */\n      dup3\n        /* \"#utility.yul\":7888:7922   */\n      gt\n        /* \"#utility.yul\":7885:7947   */\n      or\n        /* \"#utility.yul\":7882:7970   */\n      iszero\n      tag_257\n      jumpi\n        /* \"#utility.yul\":7950:7968   */\n      tag_258\n      tag_231\n      jump\t// in\n    tag_258:\n        /* \"#utility.yul\":7882:7970   */\n    tag_257:\n        /* \"#utility.yul\":7990:8000   */\n      dup1\n        /* \"#utility.yul\":7986:7988   */\n      0x40\n        /* \"#utility.yul\":7979:8001   */\n      mstore\n        /* \"#utility.yul\":7769:8007   */\n      pop\n        /* \"#utility.yul\":7726:8007   */\n      pop\n      pop\n      jump\t// out\n        /* \"#utility.yul\":8013:8193   */\n    tag_254:\n        /* \"#utility.yul\":8061:8138   */\n      0x4e487b7100000000000000000000000000000000000000000000000000000000\n        /* \"#utility.yul\":8058:8059   */\n      0x00\n        /* \"#utility.yul\":8051:8139   */\n      mstore\n        /* \"#utility.yul\":8158:8162   */\n      0x22\n        /* \"#utility.yul\":8155:8156   */\n      0x04\n        /* \"#utility.yul\":8148:8163   */\n      mstore\n        /* \"#utility.yul\":8182:8186   */\n      0x24\n        /* \"#utility.yul\":8179:8180   */\n      0x00\n        /* \"#utility.yul\":8172:8187   */\n      revert\n        /* \"#utility.yul\":8199:8379   */\n    tag_231:\n        /* \"#utility.yul\":8247:8324   */\n      0x4e487b7100000000000000000000000000000000000000000000000000000000\n        /* \"#utility.yul\":8244:8245   */\n      0x00\n        /* \"#utility.yul\":8237:8325   */\n      mstore\n        /* \"#utility.yul\":8344:8348   */\n      0x41\n        /* \"#utility.yul\":8341:8342   */\n      0x04\n        /* \"#utility.yul\":8334:8349   */\n      mstore\n        /* \"#utility.yul\":8368:8372   */\n      0x24\n        /* \"#utility.yul\":8365:8366   */\n      0x00\n        /* \"#utility.yul\":8358:8373   */\n      revert\n        /* \"#utility.yul\":8385:8502   */\n    tag_148:\n        /* \"#utility.yul\":8494:8495   */\n      0x00\n        /* \"#utility.yul\":8491:8492   */\n      dup1\n        /* \"#utility.yul\":8484:8496   */\n      revert\n        /* \"#utility.yul\":8508:8625   */\n    tag_141:\n        /* \"#utility.yul\":8617:8618   */\n      0x00\n        /* \"#utility.yul\":8614:8615   */\n      dup1\n        /* \"#utility.yul\":8607:8619   */\n      revert\n        /* \"#utility.yul\":8631:8748   */\n    tag_160:\n        /* \"#utility.yul\":8740:8741   */\n      0x00\n        /* \"#utility.yul\":8737:8738   */\n      dup1\n        /* \"#utility.yul\":8730:8742   */\n      revert\n        /* \"#utility.yul\":8754:8871   */\n    tag_157:\n        /* \"#utility.yul\":8863:8864   */\n      0x00\n        /* \"#utility.yul\":8860:8861   */\n      dup1\n        /* \"#utility.yul\":8853:8865   */\n      revert\n        /* \"#utility.yul\":8877:8979   */\n    tag_196:\n        /* \"#utility.yul\":8918:8924   */\n      0x00\n        /* \"#utility.yul\":8969:8971   */\n      0x1f\n        /* \"#utility.yul\":8965:8972   */\n      not\n        /* \"#utility.yul\":8960:8962   */\n      0x1f\n        /* \"#utility.yul\":8953:8958   */\n      dup4\n        /* \"#utility.yul\":8949:8963   */\n      add\n        /* \"#utility.yul\":8945:8973   */\n      and\n        /* \"#utility.yul\":8935:8973   */\n      swap1\n      pop\n        /* \"#utility.yul\":8877:8979   */\n      swap2\n      swap1\n      pop\n      jump\t// out\n        /* \"#utility.yul\":8985:9107   */\n    tag_153:\n        /* \"#utility.yul\":9058:9082   */\n      tag_267\n        /* \"#utility.yul\":9076:9081   */\n      dup2\n        /* \"#utility.yul\":9058:9082   */\n      tag_200\n      jump\t// in\n    tag_267:\n        /* \"#utility.yul\":9051:9056   */\n      dup2\n        /* \"#utility.yul\":9048:9083   */\n      eq\n        /* \"#utility.yul\":9038:9101   */\n      tag_268\n      jumpi\n        /* \"#utility.yul\":9097:9098   */\n      0x00\n        /* \"#utility.yul\":9094:9095   */\n      dup1\n        /* \"#utility.yul\":9087:9099   */\n      revert\n        /* \"#utility.yul\":9038:9101   */\n    tag_268:\n        /* \"#utility.yul\":8985:9107   */\n      pop\n      jump\t// out\n\n    auxdata: 0xa2646970667358221220dba9cb090fdb5d8dd57df8635dea025c7971f50723c83f48ca0fed29f0ba3df864736f6c63430008070033\n}\n",
				"bytecode": {
					"linkReferences": {},
					"object": "6080604052600180556001600260006101000a81548160ff021916908360000b60ff160217905550600160035560016004556001600560006101000a81548160ff021916908360ff1602179055506040518060400160405280601681526020017f4d7920636174206c6f6f6b732062656175746966756c00000000000000000000815250600690805190602001906200009a9291906200044c565b507f4d7920636174206c6f6f6b732062656175746966756c0000000000000000000060075573ab8483f64d9c6d1ecf9b849ae677dd3315835cb2600860006101000a81548173ffffffffffffffffffffffffffffffffffffffff021916908373ffffffffffffffffffffffffffffffffffffffff1602179055506040518060400160405280600181526020016040518060400160405280600b81526020017f48656c6c6f20776f726c640000000000000000000000000000000000000000008152508152506009600082015181600001556020820151816001019080519060200190620001899291906200044c565b5050506040518060a00160405280600160ff168152602001600260ff168152602001600260ff168152602001600260ff168152602001600360ff16815250600b906005620001d9929190620004dd565b5060405180606001604052806040518060400160405280600581526020017f6170706c6500000000000000000000000000000000000000000000000000000081525081526020016040518060400160405280600781526020017f6261616e616e610000000000000000000000000000000000000000000000000081525081526020016040518060400160405280600681526020017f636172726f740000000000000000000000000000000000000000000000000000815250815250600c906003620002a692919062000534565b5060405180604001604052806040518060600160405280600260ff168152602001600260ff168152602001600260ff1681525081526020016040518060600160405280600260ff168152602001600360ff168152602001600360ff16815250815250600e9060026200031a9291906200059b565b503480156200032857600080fd5b506040518060400160405280600a81526020017f416268696e616e64616e00000000000000000000000000000000000000000000815250600080600181526020019081526020016000209080519060200190620003879291906200044c565b506040518060400160405280600781526020017f4465656570616b00000000000000000000000000000000000000000000000000815250600080600281526020019081526020016000209080519060200190620003e69291906200044c565b506040518060400160405280600681526020017f56697368616c0000000000000000000000000000000000000000000000000000815250600080600381526020019081526020016000209080519060200190620004459291906200044c565b5062000791565b8280546200045a906200072c565b90600052602060002090601f0160209004810192826200047e5760008555620004ca565b82601f106200049957805160ff1916838001178555620004ca565b82800160010185558215620004ca579182015b82811115620004c9578251825591602001919060010190620004ac565b5b509050620004d99190620005fd565b5090565b82805482825590600052602060002090810192821562000521579160200282015b8281111562000520578251829060ff16905591602001919060010190620004fe565b5b509050620005309190620005fd565b5090565b82805482825590600052602060002090810192821562000588579160200282015b8281111562000587578251829080519060200190620005769291906200044c565b509160200191906001019062000555565b5b5090506200059791906200061c565b5090565b828054828255906000526020600020908101928215620005ea579160200282015b82811115620005e957825182906003620005d892919062000644565b5091602001919060010190620005bc565b5b509050620005f991906200069b565b5090565b5b8082111562000618576000816000905550600101620005fe565b5090565b5b80821115620006405760008181620006369190620006c3565b506001016200061d565b5090565b82805482825590600052602060002090810192821562000688579160200282015b8281111562000687578251829060ff1690559160200191906001019062000665565b5b509050620006979190620005fd565b5090565b5b80821115620006bf5760008181620006b5919062000709565b506001016200069c565b5090565b508054620006d1906200072c565b6000825580601f10620006e5575062000706565b601f016020900490600052602060002090810190620007059190620005fd565b5b50565b5080546000825590600052602060002090810190620007299190620005fd565b50565b600060028204905060018216806200074557607f821691505b602082108114156200075c576200075b62000762565b5b50919050565b7f4e487b7100000000000000000000000000000000000000000000000000000000600052602260045260246000fd5b610c8180620007a16000396000f3fe608060405234801561001057600080fd5b50600436106101005760003560e01c8063562d7f3511610097578063922779331161006657806392277933146102b4578063b992b6db146102d2578063be1c766b146102f0578063ff643c921461030e57610100565b8063562d7f3514610218578063563566a1146102365780636422c4c8146102545780637dd6b6bc1461028457610100565b80633a5fbaaa116100d35780633a5fbaaa1461019057806345838889146101ac5780634885d0c5146101ca578063492bfa18146101fa57610100565b8063209652551461010557806326b85ee114610123578063285568b7146101415780633544b47214610160575b600080fd5b61010d61032c565b60405161011a91906109ca565b60405180910390f35b61012b61033a565b604051610138919061093c565b60405180910390f35b610149610360565b6040516101579291906109e5565b60405180910390f35b61017a6004803603810190610175919061083c565b6103fa565b60405161018791906109ca565b60405180910390f35b6101aa60048036038101906101a591906107f3565b61041e565b005b6101b461045d565b6040516101c19190610a15565b60405180910390f35b6101e460048036038101906101df919061083c565b610470565b6040516101f191906109a8565b60405180910390f35b61020261051c565b60405161020f91906109a8565b60405180910390f35b6102206105aa565b60405161022d919061098d565b60405180910390f35b61023e6105bd565b60405161024b91906109ca565b60405180910390f35b61026e6004803603810190610269919061083c565b6105c3565b60405161027b91906109a8565b60405180910390f35b61029e60048036038101906102999190610869565b61066f565b6040516102ab91906109ca565b60405180910390f35b6102bc6106ac565b6040516102c99190610972565b60405180910390f35b6102da6106b2565b6040516102e79190610957565b60405180910390f35b6102f86106b8565b60405161030591906109ca565b60405180910390f35b6103166106c5565b60405161032391906109ca565b60405180910390f35b600080600190508091505090565b600860009054906101000a900473ffffffffffffffffffffffffffffffffffffffff1681565b600980600001549080600101805461037790610b4e565b80601f01602080910402602001604051908101604052809291908181526020018280546103a390610b4e565b80156103f05780601f106103c5576101008083540402835291602001916103f0565b820191906000526020600020905b8154815290600101906020018083116103d357829003601f168201915b5050505050905082565b600b818154811061040a57600080fd5b906000526020600020016000915090505481565b600d819080600181540180825580915050600190039060005260206000200160009091909190915090805190602001906104599291906106cb565b5050565b600560009054906101000a900460ff1681565b600d818154811061048057600080fd5b90600052602060002001600091509050805461049b90610b4e565b80601f01602080910402602001604051908101604052809291908181526020018280546104c790610b4e565b80156105145780601f106104e957610100808354040283529160200191610514565b820191906000526020600020905b8154815290600101906020018083116104f757829003601f168201915b505050505081565b6006805461052990610b4e565b80601f016020809104026020016040519081016040528092919081815260200182805461055590610b4e565b80156105a25780601f10610577576101008083540402835291602001916105a2565b820191906000526020600020905b81548152906001019060200180831161058557829003601f168201915b505050505081565b600260009054906101000a900460000b81565b60045481565b600c81815481106105d357600080fd5b9060005260206000200160009150905080546105ee90610b4e565b80601f016020809104026020016040519081016040528092919081815260200182805461061a90610b4e565b80156106675780601f1061063c57610100808354040283529160200191610667565b820191906000526020600020905b81548152906001019060200180831161064a57829003601f168201915b505050505081565b600e828154811061067f57600080fd5b90600052602060002001818154811061069757600080fd5b90600052602060002001600091509150505481565b60015481565b60075481565b6000600d80549050905090565b60035481565b8280546106d790610b4e565b90600052602060002090601f0160209004810192826106f95760008555610740565b82601f1061071257805160ff1916838001178555610740565b82800160010185558215610740579182015b8281111561073f578251825591602001919060010190610724565b5b50905061074d9190610751565b5090565b5b8082111561076a576000816000905550600101610752565b5090565b600061078161077c84610a55565b610a30565b90508281526020810184848401111561079d5761079c610c14565b5b6107a8848285610b0c565b509392505050565b600082601f8301126107c5576107c4610c0f565b5b81356107d584826020860161076e565b91505092915050565b6000813590506107ed81610c34565b92915050565b60006020828403121561080957610808610c1e565b5b600082013567ffffffffffffffff81111561082757610826610c19565b5b610833848285016107b0565b91505092915050565b60006020828403121561085257610851610c1e565b5b6000610860848285016107de565b91505092915050565b600080604083850312156108805761087f610c1e565b5b600061088e858286016107de565b925050602061089f858286016107de565b9150509250929050565b6108b281610aa2565b82525050565b6108c181610ab4565b82525050565b6108d081610abe565b82525050565b6108df81610ac8565b82525050565b60006108f082610a86565b6108fa8185610a91565b935061090a818560208601610b1b565b61091381610c23565b840191505092915050565b61092781610af5565b82525050565b61093681610aff565b82525050565b600060208201905061095160008301846108a9565b92915050565b600060208201905061096c60008301846108b8565b92915050565b600060208201905061098760008301846108c7565b92915050565b60006020820190506109a260008301846108d6565b92915050565b600060208201905081810360008301526109c281846108e5565b905092915050565b60006020820190506109df600083018461091e565b92915050565b60006040820190506109fa600083018561091e565b8181036020830152610a0c81846108e5565b90509392505050565b6000602082019050610a2a600083018461092d565b92915050565b6000610a3a610a4b565b9050610a468282610b80565b919050565b6000604051905090565b600067ffffffffffffffff821115610a7057610a6f610be0565b5b610a7982610c23565b9050602081019050919050565b600081519050919050565b600082825260208201905092915050565b6000610aad82610ad5565b9050919050565b6000819050919050565b6000819050919050565b60008160000b9050919050565b600073ffffffffffffffffffffffffffffffffffffffff82169050919050565b6000819050919050565b600060ff82169050919050565b82818337600083830152505050565b60005b83811015610b39578082015181840152602081019050610b1e565b83811115610b48576000848401525b50505050565b60006002820490506001821680610b6657607f821691505b60208210811415610b7a57610b79610bb1565b5b50919050565b610b8982610c23565b810181811067ffffffffffffffff82111715610ba857610ba7610be0565b5b80604052505050565b7f4e487b7100000000000000000000000000000000000000000000000000000000600052602260045260246000fd5b7f4e487b7100000000000000000000000000000000000000000000000000000000600052604160045260246000fd5b600080fd5b600080fd5b600080fd5b600080fd5b6000601f19601f8301169050919050565b610c3d81610af5565b8114610c4857600080fd5b5056fea2646970667358221220dba9cb090fdb5d8dd57df8635dea025c7971f50723c83f48ca0fed29f0ba3df864736f6c63430008070033",
					"opcodes": "PUSH1 0x80 PUSH1 0x40 MSTORE PUSH1 0x1 DUP1 SSTORE PUSH1 0x1 PUSH1 0x2 PUSH1 0x0 PUSH2 0x100 EXP DUP2 SLOAD DUP2 PUSH1 0xFF MUL NOT AND SWAP1 DUP4 PUSH1 0x0 SIGNEXTEND PUSH1 0xFF AND MUL OR SWAP1 SSTORE POP PUSH1 0x1 PUSH1 0x3 SSTORE PUSH1 0x1 PUSH1 0x4 SSTORE PUSH1 0x1 PUSH1 0x5 PUSH1 0x0 PUSH2 0x100 EXP DUP2 SLOAD DUP2 PUSH1 0xFF MUL NOT AND SWAP1 DUP4 PUSH1 0xFF AND MUL OR SWAP1 SSTORE POP PUSH1 0x40 MLOAD DUP1 PUSH1 0x40 ADD PUSH1 0x40 MSTORE DUP1 PUSH1 0x16 DUP2 MSTORE PUSH1 0x20 ADD PUSH32 0x4D7920636174206C6F6F6B732062656175746966756C00000000000000000000 DUP2 MSTORE POP PUSH1 0x6 SWAP1 DUP1 MLOAD SWAP1 PUSH1 0x20 ADD SWAP1 PUSH3 0x9A SWAP3 SWAP2 SWAP1 PUSH3 0x44C JUMP JUMPDEST POP PUSH32 0x4D7920636174206C6F6F6B732062656175746966756C00000000000000000000 PUSH1 0x7 SSTORE PUSH20 0xAB8483F64D9C6D1ECF9B849AE677DD3315835CB2 PUSH1 0x8 PUSH1 0x0 PUSH2 0x100 EXP DUP2 SLOAD DUP2 PUSH20 0xFFFFFFFFFFFFFFFFFFFFFFFFFFFFFFFFFFFFFFFF MUL NOT AND SWAP1 DUP4 PUSH20 0xFFFFFFFFFFFFFFFFFFFFFFFFFFFFFFFFFFFFFFFF AND MUL OR SWAP1 SSTORE POP PUSH1 0x40 MLOAD DUP1 PUSH1 0x40 ADD PUSH1 0x40 MSTORE DUP1 PUSH1 0x1 DUP2 MSTORE PUSH1 0x20 ADD PUSH1 0x40 MLOAD DUP1 PUSH1 0x40 ADD PUSH1 0x40 MSTORE DUP1 PUSH1 0xB DUP2 MSTORE PUSH1 0x20 ADD PUSH32 0x48656C6C6F20776F726C64000000000000000000000000000000000000000000 DUP2 MSTORE POP DUP2 MSTORE POP PUSH1 0x9 PUSH1 0x0 DUP3 ADD MLOAD DUP2 PUSH1 0x0 ADD SSTORE PUSH1 0x20 DUP3 ADD MLOAD DUP2 PUSH1 0x1 ADD SWAP1 DUP1 MLOAD SWAP1 PUSH1 0x20 ADD SWAP1 PUSH3 0x189 SWAP3 SWAP2 SWAP1 PUSH3 0x44C JUMP JUMPDEST POP POP POP PUSH1 0x40 MLOAD DUP1 PUSH1 0xA0 ADD PUSH1 0x40 MSTORE DUP1 PUSH1 0x1 PUSH1 0xFF AND DUP2 MSTORE PUSH1 0x20 ADD PUSH1 0x2 PUSH1 0xFF AND DUP2 MSTORE PUSH1 0x20 ADD PUSH1 0x2 PUSH1 0xFF AND DUP2 MSTORE PUSH1 0x20 ADD PUSH1 0x2 PUSH1 0xFF AND DUP2 MSTORE PUSH1 0x20 ADD PUSH1 0x3 PUSH1 0xFF AND DUP2 MSTORE POP PUSH1 0xB SWAP1 PUSH1 0x5 PUSH3 0x1D9 SWAP3 SWAP2 SWAP1 PUSH3 0x4DD JUMP JUMPDEST POP PUSH1 0x40 MLOAD DUP1 PUSH1 0x60 ADD PUSH1 0x40 MSTORE DUP1 PUSH1 0x40 MLOAD DUP1 PUSH1 0x40 ADD PUSH1 0x40 MSTORE DUP1 PUSH1 0x5 DUP2 MSTORE PUSH1 0x20 ADD PUSH32 0x6170706C65000000000000000000000000000000000000000000000000000000 DUP2 MSTORE POP DUP2 MSTORE PUSH1 0x20 ADD PUSH1 0x40 MLOAD DUP1 PUSH1 0x40 ADD PUSH1 0x40 MSTORE DUP1 PUSH1 0x7 DUP2 MSTORE PUSH1 0x20 ADD PUSH32 0x6261616E616E6100000000000000000000000000000000000000000000000000 DUP2 MSTORE POP DUP2 MSTORE PUSH1 0x20 ADD PUSH1 0x40 MLOAD DUP1 PUSH1 0x40 ADD PUSH1 0x40 MSTORE DUP1 PUSH1 0x6 DUP2 MSTORE PUSH1 0x20 ADD PUSH32 0x636172726F740000000000000000000000000000000000000000000000000000 DUP2 MSTORE POP DUP2 MSTORE POP PUSH1 0xC SWAP1 PUSH1 0x3 PUSH3 0x2A6 SWAP3 SWAP2 SWAP1 PUSH3 0x534 JUMP JUMPDEST POP PUSH1 0x40 MLOAD DUP1 PUSH1 0x40 ADD PUSH1 0x40 MSTORE DUP1 PUSH1 0x40 MLOAD DUP1 PUSH1 0x60 ADD PUSH1 0x40 MSTORE DUP1 PUSH1 0x2 PUSH1 0xFF AND DUP2 MSTORE PUSH1 0x20 ADD PUSH1 0x2 PUSH1 0xFF AND DUP2 MSTORE PUSH1 0x20 ADD PUSH1 0x2 PUSH1 0xFF AND DUP2 MSTORE POP DUP2 MSTORE PUSH1 0x20 ADD PUSH1 0x40 MLOAD DUP1 PUSH1 0x60 ADD PUSH1 0x40 MSTORE DUP1 PUSH1 0x2 PUSH1 0xFF AND DUP2 MSTORE PUSH1 0x20 ADD PUSH1 0x3 PUSH1 0xFF AND DUP2 MSTORE PUSH1 0x20 ADD PUSH1 0x3 PUSH1 0xFF AND DUP2 MSTORE POP DUP2 MSTORE POP PUSH1 0xE SWAP1 PUSH1 0x2 PUSH3 0x31A SWAP3 SWAP2 SWAP1 PUSH3 0x59B JUMP JUMPDEST POP CALLVALUE DUP1 ISZERO PUSH3 0x328 JUMPI PUSH1 0x0 DUP1 REVERT JUMPDEST POP PUSH1 0x40 MLOAD DUP1 PUSH1 0x40 ADD PUSH1 0x40 MSTORE DUP1 PUSH1 0xA DUP2 MSTORE PUSH1 0x20 ADD PUSH32 0x416268696E616E64616E00000000000000000000000000000000000000000000 DUP2 MSTORE POP PUSH1 0x0 DUP1 PUSH1 0x1 DUP2 MSTORE PUSH1 0x20 ADD SWAP1 DUP2 MSTORE PUSH1 0x20 ADD PUSH1 0x0 KECCAK256 SWAP1 DUP1 MLOAD SWAP1 PUSH1 0x20 ADD SWAP1 PUSH3 0x387 SWAP3 SWAP2 SWAP1 PUSH3 0x44C JUMP JUMPDEST POP PUSH1 0x40 MLOAD DUP1 PUSH1 0x40 ADD PUSH1 0x40 MSTORE DUP1 PUSH1 0x7 DUP2 MSTORE PUSH1 0x20 ADD PUSH32 0x4465656570616B00000000000000000000000000000000000000000000000000 DUP2 MSTORE POP PUSH1 0x0 DUP1 PUSH1 0x2 DUP2 MSTORE PUSH1 0x20 ADD SWAP1 DUP2 MSTORE PUSH1 0x20 ADD PUSH1 0x0 KECCAK256 SWAP1 DUP1 MLOAD SWAP1 PUSH1 0x20 ADD SWAP1 PUSH3 0x3E6 SWAP3 SWAP2 SWAP1 PUSH3 0x44C JUMP JUMPDEST POP PUSH1 0x40 MLOAD DUP1 PUSH1 0x40 ADD PUSH1 0x40 MSTORE DUP1 PUSH1 0x6 DUP2 MSTORE PUSH1 0x20 ADD PUSH32 0x56697368616C0000000000000000000000000000000000000000000000000000 DUP2 MSTORE POP PUSH1 0x0 DUP1 PUSH1 0x3 DUP2 MSTORE PUSH1 0x20 ADD SWAP1 DUP2 MSTORE PUSH1 0x20 ADD PUSH1 0x0 KECCAK256 SWAP1 DUP1 MLOAD SWAP1 PUSH1 0x20 ADD SWAP1 PUSH3 0x445 SWAP3 SWAP2 SWAP1 PUSH3 0x44C JUMP JUMPDEST POP PUSH3 0x791 JUMP JUMPDEST DUP3 DUP1 SLOAD PUSH3 0x45A SWAP1 PUSH3 0x72C JUMP JUMPDEST SWAP1 PUSH1 0x0 MSTORE PUSH1 0x20 PUSH1 0x0 KECCAK256 SWAP1 PUSH1 0x1F ADD PUSH1 0x20 SWAP1 DIV DUP2 ADD SWAP3 DUP3 PUSH3 0x47E JUMPI PUSH1 0x0 DUP6 SSTORE PUSH3 0x4CA JUMP JUMPDEST DUP3 PUSH1 0x1F LT PUSH3 0x499 JUMPI DUP1 MLOAD PUSH1 0xFF NOT AND DUP4 DUP1 ADD OR DUP6 SSTORE PUSH3 0x4CA JUMP JUMPDEST DUP3 DUP1 ADD PUSH1 0x1 ADD DUP6 SSTORE DUP3 ISZERO PUSH3 0x4CA JUMPI SWAP2 DUP3 ADD JUMPDEST DUP3 DUP2 GT ISZERO PUSH3 0x4C9 JUMPI DUP3 MLOAD DUP3 SSTORE SWAP2 PUSH1 0x20 ADD SWAP2 SWAP1 PUSH1 0x1 ADD SWAP1 PUSH3 0x4AC JUMP JUMPDEST JUMPDEST POP SWAP1 POP PUSH3 0x4D9 SWAP2 SWAP1 PUSH3 0x5FD JUMP JUMPDEST POP SWAP1 JUMP JUMPDEST DUP3 DUP1 SLOAD DUP3 DUP3 SSTORE SWAP1 PUSH1 0x0 MSTORE PUSH1 0x20 PUSH1 0x0 KECCAK256 SWAP1 DUP2 ADD SWAP3 DUP3 ISZERO PUSH3 0x521 JUMPI SWAP2 PUSH1 0x20 MUL DUP3 ADD JUMPDEST DUP3 DUP2 GT ISZERO PUSH3 0x520 JUMPI DUP3 MLOAD DUP3 SWAP1 PUSH1 0xFF AND SWAP1 SSTORE SWAP2 PUSH1 0x20 ADD SWAP2 SWAP1 PUSH1 0x1 ADD SWAP1 PUSH3 0x4FE JUMP JUMPDEST JUMPDEST POP SWAP1 POP PUSH3 0x530 SWAP2 SWAP1 PUSH3 0x5FD JUMP JUMPDEST POP SWAP1 JUMP JUMPDEST DUP3 DUP1 SLOAD DUP3 DUP3 SSTORE SWAP1 PUSH1 0x0 MSTORE PUSH1 0x20 PUSH1 0x0 KECCAK256 SWAP1 DUP2 ADD SWAP3 DUP3 ISZERO PUSH3 0x588 JUMPI SWAP2 PUSH1 0x20 MUL DUP3 ADD JUMPDEST DUP3 DUP2 GT ISZERO PUSH3 0x587 JUMPI DUP3 MLOAD DUP3 SWAP1 DUP1 MLOAD SWAP1 PUSH1 0x20 ADD SWAP1 PUSH3 0x576 SWAP3 SWAP2 SWAP1 PUSH3 0x44C JUMP JUMPDEST POP SWAP2 PUSH1 0x20 ADD SWAP2 SWAP1 PUSH1 0x1 ADD SWAP1 PUSH3 0x555 JUMP JUMPDEST JUMPDEST POP SWAP1 POP PUSH3 0x597 SWAP2 SWAP1 PUSH3 0x61C JUMP JUMPDEST POP SWAP1 JUMP JUMPDEST DUP3 DUP1 SLOAD DUP3 DUP3 SSTORE SWAP1 PUSH1 0x0 MSTORE PUSH1 0x20 PUSH1 0x0 KECCAK256 SWAP1 DUP2 ADD SWAP3 DUP3 ISZERO PUSH3 0x5EA JUMPI SWAP2 PUSH1 0x20 MUL DUP3 ADD JUMPDEST DUP3 DUP2 GT ISZERO PUSH3 0x5E9 JUMPI DUP3 MLOAD DUP3 SWAP1 PUSH1 0x3 PUSH3 0x5D8 SWAP3 SWAP2 SWAP1 PUSH3 0x644 JUMP JUMPDEST POP SWAP2 PUSH1 0x20 ADD SWAP2 SWAP1 PUSH1 0x1 ADD SWAP1 PUSH3 0x5BC JUMP JUMPDEST JUMPDEST POP SWAP1 POP PUSH3 0x5F9 SWAP2 SWAP1 PUSH3 0x69B JUMP JUMPDEST POP SWAP1 JUMP JUMPDEST JUMPDEST DUP1 DUP3 GT ISZERO PUSH3 0x618 JUMPI PUSH1 0x0 DUP2 PUSH1 0x0 SWAP1 SSTORE POP PUSH1 0x1 ADD PUSH3 0x5FE JUMP JUMPDEST POP SWAP1 JUMP JUMPDEST JUMPDEST DUP1 DUP3 GT ISZERO PUSH3 0x640 JUMPI PUSH1 0x0 DUP2 DUP2 PUSH3 0x636 SWAP2 SWAP1 PUSH3 0x6C3 JUMP JUMPDEST POP PUSH1 0x1 ADD PUSH3 0x61D JUMP JUMPDEST POP SWAP1 JUMP JUMPDEST DUP3 DUP1 SLOAD DUP3 DUP3 SSTORE SWAP1 PUSH1 0x0 MSTORE PUSH1 0x20 PUSH1 0x0 KECCAK256 SWAP1 DUP2 ADD SWAP3 DUP3 ISZERO PUSH3 0x688 JUMPI SWAP2 PUSH1 0x20 MUL DUP3 ADD JUMPDEST DUP3 DUP2 GT ISZERO PUSH3 0x687 JUMPI DUP3 MLOAD DUP3 SWAP1 PUSH1 0xFF AND SWAP1 SSTORE SWAP2 PUSH1 0x20 ADD SWAP2 SWAP1 PUSH1 0x1 ADD SWAP1 PUSH3 0x665 JUMP JUMPDEST JUMPDEST POP SWAP1 POP PUSH3 0x697 SWAP2 SWAP1 PUSH3 0x5FD JUMP JUMPDEST POP SWAP1 JUMP JUMPDEST JUMPDEST DUP1 DUP3 GT ISZERO PUSH3 0x6BF JUMPI PUSH1 0x0 DUP2 DUP2 PUSH3 0x6B5 SWAP2 SWAP1 PUSH3 0x709 JUMP JUMPDEST POP PUSH1 0x1 ADD PUSH3 0x69C JUMP JUMPDEST POP SWAP1 JUMP JUMPDEST POP DUP1 SLOAD PUSH3 0x6D1 SWAP1 PUSH3 0x72C JUMP JUMPDEST PUSH1 0x0 DUP3 SSTORE DUP1 PUSH1 0x1F LT PUSH3 0x6E5 JUMPI POP PUSH3 0x706 JUMP JUMPDEST PUSH1 0x1F ADD PUSH1 0x20 SWAP1 DIV SWAP1 PUSH1 0x0 MSTORE PUSH1 0x20 PUSH1 0x0 KECCAK256 SWAP1 DUP2 ADD SWAP1 PUSH3 0x705 SWAP2 SWAP1 PUSH3 0x5FD JUMP JUMPDEST JUMPDEST POP JUMP JUMPDEST POP DUP1 SLOAD PUSH1 0x0 DUP3 SSTORE SWAP1 PUSH1 0x0 MSTORE PUSH1 0x20 PUSH1 0x0 KECCAK256 SWAP1 DUP2 ADD SWAP1 PUSH3 0x729 SWAP2 SWAP1 PUSH3 0x5FD JUMP JUMPDEST POP JUMP JUMPDEST PUSH1 0x0 PUSH1 0x2 DUP3 DIV SWAP1 POP PUSH1 0x1 DUP3 AND DUP1 PUSH3 0x745 JUMPI PUSH1 0x7F DUP3 AND SWAP2 POP JUMPDEST PUSH1 0x20 DUP3 LT DUP2 EQ ISZERO PUSH3 0x75C JUMPI PUSH3 0x75B PUSH3 0x762 JUMP JUMPDEST JUMPDEST POP SWAP2 SWAP1 POP JUMP JUMPDEST PUSH32 0x4E487B7100000000000000000000000000000000000000000000000000000000 PUSH1 0x0 MSTORE PUSH1 0x22 PUSH1 0x4 MSTORE PUSH1 0x24 PUSH1 0x0 REVERT JUMPDEST PUSH2 0xC81 DUP1 PUSH3 0x7A1 PUSH1 0x0 CODECOPY PUSH1 0x0 RETURN INVALID PUSH1 0x80 PUSH1 0x40 MSTORE CALLVALUE DUP1 ISZERO PUSH2 0x10 JUMPI PUSH1 0x0 DUP1 REVERT JUMPDEST POP PUSH1 0x4 CALLDATASIZE LT PUSH2 0x100 JUMPI PUSH1 0x0 CALLDATALOAD PUSH1 0xE0 SHR DUP1 PUSH4 0x562D7F35 GT PUSH2 0x97 JUMPI DUP1 PUSH4 0x92277933 GT PUSH2 0x66 JUMPI DUP1 PUSH4 0x92277933 EQ PUSH2 0x2B4 JUMPI DUP1 PUSH4 0xB992B6DB EQ PUSH2 0x2D2 JUMPI DUP1 PUSH4 0xBE1C766B EQ PUSH2 0x2F0 JUMPI DUP1 PUSH4 0xFF643C92 EQ PUSH2 0x30E JUMPI PUSH2 0x100 JUMP JUMPDEST DUP1 PUSH4 0x562D7F35 EQ PUSH2 0x218 JUMPI DUP1 PUSH4 0x563566A1 EQ PUSH2 0x236 JUMPI DUP1 PUSH4 0x6422C4C8 EQ PUSH2 0x254 JUMPI DUP1 PUSH4 0x7DD6B6BC EQ PUSH2 0x284 JUMPI PUSH2 0x100 JUMP JUMPDEST DUP1 PUSH4 0x3A5FBAAA GT PUSH2 0xD3 JUMPI DUP1 PUSH4 0x3A5FBAAA EQ PUSH2 0x190 JUMPI DUP1 PUSH4 0x45838889 EQ PUSH2 0x1AC JUMPI DUP1 PUSH4 0x4885D0C5 EQ PUSH2 0x1CA JUMPI DUP1 PUSH4 0x492BFA18 EQ PUSH2 0x1FA JUMPI PUSH2 0x100 JUMP JUMPDEST DUP1 PUSH4 0x20965255 EQ PUSH2 0x105 JUMPI DUP1 PUSH4 0x26B85EE1 EQ PUSH2 0x123 JUMPI DUP1 PUSH4 0x285568B7 EQ PUSH2 0x141 JUMPI DUP1 PUSH4 0x3544B472 EQ PUSH2 0x160 JUMPI JUMPDEST PUSH1 0x0 DUP1 REVERT JUMPDEST PUSH2 0x10D PUSH2 0x32C JUMP JUMPDEST PUSH1 0x40 MLOAD PUSH2 0x11A SWAP2 SWAP1 PUSH2 0x9CA JUMP JUMPDEST PUSH1 0x40 MLOAD DUP1 SWAP2 SUB SWAP1 RETURN JUMPDEST PUSH2 0x12B PUSH2 0x33A JUMP JUMPDEST PUSH1 0x40 MLOAD PUSH2 0x138 SWAP2 SWAP1 PUSH2 0x93C JUMP JUMPDEST PUSH1 0x40 MLOAD DUP1 SWAP2 SUB SWAP1 RETURN JUMPDEST PUSH2 0x149 PUSH2 0x360 JUMP JUMPDEST PUSH1 0x40 MLOAD PUSH2 0x157 SWAP3 SWAP2 SWAP1 PUSH2 0x9E5 JUMP JUMPDEST PUSH1 0x40 MLOAD DUP1 SWAP2 SUB SWAP1 RETURN JUMPDEST PUSH2 0x17A PUSH1 0x4 DUP1 CALLDATASIZE SUB DUP2 ADD SWAP1 PUSH2 0x175 SWAP2 SWAP1 PUSH2 0x83C JUMP JUMPDEST PUSH2 0x3FA JUMP JUMPDEST PUSH1 0x40 MLOAD PUSH2 0x187 SWAP2 SWAP1 PUSH2 0x9CA JUMP JUMPDEST PUSH1 0x40 MLOAD DUP1 SWAP2 SUB SWAP1 RETURN JUMPDEST PUSH2 0x1AA PUSH1 0x4 DUP1 CALLDATASIZE SUB DUP2 ADD SWAP1 PUSH2 0x1A5 SWAP2 SWAP1 PUSH2 0x7F3 JUMP JUMPDEST PUSH2 0x41E JUMP JUMPDEST STOP JUMPDEST PUSH2 0x1B4 PUSH2 0x45D JUMP JUMPDEST PUSH1 0x40 MLOAD PUSH2 0x1C1 SWAP2 SWAP1 PUSH2 0xA15 JUMP JUMPDEST PUSH1 0x40 MLOAD DUP1 SWAP2 SUB SWAP1 RETURN JUMPDEST PUSH2 0x1E4 PUSH1 0x4 DUP1 CALLDATASIZE SUB DUP2 ADD SWAP1 PUSH2 0x1DF SWAP2 SWAP1 PUSH2 0x83C JUMP JUMPDEST PUSH2 0x470 JUMP JUMPDEST PUSH1 0x40 MLOAD PUSH2 0x1F1 SWAP2 SWAP1 PUSH2 0x9A8 JUMP JUMPDEST PUSH1 0x40 MLOAD DUP1 SWAP2 SUB SWAP1 RETURN JUMPDEST PUSH2 0x202 PUSH2 0x51C JUMP JUMPDEST PUSH1 0x40 MLOAD PUSH2 0x20F SWAP2 SWAP1 PUSH2 0x9A8 JUMP JUMPDEST PUSH1 0x40 MLOAD DUP1 SWAP2 SUB SWAP1 RETURN JUMPDEST PUSH2 0x220 PUSH2 0x5AA JUMP JUMPDEST PUSH1 0x40 MLOAD PUSH2 0x22D SWAP2 SWAP1 PUSH2 0x98D JUMP JUMPDEST PUSH1 0x40 MLOAD DUP1 SWAP2 SUB SWAP1 RETURN JUMPDEST PUSH2 0x23E PUSH2 0x5BD JUMP JUMPDEST PUSH1 0x40 MLOAD PUSH2 0x24B SWAP2 SWAP1 PUSH2 0x9CA JUMP JUMPDEST PUSH1 0x40 MLOAD DUP1 SWAP2 SUB SWAP1 RETURN JUMPDEST PUSH2 0x26E PUSH1 0x4 DUP1 CALLDATASIZE SUB DUP2 ADD SWAP1 PUSH2 0x269 SWAP2 SWAP1 PUSH2 0x83C JUMP JUMPDEST PUSH2 0x5C3 JUMP JUMPDEST PUSH1 0x40 MLOAD PUSH2 0x27B SWAP2 SWAP1 PUSH2 0x9A8 JUMP JUMPDEST PUSH1 0x40 MLOAD DUP1 SWAP2 SUB SWAP1 RETURN JUMPDEST PUSH2 0x29E PUSH1 0x4 DUP1 CALLDATASIZE SUB DUP2 ADD SWAP1 PUSH2 0x299 SWAP2 SWAP1 PUSH2 0x869 JUMP JUMPDEST PUSH2 0x66F JUMP JUMPDEST PUSH1 0x40 MLOAD PUSH2 0x2AB SWAP2 SWAP1 PUSH2 0x9CA JUMP JUMPDEST PUSH1 0x40 MLOAD DUP1 SWAP2 SUB SWAP1 RETURN JUMPDEST PUSH2 0x2BC PUSH2 0x6AC JUMP JUMPDEST PUSH1 0x40 MLOAD PUSH2 0x2C9 SWAP2 SWAP1 PUSH2 0x972 JUMP JUMPDEST PUSH1 0x40 MLOAD DUP1 SWAP2 SUB SWAP1 RETURN JUMPDEST PUSH2 0x2DA PUSH2 0x6B2 JUMP JUMPDEST PUSH1 0x40 MLOAD PUSH2 0x2E7 SWAP2 SWAP1 PUSH2 0x957 JUMP JUMPDEST PUSH1 0x40 MLOAD DUP1 SWAP2 SUB SWAP1 RETURN JUMPDEST PUSH2 0x2F8 PUSH2 0x6B8 JUMP JUMPDEST PUSH1 0x40 MLOAD PUSH2 0x305 SWAP2 SWAP1 PUSH2 0x9CA JUMP JUMPDEST PUSH1 0x40 MLOAD DUP1 SWAP2 SUB SWAP1 RETURN JUMPDEST PUSH2 0x316 PUSH2 0x6C5 JUMP JUMPDEST PUSH1 0x40 MLOAD PUSH2 0x323 SWAP2 SWAP1 PUSH2 0x9CA JUMP JUMPDEST PUSH1 0x40 MLOAD DUP1 SWAP2 SUB SWAP1 RETURN JUMPDEST PUSH1 0x0 DUP1 PUSH1 0x1 SWAP1 POP DUP1 SWAP2 POP POP SWAP1 JUMP JUMPDEST PUSH1 0x8 PUSH1 0x0 SWAP1 SLOAD SWAP1 PUSH2 0x100 EXP SWAP1 DIV PUSH20 0xFFFFFFFFFFFFFFFFFFFFFFFFFFFFFFFFFFFFFFFF AND DUP2 JUMP JUMPDEST PUSH1 0x9 DUP1 PUSH1 0x0 ADD SLOAD SWAP1 DUP1 PUSH1 0x1 ADD DUP1 SLOAD PUSH2 0x377 SWAP1 PUSH2 0xB4E JUMP JUMPDEST DUP1 PUSH1 0x1F ADD PUSH1 0x20 DUP1 SWAP2 DIV MUL PUSH1 0x20 ADD PUSH1 0x40 MLOAD SWAP1 DUP2 ADD PUSH1 0x40 MSTORE DUP1 SWAP3 SWAP2 SWAP1 DUP2 DUP2 MSTORE PUSH1 0x20 ADD DUP3 DUP1 SLOAD PUSH2 0x3A3 SWAP1 PUSH2 0xB4E JUMP JUMPDEST DUP1 ISZERO PUSH2 0x3F0 JUMPI DUP1 PUSH1 0x1F LT PUSH2 0x3C5 JUMPI PUSH2 0x100 DUP1 DUP4 SLOAD DIV MUL DUP4 MSTORE SWAP2 PUSH1 0x20 ADD SWAP2 PUSH2 0x3F0 JUMP JUMPDEST DUP3 ADD SWAP2 SWAP1 PUSH1 0x0 MSTORE PUSH1 0x20 PUSH1 0x0 KECCAK256 SWAP1 JUMPDEST DUP2 SLOAD DUP2 MSTORE SWAP1 PUSH1 0x1 ADD SWAP1 PUSH1 0x20 ADD DUP1 DUP4 GT PUSH2 0x3D3 JUMPI DUP3 SWAP1 SUB PUSH1 0x1F AND DUP3 ADD SWAP2 JUMPDEST POP POP POP POP POP SWAP1 POP DUP3 JUMP JUMPDEST PUSH1 0xB DUP2 DUP2 SLOAD DUP2 LT PUSH2 0x40A JUMPI PUSH1 0x0 DUP1 REVERT JUMPDEST SWAP1 PUSH1 0x0 MSTORE PUSH1 0x20 PUSH1 0x0 KECCAK256 ADD PUSH1 0x0 SWAP2 POP SWAP1 POP SLOAD DUP2 JUMP JUMPDEST PUSH1 0xD DUP2 SWAP1 DUP1 PUSH1 0x1 DUP2 SLOAD ADD DUP1 DUP3 SSTORE DUP1 SWAP2 POP POP PUSH1 0x1 SWAP1 SUB SWAP1 PUSH1 0x0 MSTORE PUSH1 0x20 PUSH1 0x0 KECCAK256 ADD PUSH1 0x0 SWAP1 SWAP2 SWAP1 SWAP2 SWAP1 SWAP2 POP SWAP1 DUP1 MLOAD SWAP1 PUSH1 0x20 ADD SWAP1 PUSH2 0x459 SWAP3 SWAP2 SWAP1 PUSH2 0x6CB JUMP JUMPDEST POP POP JUMP JUMPDEST PUSH1 0x5 PUSH1 0x0 SWAP1 SLOAD SWAP1 PUSH2 0x100 EXP SWAP1 DIV PUSH1 0xFF AND DUP2 JUMP JUMPDEST PUSH1 0xD DUP2 DUP2 SLOAD DUP2 LT PUSH2 0x480 JUMPI PUSH1 0x0 DUP1 REVERT JUMPDEST SWAP1 PUSH1 0x0 MSTORE PUSH1 0x20 PUSH1 0x0 KECCAK256 ADD PUSH1 0x0 SWAP2 POP SWAP1 POP DUP1 SLOAD PUSH2 0x49B SWAP1 PUSH2 0xB4E JUMP JUMPDEST DUP1 PUSH1 0x1F ADD PUSH1 0x20 DUP1 SWAP2 DIV MUL PUSH1 0x20 ADD PUSH1 0x40 MLOAD SWAP1 DUP2 ADD PUSH1 0x40 MSTORE DUP1 SWAP3 SWAP2 SWAP1 DUP2 DUP2 MSTORE PUSH1 0x20 ADD DUP3 DUP1 SLOAD PUSH2 0x4C7 SWAP1 PUSH2 0xB4E JUMP JUMPDEST DUP1 ISZERO PUSH2 0x514 JUMPI DUP1 PUSH1 0x1F LT PUSH2 0x4E9 JUMPI PUSH2 0x100 DUP1 DUP4 SLOAD DIV MUL DUP4 MSTORE SWAP2 PUSH1 0x20 ADD SWAP2 PUSH2 0x514 JUMP JUMPDEST DUP3 ADD SWAP2 SWAP1 PUSH1 0x0 MSTORE PUSH1 0x20 PUSH1 0x0 KECCAK256 SWAP1 JUMPDEST DUP2 SLOAD DUP2 MSTORE SWAP1 PUSH1 0x1 ADD SWAP1 PUSH1 0x20 ADD DUP1 DUP4 GT PUSH2 0x4F7 JUMPI DUP3 SWAP1 SUB PUSH1 0x1F AND DUP3 ADD SWAP2 JUMPDEST POP POP POP POP POP DUP2 JUMP JUMPDEST PUSH1 0x6 DUP1 SLOAD PUSH2 0x529 SWAP1 PUSH2 0xB4E JUMP JUMPDEST DUP1 PUSH1 0x1F ADD PUSH1 0x20 DUP1 SWAP2 DIV MUL PUSH1 0x20 ADD PUSH1 0x40 MLOAD SWAP1 DUP2 ADD PUSH1 0x40 MSTORE DUP1 SWAP3 SWAP2 SWAP1 DUP2 DUP2 MSTORE PUSH1 0x20 ADD DUP3 DUP1 SLOAD PUSH2 0x555 SWAP1 PUSH2 0xB4E JUMP JUMPDEST DUP1 ISZERO PUSH2 0x5A2 JUMPI DUP1 PUSH1 0x1F LT PUSH2 0x577 JUMPI PUSH2 0x100 DUP1 DUP4 SLOAD DIV MUL DUP4 MSTORE SWAP2 PUSH1 0x20 ADD SWAP2 PUSH2 0x5A2 JUMP JUMPDEST DUP3 ADD SWAP2 SWAP1 PUSH1 0x0 MSTORE PUSH1 0x20 PUSH1 0x0 KECCAK256 SWAP1 JUMPDEST DUP2 SLOAD DUP2 MSTORE SWAP1 PUSH1 0x1 ADD SWAP1 PUSH1 0x20 ADD DUP1 DUP4 GT PUSH2 0x585 JUMPI DUP3 SWAP1 SUB PUSH1 0x1F AND DUP3 ADD SWAP2 JUMPDEST POP POP POP POP POP DUP2 JUMP JUMPDEST PUSH1 0x2 PUSH1 0x0 SWAP1 SLOAD SWAP1 PUSH2 0x100 EXP SWAP1 DIV PUSH1 0x0 SIGNEXTEND DUP2 JUMP JUMPDEST PUSH1 0x4 SLOAD DUP2 JUMP JUMPDEST PUSH1 0xC DUP2 DUP2 SLOAD DUP2 LT PUSH2 0x5D3 JUMPI PUSH1 0x0 DUP1 REVERT JUMPDEST SWAP1 PUSH1 0x0 MSTORE PUSH1 0x20 PUSH1 0x0 KECCAK256 ADD PUSH1 0x0 SWAP2 POP SWAP1 POP DUP1 SLOAD PUSH2 0x5EE SWAP1 PUSH2 0xB4E JUMP JUMPDEST DUP1 PUSH1 0x1F ADD PUSH1 0x20 DUP1 SWAP2 DIV MUL PUSH1 0x20 ADD PUSH1 0x40 MLOAD SWAP1 DUP2 ADD PUSH1 0x40 MSTORE DUP1 SWAP3 SWAP2 SWAP1 DUP2 DUP2 MSTORE PUSH1 0x20 ADD DUP3 DUP1 SLOAD PUSH2 0x61A SWAP1 PUSH2 0xB4E JUMP JUMPDEST DUP1 ISZERO PUSH2 0x667 JUMPI DUP1 PUSH1 0x1F LT PUSH2 0x63C JUMPI PUSH2 0x100 DUP1 DUP4 SLOAD DIV MUL DUP4 MSTORE SWAP2 PUSH1 0x20 ADD SWAP2 PUSH2 0x667 JUMP JUMPDEST DUP3 ADD SWAP2 SWAP1 PUSH1 0x0 MSTORE PUSH1 0x20 PUSH1 0x0 KECCAK256 SWAP1 JUMPDEST DUP2 SLOAD DUP2 MSTORE SWAP1 PUSH1 0x1 ADD SWAP1 PUSH1 0x20 ADD DUP1 DUP4 GT PUSH2 0x64A JUMPI DUP3 SWAP1 SUB PUSH1 0x1F AND DUP3 ADD SWAP2 JUMPDEST POP POP POP POP POP DUP2 JUMP JUMPDEST PUSH1 0xE DUP3 DUP2 SLOAD DUP2 LT PUSH2 0x67F JUMPI PUSH1 0x0 DUP1 REVERT JUMPDEST SWAP1 PUSH1 0x0 MSTORE PUSH1 0x20 PUSH1 0x0 KECCAK256 ADD DUP2 DUP2 SLOAD DUP2 LT PUSH2 0x697 JUMPI PUSH1 0x0 DUP1 REVERT JUMPDEST SWAP1 PUSH1 0x0 MSTORE PUSH1 0x20 PUSH1 0x0 KECCAK256 ADD PUSH1 0x0 SWAP2 POP SWAP2 POP POP SLOAD DUP2 JUMP JUMPDEST PUSH1 0x1 SLOAD DUP2 JUMP JUMPDEST PUSH1 0x7 SLOAD DUP2 JUMP JUMPDEST PUSH1 0x0 PUSH1 0xD DUP1 SLOAD SWAP1 POP SWAP1 POP SWAP1 JUMP JUMPDEST PUSH1 0x3 SLOAD DUP2 JUMP JUMPDEST DUP3 DUP1 SLOAD PUSH2 0x6D7 SWAP1 PUSH2 0xB4E JUMP JUMPDEST SWAP1 PUSH1 0x0 MSTORE PUSH1 0x20 PUSH1 0x0 KECCAK256 SWAP1 PUSH1 0x1F ADD PUSH1 0x20 SWAP1 DIV DUP2 ADD SWAP3 DUP3 PUSH2 0x6F9 JUMPI PUSH1 0x0 DUP6 SSTORE PUSH2 0x740 JUMP JUMPDEST DUP3 PUSH1 0x1F LT PUSH2 0x712 JUMPI DUP1 MLOAD PUSH1 0xFF NOT AND DUP4 DUP1 ADD OR DUP6 SSTORE PUSH2 0x740 JUMP JUMPDEST DUP3 DUP1 ADD PUSH1 0x1 ADD DUP6 SSTORE DUP3 ISZERO PUSH2 0x740 JUMPI SWAP2 DUP3 ADD JUMPDEST DUP3 DUP2 GT ISZERO PUSH2 0x73F JUMPI DUP3 MLOAD DUP3 SSTORE SWAP2 PUSH1 0x20 ADD SWAP2 SWAP1 PUSH1 0x1 ADD SWAP1 PUSH2 0x724 JUMP JUMPDEST JUMPDEST POP SWAP1 POP PUSH2 0x74D SWAP2 SWAP1 PUSH2 0x751 JUMP JUMPDEST POP SWAP1 JUMP JUMPDEST JUMPDEST DUP1 DUP3 GT ISZERO PUSH2 0x76A JUMPI PUSH1 0x0 DUP2 PUSH1 0x0 SWAP1 SSTORE POP PUSH1 0x1 ADD PUSH2 0x752 JUMP JUMPDEST POP SWAP1 JUMP JUMPDEST PUSH1 0x0 PUSH2 0x781 PUSH2 0x77C DUP5 PUSH2 0xA55 JUMP JUMPDEST PUSH2 0xA30 JUMP JUMPDEST SWAP1 POP DUP3 DUP2 MSTORE PUSH1 0x20 DUP2 ADD DUP5 DUP5 DUP5 ADD GT ISZERO PUSH2 0x79D JUMPI PUSH2 0x79C PUSH2 0xC14 JUMP JUMPDEST JUMPDEST PUSH2 0x7A8 DUP5 DUP3 DUP6 PUSH2 0xB0C JUMP JUMPDEST POP SWAP4 SWAP3 POP POP POP JUMP JUMPDEST PUSH1 0x0 DUP3 PUSH1 0x1F DUP4 ADD SLT PUSH2 0x7C5 JUMPI PUSH2 0x7C4 PUSH2 0xC0F JUMP JUMPDEST JUMPDEST DUP2 CALLDATALOAD PUSH2 0x7D5 DUP5 DUP3 PUSH1 0x20 DUP7 ADD PUSH2 0x76E JUMP JUMPDEST SWAP2 POP POP SWAP3 SWAP2 POP POP JUMP JUMPDEST PUSH1 0x0 DUP2 CALLDATALOAD SWAP1 POP PUSH2 0x7ED DUP2 PUSH2 0xC34 JUMP JUMPDEST SWAP3 SWAP2 POP POP JUMP JUMPDEST PUSH1 0x0 PUSH1 0x20 DUP3 DUP5 SUB SLT ISZERO PUSH2 0x809 JUMPI PUSH2 0x808 PUSH2 0xC1E JUMP JUMPDEST JUMPDEST PUSH1 0x0 DUP3 ADD CALLDATALOAD PUSH8 0xFFFFFFFFFFFFFFFF DUP2 GT ISZERO PUSH2 0x827 JUMPI PUSH2 0x826 PUSH2 0xC19 JUMP JUMPDEST JUMPDEST PUSH2 0x833 DUP5 DUP3 DUP6 ADD PUSH2 0x7B0 JUMP JUMPDEST SWAP2 POP POP SWAP3 SWAP2 POP POP JUMP JUMPDEST PUSH1 0x0 PUSH1 0x20 DUP3 DUP5 SUB SLT ISZERO PUSH2 0x852 JUMPI PUSH2 0x851 PUSH2 0xC1E JUMP JUMPDEST JUMPDEST PUSH1 0x0 PUSH2 0x860 DUP5 DUP3 DUP6 ADD PUSH2 0x7DE JUMP JUMPDEST SWAP2 POP POP SWAP3 SWAP2 POP POP JUMP JUMPDEST PUSH1 0x0 DUP1 PUSH1 0x40 DUP4 DUP6 SUB SLT ISZERO PUSH2 0x880 JUMPI PUSH2 0x87F PUSH2 0xC1E JUMP JUMPDEST JUMPDEST PUSH1 0x0 PUSH2 0x88E DUP6 DUP3 DUP7 ADD PUSH2 0x7DE JUMP JUMPDEST SWAP3 POP POP PUSH1 0x20 PUSH2 0x89F DUP6 DUP3 DUP7 ADD PUSH2 0x7DE JUMP JUMPDEST SWAP2 POP POP SWAP3 POP SWAP3 SWAP1 POP JUMP JUMPDEST PUSH2 0x8B2 DUP2 PUSH2 0xAA2 JUMP JUMPDEST DUP3 MSTORE POP POP JUMP JUMPDEST PUSH2 0x8C1 DUP2 PUSH2 0xAB4 JUMP JUMPDEST DUP3 MSTORE POP POP JUMP JUMPDEST PUSH2 0x8D0 DUP2 PUSH2 0xABE JUMP JUMPDEST DUP3 MSTORE POP POP JUMP JUMPDEST PUSH2 0x8DF DUP2 PUSH2 0xAC8 JUMP JUMPDEST DUP3 MSTORE POP POP JUMP JUMPDEST PUSH1 0x0 PUSH2 0x8F0 DUP3 PUSH2 0xA86 JUMP JUMPDEST PUSH2 0x8FA DUP2 DUP6 PUSH2 0xA91 JUMP JUMPDEST SWAP4 POP PUSH2 0x90A DUP2 DUP6 PUSH1 0x20 DUP7 ADD PUSH2 0xB1B JUMP JUMPDEST PUSH2 0x913 DUP2 PUSH2 0xC23 JUMP JUMPDEST DUP5 ADD SWAP2 POP POP SWAP3 SWAP2 POP POP JUMP JUMPDEST PUSH2 0x927 DUP2 PUSH2 0xAF5 JUMP JUMPDEST DUP3 MSTORE POP POP JUMP JUMPDEST PUSH2 0x936 DUP2 PUSH2 0xAFF JUMP JUMPDEST DUP3 MSTORE POP POP JUMP JUMPDEST PUSH1 0x0 PUSH1 0x20 DUP3 ADD SWAP1 POP PUSH2 0x951 PUSH1 0x0 DUP4 ADD DUP5 PUSH2 0x8A9 JUMP JUMPDEST SWAP3 SWAP2 POP POP JUMP JUMPDEST PUSH1 0x0 PUSH1 0x20 DUP3 ADD SWAP1 POP PUSH2 0x96C PUSH1 0x0 DUP4 ADD DUP5 PUSH2 0x8B8 JUMP JUMPDEST SWAP3 SWAP2 POP POP JUMP JUMPDEST PUSH1 0x0 PUSH1 0x20 DUP3 ADD SWAP1 POP PUSH2 0x987 PUSH1 0x0 DUP4 ADD DUP5 PUSH2 0x8C7 JUMP JUMPDEST SWAP3 SWAP2 POP POP JUMP JUMPDEST PUSH1 0x0 PUSH1 0x20 DUP3 ADD SWAP1 POP PUSH2 0x9A2 PUSH1 0x0 DUP4 ADD DUP5 PUSH2 0x8D6 JUMP JUMPDEST SWAP3 SWAP2 POP POP JUMP JUMPDEST PUSH1 0x0 PUSH1 0x20 DUP3 ADD SWAP1 POP DUP2 DUP2 SUB PUSH1 0x0 DUP4 ADD MSTORE PUSH2 0x9C2 DUP2 DUP5 PUSH2 0x8E5 JUMP JUMPDEST SWAP1 POP SWAP3 SWAP2 POP POP JUMP JUMPDEST PUSH1 0x0 PUSH1 0x20 DUP3 ADD SWAP1 POP PUSH2 0x9DF PUSH1 0x0 DUP4 ADD DUP5 PUSH2 0x91E JUMP JUMPDEST SWAP3 SWAP2 POP POP JUMP JUMPDEST PUSH1 0x0 PUSH1 0x40 DUP3 ADD SWAP1 POP PUSH2 0x9FA PUSH1 0x0 DUP4 ADD DUP6 PUSH2 0x91E JUMP JUMPDEST DUP2 DUP2 SUB PUSH1 0x20 DUP4 ADD MSTORE PUSH2 0xA0C DUP2 DUP5 PUSH2 0x8E5 JUMP JUMPDEST SWAP1 POP SWAP4 SWAP3 POP POP POP JUMP JUMPDEST PUSH1 0x0 PUSH1 0x20 DUP3 ADD SWAP1 POP PUSH2 0xA2A PUSH1 0x0 DUP4 ADD DUP5 PUSH2 0x92D JUMP JUMPDEST SWAP3 SWAP2 POP POP JUMP JUMPDEST PUSH1 0x0 PUSH2 0xA3A PUSH2 0xA4B JUMP JUMPDEST SWAP1 POP PUSH2 0xA46 DUP3 DUP3 PUSH2 0xB80 JUMP JUMPDEST SWAP2 SWAP1 POP JUMP JUMPDEST PUSH1 0x0 PUSH1 0x40 MLOAD SWAP1 POP SWAP1 JUMP JUMPDEST PUSH1 0x0 PUSH8 0xFFFFFFFFFFFFFFFF DUP3 GT ISZERO PUSH2 0xA70 JUMPI PUSH2 0xA6F PUSH2 0xBE0 JUMP JUMPDEST JUMPDEST PUSH2 0xA79 DUP3 PUSH2 0xC23 JUMP JUMPDEST SWAP1 POP PUSH1 0x20 DUP2 ADD SWAP1 POP SWAP2 SWAP1 POP JUMP JUMPDEST PUSH1 0x0 DUP2 MLOAD SWAP1 POP SWAP2 SWAP1 POP JUMP JUMPDEST PUSH1 0x0 DUP3 DUP3 MSTORE PUSH1 0x20 DUP3 ADD SWAP1 POP SWAP3 SWAP2 POP POP JUMP JUMPDEST PUSH1 0x0 PUSH2 0xAAD DUP3 PUSH2 0xAD5 JUMP JUMPDEST SWAP1 POP SWAP2 SWAP1 POP JUMP JUMPDEST PUSH1 0x0 DUP2 SWAP1 POP SWAP2 SWAP1 POP JUMP JUMPDEST PUSH1 0x0 DUP2 SWAP1 POP SWAP2 SWAP1 POP JUMP JUMPDEST PUSH1 0x0 DUP2 PUSH1 0x0 SIGNEXTEND SWAP1 POP SWAP2 SWAP1 POP JUMP JUMPDEST PUSH1 0x0 PUSH20 0xFFFFFFFFFFFFFFFFFFFFFFFFFFFFFFFFFFFFFFFF DUP3 AND SWAP1 POP SWAP2 SWAP1 POP JUMP JUMPDEST PUSH1 0x0 DUP2 SWAP1 POP SWAP2 SWAP1 POP JUMP JUMPDEST PUSH1 0x0 PUSH1 0xFF DUP3 AND SWAP1 POP SWAP2 SWAP1 POP JUMP JUMPDEST DUP3 DUP2 DUP4 CALLDATACOPY PUSH1 0x0 DUP4 DUP4 ADD MSTORE POP POP POP JUMP JUMPDEST PUSH1 0x0 JUMPDEST DUP4 DUP2 LT ISZERO PUSH2 0xB39 JUMPI DUP1 DUP3 ADD MLOAD DUP2 DUP5 ADD MSTORE PUSH1 0x20 DUP2 ADD SWAP1 POP PUSH2 0xB1E JUMP JUMPDEST DUP4 DUP2 GT ISZERO PUSH2 0xB48 JUMPI PUSH1 0x0 DUP5 DUP5 ADD MSTORE JUMPDEST POP POP POP POP JUMP JUMPDEST PUSH1 0x0 PUSH1 0x2 DUP3 DIV SWAP1 POP PUSH1 0x1 DUP3 AND DUP1 PUSH2 0xB66 JUMPI PUSH1 0x7F DUP3 AND SWAP2 POP JUMPDEST PUSH1 0x20 DUP3 LT DUP2 EQ ISZERO PUSH2 0xB7A JUMPI PUSH2 0xB79 PUSH2 0xBB1 JUMP JUMPDEST JUMPDEST POP SWAP2 SWAP1 POP JUMP JUMPDEST PUSH2 0xB89 DUP3 PUSH2 0xC23 JUMP JUMPDEST DUP2 ADD DUP2 DUP2 LT PUSH8 0xFFFFFFFFFFFFFFFF DUP3 GT OR ISZERO PUSH2 0xBA8 JUMPI PUSH2 0xBA7 PUSH2 0xBE0 JUMP JUMPDEST JUMPDEST DUP1 PUSH1 0x40 MSTORE POP POP POP JUMP JUMPDEST PUSH32 0x4E487B7100000000000000000000000000000000000000000000000000000000 PUSH1 0x0 MSTORE PUSH1 0x22 PUSH1 0x4 MSTORE PUSH1 0x24 PUSH1 0x0 REVERT JUMPDEST PUSH32 0x4E487B7100000000000000000000000000000000000000000000000000000000 PUSH1 0x0 MSTORE PUSH1 0x41 PUSH1 0x4 MSTORE PUSH1 0x24 PUSH1 0x0 REVERT JUMPDEST PUSH1 0x0 DUP1 REVERT JUMPDEST PUSH1 0x0 DUP1 REVERT JUMPDEST PUSH1 0x0 DUP1 REVERT JUMPDEST PUSH1 0x0 DUP1 REVERT JUMPDEST PUSH1 0x0 PUSH1 0x1F NOT PUSH1 0x1F DUP4 ADD AND SWAP1 POP SWAP2 SWAP1 POP JUMP JUMPDEST PUSH2 0xC3D DUP2 PUSH2 0xAF5 JUMP JUMPDEST DUP2 EQ PUSH2 0xC48 JUMPI PUSH1 0x0 DUP1 REVERT JUMPDEST POP JUMP INVALID LOG2 PUSH5 0x6970667358 0x22 SLT KECCAK256 0xDB 0xA9 0xCB MULMOD 0xF 0xDB 0x5D DUP14 0xD5 PUSH30 0xF8635DEA025C7971F50723C83F48CA0FED29F0BA3DF864736F6C63430008 SMOD STOP CALLER "
				},
				"gasEstimates": {
					"creation": {
						"codeDepositCost": "640200",
						"executionCost": "infinite",
						"totalCost": "infinite"
					},
					"external": {
						"MyUnit()": "2517",
						"abc()": "2451",
						"abc8()": "2498",
						"addValue(string)": "infinite",
						"getLength()": "2511",
						"getValue()": "374",
						"my2DArray(uint256,uint256)": "infinite",
						"my8bit()": "2516",
						"myAddress()": "2560",
						"myByteArray()": "2473",
						"myString()": "infinite",
						"myStructVariable()": "infinite",
						"myUnint256()": "2474",
						"stringArray(uint256)": "infinite",
						"stringValue(uint256)": "infinite",
						"unintArray(uint256)": "infinite"
					}
				},
				"methodIdentifiers": {
					"MyUnit()": "ff643c92",
					"abc()": "92277933",
					"abc8()": "562d7f35",
					"addValue(string)": "3a5fbaaa",
					"getLength()": "be1c766b",
					"getValue()": "20965255",
					"my2DArray(uint256,uint256)": "7dd6b6bc",
					"my8bit()": "45838889",
					"myAddress()": "26b85ee1",
					"myByteArray()": "b992b6db",
					"myString()": "492bfa18",
					"myStructVariable()": "285568b7",
					"myUnint256()": "563566a1",
					"stringArray(uint256)": "6422c4c8",
					"stringValue(uint256)": "4885d0c5",
					"unintArray(uint256)": "3544b472"
				}
			},
			"storageLayout": {
				"storage": [
					{
						"astId": 5,
						"contract": "contracts/MyContract.sol:MyContract",
						"label": "names",
						"offset": 0,
						"slot": "0",
						"type": "t_mapping(t_uint256,t_string_storage)"
					},
					{
						"astId": 30,
						"contract": "contracts/MyContract.sol:MyContract",
						"label": "abc",
						"offset": 0,
						"slot": "1",
						"type": "t_int256"
					},
					{
						"astId": 33,
						"contract": "contracts/MyContract.sol:MyContract",
						"label": "abc8",
						"offset": 0,
						"slot": "2",
						"type": "t_int8"
					},
					{
						"astId": 36,
						"contract": "contracts/MyContract.sol:MyContract",
						"label": "MyUnit",
						"offset": 0,
						"slot": "3",
						"type": "t_uint256"
					},
					{
						"astId": 39,
						"contract": "contracts/MyContract.sol:MyContract",
						"label": "myUnint256",
						"offset": 0,
						"slot": "4",
						"type": "t_uint256"
					},
					{
						"astId": 42,
						"contract": "contracts/MyContract.sol:MyContract",
						"label": "my8bit",
						"offset": 0,
						"slot": "5",
						"type": "t_uint8"
					},
					{
						"astId": 45,
						"contract": "contracts/MyContract.sol:MyContract",
						"label": "myString",
						"offset": 0,
						"slot": "6",
						"type": "t_string_storage"
					},
					{
						"astId": 48,
						"contract": "contracts/MyContract.sol:MyContract",
						"label": "myByteArray",
						"offset": 0,
						"slot": "7",
						"type": "t_bytes32"
					},
					{
						"astId": 51,
						"contract": "contracts/MyContract.sol:MyContract",
						"label": "myAddress",
						"offset": 0,
						"slot": "8",
						"type": "t_address"
					},
					{
						"astId": 63,
						"contract": "contracts/MyContract.sol:MyContract",
						"label": "myStructVariable",
						"offset": 0,
						"slot": "9",
						"type": "t_struct(myStruct)56_storage"
					},
					{
						"astId": 72,
						"contract": "contracts/MyContract.sol:MyContract",
						"label": "unintArray",
						"offset": 0,
						"slot": "11",
						"type": "t_array(t_uint256)dyn_storage"
					},
					{
						"astId": 79,
						"contract": "contracts/MyContract.sol:MyContract",
						"label": "stringArray",
						"offset": 0,
						"slot": "12",
						"type": "t_array(t_string_storage)dyn_storage"
					},
					{
						"astId": 82,
						"contract": "contracts/MyContract.sol:MyContract",
						"label": "stringValue",
						"offset": 0,
						"slot": "13",
						"type": "t_array(t_string_storage)dyn_storage"
					},
					{
						"astId": 95,
						"contract": "contracts/MyContract.sol:MyContract",
						"label": "my2DArray",
						"offset": 0,
						"slot": "14",
						"type": "t_array(t_array(t_uint256)dyn_storage)dyn_storage"
					}
				],
				"types": {
					"t_address": {
						"encoding": "inplace",
						"label": "address",
						"numberOfBytes": "20"
					},
					"t_array(t_array(t_uint256)dyn_storage)dyn_storage": {
						"base": "t_array(t_uint256)dyn_storage",
						"encoding": "dynamic_array",
						"label": "uint256[][]",
						"numberOfBytes": "32"
					},
					"t_array(t_string_storage)dyn_storage": {
						"base": "t_string_storage",
						"encoding": "dynamic_array",
						"label": "string[]",
						"numberOfBytes": "32"
					},
					"t_array(t_uint256)dyn_storage": {
						"base": "t_uint256",
						"encoding": "dynamic_array",
						"label": "uint256[]",
						"numberOfBytes": "32"
					},
					"t_bytes32": {
						"encoding": "inplace",
						"label": "bytes32",
						"numberOfBytes": "32"
					},
					"t_int256": {
						"encoding": "inplace",
						"label": "int256",
						"numberOfBytes": "32"
					},
					"t_int8": {
						"encoding": "inplace",
						"label": "int8",
						"numberOfBytes": "1"
					},
					"t_mapping(t_uint256,t_string_storage)": {
						"encoding": "mapping",
						"key": "t_uint256",
						"label": "mapping(uint256 => string)",
						"numberOfBytes": "32",
						"value": "t_string_storage"
					},
					"t_string_storage": {
						"encoding": "bytes",
						"label": "string",
						"numberOfBytes": "32"
					},
					"t_struct(myStruct)56_storage": {
						"encoding": "inplace",
						"label": "struct MyContract.myStruct",
						"members": [
							{
								"astId": 53,
								"contract": "contracts/MyContract.sol:MyContract",
								"label": "id",
								"offset": 0,
								"slot": "0",
								"type": "t_uint256"
							},
							{
								"astId": 55,
								"contract": "contracts/MyContract.sol:MyContract",
								"label": "mystring",
								"offset": 0,
								"slot": "1",
								"type": "t_string_storage"
							}
						],
						"numberOfBytes": "64"
					},
					"t_uint256": {
						"encoding": "inplace",
						"label": "uint256",
						"numberOfBytes": "32"
					},
					"t_uint8": {
						"encoding": "inplace",
						"label": "uint8",
						"numberOfBytes": "1"
					}
				}
			},
			"userdoc": {
				"kind": "user",
				"methods": {},
				"version": 1
			}
		}
	}
}