{
	"contracts/MyContract.sol": {
		"MyContract": {
			"abi": [
				{
					"inputs": [],
					"name": "MyUnit",
					"outputs": [
						{
							"internalType": "uint256",
							"name": "",
							"type": "uint256"
						}
					],
					"stateMutability": "view",
					"type": "function"
				},
				{
					"inputs": [],
					"name": "abc",
					"outputs": [
						{
							"internalType": "int256",
							"name": "",
							"type": "int256"
						}
					],
					"stateMutability": "view",
					"type": "function"
				},
				{
					"inputs": [],
					"name": "abc8",
					"outputs": [
						{
							"internalType": "int8",
							"name": "",
							"type": "int8"
						}
					],
					"stateMutability": "view",
					"type": "function"
				},
				{
					"inputs": [],
					"name": "getValue",
					"outputs": [
						{
							"internalType": "uint256",
							"name": "",
							"type": "uint256"
						}
					],
					"stateMutability": "pure",
					"type": "function"
				},
				{
					"inputs": [],
					"name": "my8bit",
					"outputs": [
						{
							"internalType": "uint8",
							"name": "",
							"type": "uint8"
						}
					],
					"stateMutability": "view",
					"type": "function"
				},
				{
					"inputs": [],
					"name": "myAddress",
					"outputs": [
						{
							"internalType": "address",
							"name": "",
							"type": "address"
						}
					],
					"stateMutability": "view",
					"type": "function"
				},
				{
					"inputs": [],
					"name": "myByteArray",
					"outputs": [
						{
							"internalType": "bytes32",
							"name": "",
							"type": "bytes32"
						}
					],
					"stateMutability": "view",
					"type": "function"
				},
				{
					"inputs": [],
					"name": "myString",
					"outputs": [
						{
							"internalType": "string",
							"name": "",
							"type": "string"
						}
					],
					"stateMutability": "view",
					"type": "function"
				},
				{
					"inputs": [],
					"name": "myStructVariable",
					"outputs": [
						{
							"internalType": "uint256",
							"name": "id",
							"type": "uint256"
						},
						{
							"internalType": "string",
							"name": "mystring",
							"type": "string"
						}
					],
					"stateMutability": "view",
					"type": "function"
				},
				{
					"inputs": [],
					"name": "myUnint256",
					"outputs": [
						{
							"internalType": "uint256",
							"name": "",
							"type": "uint256"
						}
					],
					"stateMutability": "view",
					"type": "function"
				}
			],
			"devdoc": {
				"kind": "dev",
				"methods": {},
				"version": 1
			},
			"evm": {
				"assembly": "    /* \"contracts/MyContract.sol\":58:1036  contract MyContract{\r... */\n  mstore(0x40, 0x80)\n    /* \"contracts/MyContract.sol\":123:124  1 */\n  0x01\n    /* \"contracts/MyContract.sol\":106:124  int public abc = 1 */\n  0x00\n  sstore\n    /* \"contracts/MyContract.sol\":150:151  1 */\n  0x01\n    /* \"contracts/MyContract.sol\":131:151  int8 public abc8 = 1 */\n  dup1\n  exp(0x0100, 0x00)\n  dup2\n  sload\n  dup2\n  0xff\n  mul\n  not\n  and\n  swap1\n  dup4\n  0x00\n  signextend\n  0xff\n  and\n  mul\n  or\n  swap1\n  sstore\n  pop\n    /* \"contracts/MyContract.sol\":180:181  1 */\n  0x01\n    /* \"contracts/MyContract.sol\":158:181  uint public MyUnit  = 1 */\n  0x02\n  sstore\n    /* \"contracts/MyContract.sol\":304:305  1 */\n  0x01\n    /* \"contracts/MyContract.sol\":275:305  uint256 public myUnint256  = 1 */\n  0x03\n  sstore\n    /* \"contracts/MyContract.sol\":350:351  1 */\n  0x01\n    /* \"contracts/MyContract.sol\":328:351  uint8 public my8bit = 1 */\n  0x04\n  exp(0x0100, 0x00)\n  dup2\n  sload\n  dup2\n  0xff\n  mul\n  not\n  and\n  swap1\n  dup4\n  0xff\n  and\n  mul\n  or\n  swap1\n  sstore\n  pop\n    /* \"contracts/MyContract.sol\":360:409  string public myString = \"My cat looks beautiful\" */\n  mload(0x40)\n  dup1\n  0x40\n  add\n  0x40\n  mstore\n  dup1\n  0x16\n  dup2\n  mstore\n  0x20\n  add\n  0x4d7920636174206c6f6f6b732062656175746966756c00000000000000000000\n  dup2\n  mstore\n  pop\n  0x05\n  swap1\n  dup1\n  mload\n  swap1\n  0x20\n  add\n  swap1\n  tag_1\n  swap3\n  swap2\n  swap1\n  tag_2\n  jump\t// in\ntag_1:\n  pop\n    /* \"contracts/MyContract.sol\":416:469  bytes32 public myByteArray = \"My cat looks beautiful\" */\n  sstore(0x06, 0x4d7920636174206c6f6f6b732062656175746966756c00000000000000000000)\n    /* \"contracts/MyContract.sol\":505:547  0xAb8483F64d9C6d1EcF9b849Ae677dD3315835cb2 */\n  0xab8483f64d9c6d1ecf9b849ae677dd3315835cb2\n    /* \"contracts/MyContract.sol\":478:547  address public myAddress = 0xAb8483F64d9C6d1EcF9b849Ae677dD3315835cb2 */\n  0x07\n  exp(0x0100, 0x00)\n  dup2\n  sload\n  dup2\n  0xffffffffffffffffffffffffffffffffffffffff\n  mul\n  not\n  and\n  swap1\n  dup4\n  0xffffffffffffffffffffffffffffffffffffffff\n  and\n  mul\n  or\n  swap1\n  sstore\n  pop\n    /* \"contracts/MyContract.sol\":796:821  myStruct(1,\"Hello world\") */\n  mload(0x40)\n  dup1\n  0x40\n  add\n  0x40\n  mstore\n  dup1\n    /* \"contracts/MyContract.sol\":805:806  1 */\n  0x01\n    /* \"contracts/MyContract.sol\":796:821  myStruct(1,\"Hello world\") */\n  dup2\n  mstore\n  0x20\n  add\n  mload(0x40)\n  dup1\n  0x40\n  add\n  0x40\n  mstore\n  dup1\n  0x0b\n  dup2\n  mstore\n  0x20\n  add\n  0x48656c6c6f20776f726c64000000000000000000000000000000000000000000\n  dup2\n  mstore\n  pop\n  dup2\n  mstore\n  pop\n    /* \"contracts/MyContract.sol\":761:821  myStruct public myStructVariable = myStruct(1,\"Hello world\") */\n  0x08\n  0x00\n  dup3\n  add\n  mload\n  dup2\n  0x00\n  add\n  sstore\n  0x20\n  dup3\n  add\n  mload\n  dup2\n  0x01\n  add\n  swap1\n  dup1\n  mload\n  swap1\n  0x20\n  add\n  swap1\n  tag_3\n  swap3\n  swap2\n  swap1\n  tag_2\n  jump\t// in\ntag_3:\n  pop\n  pop\n  pop\n    /* \"contracts/MyContract.sol\":58:1036  contract MyContract{\r... */\n  callvalue\n  dup1\n  iszero\n  tag_4\n  jumpi\n  0x00\n  dup1\n  revert\ntag_4:\n  pop\n  jump(tag_5)\ntag_2:\n  dup3\n  dup1\n  sload\n  tag_6\n  swap1\n  tag_7\n  jump\t// in\ntag_6:\n  swap1\n  0x00\n  mstore\n  keccak256(0x00, 0x20)\n  swap1\n  0x1f\n  add\n  0x20\n  swap1\n  div\n  dup2\n  add\n  swap3\n  dup3\n  tag_9\n  jumpi\n  0x00\n  dup6\n  sstore\n  jump(tag_8)\ntag_9:\n  dup3\n  0x1f\n  lt\n  tag_10\n  jumpi\n  dup1\n  mload\n  not(0xff)\n  and\n  dup4\n  dup1\n  add\n  or\n  dup6\n  sstore\n  jump(tag_8)\ntag_10:\n  dup3\n  dup1\n  add\n  0x01\n  add\n  dup6\n  sstore\n  dup3\n  iszero\n  tag_8\n  jumpi\n  swap2\n  dup3\n  add\ntag_11:\n  dup3\n  dup2\n  gt\n  iszero\n  tag_12\n  jumpi\n  dup3\n  mload\n  dup3\n  sstore\n  swap2\n  0x20\n  add\n  swap2\n  swap1\n  0x01\n  add\n  swap1\n  jump(tag_11)\ntag_12:\ntag_8:\n  pop\n  swap1\n  pop\n  tag_13\n  swap2\n  swap1\n  tag_14\n  jump\t// in\ntag_13:\n  pop\n  swap1\n  jump\t// out\ntag_14:\ntag_15:\n  dup1\n  dup3\n  gt\n  iszero\n  tag_16\n  jumpi\n  0x00\n  dup2\n  0x00\n  swap1\n  sstore\n  pop\n  0x01\n  add\n  jump(tag_15)\ntag_16:\n  pop\n  swap1\n  jump\t// out\n    /* \"#utility.yul\":7:327   */\ntag_7:\n    /* \"#utility.yul\":51:57   */\n  0x00\n    /* \"#utility.yul\":88:89   */\n  0x02\n    /* \"#utility.yul\":82:86   */\n  dup3\n    /* \"#utility.yul\":78:90   */\n  div\n    /* \"#utility.yul\":68:90   */\n  swap1\n  pop\n    /* \"#utility.yul\":135:136   */\n  0x01\n    /* \"#utility.yul\":129:133   */\n  dup3\n    /* \"#utility.yul\":125:137   */\n  and\n    /* \"#utility.yul\":156:174   */\n  dup1\n    /* \"#utility.yul\":146:227   */\n  tag_19\n  jumpi\n    /* \"#utility.yul\":212:216   */\n  0x7f\n    /* \"#utility.yul\":204:210   */\n  dup3\n    /* \"#utility.yul\":200:217   */\n  and\n    /* \"#utility.yul\":190:217   */\n  swap2\n  pop\n    /* \"#utility.yul\":146:227   */\ntag_19:\n    /* \"#utility.yul\":274:276   */\n  0x20\n    /* \"#utility.yul\":266:272   */\n  dup3\n    /* \"#utility.yul\":263:277   */\n  lt\n    /* \"#utility.yul\":243:261   */\n  dup2\n    /* \"#utility.yul\":240:278   */\n  eq\n    /* \"#utility.yul\":237:321   */\n  iszero\n  tag_20\n  jumpi\n    /* \"#utility.yul\":293:311   */\n  tag_21\n  tag_22\n  jump\t// in\ntag_21:\n    /* \"#utility.yul\":237:321   */\ntag_20:\n    /* \"#utility.yul\":58:327   */\n  pop\n    /* \"#utility.yul\":7:327   */\n  swap2\n  swap1\n  pop\n  jump\t// out\n    /* \"#utility.yul\":333:513   */\ntag_22:\n    /* \"#utility.yul\":381:458   */\n  0x4e487b7100000000000000000000000000000000000000000000000000000000\n    /* \"#utility.yul\":378:379   */\n  0x00\n    /* \"#utility.yul\":371:459   */\n  mstore\n    /* \"#utility.yul\":478:482   */\n  0x22\n    /* \"#utility.yul\":475:476   */\n  0x04\n    /* \"#utility.yul\":468:483   */\n  mstore\n    /* \"#utility.yul\":502:506   */\n  0x24\n    /* \"#utility.yul\":499:500   */\n  0x00\n    /* \"#utility.yul\":492:507   */\n  revert\n    /* \"contracts/MyContract.sol\":58:1036  contract MyContract{\r... */\ntag_5:\n  dataSize(sub_0)\n  dup1\n  dataOffset(sub_0)\n  0x00\n  codecopy\n  0x00\n  return\nstop\n\nsub_0: assembly {\n        /* \"contracts/MyContract.sol\":58:1036  contract MyContract{\r... */\n      mstore(0x40, 0x80)\n      callvalue\n      dup1\n      iszero\n      tag_1\n      jumpi\n      0x00\n      dup1\n      revert\n    tag_1:\n      pop\n      jumpi(tag_2, lt(calldatasize, 0x04))\n      shr(0xe0, calldataload(0x00))\n      dup1\n      0x562d7f35\n      gt\n      tag_13\n      jumpi\n      dup1\n      0x562d7f35\n      eq\n      tag_8\n      jumpi\n      dup1\n      0x563566a1\n      eq\n      tag_9\n      jumpi\n      dup1\n      0x92277933\n      eq\n      tag_10\n      jumpi\n      dup1\n      0xb992b6db\n      eq\n      tag_11\n      jumpi\n      dup1\n      0xff643c92\n      eq\n      tag_12\n      jumpi\n      jump(tag_2)\n    tag_13:\n      dup1\n      0x20965255\n      eq\n      tag_3\n      jumpi\n      dup1\n      0x26b85ee1\n      eq\n      tag_4\n      jumpi\n      dup1\n      0x285568b7\n      eq\n      tag_5\n      jumpi\n      dup1\n      0x45838889\n      eq\n      tag_6\n      jumpi\n      dup1\n      0x492bfa18\n      eq\n      tag_7\n      jumpi\n    tag_2:\n      0x00\n      dup1\n      revert\n        /* \"contracts/MyContract.sol\":852:1033  function getValue() public pure returns (uint) { // pure means doesn't modify blockchain only fetch the data\r... */\n    tag_3:\n      tag_14\n      tag_15\n      jump\t// in\n    tag_14:\n      mload(0x40)\n      tag_16\n      swap2\n      swap1\n      tag_17\n      jump\t// in\n    tag_16:\n      mload(0x40)\n      dup1\n      swap2\n      sub\n      swap1\n      return\n        /* \"contracts/MyContract.sol\":478:547  address public myAddress = 0xAb8483F64d9C6d1EcF9b849Ae677dD3315835cb2 */\n    tag_4:\n      tag_18\n      tag_19\n      jump\t// in\n    tag_18:\n      mload(0x40)\n      tag_20\n      swap2\n      swap1\n      tag_21\n      jump\t// in\n    tag_20:\n      mload(0x40)\n      dup1\n      swap2\n      sub\n      swap1\n      return\n        /* \"contracts/MyContract.sol\":761:821  myStruct public myStructVariable = myStruct(1,\"Hello world\") */\n    tag_5:\n      tag_22\n      tag_23\n      jump\t// in\n    tag_22:\n      mload(0x40)\n      tag_24\n      swap3\n      swap2\n      swap1\n      tag_25\n      jump\t// in\n    tag_24:\n      mload(0x40)\n      dup1\n      swap2\n      sub\n      swap1\n      return\n        /* \"contracts/MyContract.sol\":328:351  uint8 public my8bit = 1 */\n    tag_6:\n      tag_26\n      tag_27\n      jump\t// in\n    tag_26:\n      mload(0x40)\n      tag_28\n      swap2\n      swap1\n      tag_29\n      jump\t// in\n    tag_28:\n      mload(0x40)\n      dup1\n      swap2\n      sub\n      swap1\n      return\n        /* \"contracts/MyContract.sol\":360:409  string public myString = \"My cat looks beautiful\" */\n    tag_7:\n      tag_30\n      tag_31\n      jump\t// in\n    tag_30:\n      mload(0x40)\n      tag_32\n      swap2\n      swap1\n      tag_33\n      jump\t// in\n    tag_32:\n      mload(0x40)\n      dup1\n      swap2\n      sub\n      swap1\n      return\n        /* \"contracts/MyContract.sol\":131:151  int8 public abc8 = 1 */\n    tag_8:\n      tag_34\n      tag_35\n      jump\t// in\n    tag_34:\n      mload(0x40)\n      tag_36\n      swap2\n      swap1\n      tag_37\n      jump\t// in\n    tag_36:\n      mload(0x40)\n      dup1\n      swap2\n      sub\n      swap1\n      return\n        /* \"contracts/MyContract.sol\":275:305  uint256 public myUnint256  = 1 */\n    tag_9:\n      tag_38\n      tag_39\n      jump\t// in\n    tag_38:\n      mload(0x40)\n      tag_40\n      swap2\n      swap1\n      tag_17\n      jump\t// in\n    tag_40:\n      mload(0x40)\n      dup1\n      swap2\n      sub\n      swap1\n      return\n        /* \"contracts/MyContract.sol\":106:124  int public abc = 1 */\n    tag_10:\n      tag_41\n      tag_42\n      jump\t// in\n    tag_41:\n      mload(0x40)\n      tag_43\n      swap2\n      swap1\n      tag_44\n      jump\t// in\n    tag_43:\n      mload(0x40)\n      dup1\n      swap2\n      sub\n      swap1\n      return\n        /* \"contracts/MyContract.sol\":416:469  bytes32 public myByteArray = \"My cat looks beautiful\" */\n    tag_11:\n      tag_45\n      tag_46\n      jump\t// in\n    tag_45:\n      mload(0x40)\n      tag_47\n      swap2\n      swap1\n      tag_48\n      jump\t// in\n    tag_47:\n      mload(0x40)\n      dup1\n      swap2\n      sub\n      swap1\n      return\n        /* \"contracts/MyContract.sol\":158:181  uint public MyUnit  = 1 */\n    tag_12:\n      tag_49\n      tag_50\n      jump\t// in\n    tag_49:\n      mload(0x40)\n      tag_51\n      swap2\n      swap1\n      tag_17\n      jump\t// in\n    tag_51:\n      mload(0x40)\n      dup1\n      swap2\n      sub\n      swap1\n      return\n        /* \"contracts/MyContract.sol\":852:1033  function getValue() public pure returns (uint) { // pure means doesn't modify blockchain only fetch the data\r... */\n    tag_15:\n        /* \"contracts/MyContract.sol\":893:897  uint */\n      0x00\n        /* \"contracts/MyContract.sol\":970:980  uint value */\n      dup1\n        /* \"contracts/MyContract.sol\":983:984  1 */\n      0x01\n        /* \"contracts/MyContract.sol\":970:984  uint value = 1 */\n      swap1\n      pop\n        /* \"contracts/MyContract.sol\":1020:1025  value */\n      dup1\n        /* \"contracts/MyContract.sol\":1013:1025  return value */\n      swap2\n      pop\n      pop\n        /* \"contracts/MyContract.sol\":852:1033  function getValue() public pure returns (uint) { // pure means doesn't modify blockchain only fetch the data\r... */\n      swap1\n      jump\t// out\n        /* \"contracts/MyContract.sol\":478:547  address public myAddress = 0xAb8483F64d9C6d1EcF9b849Ae677dD3315835cb2 */\n    tag_19:\n      0x07\n      0x00\n      swap1\n      sload\n      swap1\n      0x0100\n      exp\n      swap1\n      div\n      0xffffffffffffffffffffffffffffffffffffffff\n      and\n      dup2\n      jump\t// out\n        /* \"contracts/MyContract.sol\":761:821  myStruct public myStructVariable = myStruct(1,\"Hello world\") */\n    tag_23:\n      0x08\n      dup1\n      0x00\n      add\n      sload\n      swap1\n      dup1\n      0x01\n      add\n      dup1\n      sload\n      tag_53\n      swap1\n      tag_54\n      jump\t// in\n    tag_53:\n      dup1\n      0x1f\n      add\n      0x20\n      dup1\n      swap2\n      div\n      mul\n      0x20\n      add\n      mload(0x40)\n      swap1\n      dup2\n      add\n      0x40\n      mstore\n      dup1\n      swap3\n      swap2\n      swap1\n      dup2\n      dup2\n      mstore\n      0x20\n      add\n      dup3\n      dup1\n      sload\n      tag_55\n      swap1\n      tag_54\n      jump\t// in\n    tag_55:\n      dup1\n      iszero\n      tag_56\n      jumpi\n      dup1\n      0x1f\n      lt\n      tag_57\n      jumpi\n      0x0100\n      dup1\n      dup4\n      sload\n      div\n      mul\n      dup4\n      mstore\n      swap2\n      0x20\n      add\n      swap2\n      jump(tag_56)\n    tag_57:\n      dup3\n      add\n      swap2\n      swap1\n      0x00\n      mstore\n      keccak256(0x00, 0x20)\n      swap1\n    tag_58:\n      dup2\n      sload\n      dup2\n      mstore\n      swap1\n      0x01\n      add\n      swap1\n      0x20\n      add\n      dup1\n      dup4\n      gt\n      tag_58\n      jumpi\n      dup3\n      swap1\n      sub\n      0x1f\n      and\n      dup3\n      add\n      swap2\n    tag_56:\n      pop\n      pop\n      pop\n      pop\n      pop\n      swap1\n      pop\n      dup3\n      jump\t// out\n        /* \"contracts/MyContract.sol\":328:351  uint8 public my8bit = 1 */\n    tag_27:\n      0x04\n      0x00\n      swap1\n      sload\n      swap1\n      0x0100\n      exp\n      swap1\n      div\n      0xff\n      and\n      dup2\n      jump\t// out\n        /* \"contracts/MyContract.sol\":360:409  string public myString = \"My cat looks beautiful\" */\n    tag_31:\n      0x05\n      dup1\n      sload\n      tag_59\n      swap1\n      tag_54\n      jump\t// in\n    tag_59:\n      dup1\n      0x1f\n      add\n      0x20\n      dup1\n      swap2\n      div\n      mul\n      0x20\n      add\n      mload(0x40)\n      swap1\n      dup2\n      add\n      0x40\n      mstore\n      dup1\n      swap3\n      swap2\n      swap1\n      dup2\n      dup2\n      mstore\n      0x20\n      add\n      dup3\n      dup1\n      sload\n      tag_60\n      swap1\n      tag_54\n      jump\t// in\n    tag_60:\n      dup1\n      iszero\n      tag_61\n      jumpi\n      dup1\n      0x1f\n      lt\n      tag_62\n      jumpi\n      0x0100\n      dup1\n      dup4\n      sload\n      div\n      mul\n      dup4\n      mstore\n      swap2\n      0x20\n      add\n      swap2\n      jump(tag_61)\n    tag_62:\n      dup3\n      add\n      swap2\n      swap1\n      0x00\n      mstore\n      keccak256(0x00, 0x20)\n      swap1\n    tag_63:\n      dup2\n      sload\n      dup2\n      mstore\n      swap1\n      0x01\n      add\n      swap1\n      0x20\n      add\n      dup1\n      dup4\n      gt\n      tag_63\n      jumpi\n      dup3\n      swap1\n      sub\n      0x1f\n      and\n      dup3\n      add\n      swap2\n    tag_61:\n      pop\n      pop\n      pop\n      pop\n      pop\n      dup2\n      jump\t// out\n        /* \"contracts/MyContract.sol\":131:151  int8 public abc8 = 1 */\n    tag_35:\n      0x01\n      0x00\n      swap1\n      sload\n      swap1\n      0x0100\n      exp\n      swap1\n      div\n      0x00\n      signextend\n      dup2\n      jump\t// out\n        /* \"contracts/MyContract.sol\":275:305  uint256 public myUnint256  = 1 */\n    tag_39:\n      sload(0x03)\n      dup2\n      jump\t// out\n        /* \"contracts/MyContract.sol\":106:124  int public abc = 1 */\n    tag_42:\n      sload(0x00)\n      dup2\n      jump\t// out\n        /* \"contracts/MyContract.sol\":416:469  bytes32 public myByteArray = \"My cat looks beautiful\" */\n    tag_46:\n      sload(0x06)\n      dup2\n      jump\t// out\n        /* \"contracts/MyContract.sol\":158:181  uint public MyUnit  = 1 */\n    tag_50:\n      sload(0x02)\n      dup2\n      jump\t// out\n        /* \"#utility.yul\":7:125   */\n    tag_65:\n        /* \"#utility.yul\":94:118   */\n      tag_67\n        /* \"#utility.yul\":112:117   */\n      dup2\n        /* \"#utility.yul\":94:118   */\n      tag_68\n      jump\t// in\n    tag_67:\n        /* \"#utility.yul\":89:92   */\n      dup3\n        /* \"#utility.yul\":82:119   */\n      mstore\n        /* \"#utility.yul\":7:125   */\n      pop\n      pop\n      jump\t// out\n        /* \"#utility.yul\":131:249   */\n    tag_69:\n        /* \"#utility.yul\":218:242   */\n      tag_71\n        /* \"#utility.yul\":236:241   */\n      dup2\n        /* \"#utility.yul\":218:242   */\n      tag_72\n      jump\t// in\n    tag_71:\n        /* \"#utility.yul\":213:216   */\n      dup3\n        /* \"#utility.yul\":206:243   */\n      mstore\n        /* \"#utility.yul\":131:249   */\n      pop\n      pop\n      jump\t// out\n        /* \"#utility.yul\":255:370   */\n    tag_73:\n        /* \"#utility.yul\":340:363   */\n      tag_75\n        /* \"#utility.yul\":357:362   */\n      dup2\n        /* \"#utility.yul\":340:363   */\n      tag_76\n      jump\t// in\n    tag_75:\n        /* \"#utility.yul\":335:338   */\n      dup3\n        /* \"#utility.yul\":328:364   */\n      mstore\n        /* \"#utility.yul\":255:370   */\n      pop\n      pop\n      jump\t// out\n        /* \"#utility.yul\":376:485   */\n    tag_77:\n        /* \"#utility.yul\":457:478   */\n      tag_79\n        /* \"#utility.yul\":472:477   */\n      dup2\n        /* \"#utility.yul\":457:478   */\n      tag_80\n      jump\t// in\n    tag_79:\n        /* \"#utility.yul\":452:455   */\n      dup3\n        /* \"#utility.yul\":445:479   */\n      mstore\n        /* \"#utility.yul\":376:485   */\n      pop\n      pop\n      jump\t// out\n        /* \"#utility.yul\":491:855   */\n    tag_81:\n        /* \"#utility.yul\":579:582   */\n      0x00\n        /* \"#utility.yul\":607:646   */\n      tag_83\n        /* \"#utility.yul\":640:645   */\n      dup3\n        /* \"#utility.yul\":607:646   */\n      tag_84\n      jump\t// in\n    tag_83:\n        /* \"#utility.yul\":662:733   */\n      tag_85\n        /* \"#utility.yul\":726:732   */\n      dup2\n        /* \"#utility.yul\":721:724   */\n      dup6\n        /* \"#utility.yul\":662:733   */\n      tag_86\n      jump\t// in\n    tag_85:\n        /* \"#utility.yul\":655:733   */\n      swap4\n      pop\n        /* \"#utility.yul\":742:794   */\n      tag_87\n        /* \"#utility.yul\":787:793   */\n      dup2\n        /* \"#utility.yul\":782:785   */\n      dup6\n        /* \"#utility.yul\":775:779   */\n      0x20\n        /* \"#utility.yul\":768:773   */\n      dup7\n        /* \"#utility.yul\":764:780   */\n      add\n        /* \"#utility.yul\":742:794   */\n      tag_88\n      jump\t// in\n    tag_87:\n        /* \"#utility.yul\":819:848   */\n      tag_89\n        /* \"#utility.yul\":841:847   */\n      dup2\n        /* \"#utility.yul\":819:848   */\n      tag_90\n      jump\t// in\n    tag_89:\n        /* \"#utility.yul\":814:817   */\n      dup5\n        /* \"#utility.yul\":810:849   */\n      add\n        /* \"#utility.yul\":803:849   */\n      swap2\n      pop\n        /* \"#utility.yul\":583:855   */\n      pop\n        /* \"#utility.yul\":491:855   */\n      swap3\n      swap2\n      pop\n      pop\n      jump\t// out\n        /* \"#utility.yul\":861:979   */\n    tag_91:\n        /* \"#utility.yul\":948:972   */\n      tag_93\n        /* \"#utility.yul\":966:971   */\n      dup2\n        /* \"#utility.yul\":948:972   */\n      tag_94\n      jump\t// in\n    tag_93:\n        /* \"#utility.yul\":943:946   */\n      dup3\n        /* \"#utility.yul\":936:973   */\n      mstore\n        /* \"#utility.yul\":861:979   */\n      pop\n      pop\n      jump\t// out\n        /* \"#utility.yul\":985:1097   */\n    tag_95:\n        /* \"#utility.yul\":1068:1090   */\n      tag_97\n        /* \"#utility.yul\":1084:1089   */\n      dup2\n        /* \"#utility.yul\":1068:1090   */\n      tag_98\n      jump\t// in\n    tag_97:\n        /* \"#utility.yul\":1063:1066   */\n      dup3\n        /* \"#utility.yul\":1056:1091   */\n      mstore\n        /* \"#utility.yul\":985:1097   */\n      pop\n      pop\n      jump\t// out\n        /* \"#utility.yul\":1103:1325   */\n    tag_21:\n        /* \"#utility.yul\":1196:1200   */\n      0x00\n        /* \"#utility.yul\":1234:1236   */\n      0x20\n        /* \"#utility.yul\":1223:1232   */\n      dup3\n        /* \"#utility.yul\":1219:1237   */\n      add\n        /* \"#utility.yul\":1211:1237   */\n      swap1\n      pop\n        /* \"#utility.yul\":1247:1318   */\n      tag_100\n        /* \"#utility.yul\":1315:1316   */\n      0x00\n        /* \"#utility.yul\":1304:1313   */\n      dup4\n        /* \"#utility.yul\":1300:1317   */\n      add\n        /* \"#utility.yul\":1291:1297   */\n      dup5\n        /* \"#utility.yul\":1247:1318   */\n      tag_65\n      jump\t// in\n    tag_100:\n        /* \"#utility.yul\":1103:1325   */\n      swap3\n      swap2\n      pop\n      pop\n      jump\t// out\n        /* \"#utility.yul\":1331:1553   */\n    tag_48:\n        /* \"#utility.yul\":1424:1428   */\n      0x00\n        /* \"#utility.yul\":1462:1464   */\n      0x20\n        /* \"#utility.yul\":1451:1460   */\n      dup3\n        /* \"#utility.yul\":1447:1465   */\n      add\n        /* \"#utility.yul\":1439:1465   */\n      swap1\n      pop\n        /* \"#utility.yul\":1475:1546   */\n      tag_102\n        /* \"#utility.yul\":1543:1544   */\n      0x00\n        /* \"#utility.yul\":1532:1541   */\n      dup4\n        /* \"#utility.yul\":1528:1545   */\n      add\n        /* \"#utility.yul\":1519:1525   */\n      dup5\n        /* \"#utility.yul\":1475:1546   */\n      tag_69\n      jump\t// in\n    tag_102:\n        /* \"#utility.yul\":1331:1553   */\n      swap3\n      swap2\n      pop\n      pop\n      jump\t// out\n        /* \"#utility.yul\":1559:1777   */\n    tag_44:\n        /* \"#utility.yul\":1650:1654   */\n      0x00\n        /* \"#utility.yul\":1688:1690   */\n      0x20\n        /* \"#utility.yul\":1677:1686   */\n      dup3\n        /* \"#utility.yul\":1673:1691   */\n      add\n        /* \"#utility.yul\":1665:1691   */\n      swap1\n      pop\n        /* \"#utility.yul\":1701:1770   */\n      tag_104\n        /* \"#utility.yul\":1767:1768   */\n      0x00\n        /* \"#utility.yul\":1756:1765   */\n      dup4\n        /* \"#utility.yul\":1752:1769   */\n      add\n        /* \"#utility.yul\":1743:1749   */\n      dup5\n        /* \"#utility.yul\":1701:1770   */\n      tag_73\n      jump\t// in\n    tag_104:\n        /* \"#utility.yul\":1559:1777   */\n      swap3\n      swap2\n      pop\n      pop\n      jump\t// out\n        /* \"#utility.yul\":1783:1993   */\n    tag_37:\n        /* \"#utility.yul\":1870:1874   */\n      0x00\n        /* \"#utility.yul\":1908:1910   */\n      0x20\n        /* \"#utility.yul\":1897:1906   */\n      dup3\n        /* \"#utility.yul\":1893:1911   */\n      add\n        /* \"#utility.yul\":1885:1911   */\n      swap1\n      pop\n        /* \"#utility.yul\":1921:1986   */\n      tag_106\n        /* \"#utility.yul\":1983:1984   */\n      0x00\n        /* \"#utility.yul\":1972:1981   */\n      dup4\n        /* \"#utility.yul\":1968:1985   */\n      add\n        /* \"#utility.yul\":1959:1965   */\n      dup5\n        /* \"#utility.yul\":1921:1986   */\n      tag_77\n      jump\t// in\n    tag_106:\n        /* \"#utility.yul\":1783:1993   */\n      swap3\n      swap2\n      pop\n      pop\n      jump\t// out\n        /* \"#utility.yul\":1999:2312   */\n    tag_33:\n        /* \"#utility.yul\":2112:2116   */\n      0x00\n        /* \"#utility.yul\":2150:2152   */\n      0x20\n        /* \"#utility.yul\":2139:2148   */\n      dup3\n        /* \"#utility.yul\":2135:2153   */\n      add\n        /* \"#utility.yul\":2127:2153   */\n      swap1\n      pop\n        /* \"#utility.yul\":2199:2208   */\n      dup2\n        /* \"#utility.yul\":2193:2197   */\n      dup2\n        /* \"#utility.yul\":2189:2209   */\n      sub\n        /* \"#utility.yul\":2185:2186   */\n      0x00\n        /* \"#utility.yul\":2174:2183   */\n      dup4\n        /* \"#utility.yul\":2170:2187   */\n      add\n        /* \"#utility.yul\":2163:2210   */\n      mstore\n        /* \"#utility.yul\":2227:2305   */\n      tag_108\n        /* \"#utility.yul\":2300:2304   */\n      dup2\n        /* \"#utility.yul\":2291:2297   */\n      dup5\n        /* \"#utility.yul\":2227:2305   */\n      tag_81\n      jump\t// in\n    tag_108:\n        /* \"#utility.yul\":2219:2305   */\n      swap1\n      pop\n        /* \"#utility.yul\":1999:2312   */\n      swap3\n      swap2\n      pop\n      pop\n      jump\t// out\n        /* \"#utility.yul\":2318:2540   */\n    tag_17:\n        /* \"#utility.yul\":2411:2415   */\n      0x00\n        /* \"#utility.yul\":2449:2451   */\n      0x20\n        /* \"#utility.yul\":2438:2447   */\n      dup3\n        /* \"#utility.yul\":2434:2452   */\n      add\n        /* \"#utility.yul\":2426:2452   */\n      swap1\n      pop\n        /* \"#utility.yul\":2462:2533   */\n      tag_110\n        /* \"#utility.yul\":2530:2531   */\n      0x00\n        /* \"#utility.yul\":2519:2528   */\n      dup4\n        /* \"#utility.yul\":2515:2532   */\n      add\n        /* \"#utility.yul\":2506:2512   */\n      dup5\n        /* \"#utility.yul\":2462:2533   */\n      tag_91\n      jump\t// in\n    tag_110:\n        /* \"#utility.yul\":2318:2540   */\n      swap3\n      swap2\n      pop\n      pop\n      jump\t// out\n        /* \"#utility.yul\":2546:2969   */\n    tag_25:\n        /* \"#utility.yul\":2687:2691   */\n      0x00\n        /* \"#utility.yul\":2725:2727   */\n      0x40\n        /* \"#utility.yul\":2714:2723   */\n      dup3\n        /* \"#utility.yul\":2710:2728   */\n      add\n        /* \"#utility.yul\":2702:2728   */\n      swap1\n      pop\n        /* \"#utility.yul\":2738:2809   */\n      tag_112\n        /* \"#utility.yul\":2806:2807   */\n      0x00\n        /* \"#utility.yul\":2795:2804   */\n      dup4\n        /* \"#utility.yul\":2791:2808   */\n      add\n        /* \"#utility.yul\":2782:2788   */\n      dup6\n        /* \"#utility.yul\":2738:2809   */\n      tag_91\n      jump\t// in\n    tag_112:\n        /* \"#utility.yul\":2856:2865   */\n      dup2\n        /* \"#utility.yul\":2850:2854   */\n      dup2\n        /* \"#utility.yul\":2846:2866   */\n      sub\n        /* \"#utility.yul\":2841:2843   */\n      0x20\n        /* \"#utility.yul\":2830:2839   */\n      dup4\n        /* \"#utility.yul\":2826:2844   */\n      add\n        /* \"#utility.yul\":2819:2867   */\n      mstore\n        /* \"#utility.yul\":2884:2962   */\n      tag_113\n        /* \"#utility.yul\":2957:2961   */\n      dup2\n        /* \"#utility.yul\":2948:2954   */\n      dup5\n        /* \"#utility.yul\":2884:2962   */\n      tag_81\n      jump\t// in\n    tag_113:\n        /* \"#utility.yul\":2876:2962   */\n      swap1\n      pop\n        /* \"#utility.yul\":2546:2969   */\n      swap4\n      swap3\n      pop\n      pop\n      pop\n      jump\t// out\n        /* \"#utility.yul\":2975:3189   */\n    tag_29:\n        /* \"#utility.yul\":3064:3068   */\n      0x00\n        /* \"#utility.yul\":3102:3104   */\n      0x20\n        /* \"#utility.yul\":3091:3100   */\n      dup3\n        /* \"#utility.yul\":3087:3105   */\n      add\n        /* \"#utility.yul\":3079:3105   */\n      swap1\n      pop\n        /* \"#utility.yul\":3115:3182   */\n      tag_115\n        /* \"#utility.yul\":3179:3180   */\n      0x00\n        /* \"#utility.yul\":3168:3177   */\n      dup4\n        /* \"#utility.yul\":3164:3181   */\n      add\n        /* \"#utility.yul\":3155:3161   */\n      dup5\n        /* \"#utility.yul\":3115:3182   */\n      tag_95\n      jump\t// in\n    tag_115:\n        /* \"#utility.yul\":2975:3189   */\n      swap3\n      swap2\n      pop\n      pop\n      jump\t// out\n        /* \"#utility.yul\":3195:3294   */\n    tag_84:\n        /* \"#utility.yul\":3247:3253   */\n      0x00\n        /* \"#utility.yul\":3281:3286   */\n      dup2\n        /* \"#utility.yul\":3275:3287   */\n      mload\n        /* \"#utility.yul\":3265:3287   */\n      swap1\n      pop\n        /* \"#utility.yul\":3195:3294   */\n      swap2\n      swap1\n      pop\n      jump\t// out\n        /* \"#utility.yul\":3300:3469   */\n    tag_86:\n        /* \"#utility.yul\":3384:3395   */\n      0x00\n        /* \"#utility.yul\":3418:3424   */\n      dup3\n        /* \"#utility.yul\":3413:3416   */\n      dup3\n        /* \"#utility.yul\":3406:3425   */\n      mstore\n        /* \"#utility.yul\":3458:3462   */\n      0x20\n        /* \"#utility.yul\":3453:3456   */\n      dup3\n        /* \"#utility.yul\":3449:3463   */\n      add\n        /* \"#utility.yul\":3434:3463   */\n      swap1\n      pop\n        /* \"#utility.yul\":3300:3469   */\n      swap3\n      swap2\n      pop\n      pop\n      jump\t// out\n        /* \"#utility.yul\":3475:3571   */\n    tag_68:\n        /* \"#utility.yul\":3512:3519   */\n      0x00\n        /* \"#utility.yul\":3541:3565   */\n      tag_119\n        /* \"#utility.yul\":3559:3564   */\n      dup3\n        /* \"#utility.yul\":3541:3565   */\n      tag_120\n      jump\t// in\n    tag_119:\n        /* \"#utility.yul\":3530:3565   */\n      swap1\n      pop\n        /* \"#utility.yul\":3475:3571   */\n      swap2\n      swap1\n      pop\n      jump\t// out\n        /* \"#utility.yul\":3577:3654   */\n    tag_72:\n        /* \"#utility.yul\":3614:3621   */\n      0x00\n        /* \"#utility.yul\":3643:3648   */\n      dup2\n        /* \"#utility.yul\":3632:3648   */\n      swap1\n      pop\n        /* \"#utility.yul\":3577:3654   */\n      swap2\n      swap1\n      pop\n      jump\t// out\n        /* \"#utility.yul\":3660:3736   */\n    tag_76:\n        /* \"#utility.yul\":3696:3703   */\n      0x00\n        /* \"#utility.yul\":3725:3730   */\n      dup2\n        /* \"#utility.yul\":3714:3730   */\n      swap1\n      pop\n        /* \"#utility.yul\":3660:3736   */\n      swap2\n      swap1\n      pop\n      jump\t// out\n        /* \"#utility.yul\":3742:3831   */\n    tag_80:\n        /* \"#utility.yul\":3776:3783   */\n      0x00\n        /* \"#utility.yul\":3819:3824   */\n      dup2\n        /* \"#utility.yul\":3816:3817   */\n      0x00\n        /* \"#utility.yul\":3805:3825   */\n      signextend\n        /* \"#utility.yul\":3794:3825   */\n      swap1\n      pop\n        /* \"#utility.yul\":3742:3831   */\n      swap2\n      swap1\n      pop\n      jump\t// out\n        /* \"#utility.yul\":3837:3963   */\n    tag_120:\n        /* \"#utility.yul\":3874:3881   */\n      0x00\n        /* \"#utility.yul\":3914:3956   */\n      0xffffffffffffffffffffffffffffffffffffffff\n        /* \"#utility.yul\":3907:3912   */\n      dup3\n        /* \"#utility.yul\":3903:3957   */\n      and\n        /* \"#utility.yul\":3892:3957   */\n      swap1\n      pop\n        /* \"#utility.yul\":3837:3963   */\n      swap2\n      swap1\n      pop\n      jump\t// out\n        /* \"#utility.yul\":3969:4046   */\n    tag_94:\n        /* \"#utility.yul\":4006:4013   */\n      0x00\n        /* \"#utility.yul\":4035:4040   */\n      dup2\n        /* \"#utility.yul\":4024:4040   */\n      swap1\n      pop\n        /* \"#utility.yul\":3969:4046   */\n      swap2\n      swap1\n      pop\n      jump\t// out\n        /* \"#utility.yul\":4052:4138   */\n    tag_98:\n        /* \"#utility.yul\":4087:4094   */\n      0x00\n        /* \"#utility.yul\":4127:4131   */\n      0xff\n        /* \"#utility.yul\":4120:4125   */\n      dup3\n        /* \"#utility.yul\":4116:4132   */\n      and\n        /* \"#utility.yul\":4105:4132   */\n      swap1\n      pop\n        /* \"#utility.yul\":4052:4138   */\n      swap2\n      swap1\n      pop\n      jump\t// out\n        /* \"#utility.yul\":4144:4451   */\n    tag_88:\n        /* \"#utility.yul\":4212:4213   */\n      0x00\n        /* \"#utility.yul\":4222:4335   */\n    tag_128:\n        /* \"#utility.yul\":4236:4242   */\n      dup4\n        /* \"#utility.yul\":4233:4234   */\n      dup2\n        /* \"#utility.yul\":4230:4243   */\n      lt\n        /* \"#utility.yul\":4222:4335   */\n      iszero\n      tag_130\n      jumpi\n        /* \"#utility.yul\":4321:4322   */\n      dup1\n        /* \"#utility.yul\":4316:4319   */\n      dup3\n        /* \"#utility.yul\":4312:4323   */\n      add\n        /* \"#utility.yul\":4306:4324   */\n      mload\n        /* \"#utility.yul\":4302:4303   */\n      dup2\n        /* \"#utility.yul\":4297:4300   */\n      dup5\n        /* \"#utility.yul\":4293:4304   */\n      add\n        /* \"#utility.yul\":4286:4325   */\n      mstore\n        /* \"#utility.yul\":4258:4260   */\n      0x20\n        /* \"#utility.yul\":4255:4256   */\n      dup2\n        /* \"#utility.yul\":4251:4261   */\n      add\n        /* \"#utility.yul\":4246:4261   */\n      swap1\n      pop\n        /* \"#utility.yul\":4222:4335   */\n      jump(tag_128)\n    tag_130:\n        /* \"#utility.yul\":4353:4359   */\n      dup4\n        /* \"#utility.yul\":4350:4351   */\n      dup2\n        /* \"#utility.yul\":4347:4360   */\n      gt\n        /* \"#utility.yul\":4344:4445   */\n      iszero\n      tag_131\n      jumpi\n        /* \"#utility.yul\":4433:4434   */\n      0x00\n        /* \"#utility.yul\":4424:4430   */\n      dup5\n        /* \"#utility.yul\":4419:4422   */\n      dup5\n        /* \"#utility.yul\":4415:4431   */\n      add\n        /* \"#utility.yul\":4408:4435   */\n      mstore\n        /* \"#utility.yul\":4344:4445   */\n    tag_131:\n        /* \"#utility.yul\":4193:4451   */\n      pop\n        /* \"#utility.yul\":4144:4451   */\n      pop\n      pop\n      pop\n      jump\t// out\n        /* \"#utility.yul\":4457:4777   */\n    tag_54:\n        /* \"#utility.yul\":4501:4507   */\n      0x00\n        /* \"#utility.yul\":4538:4539   */\n      0x02\n        /* \"#utility.yul\":4532:4536   */\n      dup3\n        /* \"#utility.yul\":4528:4540   */\n      div\n        /* \"#utility.yul\":4518:4540   */\n      swap1\n      pop\n        /* \"#utility.yul\":4585:4586   */\n      0x01\n        /* \"#utility.yul\":4579:4583   */\n      dup3\n        /* \"#utility.yul\":4575:4587   */\n      and\n        /* \"#utility.yul\":4606:4624   */\n      dup1\n        /* \"#utility.yul\":4596:4677   */\n      tag_133\n      jumpi\n        /* \"#utility.yul\":4662:4666   */\n      0x7f\n        /* \"#utility.yul\":4654:4660   */\n      dup3\n        /* \"#utility.yul\":4650:4667   */\n      and\n        /* \"#utility.yul\":4640:4667   */\n      swap2\n      pop\n        /* \"#utility.yul\":4596:4677   */\n    tag_133:\n        /* \"#utility.yul\":4724:4726   */\n      0x20\n        /* \"#utility.yul\":4716:4722   */\n      dup3\n        /* \"#utility.yul\":4713:4727   */\n      lt\n        /* \"#utility.yul\":4693:4711   */\n      dup2\n        /* \"#utility.yul\":4690:4728   */\n      eq\n        /* \"#utility.yul\":4687:4771   */\n      iszero\n      tag_134\n      jumpi\n        /* \"#utility.yul\":4743:4761   */\n      tag_135\n      tag_136\n      jump\t// in\n    tag_135:\n        /* \"#utility.yul\":4687:4771   */\n    tag_134:\n        /* \"#utility.yul\":4508:4777   */\n      pop\n        /* \"#utility.yul\":4457:4777   */\n      swap2\n      swap1\n      pop\n      jump\t// out\n        /* \"#utility.yul\":4783:4963   */\n    tag_136:\n        /* \"#utility.yul\":4831:4908   */\n      0x4e487b7100000000000000000000000000000000000000000000000000000000\n        /* \"#utility.yul\":4828:4829   */\n      0x00\n        /* \"#utility.yul\":4821:4909   */\n      mstore\n        /* \"#utility.yul\":4928:4932   */\n      0x22\n        /* \"#utility.yul\":4925:4926   */\n      0x04\n        /* \"#utility.yul\":4918:4933   */\n      mstore\n        /* \"#utility.yul\":4952:4956   */\n      0x24\n        /* \"#utility.yul\":4949:4950   */\n      0x00\n        /* \"#utility.yul\":4942:4957   */\n      revert\n        /* \"#utility.yul\":4969:5071   */\n    tag_90:\n        /* \"#utility.yul\":5010:5016   */\n      0x00\n        /* \"#utility.yul\":5061:5063   */\n      0x1f\n        /* \"#utility.yul\":5057:5064   */\n      not\n        /* \"#utility.yul\":5052:5054   */\n      0x1f\n        /* \"#utility.yul\":5045:5050   */\n      dup4\n        /* \"#utility.yul\":5041:5055   */\n      add\n        /* \"#utility.yul\":5037:5065   */\n      and\n        /* \"#utility.yul\":5027:5065   */\n      swap1\n      pop\n        /* \"#utility.yul\":4969:5071   */\n      swap2\n      swap1\n      pop\n      jump\t// out\n\n    auxdata: 0xa264697066735822122099c7b15fe6981882f7aba8670d8b5730d4082f1a14134b6c7b26eb5dac2ee81564736f6c63430008070033\n}\n",
				"bytecode": {
					"linkReferences": {},
					"object": "6080604052600160005560018060006101000a81548160ff021916908360000b60ff160217905550600160025560016003556001600460006101000a81548160ff021916908360ff1602179055506040518060400160405280601681526020017f4d7920636174206c6f6f6b732062656175746966756c000000000000000000008152506005908051906020019061009892919061019a565b507f4d7920636174206c6f6f6b732062656175746966756c0000000000000000000060065573ab8483f64d9c6d1ecf9b849ae677dd3315835cb2600760006101000a81548173ffffffffffffffffffffffffffffffffffffffff021916908373ffffffffffffffffffffffffffffffffffffffff1602179055506040518060400160405280600181526020016040518060400160405280600b81526020017f48656c6c6f20776f726c64000000000000000000000000000000000000000000815250815250600860008201518160000155602082015181600101908051906020019061018592919061019a565b50505034801561019457600080fd5b5061029e565b8280546101a69061023d565b90600052602060002090601f0160209004810192826101c8576000855561020f565b82601f106101e157805160ff191683800117855561020f565b8280016001018555821561020f579182015b8281111561020e5782518255916020019190600101906101f3565b5b50905061021c9190610220565b5090565b5b80821115610239576000816000905550600101610221565b5090565b6000600282049050600182168061025557607f821691505b602082108114156102695761026861026f565b5b50919050565b7f4e487b7100000000000000000000000000000000000000000000000000000000600052602260045260246000fd5b610652806102ad6000396000f3fe608060405234801561001057600080fd5b506004361061009e5760003560e01c8063562d7f3511610066578063562d7f351461013a578063563566a1146101585780639227793314610176578063b992b6db14610194578063ff643c92146101b25761009e565b806320965255146100a357806326b85ee1146100c1578063285568b7146100df57806345838889146100fe578063492bfa181461011c575b600080fd5b6100ab6101d0565b6040516100b8919061048b565b60405180910390f35b6100c96101de565b6040516100d691906103fd565b60405180910390f35b6100e7610204565b6040516100f59291906104a6565b60405180910390f35b61010661029e565b60405161011391906104d6565b60405180910390f35b6101246102b1565b6040516101319190610469565b60405180910390f35b61014261033f565b60405161014f919061044e565b60405180910390f35b610160610352565b60405161016d919061048b565b60405180910390f35b61017e610358565b60405161018b9190610433565b60405180910390f35b61019c61035e565b6040516101a99190610418565b60405180910390f35b6101ba610364565b6040516101c7919061048b565b60405180910390f35b600080600190508091505090565b600760009054906101000a900473ffffffffffffffffffffffffffffffffffffffff1681565b600880600001549080600101805461021b906105aa565b80601f0160208091040260200160405190810160405280929190818152602001828054610247906105aa565b80156102945780601f1061026957610100808354040283529160200191610294565b820191906000526020600020905b81548152906001019060200180831161027757829003601f168201915b5050505050905082565b600460009054906101000a900460ff1681565b600580546102be906105aa565b80601f01602080910402602001604051908101604052809291908181526020018280546102ea906105aa565b80156103375780601f1061030c57610100808354040283529160200191610337565b820191906000526020600020905b81548152906001019060200180831161031a57829003601f168201915b505050505081565b600160009054906101000a900460000b81565b60035481565b60005481565b60065481565b60025481565b6103738161050d565b82525050565b6103828161051f565b82525050565b61039181610529565b82525050565b6103a081610533565b82525050565b60006103b1826104f1565b6103bb81856104fc565b93506103cb818560208601610577565b6103d48161060b565b840191505092915050565b6103e881610560565b82525050565b6103f78161056a565b82525050565b6000602082019050610412600083018461036a565b92915050565b600060208201905061042d6000830184610379565b92915050565b60006020820190506104486000830184610388565b92915050565b60006020820190506104636000830184610397565b92915050565b6000602082019050818103600083015261048381846103a6565b905092915050565b60006020820190506104a060008301846103df565b92915050565b60006040820190506104bb60008301856103df565b81810360208301526104cd81846103a6565b90509392505050565b60006020820190506104eb60008301846103ee565b92915050565b600081519050919050565b600082825260208201905092915050565b600061051882610540565b9050919050565b6000819050919050565b6000819050919050565b60008160000b9050919050565b600073ffffffffffffffffffffffffffffffffffffffff82169050919050565b6000819050919050565b600060ff82169050919050565b60005b8381101561059557808201518184015260208101905061057a565b838111156105a4576000848401525b50505050565b600060028204905060018216806105c257607f821691505b602082108114156105d6576105d56105dc565b5b50919050565b7f4e487b7100000000000000000000000000000000000000000000000000000000600052602260045260246000fd5b6000601f19601f830116905091905056fea264697066735822122099c7b15fe6981882f7aba8670d8b5730d4082f1a14134b6c7b26eb5dac2ee81564736f6c63430008070033",
					"opcodes": "PUSH1 0x80 PUSH1 0x40 MSTORE PUSH1 0x1 PUSH1 0x0 SSTORE PUSH1 0x1 DUP1 PUSH1 0x0 PUSH2 0x100 EXP DUP2 SLOAD DUP2 PUSH1 0xFF MUL NOT AND SWAP1 DUP4 PUSH1 0x0 SIGNEXTEND PUSH1 0xFF AND MUL OR SWAP1 SSTORE POP PUSH1 0x1 PUSH1 0x2 SSTORE PUSH1 0x1 PUSH1 0x3 SSTORE PUSH1 0x1 PUSH1 0x4 PUSH1 0x0 PUSH2 0x100 EXP DUP2 SLOAD DUP2 PUSH1 0xFF MUL NOT AND SWAP1 DUP4 PUSH1 0xFF AND MUL OR SWAP1 SSTORE POP PUSH1 0x40 MLOAD DUP1 PUSH1 0x40 ADD PUSH1 0x40 MSTORE DUP1 PUSH1 0x16 DUP2 MSTORE PUSH1 0x20 ADD PUSH32 0x4D7920636174206C6F6F6B732062656175746966756C00000000000000000000 DUP2 MSTORE POP PUSH1 0x5 SWAP1 DUP1 MLOAD SWAP1 PUSH1 0x20 ADD SWAP1 PUSH2 0x98 SWAP3 SWAP2 SWAP1 PUSH2 0x19A JUMP JUMPDEST POP PUSH32 0x4D7920636174206C6F6F6B732062656175746966756C00000000000000000000 PUSH1 0x6 SSTORE PUSH20 0xAB8483F64D9C6D1ECF9B849AE677DD3315835CB2 PUSH1 0x7 PUSH1 0x0 PUSH2 0x100 EXP DUP2 SLOAD DUP2 PUSH20 0xFFFFFFFFFFFFFFFFFFFFFFFFFFFFFFFFFFFFFFFF MUL NOT AND SWAP1 DUP4 PUSH20 0xFFFFFFFFFFFFFFFFFFFFFFFFFFFFFFFFFFFFFFFF AND MUL OR SWAP1 SSTORE POP PUSH1 0x40 MLOAD DUP1 PUSH1 0x40 ADD PUSH1 0x40 MSTORE DUP1 PUSH1 0x1 DUP2 MSTORE PUSH1 0x20 ADD PUSH1 0x40 MLOAD DUP1 PUSH1 0x40 ADD PUSH1 0x40 MSTORE DUP1 PUSH1 0xB DUP2 MSTORE PUSH1 0x20 ADD PUSH32 0x48656C6C6F20776F726C64000000000000000000000000000000000000000000 DUP2 MSTORE POP DUP2 MSTORE POP PUSH1 0x8 PUSH1 0x0 DUP3 ADD MLOAD DUP2 PUSH1 0x0 ADD SSTORE PUSH1 0x20 DUP3 ADD MLOAD DUP2 PUSH1 0x1 ADD SWAP1 DUP1 MLOAD SWAP1 PUSH1 0x20 ADD SWAP1 PUSH2 0x185 SWAP3 SWAP2 SWAP1 PUSH2 0x19A JUMP JUMPDEST POP POP POP CALLVALUE DUP1 ISZERO PUSH2 0x194 JUMPI PUSH1 0x0 DUP1 REVERT JUMPDEST POP PUSH2 0x29E JUMP JUMPDEST DUP3 DUP1 SLOAD PUSH2 0x1A6 SWAP1 PUSH2 0x23D JUMP JUMPDEST SWAP1 PUSH1 0x0 MSTORE PUSH1 0x20 PUSH1 0x0 KECCAK256 SWAP1 PUSH1 0x1F ADD PUSH1 0x20 SWAP1 DIV DUP2 ADD SWAP3 DUP3 PUSH2 0x1C8 JUMPI PUSH1 0x0 DUP6 SSTORE PUSH2 0x20F JUMP JUMPDEST DUP3 PUSH1 0x1F LT PUSH2 0x1E1 JUMPI DUP1 MLOAD PUSH1 0xFF NOT AND DUP4 DUP1 ADD OR DUP6 SSTORE PUSH2 0x20F JUMP JUMPDEST DUP3 DUP1 ADD PUSH1 0x1 ADD DUP6 SSTORE DUP3 ISZERO PUSH2 0x20F JUMPI SWAP2 DUP3 ADD JUMPDEST DUP3 DUP2 GT ISZERO PUSH2 0x20E JUMPI DUP3 MLOAD DUP3 SSTORE SWAP2 PUSH1 0x20 ADD SWAP2 SWAP1 PUSH1 0x1 ADD SWAP1 PUSH2 0x1F3 JUMP JUMPDEST JUMPDEST POP SWAP1 POP PUSH2 0x21C SWAP2 SWAP1 PUSH2 0x220 JUMP JUMPDEST POP SWAP1 JUMP JUMPDEST JUMPDEST DUP1 DUP3 GT ISZERO PUSH2 0x239 JUMPI PUSH1 0x0 DUP2 PUSH1 0x0 SWAP1 SSTORE POP PUSH1 0x1 ADD PUSH2 0x221 JUMP JUMPDEST POP SWAP1 JUMP JUMPDEST PUSH1 0x0 PUSH1 0x2 DUP3 DIV SWAP1 POP PUSH1 0x1 DUP3 AND DUP1 PUSH2 0x255 JUMPI PUSH1 0x7F DUP3 AND SWAP2 POP JUMPDEST PUSH1 0x20 DUP3 LT DUP2 EQ ISZERO PUSH2 0x269 JUMPI PUSH2 0x268 PUSH2 0x26F JUMP JUMPDEST JUMPDEST POP SWAP2 SWAP1 POP JUMP JUMPDEST PUSH32 0x4E487B7100000000000000000000000000000000000000000000000000000000 PUSH1 0x0 MSTORE PUSH1 0x22 PUSH1 0x4 MSTORE PUSH1 0x24 PUSH1 0x0 REVERT JUMPDEST PUSH2 0x652 DUP1 PUSH2 0x2AD PUSH1 0x0 CODECOPY PUSH1 0x0 RETURN INVALID PUSH1 0x80 PUSH1 0x40 MSTORE CALLVALUE DUP1 ISZERO PUSH2 0x10 JUMPI PUSH1 0x0 DUP1 REVERT JUMPDEST POP PUSH1 0x4 CALLDATASIZE LT PUSH2 0x9E JUMPI PUSH1 0x0 CALLDATALOAD PUSH1 0xE0 SHR DUP1 PUSH4 0x562D7F35 GT PUSH2 0x66 JUMPI DUP1 PUSH4 0x562D7F35 EQ PUSH2 0x13A JUMPI DUP1 PUSH4 0x563566A1 EQ PUSH2 0x158 JUMPI DUP1 PUSH4 0x92277933 EQ PUSH2 0x176 JUMPI DUP1 PUSH4 0xB992B6DB EQ PUSH2 0x194 JUMPI DUP1 PUSH4 0xFF643C92 EQ PUSH2 0x1B2 JUMPI PUSH2 0x9E JUMP JUMPDEST DUP1 PUSH4 0x20965255 EQ PUSH2 0xA3 JUMPI DUP1 PUSH4 0x26B85EE1 EQ PUSH2 0xC1 JUMPI DUP1 PUSH4 0x285568B7 EQ PUSH2 0xDF JUMPI DUP1 PUSH4 0x45838889 EQ PUSH2 0xFE JUMPI DUP1 PUSH4 0x492BFA18 EQ PUSH2 0x11C JUMPI JUMPDEST PUSH1 0x0 DUP1 REVERT JUMPDEST PUSH2 0xAB PUSH2 0x1D0 JUMP JUMPDEST PUSH1 0x40 MLOAD PUSH2 0xB8 SWAP2 SWAP1 PUSH2 0x48B JUMP JUMPDEST PUSH1 0x40 MLOAD DUP1 SWAP2 SUB SWAP1 RETURN JUMPDEST PUSH2 0xC9 PUSH2 0x1DE JUMP JUMPDEST PUSH1 0x40 MLOAD PUSH2 0xD6 SWAP2 SWAP1 PUSH2 0x3FD JUMP JUMPDEST PUSH1 0x40 MLOAD DUP1 SWAP2 SUB SWAP1 RETURN JUMPDEST PUSH2 0xE7 PUSH2 0x204 JUMP JUMPDEST PUSH1 0x40 MLOAD PUSH2 0xF5 SWAP3 SWAP2 SWAP1 PUSH2 0x4A6 JUMP JUMPDEST PUSH1 0x40 MLOAD DUP1 SWAP2 SUB SWAP1 RETURN JUMPDEST PUSH2 0x106 PUSH2 0x29E JUMP JUMPDEST PUSH1 0x40 MLOAD PUSH2 0x113 SWAP2 SWAP1 PUSH2 0x4D6 JUMP JUMPDEST PUSH1 0x40 MLOAD DUP1 SWAP2 SUB SWAP1 RETURN JUMPDEST PUSH2 0x124 PUSH2 0x2B1 JUMP JUMPDEST PUSH1 0x40 MLOAD PUSH2 0x131 SWAP2 SWAP1 PUSH2 0x469 JUMP JUMPDEST PUSH1 0x40 MLOAD DUP1 SWAP2 SUB SWAP1 RETURN JUMPDEST PUSH2 0x142 PUSH2 0x33F JUMP JUMPDEST PUSH1 0x40 MLOAD PUSH2 0x14F SWAP2 SWAP1 PUSH2 0x44E JUMP JUMPDEST PUSH1 0x40 MLOAD DUP1 SWAP2 SUB SWAP1 RETURN JUMPDEST PUSH2 0x160 PUSH2 0x352 JUMP JUMPDEST PUSH1 0x40 MLOAD PUSH2 0x16D SWAP2 SWAP1 PUSH2 0x48B JUMP JUMPDEST PUSH1 0x40 MLOAD DUP1 SWAP2 SUB SWAP1 RETURN JUMPDEST PUSH2 0x17E PUSH2 0x358 JUMP JUMPDEST PUSH1 0x40 MLOAD PUSH2 0x18B SWAP2 SWAP1 PUSH2 0x433 JUMP JUMPDEST PUSH1 0x40 MLOAD DUP1 SWAP2 SUB SWAP1 RETURN JUMPDEST PUSH2 0x19C PUSH2 0x35E JUMP JUMPDEST PUSH1 0x40 MLOAD PUSH2 0x1A9 SWAP2 SWAP1 PUSH2 0x418 JUMP JUMPDEST PUSH1 0x40 MLOAD DUP1 SWAP2 SUB SWAP1 RETURN JUMPDEST PUSH2 0x1BA PUSH2 0x364 JUMP JUMPDEST PUSH1 0x40 MLOAD PUSH2 0x1C7 SWAP2 SWAP1 PUSH2 0x48B JUMP JUMPDEST PUSH1 0x40 MLOAD DUP1 SWAP2 SUB SWAP1 RETURN JUMPDEST PUSH1 0x0 DUP1 PUSH1 0x1 SWAP1 POP DUP1 SWAP2 POP POP SWAP1 JUMP JUMPDEST PUSH1 0x7 PUSH1 0x0 SWAP1 SLOAD SWAP1 PUSH2 0x100 EXP SWAP1 DIV PUSH20 0xFFFFFFFFFFFFFFFFFFFFFFFFFFFFFFFFFFFFFFFF AND DUP2 JUMP JUMPDEST PUSH1 0x8 DUP1 PUSH1 0x0 ADD SLOAD SWAP1 DUP1 PUSH1 0x1 ADD DUP1 SLOAD PUSH2 0x21B SWAP1 PUSH2 0x5AA JUMP JUMPDEST DUP1 PUSH1 0x1F ADD PUSH1 0x20 DUP1 SWAP2 DIV MUL PUSH1 0x20 ADD PUSH1 0x40 MLOAD SWAP1 DUP2 ADD PUSH1 0x40 MSTORE DUP1 SWAP3 SWAP2 SWAP1 DUP2 DUP2 MSTORE PUSH1 0x20 ADD DUP3 DUP1 SLOAD PUSH2 0x247 SWAP1 PUSH2 0x5AA JUMP JUMPDEST DUP1 ISZERO PUSH2 0x294 JUMPI DUP1 PUSH1 0x1F LT PUSH2 0x269 JUMPI PUSH2 0x100 DUP1 DUP4 SLOAD DIV MUL DUP4 MSTORE SWAP2 PUSH1 0x20 ADD SWAP2 PUSH2 0x294 JUMP JUMPDEST DUP3 ADD SWAP2 SWAP1 PUSH1 0x0 MSTORE PUSH1 0x20 PUSH1 0x0 KECCAK256 SWAP1 JUMPDEST DUP2 SLOAD DUP2 MSTORE SWAP1 PUSH1 0x1 ADD SWAP1 PUSH1 0x20 ADD DUP1 DUP4 GT PUSH2 0x277 JUMPI DUP3 SWAP1 SUB PUSH1 0x1F AND DUP3 ADD SWAP2 JUMPDEST POP POP POP POP POP SWAP1 POP DUP3 JUMP JUMPDEST PUSH1 0x4 PUSH1 0x0 SWAP1 SLOAD SWAP1 PUSH2 0x100 EXP SWAP1 DIV PUSH1 0xFF AND DUP2 JUMP JUMPDEST PUSH1 0x5 DUP1 SLOAD PUSH2 0x2BE SWAP1 PUSH2 0x5AA JUMP JUMPDEST DUP1 PUSH1 0x1F ADD PUSH1 0x20 DUP1 SWAP2 DIV MUL PUSH1 0x20 ADD PUSH1 0x40 MLOAD SWAP1 DUP2 ADD PUSH1 0x40 MSTORE DUP1 SWAP3 SWAP2 SWAP1 DUP2 DUP2 MSTORE PUSH1 0x20 ADD DUP3 DUP1 SLOAD PUSH2 0x2EA SWAP1 PUSH2 0x5AA JUMP JUMPDEST DUP1 ISZERO PUSH2 0x337 JUMPI DUP1 PUSH1 0x1F LT PUSH2 0x30C JUMPI PUSH2 0x100 DUP1 DUP4 SLOAD DIV MUL DUP4 MSTORE SWAP2 PUSH1 0x20 ADD SWAP2 PUSH2 0x337 JUMP JUMPDEST DUP3 ADD SWAP2 SWAP1 PUSH1 0x0 MSTORE PUSH1 0x20 PUSH1 0x0 KECCAK256 SWAP1 JUMPDEST DUP2 SLOAD DUP2 MSTORE SWAP1 PUSH1 0x1 ADD SWAP1 PUSH1 0x20 ADD DUP1 DUP4 GT PUSH2 0x31A JUMPI DUP3 SWAP1 SUB PUSH1 0x1F AND DUP3 ADD SWAP2 JUMPDEST POP POP POP POP POP DUP2 JUMP JUMPDEST PUSH1 0x1 PUSH1 0x0 SWAP1 SLOAD SWAP1 PUSH2 0x100 EXP SWAP1 DIV PUSH1 0x0 SIGNEXTEND DUP2 JUMP JUMPDEST PUSH1 0x3 SLOAD DUP2 JUMP JUMPDEST PUSH1 0x0 SLOAD DUP2 JUMP JUMPDEST PUSH1 0x6 SLOAD DUP2 JUMP JUMPDEST PUSH1 0x2 SLOAD DUP2 JUMP JUMPDEST PUSH2 0x373 DUP2 PUSH2 0x50D JUMP JUMPDEST DUP3 MSTORE POP POP JUMP JUMPDEST PUSH2 0x382 DUP2 PUSH2 0x51F JUMP JUMPDEST DUP3 MSTORE POP POP JUMP JUMPDEST PUSH2 0x391 DUP2 PUSH2 0x529 JUMP JUMPDEST DUP3 MSTORE POP POP JUMP JUMPDEST PUSH2 0x3A0 DUP2 PUSH2 0x533 JUMP JUMPDEST DUP3 MSTORE POP POP JUMP JUMPDEST PUSH1 0x0 PUSH2 0x3B1 DUP3 PUSH2 0x4F1 JUMP JUMPDEST PUSH2 0x3BB DUP2 DUP6 PUSH2 0x4FC JUMP JUMPDEST SWAP4 POP PUSH2 0x3CB DUP2 DUP6 PUSH1 0x20 DUP7 ADD PUSH2 0x577 JUMP JUMPDEST PUSH2 0x3D4 DUP2 PUSH2 0x60B JUMP JUMPDEST DUP5 ADD SWAP2 POP POP SWAP3 SWAP2 POP POP JUMP JUMPDEST PUSH2 0x3E8 DUP2 PUSH2 0x560 JUMP JUMPDEST DUP3 MSTORE POP POP JUMP JUMPDEST PUSH2 0x3F7 DUP2 PUSH2 0x56A JUMP JUMPDEST DUP3 MSTORE POP POP JUMP JUMPDEST PUSH1 0x0 PUSH1 0x20 DUP3 ADD SWAP1 POP PUSH2 0x412 PUSH1 0x0 DUP4 ADD DUP5 PUSH2 0x36A JUMP JUMPDEST SWAP3 SWAP2 POP POP JUMP JUMPDEST PUSH1 0x0 PUSH1 0x20 DUP3 ADD SWAP1 POP PUSH2 0x42D PUSH1 0x0 DUP4 ADD DUP5 PUSH2 0x379 JUMP JUMPDEST SWAP3 SWAP2 POP POP JUMP JUMPDEST PUSH1 0x0 PUSH1 0x20 DUP3 ADD SWAP1 POP PUSH2 0x448 PUSH1 0x0 DUP4 ADD DUP5 PUSH2 0x388 JUMP JUMPDEST SWAP3 SWAP2 POP POP JUMP JUMPDEST PUSH1 0x0 PUSH1 0x20 DUP3 ADD SWAP1 POP PUSH2 0x463 PUSH1 0x0 DUP4 ADD DUP5 PUSH2 0x397 JUMP JUMPDEST SWAP3 SWAP2 POP POP JUMP JUMPDEST PUSH1 0x0 PUSH1 0x20 DUP3 ADD SWAP1 POP DUP2 DUP2 SUB PUSH1 0x0 DUP4 ADD MSTORE PUSH2 0x483 DUP2 DUP5 PUSH2 0x3A6 JUMP JUMPDEST SWAP1 POP SWAP3 SWAP2 POP POP JUMP JUMPDEST PUSH1 0x0 PUSH1 0x20 DUP3 ADD SWAP1 POP PUSH2 0x4A0 PUSH1 0x0 DUP4 ADD DUP5 PUSH2 0x3DF JUMP JUMPDEST SWAP3 SWAP2 POP POP JUMP JUMPDEST PUSH1 0x0 PUSH1 0x40 DUP3 ADD SWAP1 POP PUSH2 0x4BB PUSH1 0x0 DUP4 ADD DUP6 PUSH2 0x3DF JUMP JUMPDEST DUP2 DUP2 SUB PUSH1 0x20 DUP4 ADD MSTORE PUSH2 0x4CD DUP2 DUP5 PUSH2 0x3A6 JUMP JUMPDEST SWAP1 POP SWAP4 SWAP3 POP POP POP JUMP JUMPDEST PUSH1 0x0 PUSH1 0x20 DUP3 ADD SWAP1 POP PUSH2 0x4EB PUSH1 0x0 DUP4 ADD DUP5 PUSH2 0x3EE JUMP JUMPDEST SWAP3 SWAP2 POP POP JUMP JUMPDEST PUSH1 0x0 DUP2 MLOAD SWAP1 POP SWAP2 SWAP1 POP JUMP JUMPDEST PUSH1 0x0 DUP3 DUP3 MSTORE PUSH1 0x20 DUP3 ADD SWAP1 POP SWAP3 SWAP2 POP POP JUMP JUMPDEST PUSH1 0x0 PUSH2 0x518 DUP3 PUSH2 0x540 JUMP JUMPDEST SWAP1 POP SWAP2 SWAP1 POP JUMP JUMPDEST PUSH1 0x0 DUP2 SWAP1 POP SWAP2 SWAP1 POP JUMP JUMPDEST PUSH1 0x0 DUP2 SWAP1 POP SWAP2 SWAP1 POP JUMP JUMPDEST PUSH1 0x0 DUP2 PUSH1 0x0 SIGNEXTEND SWAP1 POP SWAP2 SWAP1 POP JUMP JUMPDEST PUSH1 0x0 PUSH20 0xFFFFFFFFFFFFFFFFFFFFFFFFFFFFFFFFFFFFFFFF DUP3 AND SWAP1 POP SWAP2 SWAP1 POP JUMP JUMPDEST PUSH1 0x0 DUP2 SWAP1 POP SWAP2 SWAP1 POP JUMP JUMPDEST PUSH1 0x0 PUSH1 0xFF DUP3 AND SWAP1 POP SWAP2 SWAP1 POP JUMP JUMPDEST PUSH1 0x0 JUMPDEST DUP4 DUP2 LT ISZERO PUSH2 0x595 JUMPI DUP1 DUP3 ADD MLOAD DUP2 DUP5 ADD MSTORE PUSH1 0x20 DUP2 ADD SWAP1 POP PUSH2 0x57A JUMP JUMPDEST DUP4 DUP2 GT ISZERO PUSH2 0x5A4 JUMPI PUSH1 0x0 DUP5 DUP5 ADD MSTORE JUMPDEST POP POP POP POP JUMP JUMPDEST PUSH1 0x0 PUSH1 0x2 DUP3 DIV SWAP1 POP PUSH1 0x1 DUP3 AND DUP1 PUSH2 0x5C2 JUMPI PUSH1 0x7F DUP3 AND SWAP2 POP JUMPDEST PUSH1 0x20 DUP3 LT DUP2 EQ ISZERO PUSH2 0x5D6 JUMPI PUSH2 0x5D5 PUSH2 0x5DC JUMP JUMPDEST JUMPDEST POP SWAP2 SWAP1 POP JUMP JUMPDEST PUSH32 0x4E487B7100000000000000000000000000000000000000000000000000000000 PUSH1 0x0 MSTORE PUSH1 0x22 PUSH1 0x4 MSTORE PUSH1 0x24 PUSH1 0x0 REVERT JUMPDEST PUSH1 0x0 PUSH1 0x1F NOT PUSH1 0x1F DUP4 ADD AND SWAP1 POP SWAP2 SWAP1 POP JUMP INVALID LOG2 PUSH5 0x6970667358 0x22 SLT KECCAK256 SWAP10 0xC7 0xB1 0x5F 0xE6 SWAP9 XOR DUP3 0xF7 0xAB 0xA8 PUSH8 0xD8B5730D4082F1A EQ SGT 0x4B PUSH13 0x7B26EB5DAC2EE81564736F6C63 NUMBER STOP ADDMOD SMOD STOP CALLER "
				},
				"gasEstimates": {
					"creation": {
						"codeDepositCost": "323600",
						"executionCost": "infinite",
						"totalCost": "infinite"
					},
					"external": {
						"MyUnit()": "2517",
						"abc()": "2473",
						"abc8()": "2475",
						"getValue()": "351",
						"my8bit()": "2538",
						"myAddress()": "2537",
						"myByteArray()": "2495",
						"myString()": "infinite",
						"myStructVariable()": "infinite",
						"myUnint256()": "2451"
					}
				},
				"methodIdentifiers": {
					"MyUnit()": "ff643c92",
					"abc()": "92277933",
					"abc8()": "562d7f35",
					"getValue()": "20965255",
					"my8bit()": "45838889",
					"myAddress()": "26b85ee1",
					"myByteArray()": "b992b6db",
					"myString()": "492bfa18",
					"myStructVariable()": "285568b7",
					"myUnint256()": "563566a1"
				}
			},
			"storageLayout": {
				"storage": [
					{
						"astId": 4,
						"contract": "contracts/MyContract.sol:MyContract",
						"label": "abc",
						"offset": 0,
						"slot": "0",
						"type": "t_int256"
					},
					{
						"astId": 7,
						"contract": "contracts/MyContract.sol:MyContract",
						"label": "abc8",
						"offset": 0,
						"slot": "1",
						"type": "t_int8"
					},
					{
						"astId": 10,
						"contract": "contracts/MyContract.sol:MyContract",
						"label": "MyUnit",
						"offset": 0,
						"slot": "2",
						"type": "t_uint256"
					},
					{
						"astId": 13,
						"contract": "contracts/MyContract.sol:MyContract",
						"label": "myUnint256",
						"offset": 0,
						"slot": "3",
						"type": "t_uint256"
					},
					{
						"astId": 16,
						"contract": "contracts/MyContract.sol:MyContract",
						"label": "my8bit",
						"offset": 0,
						"slot": "4",
						"type": "t_uint8"
					},
					{
						"astId": 19,
						"contract": "contracts/MyContract.sol:MyContract",
						"label": "myString",
						"offset": 0,
						"slot": "5",
						"type": "t_string_storage"
					},
					{
						"astId": 22,
						"contract": "contracts/MyContract.sol:MyContract",
						"label": "myByteArray",
						"offset": 0,
						"slot": "6",
						"type": "t_bytes32"
					},
					{
						"astId": 25,
						"contract": "contracts/MyContract.sol:MyContract",
						"label": "myAddress",
						"offset": 0,
						"slot": "7",
						"type": "t_address"
					},
					{
						"astId": 37,
						"contract": "contracts/MyContract.sol:MyContract",
						"label": "myStructVariable",
						"offset": 0,
						"slot": "8",
						"type": "t_struct(myStruct)30_storage"
					}
				],
				"types": {
					"t_address": {
						"encoding": "inplace",
						"label": "address",
						"numberOfBytes": "20"
					},
					"t_bytes32": {
						"encoding": "inplace",
						"label": "bytes32",
						"numberOfBytes": "32"
					},
					"t_int256": {
						"encoding": "inplace",
						"label": "int256",
						"numberOfBytes": "32"
					},
					"t_int8": {
						"encoding": "inplace",
						"label": "int8",
						"numberOfBytes": "1"
					},
					"t_string_storage": {
						"encoding": "bytes",
						"label": "string",
						"numberOfBytes": "32"
					},
					"t_struct(myStruct)30_storage": {
						"encoding": "inplace",
						"label": "struct MyContract.myStruct",
						"members": [
							{
								"astId": 27,
								"contract": "contracts/MyContract.sol:MyContract",
								"label": "id",
								"offset": 0,
								"slot": "0",
								"type": "t_uint256"
							},
							{
								"astId": 29,
								"contract": "contracts/MyContract.sol:MyContract",
								"label": "mystring",
								"offset": 0,
								"slot": "1",
								"type": "t_string_storage"
							}
						],
						"numberOfBytes": "64"
					},
					"t_uint256": {
						"encoding": "inplace",
						"label": "uint256",
						"numberOfBytes": "32"
					},
					"t_uint8": {
						"encoding": "inplace",
						"label": "uint8",
						"numberOfBytes": "1"
					}
				}
			},
			"userdoc": {
				"kind": "user",
				"methods": {},
				"version": 1
			}
		}
	}
}