{
	"contracts/StillLearningPart2.sol": {
		"NewContract": {
			"abi": [
				{
					"inputs": [
						{
							"internalType": "string",
							"name": "_secret",
							"type": "string"
						}
					],
					"stateMutability": "nonpayable",
					"type": "constructor"
				},
				{
					"inputs": [],
					"name": "getSecret",
					"outputs": [
						{
							"internalType": "string",
							"name": "",
							"type": "string"
						}
					],
					"stateMutability": "view",
					"type": "function"
				}
			],
			"devdoc": {
				"kind": "dev",
				"methods": {},
				"version": 1
			},
			"evm": {
				"assembly": "    /* \"contracts/StillLearningPart2.sol\":508:1085  contract NewContract is Ownable{\r... */\n  mstore(0x40, 0x80)\n    /* \"contracts/StillLearningPart2.sol\":693:860  constructor(string memory _secret) {\r... */\n  callvalue\n  dup1\n  iszero\n  tag_1\n  jumpi\n  0x00\n  dup1\n  revert\ntag_1:\n  pop\n  mload(0x40)\n  sub(codesize, bytecodeSize)\n  dup1\n  bytecodeSize\n  dup4\n  codecopy\n  dup2\n  dup2\n  add\n  0x40\n  mstore\n  dup2\n  add\n  swap1\n  tag_2\n  swap2\n  swap1\n  tag_3\n  jump\t// in\ntag_2:\n    /* \"contracts/StillLearningPart2.sol\":263:273  msg.sender */\n  caller\n    /* \"contracts/StillLearningPart2.sol\":255:260  owner */\n  0x00\n  dup1\n    /* \"contracts/StillLearningPart2.sol\":255:273  owner = msg.sender */\n  0x0100\n  exp\n  dup2\n  sload\n  dup2\n  0xffffffffffffffffffffffffffffffffffffffff\n  mul\n  not\n  and\n  swap1\n  dup4\n  0xffffffffffffffffffffffffffffffffffffffff\n  and\n  mul\n  or\n  swap1\n  sstore\n  pop\n    /* \"contracts/StillLearningPart2.sol\":739:763  SecretVault _secretVault */\n  0x00\n    /* \"contracts/StillLearningPart2.sol\":782:789  _secret */\n  dup2\n    /* \"contracts/StillLearningPart2.sol\":766:790  new SecretVault(_secret) */\n  mload(0x40)\n  tag_8\n  swap1\n  tag_9\n  jump\t// in\ntag_8:\n  tag_10\n  swap2\n  swap1\n  tag_11\n  jump\t// in\ntag_10:\n  mload(0x40)\n  dup1\n  swap2\n  sub\n  swap1\n  0x00\n  create\n  dup1\n  iszero\n  dup1\n  iszero\n  tag_12\n  jumpi\n  returndatasize\n  0x00\n  dup1\n  returndatacopy\n  revert(0x00, returndatasize)\ntag_12:\n  pop\n    /* \"contracts/StillLearningPart2.sol\":739:790  SecretVault _secretVault = new SecretVault(_secret) */\n  swap1\n  pop\n    /* \"contracts/StillLearningPart2.sol\":823:835  _secretVault */\n  dup1\n    /* \"contracts/StillLearningPart2.sol\":801:812  secretVault */\n  0x01\n  0x00\n    /* \"contracts/StillLearningPart2.sol\":801:836  secretVault = address(_secretVault) */\n  0x0100\n  exp\n  dup2\n  sload\n  dup2\n  0xffffffffffffffffffffffffffffffffffffffff\n  mul\n  not\n  and\n  swap1\n  dup4\n  0xffffffffffffffffffffffffffffffffffffffff\n  and\n  mul\n  or\n  swap1\n  sstore\n  pop\n    /* \"contracts/StillLearningPart2.sol\":728:860  {\r... */\n  pop\n    /* \"contracts/StillLearningPart2.sol\":693:860  constructor(string memory _secret) {\r... */\n  pop\n    /* \"contracts/StillLearningPart2.sol\":508:1085  contract NewContract is Ownable{\r... */\n  jump(tag_13)\ntag_9:\n  dataSize(sub_1)\n  dup1\n  dataOffset(sub_1)\n  dup4\n  codecopy\n  add\n  swap1\n  jump\t// out\n    /* \"#utility.yul\":7:428   */\ntag_15:\n    /* \"#utility.yul\":96:101   */\n  0x00\n    /* \"#utility.yul\":121:187   */\n  tag_17\n    /* \"#utility.yul\":137:186   */\n  tag_18\n    /* \"#utility.yul\":179:185   */\n  dup5\n    /* \"#utility.yul\":137:186   */\n  tag_19\n  jump\t// in\ntag_18:\n    /* \"#utility.yul\":121:187   */\n  tag_20\n  jump\t// in\ntag_17:\n    /* \"#utility.yul\":112:187   */\n  swap1\n  pop\n    /* \"#utility.yul\":210:216   */\n  dup3\n    /* \"#utility.yul\":203:208   */\n  dup2\n    /* \"#utility.yul\":196:217   */\n  mstore\n    /* \"#utility.yul\":248:252   */\n  0x20\n    /* \"#utility.yul\":241:246   */\n  dup2\n    /* \"#utility.yul\":237:253   */\n  add\n    /* \"#utility.yul\":286:289   */\n  dup5\n    /* \"#utility.yul\":277:283   */\n  dup5\n    /* \"#utility.yul\":272:275   */\n  dup5\n    /* \"#utility.yul\":268:284   */\n  add\n    /* \"#utility.yul\":265:290   */\n  gt\n    /* \"#utility.yul\":262:374   */\n  iszero\n  tag_21\n  jumpi\n    /* \"#utility.yul\":293:372   */\n  tag_22\n  tag_23\n  jump\t// in\ntag_22:\n    /* \"#utility.yul\":262:374   */\ntag_21:\n    /* \"#utility.yul\":383:422   */\n  tag_24\n    /* \"#utility.yul\":415:421   */\n  dup5\n    /* \"#utility.yul\":410:413   */\n  dup3\n    /* \"#utility.yul\":405:408   */\n  dup6\n    /* \"#utility.yul\":383:422   */\n  tag_25\n  jump\t// in\ntag_24:\n    /* \"#utility.yul\":102:428   */\n  pop\n    /* \"#utility.yul\":7:428   */\n  swap4\n  swap3\n  pop\n  pop\n  pop\n  jump\t// out\n    /* \"#utility.yul\":448:803   */\ntag_26:\n    /* \"#utility.yul\":515:520   */\n  0x00\n    /* \"#utility.yul\":564:567   */\n  dup3\n    /* \"#utility.yul\":557:561   */\n  0x1f\n    /* \"#utility.yul\":549:555   */\n  dup4\n    /* \"#utility.yul\":545:562   */\n  add\n    /* \"#utility.yul\":541:568   */\n  slt\n    /* \"#utility.yul\":531:653   */\n  tag_28\n  jumpi\n    /* \"#utility.yul\":572:651   */\n  tag_29\n  tag_30\n  jump\t// in\ntag_29:\n    /* \"#utility.yul\":531:653   */\ntag_28:\n    /* \"#utility.yul\":682:688   */\n  dup2\n    /* \"#utility.yul\":676:689   */\n  mload\n    /* \"#utility.yul\":707:797   */\n  tag_31\n    /* \"#utility.yul\":793:796   */\n  dup5\n    /* \"#utility.yul\":785:791   */\n  dup3\n    /* \"#utility.yul\":778:782   */\n  0x20\n    /* \"#utility.yul\":770:776   */\n  dup7\n    /* \"#utility.yul\":766:783   */\n  add\n    /* \"#utility.yul\":707:797   */\n  tag_15\n  jump\t// in\ntag_31:\n    /* \"#utility.yul\":698:797   */\n  swap2\n  pop\n    /* \"#utility.yul\":521:803   */\n  pop\n    /* \"#utility.yul\":448:803   */\n  swap3\n  swap2\n  pop\n  pop\n  jump\t// out\n    /* \"#utility.yul\":809:1333   */\ntag_3:\n    /* \"#utility.yul\":889:895   */\n  0x00\n    /* \"#utility.yul\":938:940   */\n  0x20\n    /* \"#utility.yul\":926:935   */\n  dup3\n    /* \"#utility.yul\":917:924   */\n  dup5\n    /* \"#utility.yul\":913:936   */\n  sub\n    /* \"#utility.yul\":909:941   */\n  slt\n    /* \"#utility.yul\":906:1025   */\n  iszero\n  tag_33\n  jumpi\n    /* \"#utility.yul\":944:1023   */\n  tag_34\n  tag_35\n  jump\t// in\ntag_34:\n    /* \"#utility.yul\":906:1025   */\ntag_33:\n    /* \"#utility.yul\":1085:1086   */\n  0x00\n    /* \"#utility.yul\":1074:1083   */\n  dup3\n    /* \"#utility.yul\":1070:1087   */\n  add\n    /* \"#utility.yul\":1064:1088   */\n  mload\n    /* \"#utility.yul\":1115:1133   */\n  0xffffffffffffffff\n    /* \"#utility.yul\":1107:1113   */\n  dup2\n    /* \"#utility.yul\":1104:1134   */\n  gt\n    /* \"#utility.yul\":1101:1218   */\n  iszero\n  tag_36\n  jumpi\n    /* \"#utility.yul\":1137:1216   */\n  tag_37\n  tag_38\n  jump\t// in\ntag_37:\n    /* \"#utility.yul\":1101:1218   */\ntag_36:\n    /* \"#utility.yul\":1242:1316   */\n  tag_39\n    /* \"#utility.yul\":1308:1315   */\n  dup5\n    /* \"#utility.yul\":1299:1305   */\n  dup3\n    /* \"#utility.yul\":1288:1297   */\n  dup6\n    /* \"#utility.yul\":1284:1306   */\n  add\n    /* \"#utility.yul\":1242:1316   */\n  tag_26\n  jump\t// in\ntag_39:\n    /* \"#utility.yul\":1232:1316   */\n  swap2\n  pop\n    /* \"#utility.yul\":1035:1326   */\n  pop\n    /* \"#utility.yul\":809:1333   */\n  swap3\n  swap2\n  pop\n  pop\n  jump\t// out\n    /* \"#utility.yul\":1339:1703   */\ntag_40:\n    /* \"#utility.yul\":1427:1430   */\n  0x00\n    /* \"#utility.yul\":1455:1494   */\n  tag_42\n    /* \"#utility.yul\":1488:1493   */\n  dup3\n    /* \"#utility.yul\":1455:1494   */\n  tag_43\n  jump\t// in\ntag_42:\n    /* \"#utility.yul\":1510:1581   */\n  tag_44\n    /* \"#utility.yul\":1574:1580   */\n  dup2\n    /* \"#utility.yul\":1569:1572   */\n  dup6\n    /* \"#utility.yul\":1510:1581   */\n  tag_45\n  jump\t// in\ntag_44:\n    /* \"#utility.yul\":1503:1581   */\n  swap4\n  pop\n    /* \"#utility.yul\":1590:1642   */\n  tag_46\n    /* \"#utility.yul\":1635:1641   */\n  dup2\n    /* \"#utility.yul\":1630:1633   */\n  dup6\n    /* \"#utility.yul\":1623:1627   */\n  0x20\n    /* \"#utility.yul\":1616:1621   */\n  dup7\n    /* \"#utility.yul\":1612:1628   */\n  add\n    /* \"#utility.yul\":1590:1642   */\n  tag_25\n  jump\t// in\ntag_46:\n    /* \"#utility.yul\":1667:1696   */\n  tag_47\n    /* \"#utility.yul\":1689:1695   */\n  dup2\n    /* \"#utility.yul\":1667:1696   */\n  tag_48\n  jump\t// in\ntag_47:\n    /* \"#utility.yul\":1662:1665   */\n  dup5\n    /* \"#utility.yul\":1658:1697   */\n  add\n    /* \"#utility.yul\":1651:1697   */\n  swap2\n  pop\n    /* \"#utility.yul\":1431:1703   */\n  pop\n    /* \"#utility.yul\":1339:1703   */\n  swap3\n  swap2\n  pop\n  pop\n  jump\t// out\n    /* \"#utility.yul\":1709:2022   */\ntag_11:\n    /* \"#utility.yul\":1822:1826   */\n  0x00\n    /* \"#utility.yul\":1860:1862   */\n  0x20\n    /* \"#utility.yul\":1849:1858   */\n  dup3\n    /* \"#utility.yul\":1845:1863   */\n  add\n    /* \"#utility.yul\":1837:1863   */\n  swap1\n  pop\n    /* \"#utility.yul\":1909:1918   */\n  dup2\n    /* \"#utility.yul\":1903:1907   */\n  dup2\n    /* \"#utility.yul\":1899:1919   */\n  sub\n    /* \"#utility.yul\":1895:1896   */\n  0x00\n    /* \"#utility.yul\":1884:1893   */\n  dup4\n    /* \"#utility.yul\":1880:1897   */\n  add\n    /* \"#utility.yul\":1873:1920   */\n  mstore\n    /* \"#utility.yul\":1937:2015   */\n  tag_50\n    /* \"#utility.yul\":2010:2014   */\n  dup2\n    /* \"#utility.yul\":2001:2007   */\n  dup5\n    /* \"#utility.yul\":1937:2015   */\n  tag_40\n  jump\t// in\ntag_50:\n    /* \"#utility.yul\":1929:2015   */\n  swap1\n  pop\n    /* \"#utility.yul\":1709:2022   */\n  swap3\n  swap2\n  pop\n  pop\n  jump\t// out\n    /* \"#utility.yul\":2028:2157   */\ntag_20:\n    /* \"#utility.yul\":2062:2068   */\n  0x00\n    /* \"#utility.yul\":2089:2109   */\n  tag_52\n  tag_53\n  jump\t// in\ntag_52:\n    /* \"#utility.yul\":2079:2109   */\n  swap1\n  pop\n    /* \"#utility.yul\":2118:2151   */\n  tag_54\n    /* \"#utility.yul\":2146:2150   */\n  dup3\n    /* \"#utility.yul\":2138:2144   */\n  dup3\n    /* \"#utility.yul\":2118:2151   */\n  tag_55\n  jump\t// in\ntag_54:\n    /* \"#utility.yul\":2028:2157   */\n  swap2\n  swap1\n  pop\n  jump\t// out\n    /* \"#utility.yul\":2163:2238   */\ntag_53:\n    /* \"#utility.yul\":2196:2202   */\n  0x00\n    /* \"#utility.yul\":2229:2231   */\n  0x40\n    /* \"#utility.yul\":2223:2232   */\n  mload\n    /* \"#utility.yul\":2213:2232   */\n  swap1\n  pop\n    /* \"#utility.yul\":2163:2238   */\n  swap1\n  jump\t// out\n    /* \"#utility.yul\":2244:2552   */\ntag_19:\n    /* \"#utility.yul\":2306:2310   */\n  0x00\n    /* \"#utility.yul\":2396:2414   */\n  0xffffffffffffffff\n    /* \"#utility.yul\":2388:2394   */\n  dup3\n    /* \"#utility.yul\":2385:2415   */\n  gt\n    /* \"#utility.yul\":2382:2438   */\n  iszero\n  tag_58\n  jumpi\n    /* \"#utility.yul\":2418:2436   */\n  tag_59\n  tag_60\n  jump\t// in\ntag_59:\n    /* \"#utility.yul\":2382:2438   */\ntag_58:\n    /* \"#utility.yul\":2456:2485   */\n  tag_61\n    /* \"#utility.yul\":2478:2484   */\n  dup3\n    /* \"#utility.yul\":2456:2485   */\n  tag_48\n  jump\t// in\ntag_61:\n    /* \"#utility.yul\":2448:2485   */\n  swap1\n  pop\n    /* \"#utility.yul\":2540:2544   */\n  0x20\n    /* \"#utility.yul\":2534:2538   */\n  dup2\n    /* \"#utility.yul\":2530:2545   */\n  add\n    /* \"#utility.yul\":2522:2545   */\n  swap1\n  pop\n    /* \"#utility.yul\":2244:2552   */\n  swap2\n  swap1\n  pop\n  jump\t// out\n    /* \"#utility.yul\":2558:2657   */\ntag_43:\n    /* \"#utility.yul\":2610:2616   */\n  0x00\n    /* \"#utility.yul\":2644:2649   */\n  dup2\n    /* \"#utility.yul\":2638:2650   */\n  mload\n    /* \"#utility.yul\":2628:2650   */\n  swap1\n  pop\n    /* \"#utility.yul\":2558:2657   */\n  swap2\n  swap1\n  pop\n  jump\t// out\n    /* \"#utility.yul\":2663:2832   */\ntag_45:\n    /* \"#utility.yul\":2747:2758   */\n  0x00\n    /* \"#utility.yul\":2781:2787   */\n  dup3\n    /* \"#utility.yul\":2776:2779   */\n  dup3\n    /* \"#utility.yul\":2769:2788   */\n  mstore\n    /* \"#utility.yul\":2821:2825   */\n  0x20\n    /* \"#utility.yul\":2816:2819   */\n  dup3\n    /* \"#utility.yul\":2812:2826   */\n  add\n    /* \"#utility.yul\":2797:2826   */\n  swap1\n  pop\n    /* \"#utility.yul\":2663:2832   */\n  swap3\n  swap2\n  pop\n  pop\n  jump\t// out\n    /* \"#utility.yul\":2838:3145   */\ntag_25:\n    /* \"#utility.yul\":2906:2907   */\n  0x00\n    /* \"#utility.yul\":2916:3029   */\ntag_65:\n    /* \"#utility.yul\":2930:2936   */\n  dup4\n    /* \"#utility.yul\":2927:2928   */\n  dup2\n    /* \"#utility.yul\":2924:2937   */\n  lt\n    /* \"#utility.yul\":2916:3029   */\n  iszero\n  tag_67\n  jumpi\n    /* \"#utility.yul\":3015:3016   */\n  dup1\n    /* \"#utility.yul\":3010:3013   */\n  dup3\n    /* \"#utility.yul\":3006:3017   */\n  add\n    /* \"#utility.yul\":3000:3018   */\n  mload\n    /* \"#utility.yul\":2996:2997   */\n  dup2\n    /* \"#utility.yul\":2991:2994   */\n  dup5\n    /* \"#utility.yul\":2987:2998   */\n  add\n    /* \"#utility.yul\":2980:3019   */\n  mstore\n    /* \"#utility.yul\":2952:2954   */\n  0x20\n    /* \"#utility.yul\":2949:2950   */\n  dup2\n    /* \"#utility.yul\":2945:2955   */\n  add\n    /* \"#utility.yul\":2940:2955   */\n  swap1\n  pop\n    /* \"#utility.yul\":2916:3029   */\n  jump(tag_65)\ntag_67:\n    /* \"#utility.yul\":3047:3053   */\n  dup4\n    /* \"#utility.yul\":3044:3045   */\n  dup2\n    /* \"#utility.yul\":3041:3054   */\n  gt\n    /* \"#utility.yul\":3038:3139   */\n  iszero\n  tag_68\n  jumpi\n    /* \"#utility.yul\":3127:3128   */\n  0x00\n    /* \"#utility.yul\":3118:3124   */\n  dup5\n    /* \"#utility.yul\":3113:3116   */\n  dup5\n    /* \"#utility.yul\":3109:3125   */\n  add\n    /* \"#utility.yul\":3102:3129   */\n  mstore\n    /* \"#utility.yul\":3038:3139   */\ntag_68:\n    /* \"#utility.yul\":2887:3145   */\n  pop\n    /* \"#utility.yul\":2838:3145   */\n  pop\n  pop\n  pop\n  jump\t// out\n    /* \"#utility.yul\":3151:3432   */\ntag_55:\n    /* \"#utility.yul\":3234:3261   */\n  tag_70\n    /* \"#utility.yul\":3256:3260   */\n  dup3\n    /* \"#utility.yul\":3234:3261   */\n  tag_48\n  jump\t// in\ntag_70:\n    /* \"#utility.yul\":3226:3232   */\n  dup2\n    /* \"#utility.yul\":3222:3262   */\n  add\n    /* \"#utility.yul\":3364:3370   */\n  dup2\n    /* \"#utility.yul\":3352:3362   */\n  dup2\n    /* \"#utility.yul\":3349:3371   */\n  lt\n    /* \"#utility.yul\":3328:3346   */\n  0xffffffffffffffff\n    /* \"#utility.yul\":3316:3326   */\n  dup3\n    /* \"#utility.yul\":3313:3347   */\n  gt\n    /* \"#utility.yul\":3310:3372   */\n  or\n    /* \"#utility.yul\":3307:3395   */\n  iszero\n  tag_71\n  jumpi\n    /* \"#utility.yul\":3375:3393   */\n  tag_72\n  tag_60\n  jump\t// in\ntag_72:\n    /* \"#utility.yul\":3307:3395   */\ntag_71:\n    /* \"#utility.yul\":3415:3425   */\n  dup1\n    /* \"#utility.yul\":3411:3413   */\n  0x40\n    /* \"#utility.yul\":3404:3426   */\n  mstore\n    /* \"#utility.yul\":3194:3432   */\n  pop\n    /* \"#utility.yul\":3151:3432   */\n  pop\n  pop\n  jump\t// out\n    /* \"#utility.yul\":3438:3618   */\ntag_60:\n    /* \"#utility.yul\":3486:3563   */\n  0x4e487b7100000000000000000000000000000000000000000000000000000000\n    /* \"#utility.yul\":3483:3484   */\n  0x00\n    /* \"#utility.yul\":3476:3564   */\n  mstore\n    /* \"#utility.yul\":3583:3587   */\n  0x41\n    /* \"#utility.yul\":3580:3581   */\n  0x04\n    /* \"#utility.yul\":3573:3588   */\n  mstore\n    /* \"#utility.yul\":3607:3611   */\n  0x24\n    /* \"#utility.yul\":3604:3605   */\n  0x00\n    /* \"#utility.yul\":3597:3612   */\n  revert\n    /* \"#utility.yul\":3624:3741   */\ntag_30:\n    /* \"#utility.yul\":3733:3734   */\n  0x00\n    /* \"#utility.yul\":3730:3731   */\n  dup1\n    /* \"#utility.yul\":3723:3735   */\n  revert\n    /* \"#utility.yul\":3747:3864   */\ntag_23:\n    /* \"#utility.yul\":3856:3857   */\n  0x00\n    /* \"#utility.yul\":3853:3854   */\n  dup1\n    /* \"#utility.yul\":3846:3858   */\n  revert\n    /* \"#utility.yul\":3870:3987   */\ntag_38:\n    /* \"#utility.yul\":3979:3980   */\n  0x00\n    /* \"#utility.yul\":3976:3977   */\n  dup1\n    /* \"#utility.yul\":3969:3981   */\n  revert\n    /* \"#utility.yul\":3993:4110   */\ntag_35:\n    /* \"#utility.yul\":4102:4103   */\n  0x00\n    /* \"#utility.yul\":4099:4100   */\n  dup1\n    /* \"#utility.yul\":4092:4104   */\n  revert\n    /* \"#utility.yul\":4116:4218   */\ntag_48:\n    /* \"#utility.yul\":4157:4163   */\n  0x00\n    /* \"#utility.yul\":4208:4210   */\n  0x1f\n    /* \"#utility.yul\":4204:4211   */\n  not\n    /* \"#utility.yul\":4199:4201   */\n  0x1f\n    /* \"#utility.yul\":4192:4197   */\n  dup4\n    /* \"#utility.yul\":4188:4202   */\n  add\n    /* \"#utility.yul\":4184:4212   */\n  and\n    /* \"#utility.yul\":4174:4212   */\n  swap1\n  pop\n    /* \"#utility.yul\":4116:4218   */\n  swap2\n  swap1\n  pop\n  jump\t// out\n    /* \"contracts/StillLearningPart2.sol\":508:1085  contract NewContract is Ownable{\r... */\ntag_13:\n  dataSize(sub_0)\n  dup1\n  dataOffset(sub_0)\n  0x00\n  codecopy\n  0x00\n  return\nstop\n\nsub_0: assembly {\n        /* \"contracts/StillLearningPart2.sol\":508:1085  contract NewContract is Ownable{\r... */\n      mstore(0x40, 0x80)\n      callvalue\n      dup1\n      iszero\n      tag_1\n      jumpi\n      0x00\n      dup1\n      revert\n    tag_1:\n      pop\n      jumpi(tag_2, lt(calldatasize, 0x04))\n      shr(0xe0, calldataload(0x00))\n      dup1\n      0x5b9fdc30\n      eq\n      tag_3\n      jumpi\n    tag_2:\n      0x00\n      dup1\n      revert\n        /* \"contracts/StillLearningPart2.sol\":869:1082  function getSecret() public view onlyOwner returns (string memory){\r... */\n    tag_3:\n      tag_4\n      tag_5\n      jump\t// in\n    tag_4:\n      mload(0x40)\n      tag_6\n      swap2\n      swap1\n      tag_7\n      jump\t// in\n    tag_6:\n      mload(0x40)\n      dup1\n      swap2\n      sub\n      swap1\n      return\n    tag_5:\n        /* \"contracts/StillLearningPart2.sol\":921:934  string memory */\n      0x60\n        /* \"contracts/StillLearningPart2.sol\":158:163  owner */\n      0x00\n      dup1\n      sload\n      swap1\n      0x0100\n      exp\n      swap1\n      div\n      0xffffffffffffffffffffffffffffffffffffffff\n      and\n        /* \"contracts/StillLearningPart2.sol\":144:163  msg.sender == owner */\n      0xffffffffffffffffffffffffffffffffffffffff\n      and\n        /* \"contracts/StillLearningPart2.sol\":144:154  msg.sender */\n      caller\n        /* \"contracts/StillLearningPart2.sol\":144:163  msg.sender == owner */\n      0xffffffffffffffffffffffffffffffffffffffff\n      and\n      eq\n        /* \"contracts/StillLearningPart2.sol\":136:192  require(msg.sender == owner,\"Attention You r not owner\") */\n      tag_9\n      jumpi\n      mload(0x40)\n      0x08c379a000000000000000000000000000000000000000000000000000000000\n      dup2\n      mstore\n      0x04\n      add\n      tag_10\n      swap1\n      tag_11\n      jump\t// in\n    tag_10:\n      mload(0x40)\n      dup1\n      swap2\n      sub\n      swap1\n      revert\n    tag_9:\n        /* \"contracts/StillLearningPart2.sol\":965:976  secretVault */\n      0x01\n      0x00\n      swap1\n      sload\n      swap1\n      0x0100\n      exp\n      swap1\n      div\n      0xffffffffffffffffffffffffffffffffffffffff\n      and\n        /* \"contracts/StillLearningPart2.sol\":953:987  SecretVault(secretVault).getSecret */\n      0xffffffffffffffffffffffffffffffffffffffff\n      and\n      0x5b9fdc30\n        /* \"contracts/StillLearningPart2.sol\":953:989  SecretVault(secretVault).getSecret() */\n      mload(0x40)\n      dup2\n      0xffffffff\n      and\n      0xe0\n      shl\n      dup2\n      mstore\n      0x04\n      add\n      0x00\n      mload(0x40)\n      dup1\n      dup4\n      sub\n      dup2\n      dup7\n      dup1\n      extcodesize\n      iszero\n      dup1\n      iszero\n      tag_13\n      jumpi\n      0x00\n      dup1\n      revert\n    tag_13:\n      pop\n      gas\n      staticcall\n      iszero\n      dup1\n      iszero\n      tag_15\n      jumpi\n      returndatasize\n      0x00\n      dup1\n      returndatacopy\n      revert(0x00, returndatasize)\n    tag_15:\n      pop\n      pop\n      pop\n      pop\n      mload(0x40)\n      returndatasize\n      0x00\n      dup3\n      returndatacopy\n      returndatasize\n      not(0x1f)\n      0x1f\n      dup3\n      add\n      and\n      dup3\n      add\n      dup1\n      0x40\n      mstore\n      pop\n      dup2\n      add\n      swap1\n      tag_16\n      swap2\n      swap1\n      tag_17\n      jump\t// in\n    tag_16:\n        /* \"contracts/StillLearningPart2.sol\":946:989  return SecretVault(secretVault).getSecret() */\n      swap1\n      pop\n        /* \"contracts/StillLearningPart2.sol\":869:1082  function getSecret() public view onlyOwner returns (string memory){\r... */\n      swap1\n      jump\t// out\n        /* \"#utility.yul\":7:428   */\n    tag_19:\n        /* \"#utility.yul\":96:101   */\n      0x00\n        /* \"#utility.yul\":121:187   */\n      tag_21\n        /* \"#utility.yul\":137:186   */\n      tag_22\n        /* \"#utility.yul\":179:185   */\n      dup5\n        /* \"#utility.yul\":137:186   */\n      tag_23\n      jump\t// in\n    tag_22:\n        /* \"#utility.yul\":121:187   */\n      tag_24\n      jump\t// in\n    tag_21:\n        /* \"#utility.yul\":112:187   */\n      swap1\n      pop\n        /* \"#utility.yul\":210:216   */\n      dup3\n        /* \"#utility.yul\":203:208   */\n      dup2\n        /* \"#utility.yul\":196:217   */\n      mstore\n        /* \"#utility.yul\":248:252   */\n      0x20\n        /* \"#utility.yul\":241:246   */\n      dup2\n        /* \"#utility.yul\":237:253   */\n      add\n        /* \"#utility.yul\":286:289   */\n      dup5\n        /* \"#utility.yul\":277:283   */\n      dup5\n        /* \"#utility.yul\":272:275   */\n      dup5\n        /* \"#utility.yul\":268:284   */\n      add\n        /* \"#utility.yul\":265:290   */\n      gt\n        /* \"#utility.yul\":262:374   */\n      iszero\n      tag_25\n      jumpi\n        /* \"#utility.yul\":293:372   */\n      tag_26\n      tag_27\n      jump\t// in\n    tag_26:\n        /* \"#utility.yul\":262:374   */\n    tag_25:\n        /* \"#utility.yul\":383:422   */\n      tag_28\n        /* \"#utility.yul\":415:421   */\n      dup5\n        /* \"#utility.yul\":410:413   */\n      dup3\n        /* \"#utility.yul\":405:408   */\n      dup6\n        /* \"#utility.yul\":383:422   */\n      tag_29\n      jump\t// in\n    tag_28:\n        /* \"#utility.yul\":102:428   */\n      pop\n        /* \"#utility.yul\":7:428   */\n      swap4\n      swap3\n      pop\n      pop\n      pop\n      jump\t// out\n        /* \"#utility.yul\":448:803   */\n    tag_30:\n        /* \"#utility.yul\":515:520   */\n      0x00\n        /* \"#utility.yul\":564:567   */\n      dup3\n        /* \"#utility.yul\":557:561   */\n      0x1f\n        /* \"#utility.yul\":549:555   */\n      dup4\n        /* \"#utility.yul\":545:562   */\n      add\n        /* \"#utility.yul\":541:568   */\n      slt\n        /* \"#utility.yul\":531:653   */\n      tag_32\n      jumpi\n        /* \"#utility.yul\":572:651   */\n      tag_33\n      tag_34\n      jump\t// in\n    tag_33:\n        /* \"#utility.yul\":531:653   */\n    tag_32:\n        /* \"#utility.yul\":682:688   */\n      dup2\n        /* \"#utility.yul\":676:689   */\n      mload\n        /* \"#utility.yul\":707:797   */\n      tag_35\n        /* \"#utility.yul\":793:796   */\n      dup5\n        /* \"#utility.yul\":785:791   */\n      dup3\n        /* \"#utility.yul\":778:782   */\n      0x20\n        /* \"#utility.yul\":770:776   */\n      dup7\n        /* \"#utility.yul\":766:783   */\n      add\n        /* \"#utility.yul\":707:797   */\n      tag_19\n      jump\t// in\n    tag_35:\n        /* \"#utility.yul\":698:797   */\n      swap2\n      pop\n        /* \"#utility.yul\":521:803   */\n      pop\n        /* \"#utility.yul\":448:803   */\n      swap3\n      swap2\n      pop\n      pop\n      jump\t// out\n        /* \"#utility.yul\":809:1333   */\n    tag_17:\n        /* \"#utility.yul\":889:895   */\n      0x00\n        /* \"#utility.yul\":938:940   */\n      0x20\n        /* \"#utility.yul\":926:935   */\n      dup3\n        /* \"#utility.yul\":917:924   */\n      dup5\n        /* \"#utility.yul\":913:936   */\n      sub\n        /* \"#utility.yul\":909:941   */\n      slt\n        /* \"#utility.yul\":906:1025   */\n      iszero\n      tag_37\n      jumpi\n        /* \"#utility.yul\":944:1023   */\n      tag_38\n      tag_39\n      jump\t// in\n    tag_38:\n        /* \"#utility.yul\":906:1025   */\n    tag_37:\n        /* \"#utility.yul\":1085:1086   */\n      0x00\n        /* \"#utility.yul\":1074:1083   */\n      dup3\n        /* \"#utility.yul\":1070:1087   */\n      add\n        /* \"#utility.yul\":1064:1088   */\n      mload\n        /* \"#utility.yul\":1115:1133   */\n      0xffffffffffffffff\n        /* \"#utility.yul\":1107:1113   */\n      dup2\n        /* \"#utility.yul\":1104:1134   */\n      gt\n        /* \"#utility.yul\":1101:1218   */\n      iszero\n      tag_40\n      jumpi\n        /* \"#utility.yul\":1137:1216   */\n      tag_41\n      tag_42\n      jump\t// in\n    tag_41:\n        /* \"#utility.yul\":1101:1218   */\n    tag_40:\n        /* \"#utility.yul\":1242:1316   */\n      tag_43\n        /* \"#utility.yul\":1308:1315   */\n      dup5\n        /* \"#utility.yul\":1299:1305   */\n      dup3\n        /* \"#utility.yul\":1288:1297   */\n      dup6\n        /* \"#utility.yul\":1284:1306   */\n      add\n        /* \"#utility.yul\":1242:1316   */\n      tag_30\n      jump\t// in\n    tag_43:\n        /* \"#utility.yul\":1232:1316   */\n      swap2\n      pop\n        /* \"#utility.yul\":1035:1326   */\n      pop\n        /* \"#utility.yul\":809:1333   */\n      swap3\n      swap2\n      pop\n      pop\n      jump\t// out\n        /* \"#utility.yul\":1339:1703   */\n    tag_44:\n        /* \"#utility.yul\":1427:1430   */\n      0x00\n        /* \"#utility.yul\":1455:1494   */\n      tag_46\n        /* \"#utility.yul\":1488:1493   */\n      dup3\n        /* \"#utility.yul\":1455:1494   */\n      tag_47\n      jump\t// in\n    tag_46:\n        /* \"#utility.yul\":1510:1581   */\n      tag_48\n        /* \"#utility.yul\":1574:1580   */\n      dup2\n        /* \"#utility.yul\":1569:1572   */\n      dup6\n        /* \"#utility.yul\":1510:1581   */\n      tag_49\n      jump\t// in\n    tag_48:\n        /* \"#utility.yul\":1503:1581   */\n      swap4\n      pop\n        /* \"#utility.yul\":1590:1642   */\n      tag_50\n        /* \"#utility.yul\":1635:1641   */\n      dup2\n        /* \"#utility.yul\":1630:1633   */\n      dup6\n        /* \"#utility.yul\":1623:1627   */\n      0x20\n        /* \"#utility.yul\":1616:1621   */\n      dup7\n        /* \"#utility.yul\":1612:1628   */\n      add\n        /* \"#utility.yul\":1590:1642   */\n      tag_29\n      jump\t// in\n    tag_50:\n        /* \"#utility.yul\":1667:1696   */\n      tag_51\n        /* \"#utility.yul\":1689:1695   */\n      dup2\n        /* \"#utility.yul\":1667:1696   */\n      tag_52\n      jump\t// in\n    tag_51:\n        /* \"#utility.yul\":1662:1665   */\n      dup5\n        /* \"#utility.yul\":1658:1697   */\n      add\n        /* \"#utility.yul\":1651:1697   */\n      swap2\n      pop\n        /* \"#utility.yul\":1431:1703   */\n      pop\n        /* \"#utility.yul\":1339:1703   */\n      swap3\n      swap2\n      pop\n      pop\n      jump\t// out\n        /* \"#utility.yul\":1709:2075   */\n    tag_53:\n        /* \"#utility.yul\":1851:1854   */\n      0x00\n        /* \"#utility.yul\":1872:1939   */\n      tag_55\n        /* \"#utility.yul\":1936:1938   */\n      0x19\n        /* \"#utility.yul\":1931:1934   */\n      dup4\n        /* \"#utility.yul\":1872:1939   */\n      tag_49\n      jump\t// in\n    tag_55:\n        /* \"#utility.yul\":1865:1939   */\n      swap2\n      pop\n        /* \"#utility.yul\":1948:2041   */\n      tag_56\n        /* \"#utility.yul\":2037:2040   */\n      dup3\n        /* \"#utility.yul\":1948:2041   */\n      tag_57\n      jump\t// in\n    tag_56:\n        /* \"#utility.yul\":2066:2068   */\n      0x20\n        /* \"#utility.yul\":2061:2064   */\n      dup3\n        /* \"#utility.yul\":2057:2069   */\n      add\n        /* \"#utility.yul\":2050:2069   */\n      swap1\n      pop\n        /* \"#utility.yul\":1709:2075   */\n      swap2\n      swap1\n      pop\n      jump\t// out\n        /* \"#utility.yul\":2081:2394   */\n    tag_7:\n        /* \"#utility.yul\":2194:2198   */\n      0x00\n        /* \"#utility.yul\":2232:2234   */\n      0x20\n        /* \"#utility.yul\":2221:2230   */\n      dup3\n        /* \"#utility.yul\":2217:2235   */\n      add\n        /* \"#utility.yul\":2209:2235   */\n      swap1\n      pop\n        /* \"#utility.yul\":2281:2290   */\n      dup2\n        /* \"#utility.yul\":2275:2279   */\n      dup2\n        /* \"#utility.yul\":2271:2291   */\n      sub\n        /* \"#utility.yul\":2267:2268   */\n      0x00\n        /* \"#utility.yul\":2256:2265   */\n      dup4\n        /* \"#utility.yul\":2252:2269   */\n      add\n        /* \"#utility.yul\":2245:2292   */\n      mstore\n        /* \"#utility.yul\":2309:2387   */\n      tag_59\n        /* \"#utility.yul\":2382:2386   */\n      dup2\n        /* \"#utility.yul\":2373:2379   */\n      dup5\n        /* \"#utility.yul\":2309:2387   */\n      tag_44\n      jump\t// in\n    tag_59:\n        /* \"#utility.yul\":2301:2387   */\n      swap1\n      pop\n        /* \"#utility.yul\":2081:2394   */\n      swap3\n      swap2\n      pop\n      pop\n      jump\t// out\n        /* \"#utility.yul\":2400:2819   */\n    tag_11:\n        /* \"#utility.yul\":2566:2570   */\n      0x00\n        /* \"#utility.yul\":2604:2606   */\n      0x20\n        /* \"#utility.yul\":2593:2602   */\n      dup3\n        /* \"#utility.yul\":2589:2607   */\n      add\n        /* \"#utility.yul\":2581:2607   */\n      swap1\n      pop\n        /* \"#utility.yul\":2653:2662   */\n      dup2\n        /* \"#utility.yul\":2647:2651   */\n      dup2\n        /* \"#utility.yul\":2643:2663   */\n      sub\n        /* \"#utility.yul\":2639:2640   */\n      0x00\n        /* \"#utility.yul\":2628:2637   */\n      dup4\n        /* \"#utility.yul\":2624:2641   */\n      add\n        /* \"#utility.yul\":2617:2664   */\n      mstore\n        /* \"#utility.yul\":2681:2812   */\n      tag_61\n        /* \"#utility.yul\":2807:2811   */\n      dup2\n        /* \"#utility.yul\":2681:2812   */\n      tag_53\n      jump\t// in\n    tag_61:\n        /* \"#utility.yul\":2673:2812   */\n      swap1\n      pop\n        /* \"#utility.yul\":2400:2819   */\n      swap2\n      swap1\n      pop\n      jump\t// out\n        /* \"#utility.yul\":2825:2954   */\n    tag_24:\n        /* \"#utility.yul\":2859:2865   */\n      0x00\n        /* \"#utility.yul\":2886:2906   */\n      tag_63\n      tag_64\n      jump\t// in\n    tag_63:\n        /* \"#utility.yul\":2876:2906   */\n      swap1\n      pop\n        /* \"#utility.yul\":2915:2948   */\n      tag_65\n        /* \"#utility.yul\":2943:2947   */\n      dup3\n        /* \"#utility.yul\":2935:2941   */\n      dup3\n        /* \"#utility.yul\":2915:2948   */\n      tag_66\n      jump\t// in\n    tag_65:\n        /* \"#utility.yul\":2825:2954   */\n      swap2\n      swap1\n      pop\n      jump\t// out\n        /* \"#utility.yul\":2960:3035   */\n    tag_64:\n        /* \"#utility.yul\":2993:2999   */\n      0x00\n        /* \"#utility.yul\":3026:3028   */\n      0x40\n        /* \"#utility.yul\":3020:3029   */\n      mload\n        /* \"#utility.yul\":3010:3029   */\n      swap1\n      pop\n        /* \"#utility.yul\":2960:3035   */\n      swap1\n      jump\t// out\n        /* \"#utility.yul\":3041:3349   */\n    tag_23:\n        /* \"#utility.yul\":3103:3107   */\n      0x00\n        /* \"#utility.yul\":3193:3211   */\n      0xffffffffffffffff\n        /* \"#utility.yul\":3185:3191   */\n      dup3\n        /* \"#utility.yul\":3182:3212   */\n      gt\n        /* \"#utility.yul\":3179:3235   */\n      iszero\n      tag_69\n      jumpi\n        /* \"#utility.yul\":3215:3233   */\n      tag_70\n      tag_71\n      jump\t// in\n    tag_70:\n        /* \"#utility.yul\":3179:3235   */\n    tag_69:\n        /* \"#utility.yul\":3253:3282   */\n      tag_72\n        /* \"#utility.yul\":3275:3281   */\n      dup3\n        /* \"#utility.yul\":3253:3282   */\n      tag_52\n      jump\t// in\n    tag_72:\n        /* \"#utility.yul\":3245:3282   */\n      swap1\n      pop\n        /* \"#utility.yul\":3337:3341   */\n      0x20\n        /* \"#utility.yul\":3331:3335   */\n      dup2\n        /* \"#utility.yul\":3327:3342   */\n      add\n        /* \"#utility.yul\":3319:3342   */\n      swap1\n      pop\n        /* \"#utility.yul\":3041:3349   */\n      swap2\n      swap1\n      pop\n      jump\t// out\n        /* \"#utility.yul\":3355:3454   */\n    tag_47:\n        /* \"#utility.yul\":3407:3413   */\n      0x00\n        /* \"#utility.yul\":3441:3446   */\n      dup2\n        /* \"#utility.yul\":3435:3447   */\n      mload\n        /* \"#utility.yul\":3425:3447   */\n      swap1\n      pop\n        /* \"#utility.yul\":3355:3454   */\n      swap2\n      swap1\n      pop\n      jump\t// out\n        /* \"#utility.yul\":3460:3629   */\n    tag_49:\n        /* \"#utility.yul\":3544:3555   */\n      0x00\n        /* \"#utility.yul\":3578:3584   */\n      dup3\n        /* \"#utility.yul\":3573:3576   */\n      dup3\n        /* \"#utility.yul\":3566:3585   */\n      mstore\n        /* \"#utility.yul\":3618:3622   */\n      0x20\n        /* \"#utility.yul\":3613:3616   */\n      dup3\n        /* \"#utility.yul\":3609:3623   */\n      add\n        /* \"#utility.yul\":3594:3623   */\n      swap1\n      pop\n        /* \"#utility.yul\":3460:3629   */\n      swap3\n      swap2\n      pop\n      pop\n      jump\t// out\n        /* \"#utility.yul\":3635:3942   */\n    tag_29:\n        /* \"#utility.yul\":3703:3704   */\n      0x00\n        /* \"#utility.yul\":3713:3826   */\n    tag_76:\n        /* \"#utility.yul\":3727:3733   */\n      dup4\n        /* \"#utility.yul\":3724:3725   */\n      dup2\n        /* \"#utility.yul\":3721:3734   */\n      lt\n        /* \"#utility.yul\":3713:3826   */\n      iszero\n      tag_78\n      jumpi\n        /* \"#utility.yul\":3812:3813   */\n      dup1\n        /* \"#utility.yul\":3807:3810   */\n      dup3\n        /* \"#utility.yul\":3803:3814   */\n      add\n        /* \"#utility.yul\":3797:3815   */\n      mload\n        /* \"#utility.yul\":3793:3794   */\n      dup2\n        /* \"#utility.yul\":3788:3791   */\n      dup5\n        /* \"#utility.yul\":3784:3795   */\n      add\n        /* \"#utility.yul\":3777:3816   */\n      mstore\n        /* \"#utility.yul\":3749:3751   */\n      0x20\n        /* \"#utility.yul\":3746:3747   */\n      dup2\n        /* \"#utility.yul\":3742:3752   */\n      add\n        /* \"#utility.yul\":3737:3752   */\n      swap1\n      pop\n        /* \"#utility.yul\":3713:3826   */\n      jump(tag_76)\n    tag_78:\n        /* \"#utility.yul\":3844:3850   */\n      dup4\n        /* \"#utility.yul\":3841:3842   */\n      dup2\n        /* \"#utility.yul\":3838:3851   */\n      gt\n        /* \"#utility.yul\":3835:3936   */\n      iszero\n      tag_79\n      jumpi\n        /* \"#utility.yul\":3924:3925   */\n      0x00\n        /* \"#utility.yul\":3915:3921   */\n      dup5\n        /* \"#utility.yul\":3910:3913   */\n      dup5\n        /* \"#utility.yul\":3906:3922   */\n      add\n        /* \"#utility.yul\":3899:3926   */\n      mstore\n        /* \"#utility.yul\":3835:3936   */\n    tag_79:\n        /* \"#utility.yul\":3684:3942   */\n      pop\n        /* \"#utility.yul\":3635:3942   */\n      pop\n      pop\n      pop\n      jump\t// out\n        /* \"#utility.yul\":3948:4229   */\n    tag_66:\n        /* \"#utility.yul\":4031:4058   */\n      tag_81\n        /* \"#utility.yul\":4053:4057   */\n      dup3\n        /* \"#utility.yul\":4031:4058   */\n      tag_52\n      jump\t// in\n    tag_81:\n        /* \"#utility.yul\":4023:4029   */\n      dup2\n        /* \"#utility.yul\":4019:4059   */\n      add\n        /* \"#utility.yul\":4161:4167   */\n      dup2\n        /* \"#utility.yul\":4149:4159   */\n      dup2\n        /* \"#utility.yul\":4146:4168   */\n      lt\n        /* \"#utility.yul\":4125:4143   */\n      0xffffffffffffffff\n        /* \"#utility.yul\":4113:4123   */\n      dup3\n        /* \"#utility.yul\":4110:4144   */\n      gt\n        /* \"#utility.yul\":4107:4169   */\n      or\n        /* \"#utility.yul\":4104:4192   */\n      iszero\n      tag_82\n      jumpi\n        /* \"#utility.yul\":4172:4190   */\n      tag_83\n      tag_71\n      jump\t// in\n    tag_83:\n        /* \"#utility.yul\":4104:4192   */\n    tag_82:\n        /* \"#utility.yul\":4212:4222   */\n      dup1\n        /* \"#utility.yul\":4208:4210   */\n      0x40\n        /* \"#utility.yul\":4201:4223   */\n      mstore\n        /* \"#utility.yul\":3991:4229   */\n      pop\n        /* \"#utility.yul\":3948:4229   */\n      pop\n      pop\n      jump\t// out\n        /* \"#utility.yul\":4235:4415   */\n    tag_71:\n        /* \"#utility.yul\":4283:4360   */\n      0x4e487b7100000000000000000000000000000000000000000000000000000000\n        /* \"#utility.yul\":4280:4281   */\n      0x00\n        /* \"#utility.yul\":4273:4361   */\n      mstore\n        /* \"#utility.yul\":4380:4384   */\n      0x41\n        /* \"#utility.yul\":4377:4378   */\n      0x04\n        /* \"#utility.yul\":4370:4385   */\n      mstore\n        /* \"#utility.yul\":4404:4408   */\n      0x24\n        /* \"#utility.yul\":4401:4402   */\n      0x00\n        /* \"#utility.yul\":4394:4409   */\n      revert\n        /* \"#utility.yul\":4421:4538   */\n    tag_34:\n        /* \"#utility.yul\":4530:4531   */\n      0x00\n        /* \"#utility.yul\":4527:4528   */\n      dup1\n        /* \"#utility.yul\":4520:4532   */\n      revert\n        /* \"#utility.yul\":4544:4661   */\n    tag_27:\n        /* \"#utility.yul\":4653:4654   */\n      0x00\n        /* \"#utility.yul\":4650:4651   */\n      dup1\n        /* \"#utility.yul\":4643:4655   */\n      revert\n        /* \"#utility.yul\":4667:4784   */\n    tag_42:\n        /* \"#utility.yul\":4776:4777   */\n      0x00\n        /* \"#utility.yul\":4773:4774   */\n      dup1\n        /* \"#utility.yul\":4766:4778   */\n      revert\n        /* \"#utility.yul\":4790:4907   */\n    tag_39:\n        /* \"#utility.yul\":4899:4900   */\n      0x00\n        /* \"#utility.yul\":4896:4897   */\n      dup1\n        /* \"#utility.yul\":4889:4901   */\n      revert\n        /* \"#utility.yul\":4913:5015   */\n    tag_52:\n        /* \"#utility.yul\":4954:4960   */\n      0x00\n        /* \"#utility.yul\":5005:5007   */\n      0x1f\n        /* \"#utility.yul\":5001:5008   */\n      not\n        /* \"#utility.yul\":4996:4998   */\n      0x1f\n        /* \"#utility.yul\":4989:4994   */\n      dup4\n        /* \"#utility.yul\":4985:4999   */\n      add\n        /* \"#utility.yul\":4981:5009   */\n      and\n        /* \"#utility.yul\":4971:5009   */\n      swap1\n      pop\n        /* \"#utility.yul\":4913:5015   */\n      swap2\n      swap1\n      pop\n      jump\t// out\n        /* \"#utility.yul\":5021:5196   */\n    tag_57:\n        /* \"#utility.yul\":5161:5188   */\n      0x417474656e74696f6e20596f752072206e6f74206f776e657200000000000000\n        /* \"#utility.yul\":5157:5158   */\n      0x00\n        /* \"#utility.yul\":5149:5155   */\n      dup3\n        /* \"#utility.yul\":5145:5159   */\n      add\n        /* \"#utility.yul\":5138:5189   */\n      mstore\n        /* \"#utility.yul\":5021:5196   */\n      pop\n      jump\t// out\n\n    auxdata: 0xa2646970667358221220eb65a5a710731ecc5b0206697a0018f6f23f5b896eafdd15ab22c5c5e84acd6b64736f6c63430008070033\n}\n\nsub_1: assembly {\n        /* \"contracts/StillLearningPart2.sol\":289:506  contract SecretVault{\r... */\n      mstore(0x40, 0x80)\n        /* \"contracts/StillLearningPart2.sol\":338:408  constructor(string memory _secret) {\r... */\n      callvalue\n      dup1\n      iszero\n      tag_1\n      jumpi\n      0x00\n      dup1\n      revert\n    tag_1:\n      pop\n      mload(0x40)\n      sub(codesize, bytecodeSize)\n      dup1\n      bytecodeSize\n      dup4\n      codecopy\n      dup2\n      dup2\n      add\n      0x40\n      mstore\n      dup2\n      add\n      swap1\n      tag_2\n      swap2\n      swap1\n      tag_3\n      jump\t// in\n    tag_2:\n        /* \"contracts/StillLearningPart2.sol\":393:400  _secret */\n      dup1\n        /* \"contracts/StillLearningPart2.sol\":384:390  secret */\n      0x00\n        /* \"contracts/StillLearningPart2.sol\":384:400  secret = _secret */\n      swap1\n      dup1\n      mload\n      swap1\n      0x20\n      add\n      swap1\n      tag_6\n      swap3\n      swap2\n      swap1\n      tag_7\n      jump\t// in\n    tag_6:\n      pop\n        /* \"contracts/StillLearningPart2.sol\":338:408  constructor(string memory _secret) {\r... */\n      pop\n        /* \"contracts/StillLearningPart2.sol\":289:506  contract SecretVault{\r... */\n      jump(tag_8)\n    tag_7:\n      dup3\n      dup1\n      sload\n      tag_9\n      swap1\n      tag_10\n      jump\t// in\n    tag_9:\n      swap1\n      0x00\n      mstore\n      keccak256(0x00, 0x20)\n      swap1\n      0x1f\n      add\n      0x20\n      swap1\n      div\n      dup2\n      add\n      swap3\n      dup3\n      tag_12\n      jumpi\n      0x00\n      dup6\n      sstore\n      jump(tag_11)\n    tag_12:\n      dup3\n      0x1f\n      lt\n      tag_13\n      jumpi\n      dup1\n      mload\n      not(0xff)\n      and\n      dup4\n      dup1\n      add\n      or\n      dup6\n      sstore\n      jump(tag_11)\n    tag_13:\n      dup3\n      dup1\n      add\n      0x01\n      add\n      dup6\n      sstore\n      dup3\n      iszero\n      tag_11\n      jumpi\n      swap2\n      dup3\n      add\n    tag_14:\n      dup3\n      dup2\n      gt\n      iszero\n      tag_15\n      jumpi\n      dup3\n      mload\n      dup3\n      sstore\n      swap2\n      0x20\n      add\n      swap2\n      swap1\n      0x01\n      add\n      swap1\n      jump(tag_14)\n    tag_15:\n    tag_11:\n      pop\n      swap1\n      pop\n      tag_16\n      swap2\n      swap1\n      tag_17\n      jump\t// in\n    tag_16:\n      pop\n      swap1\n      jump\t// out\n    tag_17:\n    tag_18:\n      dup1\n      dup3\n      gt\n      iszero\n      tag_19\n      jumpi\n      0x00\n      dup2\n      0x00\n      swap1\n      sstore\n      pop\n      0x01\n      add\n      jump(tag_18)\n    tag_19:\n      pop\n      swap1\n      jump\t// out\n        /* \"#utility.yul\":7:428   */\n    tag_21:\n        /* \"#utility.yul\":96:101   */\n      0x00\n        /* \"#utility.yul\":121:187   */\n      tag_23\n        /* \"#utility.yul\":137:186   */\n      tag_24\n        /* \"#utility.yul\":179:185   */\n      dup5\n        /* \"#utility.yul\":137:186   */\n      tag_25\n      jump\t// in\n    tag_24:\n        /* \"#utility.yul\":121:187   */\n      tag_26\n      jump\t// in\n    tag_23:\n        /* \"#utility.yul\":112:187   */\n      swap1\n      pop\n        /* \"#utility.yul\":210:216   */\n      dup3\n        /* \"#utility.yul\":203:208   */\n      dup2\n        /* \"#utility.yul\":196:217   */\n      mstore\n        /* \"#utility.yul\":248:252   */\n      0x20\n        /* \"#utility.yul\":241:246   */\n      dup2\n        /* \"#utility.yul\":237:253   */\n      add\n        /* \"#utility.yul\":286:289   */\n      dup5\n        /* \"#utility.yul\":277:283   */\n      dup5\n        /* \"#utility.yul\":272:275   */\n      dup5\n        /* \"#utility.yul\":268:284   */\n      add\n        /* \"#utility.yul\":265:290   */\n      gt\n        /* \"#utility.yul\":262:374   */\n      iszero\n      tag_27\n      jumpi\n        /* \"#utility.yul\":293:372   */\n      tag_28\n      tag_29\n      jump\t// in\n    tag_28:\n        /* \"#utility.yul\":262:374   */\n    tag_27:\n        /* \"#utility.yul\":383:422   */\n      tag_30\n        /* \"#utility.yul\":415:421   */\n      dup5\n        /* \"#utility.yul\":410:413   */\n      dup3\n        /* \"#utility.yul\":405:408   */\n      dup6\n        /* \"#utility.yul\":383:422   */\n      tag_31\n      jump\t// in\n    tag_30:\n        /* \"#utility.yul\":102:428   */\n      pop\n        /* \"#utility.yul\":7:428   */\n      swap4\n      swap3\n      pop\n      pop\n      pop\n      jump\t// out\n        /* \"#utility.yul\":448:803   */\n    tag_32:\n        /* \"#utility.yul\":515:520   */\n      0x00\n        /* \"#utility.yul\":564:567   */\n      dup3\n        /* \"#utility.yul\":557:561   */\n      0x1f\n        /* \"#utility.yul\":549:555   */\n      dup4\n        /* \"#utility.yul\":545:562   */\n      add\n        /* \"#utility.yul\":541:568   */\n      slt\n        /* \"#utility.yul\":531:653   */\n      tag_34\n      jumpi\n        /* \"#utility.yul\":572:651   */\n      tag_35\n      tag_36\n      jump\t// in\n    tag_35:\n        /* \"#utility.yul\":531:653   */\n    tag_34:\n        /* \"#utility.yul\":682:688   */\n      dup2\n        /* \"#utility.yul\":676:689   */\n      mload\n        /* \"#utility.yul\":707:797   */\n      tag_37\n        /* \"#utility.yul\":793:796   */\n      dup5\n        /* \"#utility.yul\":785:791   */\n      dup3\n        /* \"#utility.yul\":778:782   */\n      0x20\n        /* \"#utility.yul\":770:776   */\n      dup7\n        /* \"#utility.yul\":766:783   */\n      add\n        /* \"#utility.yul\":707:797   */\n      tag_21\n      jump\t// in\n    tag_37:\n        /* \"#utility.yul\":698:797   */\n      swap2\n      pop\n        /* \"#utility.yul\":521:803   */\n      pop\n        /* \"#utility.yul\":448:803   */\n      swap3\n      swap2\n      pop\n      pop\n      jump\t// out\n        /* \"#utility.yul\":809:1333   */\n    tag_3:\n        /* \"#utility.yul\":889:895   */\n      0x00\n        /* \"#utility.yul\":938:940   */\n      0x20\n        /* \"#utility.yul\":926:935   */\n      dup3\n        /* \"#utility.yul\":917:924   */\n      dup5\n        /* \"#utility.yul\":913:936   */\n      sub\n        /* \"#utility.yul\":909:941   */\n      slt\n        /* \"#utility.yul\":906:1025   */\n      iszero\n      tag_39\n      jumpi\n        /* \"#utility.yul\":944:1023   */\n      tag_40\n      tag_41\n      jump\t// in\n    tag_40:\n        /* \"#utility.yul\":906:1025   */\n    tag_39:\n        /* \"#utility.yul\":1085:1086   */\n      0x00\n        /* \"#utility.yul\":1074:1083   */\n      dup3\n        /* \"#utility.yul\":1070:1087   */\n      add\n        /* \"#utility.yul\":1064:1088   */\n      mload\n        /* \"#utility.yul\":1115:1133   */\n      0xffffffffffffffff\n        /* \"#utility.yul\":1107:1113   */\n      dup2\n        /* \"#utility.yul\":1104:1134   */\n      gt\n        /* \"#utility.yul\":1101:1218   */\n      iszero\n      tag_42\n      jumpi\n        /* \"#utility.yul\":1137:1216   */\n      tag_43\n      tag_44\n      jump\t// in\n    tag_43:\n        /* \"#utility.yul\":1101:1218   */\n    tag_42:\n        /* \"#utility.yul\":1242:1316   */\n      tag_45\n        /* \"#utility.yul\":1308:1315   */\n      dup5\n        /* \"#utility.yul\":1299:1305   */\n      dup3\n        /* \"#utility.yul\":1288:1297   */\n      dup6\n        /* \"#utility.yul\":1284:1306   */\n      add\n        /* \"#utility.yul\":1242:1316   */\n      tag_32\n      jump\t// in\n    tag_45:\n        /* \"#utility.yul\":1232:1316   */\n      swap2\n      pop\n        /* \"#utility.yul\":1035:1326   */\n      pop\n        /* \"#utility.yul\":809:1333   */\n      swap3\n      swap2\n      pop\n      pop\n      jump\t// out\n        /* \"#utility.yul\":1339:1468   */\n    tag_26:\n        /* \"#utility.yul\":1373:1379   */\n      0x00\n        /* \"#utility.yul\":1400:1420   */\n      tag_47\n      tag_48\n      jump\t// in\n    tag_47:\n        /* \"#utility.yul\":1390:1420   */\n      swap1\n      pop\n        /* \"#utility.yul\":1429:1462   */\n      tag_49\n        /* \"#utility.yul\":1457:1461   */\n      dup3\n        /* \"#utility.yul\":1449:1455   */\n      dup3\n        /* \"#utility.yul\":1429:1462   */\n      tag_50\n      jump\t// in\n    tag_49:\n        /* \"#utility.yul\":1339:1468   */\n      swap2\n      swap1\n      pop\n      jump\t// out\n        /* \"#utility.yul\":1474:1549   */\n    tag_48:\n        /* \"#utility.yul\":1507:1513   */\n      0x00\n        /* \"#utility.yul\":1540:1542   */\n      0x40\n        /* \"#utility.yul\":1534:1543   */\n      mload\n        /* \"#utility.yul\":1524:1543   */\n      swap1\n      pop\n        /* \"#utility.yul\":1474:1549   */\n      swap1\n      jump\t// out\n        /* \"#utility.yul\":1555:1863   */\n    tag_25:\n        /* \"#utility.yul\":1617:1621   */\n      0x00\n        /* \"#utility.yul\":1707:1725   */\n      0xffffffffffffffff\n        /* \"#utility.yul\":1699:1705   */\n      dup3\n        /* \"#utility.yul\":1696:1726   */\n      gt\n        /* \"#utility.yul\":1693:1749   */\n      iszero\n      tag_53\n      jumpi\n        /* \"#utility.yul\":1729:1747   */\n      tag_54\n      tag_55\n      jump\t// in\n    tag_54:\n        /* \"#utility.yul\":1693:1749   */\n    tag_53:\n        /* \"#utility.yul\":1767:1796   */\n      tag_56\n        /* \"#utility.yul\":1789:1795   */\n      dup3\n        /* \"#utility.yul\":1767:1796   */\n      tag_57\n      jump\t// in\n    tag_56:\n        /* \"#utility.yul\":1759:1796   */\n      swap1\n      pop\n        /* \"#utility.yul\":1851:1855   */\n      0x20\n        /* \"#utility.yul\":1845:1849   */\n      dup2\n        /* \"#utility.yul\":1841:1856   */\n      add\n        /* \"#utility.yul\":1833:1856   */\n      swap1\n      pop\n        /* \"#utility.yul\":1555:1863   */\n      swap2\n      swap1\n      pop\n      jump\t// out\n        /* \"#utility.yul\":1869:2176   */\n    tag_31:\n        /* \"#utility.yul\":1937:1938   */\n      0x00\n        /* \"#utility.yul\":1947:2060   */\n    tag_59:\n        /* \"#utility.yul\":1961:1967   */\n      dup4\n        /* \"#utility.yul\":1958:1959   */\n      dup2\n        /* \"#utility.yul\":1955:1968   */\n      lt\n        /* \"#utility.yul\":1947:2060   */\n      iszero\n      tag_61\n      jumpi\n        /* \"#utility.yul\":2046:2047   */\n      dup1\n        /* \"#utility.yul\":2041:2044   */\n      dup3\n        /* \"#utility.yul\":2037:2048   */\n      add\n        /* \"#utility.yul\":2031:2049   */\n      mload\n        /* \"#utility.yul\":2027:2028   */\n      dup2\n        /* \"#utility.yul\":2022:2025   */\n      dup5\n        /* \"#utility.yul\":2018:2029   */\n      add\n        /* \"#utility.yul\":2011:2050   */\n      mstore\n        /* \"#utility.yul\":1983:1985   */\n      0x20\n        /* \"#utility.yul\":1980:1981   */\n      dup2\n        /* \"#utility.yul\":1976:1986   */\n      add\n        /* \"#utility.yul\":1971:1986   */\n      swap1\n      pop\n        /* \"#utility.yul\":1947:2060   */\n      jump(tag_59)\n    tag_61:\n        /* \"#utility.yul\":2078:2084   */\n      dup4\n        /* \"#utility.yul\":2075:2076   */\n      dup2\n        /* \"#utility.yul\":2072:2085   */\n      gt\n        /* \"#utility.yul\":2069:2170   */\n      iszero\n      tag_62\n      jumpi\n        /* \"#utility.yul\":2158:2159   */\n      0x00\n        /* \"#utility.yul\":2149:2155   */\n      dup5\n        /* \"#utility.yul\":2144:2147   */\n      dup5\n        /* \"#utility.yul\":2140:2156   */\n      add\n        /* \"#utility.yul\":2133:2160   */\n      mstore\n        /* \"#utility.yul\":2069:2170   */\n    tag_62:\n        /* \"#utility.yul\":1918:2176   */\n      pop\n        /* \"#utility.yul\":1869:2176   */\n      pop\n      pop\n      pop\n      jump\t// out\n        /* \"#utility.yul\":2182:2502   */\n    tag_10:\n        /* \"#utility.yul\":2226:2232   */\n      0x00\n        /* \"#utility.yul\":2263:2264   */\n      0x02\n        /* \"#utility.yul\":2257:2261   */\n      dup3\n        /* \"#utility.yul\":2253:2265   */\n      div\n        /* \"#utility.yul\":2243:2265   */\n      swap1\n      pop\n        /* \"#utility.yul\":2310:2311   */\n      0x01\n        /* \"#utility.yul\":2304:2308   */\n      dup3\n        /* \"#utility.yul\":2300:2312   */\n      and\n        /* \"#utility.yul\":2331:2349   */\n      dup1\n        /* \"#utility.yul\":2321:2402   */\n      tag_64\n      jumpi\n        /* \"#utility.yul\":2387:2391   */\n      0x7f\n        /* \"#utility.yul\":2379:2385   */\n      dup3\n        /* \"#utility.yul\":2375:2392   */\n      and\n        /* \"#utility.yul\":2365:2392   */\n      swap2\n      pop\n        /* \"#utility.yul\":2321:2402   */\n    tag_64:\n        /* \"#utility.yul\":2449:2451   */\n      0x20\n        /* \"#utility.yul\":2441:2447   */\n      dup3\n        /* \"#utility.yul\":2438:2452   */\n      lt\n        /* \"#utility.yul\":2418:2436   */\n      dup2\n        /* \"#utility.yul\":2415:2453   */\n      eq\n        /* \"#utility.yul\":2412:2496   */\n      iszero\n      tag_65\n      jumpi\n        /* \"#utility.yul\":2468:2486   */\n      tag_66\n      tag_67\n      jump\t// in\n    tag_66:\n        /* \"#utility.yul\":2412:2496   */\n    tag_65:\n        /* \"#utility.yul\":2233:2502   */\n      pop\n        /* \"#utility.yul\":2182:2502   */\n      swap2\n      swap1\n      pop\n      jump\t// out\n        /* \"#utility.yul\":2508:2789   */\n    tag_50:\n        /* \"#utility.yul\":2591:2618   */\n      tag_69\n        /* \"#utility.yul\":2613:2617   */\n      dup3\n        /* \"#utility.yul\":2591:2618   */\n      tag_57\n      jump\t// in\n    tag_69:\n        /* \"#utility.yul\":2583:2589   */\n      dup2\n        /* \"#utility.yul\":2579:2619   */\n      add\n        /* \"#utility.yul\":2721:2727   */\n      dup2\n        /* \"#utility.yul\":2709:2719   */\n      dup2\n        /* \"#utility.yul\":2706:2728   */\n      lt\n        /* \"#utility.yul\":2685:2703   */\n      0xffffffffffffffff\n        /* \"#utility.yul\":2673:2683   */\n      dup3\n        /* \"#utility.yul\":2670:2704   */\n      gt\n        /* \"#utility.yul\":2667:2729   */\n      or\n        /* \"#utility.yul\":2664:2752   */\n      iszero\n      tag_70\n      jumpi\n        /* \"#utility.yul\":2732:2750   */\n      tag_71\n      tag_55\n      jump\t// in\n    tag_71:\n        /* \"#utility.yul\":2664:2752   */\n    tag_70:\n        /* \"#utility.yul\":2772:2782   */\n      dup1\n        /* \"#utility.yul\":2768:2770   */\n      0x40\n        /* \"#utility.yul\":2761:2783   */\n      mstore\n        /* \"#utility.yul\":2551:2789   */\n      pop\n        /* \"#utility.yul\":2508:2789   */\n      pop\n      pop\n      jump\t// out\n        /* \"#utility.yul\":2795:2975   */\n    tag_67:\n        /* \"#utility.yul\":2843:2920   */\n      0x4e487b7100000000000000000000000000000000000000000000000000000000\n        /* \"#utility.yul\":2840:2841   */\n      0x00\n        /* \"#utility.yul\":2833:2921   */\n      mstore\n        /* \"#utility.yul\":2940:2944   */\n      0x22\n        /* \"#utility.yul\":2937:2938   */\n      0x04\n        /* \"#utility.yul\":2930:2945   */\n      mstore\n        /* \"#utility.yul\":2964:2968   */\n      0x24\n        /* \"#utility.yul\":2961:2962   */\n      0x00\n        /* \"#utility.yul\":2954:2969   */\n      revert\n        /* \"#utility.yul\":2981:3161   */\n    tag_55:\n        /* \"#utility.yul\":3029:3106   */\n      0x4e487b7100000000000000000000000000000000000000000000000000000000\n        /* \"#utility.yul\":3026:3027   */\n      0x00\n        /* \"#utility.yul\":3019:3107   */\n      mstore\n        /* \"#utility.yul\":3126:3130   */\n      0x41\n        /* \"#utility.yul\":3123:3124   */\n      0x04\n        /* \"#utility.yul\":3116:3131   */\n      mstore\n        /* \"#utility.yul\":3150:3154   */\n      0x24\n        /* \"#utility.yul\":3147:3148   */\n      0x00\n        /* \"#utility.yul\":3140:3155   */\n      revert\n        /* \"#utility.yul\":3167:3284   */\n    tag_36:\n        /* \"#utility.yul\":3276:3277   */\n      0x00\n        /* \"#utility.yul\":3273:3274   */\n      dup1\n        /* \"#utility.yul\":3266:3278   */\n      revert\n        /* \"#utility.yul\":3290:3407   */\n    tag_29:\n        /* \"#utility.yul\":3399:3400   */\n      0x00\n        /* \"#utility.yul\":3396:3397   */\n      dup1\n        /* \"#utility.yul\":3389:3401   */\n      revert\n        /* \"#utility.yul\":3413:3530   */\n    tag_44:\n        /* \"#utility.yul\":3522:3523   */\n      0x00\n        /* \"#utility.yul\":3519:3520   */\n      dup1\n        /* \"#utility.yul\":3512:3524   */\n      revert\n        /* \"#utility.yul\":3536:3653   */\n    tag_41:\n        /* \"#utility.yul\":3645:3646   */\n      0x00\n        /* \"#utility.yul\":3642:3643   */\n      dup1\n        /* \"#utility.yul\":3635:3647   */\n      revert\n        /* \"#utility.yul\":3659:3761   */\n    tag_57:\n        /* \"#utility.yul\":3700:3706   */\n      0x00\n        /* \"#utility.yul\":3751:3753   */\n      0x1f\n        /* \"#utility.yul\":3747:3754   */\n      not\n        /* \"#utility.yul\":3742:3744   */\n      0x1f\n        /* \"#utility.yul\":3735:3740   */\n      dup4\n        /* \"#utility.yul\":3731:3745   */\n      add\n        /* \"#utility.yul\":3727:3755   */\n      and\n        /* \"#utility.yul\":3717:3755   */\n      swap1\n      pop\n        /* \"#utility.yul\":3659:3761   */\n      swap2\n      swap1\n      pop\n      jump\t// out\n        /* \"contracts/StillLearningPart2.sol\":289:506  contract SecretVault{\r... */\n    tag_8:\n      dataSize(sub_0)\n      dup1\n      dataOffset(sub_0)\n      0x00\n      codecopy\n      0x00\n      return\n    stop\n\n    sub_0: assembly {\n            /* \"contracts/StillLearningPart2.sol\":289:506  contract SecretVault{\r... */\n          mstore(0x40, 0x80)\n          callvalue\n          dup1\n          iszero\n          tag_1\n          jumpi\n          0x00\n          dup1\n          revert\n        tag_1:\n          pop\n          jumpi(tag_2, lt(calldatasize, 0x04))\n          shr(0xe0, calldataload(0x00))\n          dup1\n          0x5b9fdc30\n          eq\n          tag_3\n          jumpi\n        tag_2:\n          0x00\n          dup1\n          revert\n            /* \"contracts/StillLearningPart2.sol\":415:503  function getSecret() public view returns (string memory){\r... */\n        tag_3:\n          tag_4\n          tag_5\n          jump\t// in\n        tag_4:\n          mload(0x40)\n          tag_6\n          swap2\n          swap1\n          tag_7\n          jump\t// in\n        tag_6:\n          mload(0x40)\n          dup1\n          swap2\n          sub\n          swap1\n          return\n        tag_5:\n            /* \"contracts/StillLearningPart2.sol\":457:470  string memory */\n          0x60\n            /* \"contracts/StillLearningPart2.sol\":489:495  secret */\n          0x00\n            /* \"contracts/StillLearningPart2.sol\":482:495  return secret */\n          dup1\n          sload\n          tag_9\n          swap1\n          tag_10\n          jump\t// in\n        tag_9:\n          dup1\n          0x1f\n          add\n          0x20\n          dup1\n          swap2\n          div\n          mul\n          0x20\n          add\n          mload(0x40)\n          swap1\n          dup2\n          add\n          0x40\n          mstore\n          dup1\n          swap3\n          swap2\n          swap1\n          dup2\n          dup2\n          mstore\n          0x20\n          add\n          dup3\n          dup1\n          sload\n          tag_11\n          swap1\n          tag_10\n          jump\t// in\n        tag_11:\n          dup1\n          iszero\n          tag_12\n          jumpi\n          dup1\n          0x1f\n          lt\n          tag_13\n          jumpi\n          0x0100\n          dup1\n          dup4\n          sload\n          div\n          mul\n          dup4\n          mstore\n          swap2\n          0x20\n          add\n          swap2\n          jump(tag_12)\n        tag_13:\n          dup3\n          add\n          swap2\n          swap1\n          0x00\n          mstore\n          keccak256(0x00, 0x20)\n          swap1\n        tag_14:\n          dup2\n          sload\n          dup2\n          mstore\n          swap1\n          0x01\n          add\n          swap1\n          0x20\n          add\n          dup1\n          dup4\n          gt\n          tag_14\n          jumpi\n          dup3\n          swap1\n          sub\n          0x1f\n          and\n          dup3\n          add\n          swap2\n        tag_12:\n          pop\n          pop\n          pop\n          pop\n          pop\n          swap1\n          pop\n            /* \"contracts/StillLearningPart2.sol\":415:503  function getSecret() public view returns (string memory){\r... */\n          swap1\n          jump\t// out\n            /* \"#utility.yul\":7:371   */\n        tag_16:\n            /* \"#utility.yul\":95:98   */\n          0x00\n            /* \"#utility.yul\":123:162   */\n          tag_18\n            /* \"#utility.yul\":156:161   */\n          dup3\n            /* \"#utility.yul\":123:162   */\n          tag_19\n          jump\t// in\n        tag_18:\n            /* \"#utility.yul\":178:249   */\n          tag_20\n            /* \"#utility.yul\":242:248   */\n          dup2\n            /* \"#utility.yul\":237:240   */\n          dup6\n            /* \"#utility.yul\":178:249   */\n          tag_21\n          jump\t// in\n        tag_20:\n            /* \"#utility.yul\":171:249   */\n          swap4\n          pop\n            /* \"#utility.yul\":258:310   */\n          tag_22\n            /* \"#utility.yul\":303:309   */\n          dup2\n            /* \"#utility.yul\":298:301   */\n          dup6\n            /* \"#utility.yul\":291:295   */\n          0x20\n            /* \"#utility.yul\":284:289   */\n          dup7\n            /* \"#utility.yul\":280:296   */\n          add\n            /* \"#utility.yul\":258:310   */\n          tag_23\n          jump\t// in\n        tag_22:\n            /* \"#utility.yul\":335:364   */\n          tag_24\n            /* \"#utility.yul\":357:363   */\n          dup2\n            /* \"#utility.yul\":335:364   */\n          tag_25\n          jump\t// in\n        tag_24:\n            /* \"#utility.yul\":330:333   */\n          dup5\n            /* \"#utility.yul\":326:365   */\n          add\n            /* \"#utility.yul\":319:365   */\n          swap2\n          pop\n            /* \"#utility.yul\":99:371   */\n          pop\n            /* \"#utility.yul\":7:371   */\n          swap3\n          swap2\n          pop\n          pop\n          jump\t// out\n            /* \"#utility.yul\":377:690   */\n        tag_7:\n            /* \"#utility.yul\":490:494   */\n          0x00\n            /* \"#utility.yul\":528:530   */\n          0x20\n            /* \"#utility.yul\":517:526   */\n          dup3\n            /* \"#utility.yul\":513:531   */\n          add\n            /* \"#utility.yul\":505:531   */\n          swap1\n          pop\n            /* \"#utility.yul\":577:586   */\n          dup2\n            /* \"#utility.yul\":571:575   */\n          dup2\n            /* \"#utility.yul\":567:587   */\n          sub\n            /* \"#utility.yul\":563:564   */\n          0x00\n            /* \"#utility.yul\":552:561   */\n          dup4\n            /* \"#utility.yul\":548:565   */\n          add\n            /* \"#utility.yul\":541:588   */\n          mstore\n            /* \"#utility.yul\":605:683   */\n          tag_27\n            /* \"#utility.yul\":678:682   */\n          dup2\n            /* \"#utility.yul\":669:675   */\n          dup5\n            /* \"#utility.yul\":605:683   */\n          tag_16\n          jump\t// in\n        tag_27:\n            /* \"#utility.yul\":597:683   */\n          swap1\n          pop\n            /* \"#utility.yul\":377:690   */\n          swap3\n          swap2\n          pop\n          pop\n          jump\t// out\n            /* \"#utility.yul\":696:795   */\n        tag_19:\n            /* \"#utility.yul\":748:754   */\n          0x00\n            /* \"#utility.yul\":782:787   */\n          dup2\n            /* \"#utility.yul\":776:788   */\n          mload\n            /* \"#utility.yul\":766:788   */\n          swap1\n          pop\n            /* \"#utility.yul\":696:795   */\n          swap2\n          swap1\n          pop\n          jump\t// out\n            /* \"#utility.yul\":801:970   */\n        tag_21:\n            /* \"#utility.yul\":885:896   */\n          0x00\n            /* \"#utility.yul\":919:925   */\n          dup3\n            /* \"#utility.yul\":914:917   */\n          dup3\n            /* \"#utility.yul\":907:926   */\n          mstore\n            /* \"#utility.yul\":959:963   */\n          0x20\n            /* \"#utility.yul\":954:957   */\n          dup3\n            /* \"#utility.yul\":950:964   */\n          add\n            /* \"#utility.yul\":935:964   */\n          swap1\n          pop\n            /* \"#utility.yul\":801:970   */\n          swap3\n          swap2\n          pop\n          pop\n          jump\t// out\n            /* \"#utility.yul\":976:1283   */\n        tag_23:\n            /* \"#utility.yul\":1044:1045   */\n          0x00\n            /* \"#utility.yul\":1054:1167   */\n        tag_31:\n            /* \"#utility.yul\":1068:1074   */\n          dup4\n            /* \"#utility.yul\":1065:1066   */\n          dup2\n            /* \"#utility.yul\":1062:1075   */\n          lt\n            /* \"#utility.yul\":1054:1167   */\n          iszero\n          tag_33\n          jumpi\n            /* \"#utility.yul\":1153:1154   */\n          dup1\n            /* \"#utility.yul\":1148:1151   */\n          dup3\n            /* \"#utility.yul\":1144:1155   */\n          add\n            /* \"#utility.yul\":1138:1156   */\n          mload\n            /* \"#utility.yul\":1134:1135   */\n          dup2\n            /* \"#utility.yul\":1129:1132   */\n          dup5\n            /* \"#utility.yul\":1125:1136   */\n          add\n            /* \"#utility.yul\":1118:1157   */\n          mstore\n            /* \"#utility.yul\":1090:1092   */\n          0x20\n            /* \"#utility.yul\":1087:1088   */\n          dup2\n            /* \"#utility.yul\":1083:1093   */\n          add\n            /* \"#utility.yul\":1078:1093   */\n          swap1\n          pop\n            /* \"#utility.yul\":1054:1167   */\n          jump(tag_31)\n        tag_33:\n            /* \"#utility.yul\":1185:1191   */\n          dup4\n            /* \"#utility.yul\":1182:1183   */\n          dup2\n            /* \"#utility.yul\":1179:1192   */\n          gt\n            /* \"#utility.yul\":1176:1277   */\n          iszero\n          tag_34\n          jumpi\n            /* \"#utility.yul\":1265:1266   */\n          0x00\n            /* \"#utility.yul\":1256:1262   */\n          dup5\n            /* \"#utility.yul\":1251:1254   */\n          dup5\n            /* \"#utility.yul\":1247:1263   */\n          add\n            /* \"#utility.yul\":1240:1267   */\n          mstore\n            /* \"#utility.yul\":1176:1277   */\n        tag_34:\n            /* \"#utility.yul\":1025:1283   */\n          pop\n            /* \"#utility.yul\":976:1283   */\n          pop\n          pop\n          pop\n          jump\t// out\n            /* \"#utility.yul\":1289:1609   */\n        tag_10:\n            /* \"#utility.yul\":1333:1339   */\n          0x00\n            /* \"#utility.yul\":1370:1371   */\n          0x02\n            /* \"#utility.yul\":1364:1368   */\n          dup3\n            /* \"#utility.yul\":1360:1372   */\n          div\n            /* \"#utility.yul\":1350:1372   */\n          swap1\n          pop\n            /* \"#utility.yul\":1417:1418   */\n          0x01\n            /* \"#utility.yul\":1411:1415   */\n          dup3\n            /* \"#utility.yul\":1407:1419   */\n          and\n            /* \"#utility.yul\":1438:1456   */\n          dup1\n            /* \"#utility.yul\":1428:1509   */\n          tag_36\n          jumpi\n            /* \"#utility.yul\":1494:1498   */\n          0x7f\n            /* \"#utility.yul\":1486:1492   */\n          dup3\n            /* \"#utility.yul\":1482:1499   */\n          and\n            /* \"#utility.yul\":1472:1499   */\n          swap2\n          pop\n            /* \"#utility.yul\":1428:1509   */\n        tag_36:\n            /* \"#utility.yul\":1556:1558   */\n          0x20\n            /* \"#utility.yul\":1548:1554   */\n          dup3\n            /* \"#utility.yul\":1545:1559   */\n          lt\n            /* \"#utility.yul\":1525:1543   */\n          dup2\n            /* \"#utility.yul\":1522:1560   */\n          eq\n            /* \"#utility.yul\":1519:1603   */\n          iszero\n          tag_37\n          jumpi\n            /* \"#utility.yul\":1575:1593   */\n          tag_38\n          tag_39\n          jump\t// in\n        tag_38:\n            /* \"#utility.yul\":1519:1603   */\n        tag_37:\n            /* \"#utility.yul\":1340:1609   */\n          pop\n            /* \"#utility.yul\":1289:1609   */\n          swap2\n          swap1\n          pop\n          jump\t// out\n            /* \"#utility.yul\":1615:1795   */\n        tag_39:\n            /* \"#utility.yul\":1663:1740   */\n          0x4e487b7100000000000000000000000000000000000000000000000000000000\n            /* \"#utility.yul\":1660:1661   */\n          0x00\n            /* \"#utility.yul\":1653:1741   */\n          mstore\n            /* \"#utility.yul\":1760:1764   */\n          0x22\n            /* \"#utility.yul\":1757:1758   */\n          0x04\n            /* \"#utility.yul\":1750:1765   */\n          mstore\n            /* \"#utility.yul\":1784:1788   */\n          0x24\n            /* \"#utility.yul\":1781:1782   */\n          0x00\n            /* \"#utility.yul\":1774:1789   */\n          revert\n            /* \"#utility.yul\":1801:1903   */\n        tag_25:\n            /* \"#utility.yul\":1842:1848   */\n          0x00\n            /* \"#utility.yul\":1893:1895   */\n          0x1f\n            /* \"#utility.yul\":1889:1896   */\n          not\n            /* \"#utility.yul\":1884:1886   */\n          0x1f\n            /* \"#utility.yul\":1877:1882   */\n          dup4\n            /* \"#utility.yul\":1873:1887   */\n          add\n            /* \"#utility.yul\":1869:1897   */\n          and\n            /* \"#utility.yul\":1859:1897   */\n          swap1\n          pop\n            /* \"#utility.yul\":1801:1903   */\n          swap2\n          swap1\n          pop\n          jump\t// out\n\n        auxdata: 0xa2646970667358221220c00cc46da479086287c87b8b7fea8e2043be0f2bdc9e17d0e7594a29c17ba58d64736f6c63430008070033\n    }\n}\n",
				"bytecode": {
					"linkReferences": {},
					"object": "608060405234801561001057600080fd5b50604051610d0f380380610d0f8339818101604052810190610032919061016f565b336000806101000a81548173ffffffffffffffffffffffffffffffffffffffff021916908373ffffffffffffffffffffffffffffffffffffffff160217905550600081604051610081906100f2565b61008b91906101f1565b604051809103906000f0801580156100a7573d6000803e3d6000fd5b50905080600160006101000a81548173ffffffffffffffffffffffffffffffffffffffff021916908373ffffffffffffffffffffffffffffffffffffffff160217905550505061033d565b61055b806107b483390190565b600061011261010d84610238565b610213565b90508281526020810184848401111561012e5761012d61031d565b5b610139848285610285565b509392505050565b600082601f83011261015657610155610318565b5b81516101668482602086016100ff565b91505092915050565b60006020828403121561018557610184610327565b5b600082015167ffffffffffffffff8111156101a3576101a2610322565b5b6101af84828501610141565b91505092915050565b60006101c382610269565b6101cd8185610274565b93506101dd818560208601610285565b6101e68161032c565b840191505092915050565b6000602082019050818103600083015261020b81846101b8565b905092915050565b600061021d61022e565b905061022982826102b8565b919050565b6000604051905090565b600067ffffffffffffffff821115610253576102526102e9565b5b61025c8261032c565b9050602081019050919050565b600081519050919050565b600082825260208201905092915050565b60005b838110156102a3578082015181840152602081019050610288565b838111156102b2576000848401525b50505050565b6102c18261032c565b810181811067ffffffffffffffff821117156102e0576102df6102e9565b5b80604052505050565b7f4e487b7100000000000000000000000000000000000000000000000000000000600052604160045260246000fd5b600080fd5b600080fd5b600080fd5b600080fd5b6000601f19601f8301169050919050565b6104688061034c6000396000f3fe608060405234801561001057600080fd5b506004361061002b5760003560e01c80635b9fdc3014610030575b600080fd5b61003861004e565b604051610045919061029d565b60405180910390f35b606060008054906101000a900473ffffffffffffffffffffffffffffffffffffffff1673ffffffffffffffffffffffffffffffffffffffff163373ffffffffffffffffffffffffffffffffffffffff16146100de576040517f08c379a00000000000000000000000000000000000000000000000000000000081526004016100d5906102bf565b60405180910390fd5b600160009054906101000a900473ffffffffffffffffffffffffffffffffffffffff1673ffffffffffffffffffffffffffffffffffffffff16635b9fdc306040518163ffffffff1660e01b815260040160006040518083038186803b15801561014657600080fd5b505afa15801561015a573d6000803e3d6000fd5b505050506040513d6000823e3d601f19601f8201168201806040525081019061018391906101f8565b905090565b600061019b61019684610304565b6102df565b9050828152602081018484840111156101b7576101b66103e9565b5b6101c2848285610351565b509392505050565b600082601f8301126101df576101de6103e4565b5b81516101ef848260208601610188565b91505092915050565b60006020828403121561020e5761020d6103f3565b5b600082015167ffffffffffffffff81111561022c5761022b6103ee565b5b610238848285016101ca565b91505092915050565b600061024c82610335565b6102568185610340565b9350610266818560208601610351565b61026f816103f8565b840191505092915050565b6000610287601983610340565b915061029282610409565b602082019050919050565b600060208201905081810360008301526102b78184610241565b905092915050565b600060208201905081810360008301526102d88161027a565b9050919050565b60006102e96102fa565b90506102f58282610384565b919050565b6000604051905090565b600067ffffffffffffffff82111561031f5761031e6103b5565b5b610328826103f8565b9050602081019050919050565b600081519050919050565b600082825260208201905092915050565b60005b8381101561036f578082015181840152602081019050610354565b8381111561037e576000848401525b50505050565b61038d826103f8565b810181811067ffffffffffffffff821117156103ac576103ab6103b5565b5b80604052505050565b7f4e487b7100000000000000000000000000000000000000000000000000000000600052604160045260246000fd5b600080fd5b600080fd5b600080fd5b600080fd5b6000601f19601f8301169050919050565b7f417474656e74696f6e20596f752072206e6f74206f776e65720000000000000060008201525056fea2646970667358221220eb65a5a710731ecc5b0206697a0018f6f23f5b896eafdd15ab22c5c5e84acd6b64736f6c63430008070033608060405234801561001057600080fd5b5060405161055b38038061055b83398181016040528101906100329190610162565b806000908051906020019061004892919061004f565b505061031a565b82805461005b90610234565b90600052602060002090601f01602090048101928261007d57600085556100c4565b82601f1061009657805160ff19168380011785556100c4565b828001600101855582156100c4579182015b828111156100c35782518255916020019190600101906100a8565b5b5090506100d191906100d5565b5090565b5b808211156100ee5760008160009055506001016100d6565b5090565b6000610105610100846101d0565b6101ab565b905082815260208101848484011115610121576101206102fa565b5b61012c848285610201565b509392505050565b600082601f830112610149576101486102f5565b5b81516101598482602086016100f2565b91505092915050565b60006020828403121561017857610177610304565b5b600082015167ffffffffffffffff811115610196576101956102ff565b5b6101a284828501610134565b91505092915050565b60006101b56101c6565b90506101c18282610266565b919050565b6000604051905090565b600067ffffffffffffffff8211156101eb576101ea6102c6565b5b6101f482610309565b9050602081019050919050565b60005b8381101561021f578082015181840152602081019050610204565b8381111561022e576000848401525b50505050565b6000600282049050600182168061024c57607f821691505b602082108114156102605761025f610297565b5b50919050565b61026f82610309565b810181811067ffffffffffffffff8211171561028e5761028d6102c6565b5b80604052505050565b7f4e487b7100000000000000000000000000000000000000000000000000000000600052602260045260246000fd5b7f4e487b7100000000000000000000000000000000000000000000000000000000600052604160045260246000fd5b600080fd5b600080fd5b600080fd5b600080fd5b6000601f19601f8301169050919050565b610232806103296000396000f3fe608060405234801561001057600080fd5b506004361061002b5760003560e01c80635b9fdc3014610030575b600080fd5b61003861004e565b6040516100459190610119565b60405180910390f35b60606000805461005d9061018a565b80601f01602080910402602001604051908101604052809291908181526020018280546100899061018a565b80156100d65780601f106100ab576101008083540402835291602001916100d6565b820191906000526020600020905b8154815290600101906020018083116100b957829003601f168201915b5050505050905090565b60006100eb8261013b565b6100f58185610146565b9350610105818560208601610157565b61010e816101eb565b840191505092915050565b6000602082019050818103600083015261013381846100e0565b905092915050565b600081519050919050565b600082825260208201905092915050565b60005b8381101561017557808201518184015260208101905061015a565b83811115610184576000848401525b50505050565b600060028204905060018216806101a257607f821691505b602082108114156101b6576101b56101bc565b5b50919050565b7f4e487b7100000000000000000000000000000000000000000000000000000000600052602260045260246000fd5b6000601f19601f830116905091905056fea2646970667358221220c00cc46da479086287c87b8b7fea8e2043be0f2bdc9e17d0e7594a29c17ba58d64736f6c63430008070033",
					"opcodes": "PUSH1 0x80 PUSH1 0x40 MSTORE CALLVALUE DUP1 ISZERO PUSH2 0x10 JUMPI PUSH1 0x0 DUP1 REVERT JUMPDEST POP PUSH1 0x40 MLOAD PUSH2 0xD0F CODESIZE SUB DUP1 PUSH2 0xD0F DUP4 CODECOPY DUP2 DUP2 ADD PUSH1 0x40 MSTORE DUP2 ADD SWAP1 PUSH2 0x32 SWAP2 SWAP1 PUSH2 0x16F JUMP JUMPDEST CALLER PUSH1 0x0 DUP1 PUSH2 0x100 EXP DUP2 SLOAD DUP2 PUSH20 0xFFFFFFFFFFFFFFFFFFFFFFFFFFFFFFFFFFFFFFFF MUL NOT AND SWAP1 DUP4 PUSH20 0xFFFFFFFFFFFFFFFFFFFFFFFFFFFFFFFFFFFFFFFF AND MUL OR SWAP1 SSTORE POP PUSH1 0x0 DUP2 PUSH1 0x40 MLOAD PUSH2 0x81 SWAP1 PUSH2 0xF2 JUMP JUMPDEST PUSH2 0x8B SWAP2 SWAP1 PUSH2 0x1F1 JUMP JUMPDEST PUSH1 0x40 MLOAD DUP1 SWAP2 SUB SWAP1 PUSH1 0x0 CREATE DUP1 ISZERO DUP1 ISZERO PUSH2 0xA7 JUMPI RETURNDATASIZE PUSH1 0x0 DUP1 RETURNDATACOPY RETURNDATASIZE PUSH1 0x0 REVERT JUMPDEST POP SWAP1 POP DUP1 PUSH1 0x1 PUSH1 0x0 PUSH2 0x100 EXP DUP2 SLOAD DUP2 PUSH20 0xFFFFFFFFFFFFFFFFFFFFFFFFFFFFFFFFFFFFFFFF MUL NOT AND SWAP1 DUP4 PUSH20 0xFFFFFFFFFFFFFFFFFFFFFFFFFFFFFFFFFFFFFFFF AND MUL OR SWAP1 SSTORE POP POP POP PUSH2 0x33D JUMP JUMPDEST PUSH2 0x55B DUP1 PUSH2 0x7B4 DUP4 CODECOPY ADD SWAP1 JUMP JUMPDEST PUSH1 0x0 PUSH2 0x112 PUSH2 0x10D DUP5 PUSH2 0x238 JUMP JUMPDEST PUSH2 0x213 JUMP JUMPDEST SWAP1 POP DUP3 DUP2 MSTORE PUSH1 0x20 DUP2 ADD DUP5 DUP5 DUP5 ADD GT ISZERO PUSH2 0x12E JUMPI PUSH2 0x12D PUSH2 0x31D JUMP JUMPDEST JUMPDEST PUSH2 0x139 DUP5 DUP3 DUP6 PUSH2 0x285 JUMP JUMPDEST POP SWAP4 SWAP3 POP POP POP JUMP JUMPDEST PUSH1 0x0 DUP3 PUSH1 0x1F DUP4 ADD SLT PUSH2 0x156 JUMPI PUSH2 0x155 PUSH2 0x318 JUMP JUMPDEST JUMPDEST DUP2 MLOAD PUSH2 0x166 DUP5 DUP3 PUSH1 0x20 DUP7 ADD PUSH2 0xFF JUMP JUMPDEST SWAP2 POP POP SWAP3 SWAP2 POP POP JUMP JUMPDEST PUSH1 0x0 PUSH1 0x20 DUP3 DUP5 SUB SLT ISZERO PUSH2 0x185 JUMPI PUSH2 0x184 PUSH2 0x327 JUMP JUMPDEST JUMPDEST PUSH1 0x0 DUP3 ADD MLOAD PUSH8 0xFFFFFFFFFFFFFFFF DUP2 GT ISZERO PUSH2 0x1A3 JUMPI PUSH2 0x1A2 PUSH2 0x322 JUMP JUMPDEST JUMPDEST PUSH2 0x1AF DUP5 DUP3 DUP6 ADD PUSH2 0x141 JUMP JUMPDEST SWAP2 POP POP SWAP3 SWAP2 POP POP JUMP JUMPDEST PUSH1 0x0 PUSH2 0x1C3 DUP3 PUSH2 0x269 JUMP JUMPDEST PUSH2 0x1CD DUP2 DUP6 PUSH2 0x274 JUMP JUMPDEST SWAP4 POP PUSH2 0x1DD DUP2 DUP6 PUSH1 0x20 DUP7 ADD PUSH2 0x285 JUMP JUMPDEST PUSH2 0x1E6 DUP2 PUSH2 0x32C JUMP JUMPDEST DUP5 ADD SWAP2 POP POP SWAP3 SWAP2 POP POP JUMP JUMPDEST PUSH1 0x0 PUSH1 0x20 DUP3 ADD SWAP1 POP DUP2 DUP2 SUB PUSH1 0x0 DUP4 ADD MSTORE PUSH2 0x20B DUP2 DUP5 PUSH2 0x1B8 JUMP JUMPDEST SWAP1 POP SWAP3 SWAP2 POP POP JUMP JUMPDEST PUSH1 0x0 PUSH2 0x21D PUSH2 0x22E JUMP JUMPDEST SWAP1 POP PUSH2 0x229 DUP3 DUP3 PUSH2 0x2B8 JUMP JUMPDEST SWAP2 SWAP1 POP JUMP JUMPDEST PUSH1 0x0 PUSH1 0x40 MLOAD SWAP1 POP SWAP1 JUMP JUMPDEST PUSH1 0x0 PUSH8 0xFFFFFFFFFFFFFFFF DUP3 GT ISZERO PUSH2 0x253 JUMPI PUSH2 0x252 PUSH2 0x2E9 JUMP JUMPDEST JUMPDEST PUSH2 0x25C DUP3 PUSH2 0x32C JUMP JUMPDEST SWAP1 POP PUSH1 0x20 DUP2 ADD SWAP1 POP SWAP2 SWAP1 POP JUMP JUMPDEST PUSH1 0x0 DUP2 MLOAD SWAP1 POP SWAP2 SWAP1 POP JUMP JUMPDEST PUSH1 0x0 DUP3 DUP3 MSTORE PUSH1 0x20 DUP3 ADD SWAP1 POP SWAP3 SWAP2 POP POP JUMP JUMPDEST PUSH1 0x0 JUMPDEST DUP4 DUP2 LT ISZERO PUSH2 0x2A3 JUMPI DUP1 DUP3 ADD MLOAD DUP2 DUP5 ADD MSTORE PUSH1 0x20 DUP2 ADD SWAP1 POP PUSH2 0x288 JUMP JUMPDEST DUP4 DUP2 GT ISZERO PUSH2 0x2B2 JUMPI PUSH1 0x0 DUP5 DUP5 ADD MSTORE JUMPDEST POP POP POP POP JUMP JUMPDEST PUSH2 0x2C1 DUP3 PUSH2 0x32C JUMP JUMPDEST DUP2 ADD DUP2 DUP2 LT PUSH8 0xFFFFFFFFFFFFFFFF DUP3 GT OR ISZERO PUSH2 0x2E0 JUMPI PUSH2 0x2DF PUSH2 0x2E9 JUMP JUMPDEST JUMPDEST DUP1 PUSH1 0x40 MSTORE POP POP POP JUMP JUMPDEST PUSH32 0x4E487B7100000000000000000000000000000000000000000000000000000000 PUSH1 0x0 MSTORE PUSH1 0x41 PUSH1 0x4 MSTORE PUSH1 0x24 PUSH1 0x0 REVERT JUMPDEST PUSH1 0x0 DUP1 REVERT JUMPDEST PUSH1 0x0 DUP1 REVERT JUMPDEST PUSH1 0x0 DUP1 REVERT JUMPDEST PUSH1 0x0 DUP1 REVERT JUMPDEST PUSH1 0x0 PUSH1 0x1F NOT PUSH1 0x1F DUP4 ADD AND SWAP1 POP SWAP2 SWAP1 POP JUMP JUMPDEST PUSH2 0x468 DUP1 PUSH2 0x34C PUSH1 0x0 CODECOPY PUSH1 0x0 RETURN INVALID PUSH1 0x80 PUSH1 0x40 MSTORE CALLVALUE DUP1 ISZERO PUSH2 0x10 JUMPI PUSH1 0x0 DUP1 REVERT JUMPDEST POP PUSH1 0x4 CALLDATASIZE LT PUSH2 0x2B JUMPI PUSH1 0x0 CALLDATALOAD PUSH1 0xE0 SHR DUP1 PUSH4 0x5B9FDC30 EQ PUSH2 0x30 JUMPI JUMPDEST PUSH1 0x0 DUP1 REVERT JUMPDEST PUSH2 0x38 PUSH2 0x4E JUMP JUMPDEST PUSH1 0x40 MLOAD PUSH2 0x45 SWAP2 SWAP1 PUSH2 0x29D JUMP JUMPDEST PUSH1 0x40 MLOAD DUP1 SWAP2 SUB SWAP1 RETURN JUMPDEST PUSH1 0x60 PUSH1 0x0 DUP1 SLOAD SWAP1 PUSH2 0x100 EXP SWAP1 DIV PUSH20 0xFFFFFFFFFFFFFFFFFFFFFFFFFFFFFFFFFFFFFFFF AND PUSH20 0xFFFFFFFFFFFFFFFFFFFFFFFFFFFFFFFFFFFFFFFF AND CALLER PUSH20 0xFFFFFFFFFFFFFFFFFFFFFFFFFFFFFFFFFFFFFFFF AND EQ PUSH2 0xDE JUMPI PUSH1 0x40 MLOAD PUSH32 0x8C379A000000000000000000000000000000000000000000000000000000000 DUP2 MSTORE PUSH1 0x4 ADD PUSH2 0xD5 SWAP1 PUSH2 0x2BF JUMP JUMPDEST PUSH1 0x40 MLOAD DUP1 SWAP2 SUB SWAP1 REVERT JUMPDEST PUSH1 0x1 PUSH1 0x0 SWAP1 SLOAD SWAP1 PUSH2 0x100 EXP SWAP1 DIV PUSH20 0xFFFFFFFFFFFFFFFFFFFFFFFFFFFFFFFFFFFFFFFF AND PUSH20 0xFFFFFFFFFFFFFFFFFFFFFFFFFFFFFFFFFFFFFFFF AND PUSH4 0x5B9FDC30 PUSH1 0x40 MLOAD DUP2 PUSH4 0xFFFFFFFF AND PUSH1 0xE0 SHL DUP2 MSTORE PUSH1 0x4 ADD PUSH1 0x0 PUSH1 0x40 MLOAD DUP1 DUP4 SUB DUP2 DUP7 DUP1 EXTCODESIZE ISZERO DUP1 ISZERO PUSH2 0x146 JUMPI PUSH1 0x0 DUP1 REVERT JUMPDEST POP GAS STATICCALL ISZERO DUP1 ISZERO PUSH2 0x15A JUMPI RETURNDATASIZE PUSH1 0x0 DUP1 RETURNDATACOPY RETURNDATASIZE PUSH1 0x0 REVERT JUMPDEST POP POP POP POP PUSH1 0x40 MLOAD RETURNDATASIZE PUSH1 0x0 DUP3 RETURNDATACOPY RETURNDATASIZE PUSH1 0x1F NOT PUSH1 0x1F DUP3 ADD AND DUP3 ADD DUP1 PUSH1 0x40 MSTORE POP DUP2 ADD SWAP1 PUSH2 0x183 SWAP2 SWAP1 PUSH2 0x1F8 JUMP JUMPDEST SWAP1 POP SWAP1 JUMP JUMPDEST PUSH1 0x0 PUSH2 0x19B PUSH2 0x196 DUP5 PUSH2 0x304 JUMP JUMPDEST PUSH2 0x2DF JUMP JUMPDEST SWAP1 POP DUP3 DUP2 MSTORE PUSH1 0x20 DUP2 ADD DUP5 DUP5 DUP5 ADD GT ISZERO PUSH2 0x1B7 JUMPI PUSH2 0x1B6 PUSH2 0x3E9 JUMP JUMPDEST JUMPDEST PUSH2 0x1C2 DUP5 DUP3 DUP6 PUSH2 0x351 JUMP JUMPDEST POP SWAP4 SWAP3 POP POP POP JUMP JUMPDEST PUSH1 0x0 DUP3 PUSH1 0x1F DUP4 ADD SLT PUSH2 0x1DF JUMPI PUSH2 0x1DE PUSH2 0x3E4 JUMP JUMPDEST JUMPDEST DUP2 MLOAD PUSH2 0x1EF DUP5 DUP3 PUSH1 0x20 DUP7 ADD PUSH2 0x188 JUMP JUMPDEST SWAP2 POP POP SWAP3 SWAP2 POP POP JUMP JUMPDEST PUSH1 0x0 PUSH1 0x20 DUP3 DUP5 SUB SLT ISZERO PUSH2 0x20E JUMPI PUSH2 0x20D PUSH2 0x3F3 JUMP JUMPDEST JUMPDEST PUSH1 0x0 DUP3 ADD MLOAD PUSH8 0xFFFFFFFFFFFFFFFF DUP2 GT ISZERO PUSH2 0x22C JUMPI PUSH2 0x22B PUSH2 0x3EE JUMP JUMPDEST JUMPDEST PUSH2 0x238 DUP5 DUP3 DUP6 ADD PUSH2 0x1CA JUMP JUMPDEST SWAP2 POP POP SWAP3 SWAP2 POP POP JUMP JUMPDEST PUSH1 0x0 PUSH2 0x24C DUP3 PUSH2 0x335 JUMP JUMPDEST PUSH2 0x256 DUP2 DUP6 PUSH2 0x340 JUMP JUMPDEST SWAP4 POP PUSH2 0x266 DUP2 DUP6 PUSH1 0x20 DUP7 ADD PUSH2 0x351 JUMP JUMPDEST PUSH2 0x26F DUP2 PUSH2 0x3F8 JUMP JUMPDEST DUP5 ADD SWAP2 POP POP SWAP3 SWAP2 POP POP JUMP JUMPDEST PUSH1 0x0 PUSH2 0x287 PUSH1 0x19 DUP4 PUSH2 0x340 JUMP JUMPDEST SWAP2 POP PUSH2 0x292 DUP3 PUSH2 0x409 JUMP JUMPDEST PUSH1 0x20 DUP3 ADD SWAP1 POP SWAP2 SWAP1 POP JUMP JUMPDEST PUSH1 0x0 PUSH1 0x20 DUP3 ADD SWAP1 POP DUP2 DUP2 SUB PUSH1 0x0 DUP4 ADD MSTORE PUSH2 0x2B7 DUP2 DUP5 PUSH2 0x241 JUMP JUMPDEST SWAP1 POP SWAP3 SWAP2 POP POP JUMP JUMPDEST PUSH1 0x0 PUSH1 0x20 DUP3 ADD SWAP1 POP DUP2 DUP2 SUB PUSH1 0x0 DUP4 ADD MSTORE PUSH2 0x2D8 DUP2 PUSH2 0x27A JUMP JUMPDEST SWAP1 POP SWAP2 SWAP1 POP JUMP JUMPDEST PUSH1 0x0 PUSH2 0x2E9 PUSH2 0x2FA JUMP JUMPDEST SWAP1 POP PUSH2 0x2F5 DUP3 DUP3 PUSH2 0x384 JUMP JUMPDEST SWAP2 SWAP1 POP JUMP JUMPDEST PUSH1 0x0 PUSH1 0x40 MLOAD SWAP1 POP SWAP1 JUMP JUMPDEST PUSH1 0x0 PUSH8 0xFFFFFFFFFFFFFFFF DUP3 GT ISZERO PUSH2 0x31F JUMPI PUSH2 0x31E PUSH2 0x3B5 JUMP JUMPDEST JUMPDEST PUSH2 0x328 DUP3 PUSH2 0x3F8 JUMP JUMPDEST SWAP1 POP PUSH1 0x20 DUP2 ADD SWAP1 POP SWAP2 SWAP1 POP JUMP JUMPDEST PUSH1 0x0 DUP2 MLOAD SWAP1 POP SWAP2 SWAP1 POP JUMP JUMPDEST PUSH1 0x0 DUP3 DUP3 MSTORE PUSH1 0x20 DUP3 ADD SWAP1 POP SWAP3 SWAP2 POP POP JUMP JUMPDEST PUSH1 0x0 JUMPDEST DUP4 DUP2 LT ISZERO PUSH2 0x36F JUMPI DUP1 DUP3 ADD MLOAD DUP2 DUP5 ADD MSTORE PUSH1 0x20 DUP2 ADD SWAP1 POP PUSH2 0x354 JUMP JUMPDEST DUP4 DUP2 GT ISZERO PUSH2 0x37E JUMPI PUSH1 0x0 DUP5 DUP5 ADD MSTORE JUMPDEST POP POP POP POP JUMP JUMPDEST PUSH2 0x38D DUP3 PUSH2 0x3F8 JUMP JUMPDEST DUP2 ADD DUP2 DUP2 LT PUSH8 0xFFFFFFFFFFFFFFFF DUP3 GT OR ISZERO PUSH2 0x3AC JUMPI PUSH2 0x3AB PUSH2 0x3B5 JUMP JUMPDEST JUMPDEST DUP1 PUSH1 0x40 MSTORE POP POP POP JUMP JUMPDEST PUSH32 0x4E487B7100000000000000000000000000000000000000000000000000000000 PUSH1 0x0 MSTORE PUSH1 0x41 PUSH1 0x4 MSTORE PUSH1 0x24 PUSH1 0x0 REVERT JUMPDEST PUSH1 0x0 DUP1 REVERT JUMPDEST PUSH1 0x0 DUP1 REVERT JUMPDEST PUSH1 0x0 DUP1 REVERT JUMPDEST PUSH1 0x0 DUP1 REVERT JUMPDEST PUSH1 0x0 PUSH1 0x1F NOT PUSH1 0x1F DUP4 ADD AND SWAP1 POP SWAP2 SWAP1 POP JUMP JUMPDEST PUSH32 0x417474656E74696F6E20596F752072206E6F74206F776E657200000000000000 PUSH1 0x0 DUP3 ADD MSTORE POP JUMP INVALID LOG2 PUSH5 0x6970667358 0x22 SLT KECCAK256 0xEB PUSH6 0xA5A710731ECC JUMPDEST MUL MOD PUSH10 0x7A0018F6F23F5B896EAF 0xDD ISZERO 0xAB 0x22 0xC5 0xC5 0xE8 0x4A 0xCD PUSH12 0x64736F6C6343000807003360 DUP1 PUSH1 0x40 MSTORE CALLVALUE DUP1 ISZERO PUSH2 0x10 JUMPI PUSH1 0x0 DUP1 REVERT JUMPDEST POP PUSH1 0x40 MLOAD PUSH2 0x55B CODESIZE SUB DUP1 PUSH2 0x55B DUP4 CODECOPY DUP2 DUP2 ADD PUSH1 0x40 MSTORE DUP2 ADD SWAP1 PUSH2 0x32 SWAP2 SWAP1 PUSH2 0x162 JUMP JUMPDEST DUP1 PUSH1 0x0 SWAP1 DUP1 MLOAD SWAP1 PUSH1 0x20 ADD SWAP1 PUSH2 0x48 SWAP3 SWAP2 SWAP1 PUSH2 0x4F JUMP JUMPDEST POP POP PUSH2 0x31A JUMP JUMPDEST DUP3 DUP1 SLOAD PUSH2 0x5B SWAP1 PUSH2 0x234 JUMP JUMPDEST SWAP1 PUSH1 0x0 MSTORE PUSH1 0x20 PUSH1 0x0 KECCAK256 SWAP1 PUSH1 0x1F ADD PUSH1 0x20 SWAP1 DIV DUP2 ADD SWAP3 DUP3 PUSH2 0x7D JUMPI PUSH1 0x0 DUP6 SSTORE PUSH2 0xC4 JUMP JUMPDEST DUP3 PUSH1 0x1F LT PUSH2 0x96 JUMPI DUP1 MLOAD PUSH1 0xFF NOT AND DUP4 DUP1 ADD OR DUP6 SSTORE PUSH2 0xC4 JUMP JUMPDEST DUP3 DUP1 ADD PUSH1 0x1 ADD DUP6 SSTORE DUP3 ISZERO PUSH2 0xC4 JUMPI SWAP2 DUP3 ADD JUMPDEST DUP3 DUP2 GT ISZERO PUSH2 0xC3 JUMPI DUP3 MLOAD DUP3 SSTORE SWAP2 PUSH1 0x20 ADD SWAP2 SWAP1 PUSH1 0x1 ADD SWAP1 PUSH2 0xA8 JUMP JUMPDEST JUMPDEST POP SWAP1 POP PUSH2 0xD1 SWAP2 SWAP1 PUSH2 0xD5 JUMP JUMPDEST POP SWAP1 JUMP JUMPDEST JUMPDEST DUP1 DUP3 GT ISZERO PUSH2 0xEE JUMPI PUSH1 0x0 DUP2 PUSH1 0x0 SWAP1 SSTORE POP PUSH1 0x1 ADD PUSH2 0xD6 JUMP JUMPDEST POP SWAP1 JUMP JUMPDEST PUSH1 0x0 PUSH2 0x105 PUSH2 0x100 DUP5 PUSH2 0x1D0 JUMP JUMPDEST PUSH2 0x1AB JUMP JUMPDEST SWAP1 POP DUP3 DUP2 MSTORE PUSH1 0x20 DUP2 ADD DUP5 DUP5 DUP5 ADD GT ISZERO PUSH2 0x121 JUMPI PUSH2 0x120 PUSH2 0x2FA JUMP JUMPDEST JUMPDEST PUSH2 0x12C DUP5 DUP3 DUP6 PUSH2 0x201 JUMP JUMPDEST POP SWAP4 SWAP3 POP POP POP JUMP JUMPDEST PUSH1 0x0 DUP3 PUSH1 0x1F DUP4 ADD SLT PUSH2 0x149 JUMPI PUSH2 0x148 PUSH2 0x2F5 JUMP JUMPDEST JUMPDEST DUP2 MLOAD PUSH2 0x159 DUP5 DUP3 PUSH1 0x20 DUP7 ADD PUSH2 0xF2 JUMP JUMPDEST SWAP2 POP POP SWAP3 SWAP2 POP POP JUMP JUMPDEST PUSH1 0x0 PUSH1 0x20 DUP3 DUP5 SUB SLT ISZERO PUSH2 0x178 JUMPI PUSH2 0x177 PUSH2 0x304 JUMP JUMPDEST JUMPDEST PUSH1 0x0 DUP3 ADD MLOAD PUSH8 0xFFFFFFFFFFFFFFFF DUP2 GT ISZERO PUSH2 0x196 JUMPI PUSH2 0x195 PUSH2 0x2FF JUMP JUMPDEST JUMPDEST PUSH2 0x1A2 DUP5 DUP3 DUP6 ADD PUSH2 0x134 JUMP JUMPDEST SWAP2 POP POP SWAP3 SWAP2 POP POP JUMP JUMPDEST PUSH1 0x0 PUSH2 0x1B5 PUSH2 0x1C6 JUMP JUMPDEST SWAP1 POP PUSH2 0x1C1 DUP3 DUP3 PUSH2 0x266 JUMP JUMPDEST SWAP2 SWAP1 POP JUMP JUMPDEST PUSH1 0x0 PUSH1 0x40 MLOAD SWAP1 POP SWAP1 JUMP JUMPDEST PUSH1 0x0 PUSH8 0xFFFFFFFFFFFFFFFF DUP3 GT ISZERO PUSH2 0x1EB JUMPI PUSH2 0x1EA PUSH2 0x2C6 JUMP JUMPDEST JUMPDEST PUSH2 0x1F4 DUP3 PUSH2 0x309 JUMP JUMPDEST SWAP1 POP PUSH1 0x20 DUP2 ADD SWAP1 POP SWAP2 SWAP1 POP JUMP JUMPDEST PUSH1 0x0 JUMPDEST DUP4 DUP2 LT ISZERO PUSH2 0x21F JUMPI DUP1 DUP3 ADD MLOAD DUP2 DUP5 ADD MSTORE PUSH1 0x20 DUP2 ADD SWAP1 POP PUSH2 0x204 JUMP JUMPDEST DUP4 DUP2 GT ISZERO PUSH2 0x22E JUMPI PUSH1 0x0 DUP5 DUP5 ADD MSTORE JUMPDEST POP POP POP POP JUMP JUMPDEST PUSH1 0x0 PUSH1 0x2 DUP3 DIV SWAP1 POP PUSH1 0x1 DUP3 AND DUP1 PUSH2 0x24C JUMPI PUSH1 0x7F DUP3 AND SWAP2 POP JUMPDEST PUSH1 0x20 DUP3 LT DUP2 EQ ISZERO PUSH2 0x260 JUMPI PUSH2 0x25F PUSH2 0x297 JUMP JUMPDEST JUMPDEST POP SWAP2 SWAP1 POP JUMP JUMPDEST PUSH2 0x26F DUP3 PUSH2 0x309 JUMP JUMPDEST DUP2 ADD DUP2 DUP2 LT PUSH8 0xFFFFFFFFFFFFFFFF DUP3 GT OR ISZERO PUSH2 0x28E JUMPI PUSH2 0x28D PUSH2 0x2C6 JUMP JUMPDEST JUMPDEST DUP1 PUSH1 0x40 MSTORE POP POP POP JUMP JUMPDEST PUSH32 0x4E487B7100000000000000000000000000000000000000000000000000000000 PUSH1 0x0 MSTORE PUSH1 0x22 PUSH1 0x4 MSTORE PUSH1 0x24 PUSH1 0x0 REVERT JUMPDEST PUSH32 0x4E487B7100000000000000000000000000000000000000000000000000000000 PUSH1 0x0 MSTORE PUSH1 0x41 PUSH1 0x4 MSTORE PUSH1 0x24 PUSH1 0x0 REVERT JUMPDEST PUSH1 0x0 DUP1 REVERT JUMPDEST PUSH1 0x0 DUP1 REVERT JUMPDEST PUSH1 0x0 DUP1 REVERT JUMPDEST PUSH1 0x0 DUP1 REVERT JUMPDEST PUSH1 0x0 PUSH1 0x1F NOT PUSH1 0x1F DUP4 ADD AND SWAP1 POP SWAP2 SWAP1 POP JUMP JUMPDEST PUSH2 0x232 DUP1 PUSH2 0x329 PUSH1 0x0 CODECOPY PUSH1 0x0 RETURN INVALID PUSH1 0x80 PUSH1 0x40 MSTORE CALLVALUE DUP1 ISZERO PUSH2 0x10 JUMPI PUSH1 0x0 DUP1 REVERT JUMPDEST POP PUSH1 0x4 CALLDATASIZE LT PUSH2 0x2B JUMPI PUSH1 0x0 CALLDATALOAD PUSH1 0xE0 SHR DUP1 PUSH4 0x5B9FDC30 EQ PUSH2 0x30 JUMPI JUMPDEST PUSH1 0x0 DUP1 REVERT JUMPDEST PUSH2 0x38 PUSH2 0x4E JUMP JUMPDEST PUSH1 0x40 MLOAD PUSH2 0x45 SWAP2 SWAP1 PUSH2 0x119 JUMP JUMPDEST PUSH1 0x40 MLOAD DUP1 SWAP2 SUB SWAP1 RETURN JUMPDEST PUSH1 0x60 PUSH1 0x0 DUP1 SLOAD PUSH2 0x5D SWAP1 PUSH2 0x18A JUMP JUMPDEST DUP1 PUSH1 0x1F ADD PUSH1 0x20 DUP1 SWAP2 DIV MUL PUSH1 0x20 ADD PUSH1 0x40 MLOAD SWAP1 DUP2 ADD PUSH1 0x40 MSTORE DUP1 SWAP3 SWAP2 SWAP1 DUP2 DUP2 MSTORE PUSH1 0x20 ADD DUP3 DUP1 SLOAD PUSH2 0x89 SWAP1 PUSH2 0x18A JUMP JUMPDEST DUP1 ISZERO PUSH2 0xD6 JUMPI DUP1 PUSH1 0x1F LT PUSH2 0xAB JUMPI PUSH2 0x100 DUP1 DUP4 SLOAD DIV MUL DUP4 MSTORE SWAP2 PUSH1 0x20 ADD SWAP2 PUSH2 0xD6 JUMP JUMPDEST DUP3 ADD SWAP2 SWAP1 PUSH1 0x0 MSTORE PUSH1 0x20 PUSH1 0x0 KECCAK256 SWAP1 JUMPDEST DUP2 SLOAD DUP2 MSTORE SWAP1 PUSH1 0x1 ADD SWAP1 PUSH1 0x20 ADD DUP1 DUP4 GT PUSH2 0xB9 JUMPI DUP3 SWAP1 SUB PUSH1 0x1F AND DUP3 ADD SWAP2 JUMPDEST POP POP POP POP POP SWAP1 POP SWAP1 JUMP JUMPDEST PUSH1 0x0 PUSH2 0xEB DUP3 PUSH2 0x13B JUMP JUMPDEST PUSH2 0xF5 DUP2 DUP6 PUSH2 0x146 JUMP JUMPDEST SWAP4 POP PUSH2 0x105 DUP2 DUP6 PUSH1 0x20 DUP7 ADD PUSH2 0x157 JUMP JUMPDEST PUSH2 0x10E DUP2 PUSH2 0x1EB JUMP JUMPDEST DUP5 ADD SWAP2 POP POP SWAP3 SWAP2 POP POP JUMP JUMPDEST PUSH1 0x0 PUSH1 0x20 DUP3 ADD SWAP1 POP DUP2 DUP2 SUB PUSH1 0x0 DUP4 ADD MSTORE PUSH2 0x133 DUP2 DUP5 PUSH2 0xE0 JUMP JUMPDEST SWAP1 POP SWAP3 SWAP2 POP POP JUMP JUMPDEST PUSH1 0x0 DUP2 MLOAD SWAP1 POP SWAP2 SWAP1 POP JUMP JUMPDEST PUSH1 0x0 DUP3 DUP3 MSTORE PUSH1 0x20 DUP3 ADD SWAP1 POP SWAP3 SWAP2 POP POP JUMP JUMPDEST PUSH1 0x0 JUMPDEST DUP4 DUP2 LT ISZERO PUSH2 0x175 JUMPI DUP1 DUP3 ADD MLOAD DUP2 DUP5 ADD MSTORE PUSH1 0x20 DUP2 ADD SWAP1 POP PUSH2 0x15A JUMP JUMPDEST DUP4 DUP2 GT ISZERO PUSH2 0x184 JUMPI PUSH1 0x0 DUP5 DUP5 ADD MSTORE JUMPDEST POP POP POP POP JUMP JUMPDEST PUSH1 0x0 PUSH1 0x2 DUP3 DIV SWAP1 POP PUSH1 0x1 DUP3 AND DUP1 PUSH2 0x1A2 JUMPI PUSH1 0x7F DUP3 AND SWAP2 POP JUMPDEST PUSH1 0x20 DUP3 LT DUP2 EQ ISZERO PUSH2 0x1B6 JUMPI PUSH2 0x1B5 PUSH2 0x1BC JUMP JUMPDEST JUMPDEST POP SWAP2 SWAP1 POP JUMP JUMPDEST PUSH32 0x4E487B7100000000000000000000000000000000000000000000000000000000 PUSH1 0x0 MSTORE PUSH1 0x22 PUSH1 0x4 MSTORE PUSH1 0x24 PUSH1 0x0 REVERT JUMPDEST PUSH1 0x0 PUSH1 0x1F NOT PUSH1 0x1F DUP4 ADD AND SWAP1 POP SWAP2 SWAP1 POP JUMP INVALID LOG2 PUSH5 0x6970667358 0x22 SLT KECCAK256 0xC0 0xC 0xC4 PUSH14 0xA479086287C87B8B7FEA8E2043BE 0xF 0x2B 0xDC SWAP15 OR 0xD0 0xE7 MSIZE 0x4A 0x29 0xC1 PUSH28 0xA58D64736F6C63430008070033000000000000000000000000000000 "
				},
				"gasEstimates": {
					"creation": {
						"codeDepositCost": "225600",
						"executionCost": "infinite",
						"totalCost": "infinite"
					},
					"external": {
						"getSecret()": "infinite"
					}
				},
				"methodIdentifiers": {
					"getSecret()": "5b9fdc30"
				}
			},
			"storageLayout": {
				"storage": [
					{
						"astId": 3,
						"contract": "contracts/StillLearningPart2.sol:NewContract",
						"label": "owner",
						"offset": 0,
						"slot": "0",
						"type": "t_address"
					},
					{
						"astId": 50,
						"contract": "contracts/StillLearningPart2.sol:NewContract",
						"label": "secretVault",
						"offset": 0,
						"slot": "1",
						"type": "t_address"
					}
				],
				"types": {
					"t_address": {
						"encoding": "inplace",
						"label": "address",
						"numberOfBytes": "20"
					}
				}
			},
			"userdoc": {
				"kind": "user",
				"methods": {},
				"version": 1
			}
		}
	}
}